:020000040800F2
:10000000300400207D0E0008690D00086B0D00080B
:100010006D0D00086F0D0008710D00080000000054
:10002000000000000000000000000000750D000846
:10003000730D000800000000770D0008790D00081E
:100040007B0D00087D0D00087F0D0008810D000864
:10005000830D0008850D0008870D0008890D000834
:100060008B0D00088D0D00088F0D0008910D000804
:10007000930D0008950D0008970D0008990D0008D4
:100080009B0D00089D0D00089F0D0008A10D0008A4
:10009000A30D0008A50D0008A70D0008A90D000874
:1000A000AB0D0008AD0D0008AF0D0008B10D000844
:1000B000B30D0008B50D0008B70D0008B90D000814
:1000C000BB0D0008BD0D0008BF0D0008C10D0008E4
:1000D000C30D0008C50D0008C70D0008C90D0008B4
:1000E000CB0D0008CD0D0008CF0D0008FFFFFFFF6E
:1000F000DFF85803DFF858130860DFF85803DFF81B
:1001000050130860704738B5040004255FF43020B0
:1001100000F0BAF90500EDB2042D20D1DFF8380364
:10012000006850F00200DFF830130860DFF82C039D
:100130000460DFF82403006850F04000DFF8181373
:1001400008605FF4302000F09FF90500DFF8080335
:10015000006841F6FD710840DFF8FC1208602800D5
:10016000C0B232BD38B5A524042500F04FF90028EF
:1001700000D000245FF4302000F086F90500EDB2D5
:10018000042D53D1DFF8C402DFF8D4120860DFF881
:10019000C402DFF8CC120860DFF8BC02006850F03F
:1001A0002000DFF8B4120860DFF8AC02006850F0FD
:1001B0004000DFF8A41208605FF4302000F064F91A
:1001C0000500EDB2042D25D1DFF88C02006841F660
:1001D000DF710840DFF880120860DFF87C020068F9
:1001E00050F01000DFF870120860DFF87802048029
:1001F0004FF4005000F048F90500EDB2052D15D080
:10020000DFF85402006841F6EF710840DFF8481249
:1002100008600BE0EDB2052D08D0DFF83C02006865
:1002200041F6EF710840DFF8301208602800C0B2D4
:1002300032BD70B582B005000C000426002000908D
:100240004FF4005000F020F90600F6B2042E2DD134
:10025000DFF80402006850F00100DFF8FC110860CC
:100260002C804FF4005000F00FF90600F6B2042E77
:1002700013D1A81C0090200C009908804FF4005066
:1002800000F002F90600DFF8D001006841F6FE71C7
:100290000840DFF8C411086008E0DFF8BC0100681E
:1002A00041F6FE710840DFF8B01108603000C0B2BE
:1002B00076BD2DE9F0414FF6FF744FF6FF754FF60E
:1002C000FF764FF6FF775FF00408C04310F0FF01A0
:1002D0000C00C0F307210D00010CC9B20E00000E86
:1002E00007004FF4005000F0CFF880465FFA88F81E
:1002F000B8F1040F4ED1554859490860554858493E
:1003000008605548006850F0100053490860A4B2D6
:10031000FF2C06D0544804804FF4005000F0B4F88D
:1003200080465FFA88F8B8F1040F09D1ADB2FF2D0D
:1003300006D04E4805804FF4005000F0A5F88046E6
:100340005FFA88F8B8F1040F09D1B6B2FF2E06D0D3
:10035000474806804FF4005000F096F880465FFA58
:1003600088F8B8F1040F09D1BFB2FF2F06D0414879
:1003700007804FF4005000F087F880465FFA88F855
:10038000B8F1050F06D03448006841F6EF71084017
:10039000314908604046C0B2BDE8F081F8B50400BC
:1003A0000D001600042729482D49086029482C49CA
:1003B00008604FF4005000F067F80700FFB2042F08
:1003C0001AD12548006850F010002349086056F003
:1003D000F80028432043284908804FF4005000F0DB
:1003E00053F80700FFB2052F06D01B48006841F6FE
:1003F000EF710840184908603800C0B2F2BD1F48CC
:100400000068800870471E480068704700201B493C
:100410000968890701D5012000E00020C0B27047BB
:10042000042018490968C90701D501200CE01548C6
:100430000068400701D5022006E012480068C006A7
:1004400001D5032000E00420C0B2704723016745B6
:1004500004200240AB89EFCD10200240142002405E
:100460000820024000F8FF1F08F8FF1F0AF8FF1FCE
:100470000CF8FF1F0EF8FF1F02F8FF1F1C200240A0
:10048000202002400C20024038B504000425FFF76C
:10049000C7FF050003E0FFF7C3FF0500641EEDB2D0
:1004A000012D01D1002CF6D1002C00D1052528000A
:1004B000C0B232BD80B57548006875490840B0F1DA
:1004C000005F0ED173480068734908607248006885
:1004D000724908606D48006800F01EF96F480068B6
:1004E000804701BD80B56E480068B0F10060000B28
:1004F0006C49086001206B4909688840401EC04370
:1005000069490860FFF77FFF674909680840664945
:100510000968884203D001206449086002E0002095
:100520006249086001BD80B5FFF7E2FD7C206049AB
:10053000086000205F49086010E0594800685E4983
:1005400009885C4A126802FB0100FFF7DCFD5B4989
:10055000087058480068401C5649086055480068B3
:1005600053490968884203D2544800780428E4D0EB
:1005700001BD10B582B0524840685249884202D34A
:1005800050484F4948604148454908604E484F49E6
:100590000860002415E004224C48016800A800F01F
:1005A0006DF900993E480068FFF743FE4748006830
:1005B000001D464908603A480068001D3849086037
:1005C000241D374800683E49496801F1006111F572
:1005D0000051884204D2324800683D498842DAD34B
:1005E0005FF4402000F02CF913BD2DE9F8430024FE
:1005F0000025012602275FF004085FF00109FFF7DC
:1006000002FF0500284800682840274909688842F9
:1006100038D0FFF7F4FE040023480068284322493D
:100620000860FFF79FFD81461F48006810F1010F29
:1006300005D01D480068C043FFF73BFE814614F01B
:100640000700072811D0E00700D40026A00700D437
:100650000027600701D45FF00008424692B23900DB
:1006600089B2300080B2FFF799FE5FFA89F9B9F1DB
:10067000040F07D101214FF4006000F0D5F94F209D
:1006800000F0F2F9BDE8F18300000000002000084E
:100690000000FF2F04200008180000201400002094
:1006A000000000201C00002020000020240000206A
:1006B0002C00002028000020080000200A00002054
:1006C0000C000020E0FF030020000C0004000020CC
:1006D000FFFF030830BF704720BF704740BF70471F
:1006E000BFF36F8F7047BFF34F8F7047BFF35F8FBC
:1006F000704701DF7047EFF31480704780F3148870
:10070000BFF36F8F7047EFF30980704780F309885C
:100710007047EFF30880704780F30888704772B61F
:10072000704762B6704771B6704761B6704780F324
:1007300011887047EFF31280704740BA704700BAD3
:10074000704710B450F8041B81B102681218001DE4
:1007500050F8043BDC0744BFA9F10104E31852F848
:10076000044B43F8044B091FF9D1EBE710BC704769
:1007700080B50121042000F047F901214FF4805099
:1007800000F042F92020ADF8000003208DF80200AF
:1007900018208DF8030000A9DFF8F00100F06CF9D3
:1007A0008020ADF8000000A9DFF8E00100F064F956
:1007B0004020ADF8000004208DF8030000A9DFF808
:1007C000CC0100F059F91020ADF8000010208DF890
:1007D000030000A9DFF8B40100F04EF901BD00B537
:1007E00085B0FFF7C5FF1021DFF8A00100F0A8F9E0
:1007F0000020ADF800004FF48270ADF80200002038
:10080000ADF804000220ADF806000120ADF80800A4
:100810004FF40070ADF80A002020ADF80C00002065
:10082000ADF80E000720ADF8100000A9DFF8580160
:1008300000F08CF90121544800F0A8F905B000BD82
:1008400010B5040000F07DF81021504800F07BF94D
:10085000202000F05DF8200CC0B200F059F8200A0A
:10086000C0B200F055F82000C0B200F051F81021DD
:10087000464800F065F900F071F810BD70B504004D
:100880000D0016001021414800F05DF9032000F032
:100890003FF8280CC0B200F03BF8280AC0B200F0C4
:1008A00037F82800C0B200F033F804E0A52000F0CB
:1008B0002FF82070641C3000461E80B20028F5D14D
:1008C0001021324800F03CF970BDF8B50024002535
:1008D0000026002710212D4800F035F99F2000F058
:1008E00017F8A52000F014F80500A52000F010F876
:1008F0000600A52000F00CF807001021234800F0A6
:100900001FF9300250EA0540384304002000F2BDD0
:1009100010B5040002211C4800F04AF90028F9D063
:10092000E4B2210089B2184800F03EF901211648CE
:1009300000F03EF90028F9D0134800F037F9C0B2B2
:1009400010BD80B51021114800F0FDF80620FFF71A
:10095000DFFF10210D4800F0F3F801BD10B50024B1
:1009600010210A4800F0EFF80520FFF7D1FFA5207D
:10097000FFF7CEFF0400E4B2E007F8D410210348EB
:1009800000F0DEF810BD000000300140000801401A
:10099000DFF8B400006850F00100DFF8AC10086028
:1009A000DFF8A8000068DFF8A8100840DFF89C1006
:1009B0000860DFF894000068DFF898100840DFF85E
:1009C00088100860DFF88000006830F48020DFF8CD
:1009D00078100860DFF87400006830F4FE00DFF87B
:1009E0006C100860DFF86000006830F0A050DFF89D
:1009F000581008605FF47F00DFF85C10086000208A
:100A0000DFF8581008607047C9B2002905D01449B2
:100A1000096808431249086005E01149096831EA8C
:100A200000000F4908607047C9B2002905D00D4980
:100A3000096808430B49086005E00A49096831EA7A
:100A4000000008490860704700100240041002408E
:100A50000000FFF0FFFFF6FE081002402C100240DD
:100A6000181002401C100240C0B250F08000014932
:100A700008607047002C0040F0B4002200260024DB
:100A800000250023002791F803C01CF00F0C6246DC
:100A900091F803C05FEACC6C01D58B781A430B78D0
:100AA0001B0621D00368002406E0CD78482D02D132
:100AB0000125A5400561641C082C14D20125A54020
:100AC0000E882E40AE42F6D1A5000F2616FA05F785
:100AD000BB4312FA05F52B43CD78282DE5D101252E
:100AE000A5404561E7E703600B88FF2B26DD4368DF
:100AF000002420E0012514F10806B5400E882E40A0
:100B0000AE4217D1A5000F2616FA05F7BB4312FA1D
:100B100005F52B43CD78282D04D1012514F10806C5
:100B2000B5404561CD78482D04D1012514F1080662
:100B3000B5400561641C082CDCD34360F0BC7047F1
:100B400089B20161704789B24161704710B40022D7
:100B500003881A0012F441520B884C8823438C8876
:100B60002343CC8823430C8923434C8923438C891A
:100B70002343CC8923431A430280828B4FF2FF73B5
:100B80001A408283098A018210BC7047C9B20029C9
:100B900004D0018851F04001018004E001884FF643
:100BA000BF72114001807047818170478089704712
:100BB00000220089084201D0012200E0002210003A
:100BC000C0B2704780B5FFF70AFEFFF77EFE5E49B0
:100BD00088420ED108225FF440215C48FFF74EFEA8
:100BE0005A48008845F2AA51884204D0FFF762FCB7
:100BF00001E0FFF75FFC00F00FF8FFF773FC5448CB
:100C00000068012801D1FFF7F0FCFFF78CFCFFF72B
:100C1000B0FCFFF74FFCF2E700B583B00020019075
:100C200000200090FFF7B4FE4A48006850F480307E
:100C3000484908604748006810F400300090019867
:100C4000401C01900098002803D10198B0F5A06FD6
:100C5000F0D140480068800302D50120009001E0F7
:100C600000200090009801285FD13B48006850F0B8
:100C7000100039490860384800688008800036490B
:100C800008603548006850F0020033490860334876
:100C900000683249086031480068304908602F48D0
:100CA000006850F480602D4908602D4800682D4987
:100CB00008402B4908602A48006840F4843050F00E
:100CC0003400274908602348006850F080602149BB
:100CD0000860204800680001FBD52048006830F417
:100CE0007C101E4908601D48006850F410201B4904
:100CF00008601848006850F0807016490860154870
:100D000000688001FBD51548006880088000134901
:100D100008601248006850F00200104908600F484F
:100D2000006810F00C000828F9D101213C20FFF7E1
:100D30006BFE01215FF40030FFF776FE01214FF4D6
:100D40008040FFF771FE07BD1540C8000C00002071
:100D50002400002000100240002002400410024045
:100D60002C10024000F0FEFF7047FEE7FEE7FEE7B2
:100D7000FEE770477047704770477047704770478D
:100D800070477047704770477047704770477047AB
:100D9000704770477047704770477047704770479B
:100DA000704770477047704770477047704770478B
:100DB000704770477047704770477047704770477B
:100DC000704770477047704770477047704770476B
:100DD00010B5074979441831064C7C44163404E0B8
:100DE0000A68081D511888470146A142F8D110BD74
:100DF0002C0000004C00000050F8041B61B150F8BA
:100E0000042BD30744BFA9F101039A18002342F829
:100E1000043B091FFAD1EFE770470000DDFFFFFF39
:100E2000240000000C0000200000000017F9FFFF64
:100E30000C00000054000000000000200000000032
:100E400000F00BF8002801D0FFF7C2FF0020C046D9
:100E5000C046FFF7B7FE00F002F80120704700F02F
:100E600001B800000746384600F002F8FBE7000032
:100E700001491820ABBEFBE726000200C046C04671
:100E8000C046C046FFF7DCFF0020000800000C0051
:100E900000080400FFFFFFFFFFFFFFFFFFFFFFFF52
:100EA000FFFFFFFFFFFFFFFFFFFFFFFFFFFFFFFF52
:100EB000FFFFFFFFFFFFFFFFFFFFFFFFFFFFFFFF42
:100EC000FFFFFFFFFFFFFFFFFFFFFFFFFFFFFFFF32
:100ED000FFFFFFFFFFFFFFFFFFFFFFFFFFFFFFFF22
:10200000888C00203D050108D9F20008DBF20008A9
:10201000E5F20008EFF20008F9F200080000000005
:102020000000000000000000000000004B900008CD
:1020300003F3000800000000019000089FC00008A2
:102040009D060108A1060108A506010893F40008F1
:10205000A9060108AD060108B106010805F300084C
:10206000B5060108B9060108BD060108C106010848
:10207000C5060108C9060108CD060108D1060108F8
:10208000D5060108D9060108DD0601080000000098
:1020900000000000000000000000000025F3000820
:1020A000E1060108E5060108E9060108ED06010858
:1020B000F1060108F5060108F9060108FD06010808
:1020C0000107010805070108090701080D070108B4
:1020D000F9F3000841F300086FF300089DF30008CE
:1020E0001107010829F40008150701080000000085
:1020F00000000000000000000000000000000000E0
:102100000000000000000000190701081D07010879
:10211000CBF300082107010825070108290701085A
:102120002D070108310701083507010839070108A3
:102130003D070108410701084507010800000000AC
:102140000000000000000000000000004907010836
:1021500080B500F061FE0020DFF8B01B81F846007A
:10216000012001F060FE0020DFF8A01B4871002074
:10217000DFF8981B81F8440001BD80B501220121E0
:10218000DFF8380A02F00DFA01224FF40071DFF88F
:10219000300A02F006FA40F24C4002F0FBFC00224A
:1021A0004FF40071DFF8180A02F0FBF90120DFF8A4
:1021B000581C087001BDDFF8500C0078704780B5DE
:1021C0000020DFF84C1B81F867000120DFF83C1B82
:1021D00081F8460001224FF40071DFF8E40902F0B3
:1021E000E0F94FF4487002F0D5FC00224FF4007182
:1021F000DFF8CC0902F0D5F940F6B83002F0CAFC9D
:1022000000220121DFF8B40902F0CBF901BD80B54D
:1022100002F00EFE00F000FE01BD000010B5DFF878
:10222000F40A0078352801DB00F0D8FDDFF8E40A75
:102230000078002819D101223421DFF8DC0A03F0EC
:1022400068FA040001F0E0FA022806D10C2C04D050
:102250000C20DFF8C01A087007E0601E332803D294
:10226000DFF8B00A047000E000BFDFF8A80A0078C9
:1022700000281DD0DFF89C0A0078342818DADFF82F
:10228000A40C0078002803D002280AD006D30BE063
:10229000DFF8800A007800F095FC09E000F017FDF7
:1022A00006E000F03BFD03E00020DFF8781C08703A
:1022B00010BD80B503E09DF8000000F032F800A8E2
:1022C00001F035FA10F1010FF5D101BDDFF8580C1E
:1022D0007047DFF8580C7047DFF8300A0079704714
:1022E00080B5C0B201F018FA01BDDFF8B41B09884F
:1022F000DFF81C2B8854DFF8A80B0088401CDFF89F
:10230000A01B0880DFF8980B008840F2DB51884260
:1023100005DB0020DFF8881B0880012000E000209A
:10232000704710B50400DFF8EC0A0078002805D0EB
:1023300002282FD022D3032869D078E00020DFF8CC
:10234000601B088040F2DC520021DFF8C40A03F071
:1023500011FAE4B20D2C04D10120DFF8B81A08708C
:102360000BE02000C0B2FFF7C0FF0220DFF8A41A84
:1023700008700120DFF8441D086060E0E4B20A2C18
:1023800007D10220DFF88C1A08700120DFF82C1D1D
:10239000086054E0E4B20D2C0DD1DFF8200D006888
:1023A000002808D00320DFF86C1A08700020DFF83E
:1023B0000C1D08602AE001F027FA012822D1DFF87D
:1023C000E00A0088DFF8481A401810F8010C3E288F
:1023D00013D1E4B2202C10D10020DFF8381A087095
:1023E000022001F0FDF90120DFF84C1B08700022EB
:1023F00000210C20FFF774FF08E02000C0B2FFF7B7
:1024000074FF03E02000C0B2FFF76FFF17E0E4B2F3
:102410000A2C0BD10020DFF8FC190870DFF8800AC5
:102420000188C9B2DFF8E80900F00AF807E00020E7
:10243000DFF8E01908700020DFF8801C086010BD8C
:1024400070B504000025C9B2200000F092F9002800
:1024500040F08E81DFF8BC08007816283BD1DFF809
:10246000DC0A006803F090F90200DFF8D00A016886
:10247000200003F0A4F900280DD0DFF8C40A00689A
:1024800003F082F90200DFF8B80A0168200003F0C7
:1024900096F9002808D10120DFF89C1A0870012560
:1024A000082001F065F952E1DFF8A00B006803F0A5
:1024B0006BF90200DFF8940B0168200003F07FF94C
:1024C000002840F044810120DFF86C1A08700125D3
:1024D000FFF79DFE3BE1DFF86C0A006803F054F95A
:1024E0000200DFF8600A0168200003F068F90028A4
:1024F00005D10320DFF8401A0870012527E1DFF835
:10250000500B006803F040F90200DFF8440B01684B
:10251000200003F054F9002811D10120DFF8181A27
:1025200008700125062001F023F9FFF770FE002056
:1025300001F056F9DFF81C0B03F056F907E1DFF85C
:10254000180B006803F020F90200DFF80C0B01689B
:10255000200003F034F9002813D10120DFF8D81946
:1025600008700125DFF8A40790F84600012804D080
:10257000002001F0FDF8FFF74AFE002001F030F9DD
:10258000E5E0DFF8400B006803F0FEF80200DFF83A
:10259000340B0168200003F012F900280ED101204D
:1025A000DFF8941908700125002001F0E1F8FFF729
:1025B0002EFEDFF8140B03F017F9C8E0DFF80C0B60
:1025C000006803F0E1F80200DFF8000B016820006A
:1025D00003F0F5F8002827D10220DFF85C19087015
:1025E0000125DFF8EC0A03F0FFF8DFF82807007890
:1025F000282804D0DFF81C070078242804D1002004
:10260000DFF834190870A2E0DFF8C80A007815284E
:10261000C0F29D80002001F0ABF8FFF7F8FD00202C
:10262000DFF8B01A087092E0DFF8AC0A006803F037
:10263000ABF80200DFF8A00A0168200003F0BFF841
:10264000002804D1DFF8940A03F0CEF87FE0DFF829
:10265000900A006803F098F80200DFF8840A016825
:10266000200003F0ACF8002805D10120DFF8C818DD
:10267000087001256BE0DFF8D409006803F084F8E6
:102680000200DFF8C8090168200003F098F800286C
:1026900005D10120DFF8A0180870012557E0DFF808
:1026A000440A006803F070F80200DFF8380A016895
:1026B000200003F084F800280CD10120DFF87818FE
:1026C0000870012501F072F8022840D1032001F0C2
:1026D0004FF83CE0DFF83C0600782E2805D10120B9
:1026E000DFF854180870012531E0DFF8280600787B
:1026F000DFF8881D0870200003F046F8DFF87C1D25
:1027000091F86510D1F16401814206D2DFF86C0DB9
:1027100090F86500D0F1640603E0200003F034F87F
:102720000600B6B232002100DFF8500D90F86500C7
:10273000DFF8483DC018401C03F068F8DFF83C0D96
:1027400090F865003018DFF8341D81F86500012D20
:102750000ED1DFF8C0050078DFF8201D08702000DA
:1027600003F012F8DFF8141D81F8650000F0CFF9CE
:1027700070BDF8B504000D000026012744E0FFB24B
:102780001420DFF8B01700FB0710401C02F0FCFF1C
:102790000200FFB21420DFF89C1700FB0710411C59
:1027A000DFF86C0603F00BF800282CD1FFB2002FE5
:1027B00027D0FFB2112F24DAFFB21420DFF87417EC
:1027C00000FB0710C06800280AD02900C9B2200009
:1027D000FFB21422DFF85C3702FB0732D268904761
:1027E000FFB21420DFF84C1700FB07100069002827
:1027F00007D0FFB21420DFF83C1700FB0710006978
:102800008047112701267F1CFFB2112FB7DB300054
:10281000F2BD7047C9B2092907DB007A312804D11B
:102820000120DFF8E814086003E00020DFF8DC1482
:10283000086070470021C279303A0A2A07D28179AC
:102840000A22C07902FB0100B0F1100102E0807998
:10285000B0F13001C9B2202904DB1F20DFF8AC142D
:1028600008710AE0C9B2202903DADFF8A004017177
:1028700003E00020DFF8941408717047002100F293
:102880000D0206E00A20137800FB0130B0F13001A0
:10289000521C10780D280BD010782C2808D01078F6
:1028A0003028EFDA10783A28ECDB002006E0521CE2
:1028B00010780A28FBD1521C080080B2704710B56E
:1028C00004000020E17A30390800C0B2012802D0AB
:1028D00002280CD042E0022000F06DFFDFF8A00BD0
:1028E00002F082FF0120DFF89C1B087036E040F206
:1028F000DC520021DFF8380602F03CFF2000FFF731
:10290000BDFF40F2DD51884202DB40F2DC5002E0C4
:102910002000FFF7B3FFDFF8F41408800020DFF891
:10292000641B0870DFF8E4040088002815D0DFF885
:10293000DC040188DFF8900B02F056FFDFF88C0B07
:102940000078002803D10120DFF8801B0870DFF831
:10295000BC04008800F033FFFFE7FFE710BD80B53F
:102960000021007A30380100C9B201290CD100F0F1
:102970001DFF052802D1062000F0FAFE0120DFF835
:10298000901381F86C0007E0C9B2002904D100203F
:10299000DFF87C1381F86C0001BD7047704780B58B
:1029A0000322C11DDFF8280B006802F008FF002891
:1029B0000BD100F0FBFE032802D1042000F0D8FE6A
:1029C0000120D34981F86B0007E0DFF8080B02F023
:1029D0000BFF0020CE4981F86B0001BD10B500242B
:1029E000007B30380400E4B2002C0ED0002200211D
:1029F0002C20FFF775FCDFF8E00A0470DFF8DC0D2F
:102A00000078401CDFF8D41D087010BD80B500218F
:102A1000407A30380100C9B2012907D0C9B205296E
:102A200004D0C9B2DFF8DC0D02F0DEFE01BD704754
:102A300080B5417A2D2912D1817A3039C27A2E2A75
:102A400007D0C27A0A2A04D00A225143C07A303809
:102A50004118C9B24842AD4981F845000FE0417ABA
:102A60003039827A2E2A07D0827A0A2A04D00A22A2
:102A70005143807A30384118A44880F84510A34863
:102A800090F94510DFF8C80D02F0AEFE01BD7047A9
:102A90007047704770472DE9F041040088460026D2
:102AA000002500270322CCA1200002F088FE002888
:102AB0002BD1002600E0761CF6B25FFA88F8B8F158
:102AC0000100864204DAF6B2305D3A28F3D13500CF
:102AD000032607E00A20F6B2315D00FB0710B0F1D3
:102AE0003007761CF6B2EDB2AE4204D2F6B2305DDB
:102AF00030380A28EED3BFB2002F06D0390089B291
:102B0000EDB22819401C00F087FEBDE8F08180B5C9
:102B1000002000E0401CC0B2082818D2DFF85C1981
:102B20000978C0B2DFF89C2D12F830209142F1D123
:102B3000C0B2DFF8901D11EBC0014968002906D032
:102B4000C0B2DFF8801D11EBC0004068804701BDB6
:102B500080B500F02BFE062802D1072000F008FE09
:102B600001BD704780B500F021FE012802D102208E
:102B700000F0FEFD01BD704780B5DFF80009407828
:102B800030380A2806D20F22DFF81C1CDFF8980321
:102B900002F072FE01BD80B50F22DFF80C1CE34885
:102BA00002F06AFE01BD704780B52022DFF8F81BF5
:102BB000DFF8140D02F060FE01BD0000000C0140C2
:102BC0000010014010B50400E4B26001DFF8401CC1
:102BD000405CDFF8401C08700020DFF8A018087087
:102BE0000020DFF8981881F8650064220021DFF8E2
:102BF000B80B02F0BFFDE4B2DFF8140C10EB441088
:102C00004069002817D0E4B2DFF8040C10EB441040
:102C1000C06900280FD02000C0B200F043F9E4B230
:102C2000DFF8EC0B10EB4410007D000703D520000B
:102C3000C0B200F042FBDFF87C0D008840F2E731C3
:102C4000884204DB40F2E630DFF8681D08800D2082
:102C5000DFF8601D0988DFF8602D8854DFF8540D17
:102C60000088401CDFF84C1D08800A20DFF8441D56
:102C70000988DFF8442D8854DFF8380D0088401C9F
:102C8000DFF8301D0880DFF82C0D0188DFF8280DF3
:102C900000F05BFDE4B2DFF8780B10EB44108069C4
:102CA000DFF8E81B086002F07AFFDFF8E01B096834
:102CB0000818DFF8181C0860DFF8140C0078401CB6
:102CC000DFF80C1C087002209649087010BD80B512
:102CD00000209949087002F062FFDFF8B01B096814
:102CE0000818DFF8E81B086002208E490870DFF83A
:102CF000E00B0078401CDFF8D81B0870DFF8B40C3C
:102D00000188DFF8B40C00F020FD01BD0C84002028
:102D1000A0800020488800201487002080B502F0A1
:102D20003EFFDFF8A81B0968814203D38248007880
:102D300002283DD1DFF89C0B00780C2802D100F06E
:102D40004DF847E0DFF8880B0078DFF8C81A0978FB
:102D5000884203D20120734908703BE0764800782E
:102D6000002811D1DFF86C0B0078DFF8A41A11EB02
:102D70004010007DC00607D5002000F0F9FC00F0EF
:102D80002DF8FFF744FA25E06B48007800280CD1B5
:102D9000DFF8400B0078DFF8781A11EB4010007D67
:102DA000C00702D400F01AF814E000F017F811E0A0
:102DB000DFF8200B00780C2806D100F025FD022852
:102DC00008D100F00BF805E05B480078012801D13C
:102DD00000F004F801BD00004950440000205649AD
:102DE000087000204F49087000200A490870002030
:102DF000DFF8E01A08700020DFF8D41A087000200D
:102E0000DFF8B81B086070474C8800202A88002033
:102E1000005000204788002080B5002046490870F7
:102E20000020404908700020DFF8A81A0870002030
:102E3000DFF89C1A08700020A04908600020DFF825
:102E4000801B087007220021DFF8780B02F092FC4B
:102E50004FF47A720021DFF8600B02F08BFC002047
:102E6000DFF8641B81F86B000020DFF85C1B81F841
:102E70006C000020DFF8541B08700020DFF84C1BAA
:102E800048704FF496720021DFF8440B02F072FC98
:102E90000020DFF8EC1C0860002000F0A1FC01BD60
:102EA0002888002038B50400E4B2DFF8640910EB8C
:102EB0004410401C02F068FC0500EDB22A00E4B2A8
:102EC000DFF84C0910EB4410411CDFF8EC0A02F06B
:102ED0009DFCEDB2DFF8DC0A058031BD80B5DFF87E
:102EE000EC0A027876A1DFF8880C0088DFF8C83A8F
:102EF000C01803F017F9DFF8781C0988C0B2401831
:102F0000DFF86C1C08800D20DFF8641C0988DFF8EE
:102F1000A82A8854DFF8580C0088401CDFF8501CA1
:102F2000088001BD468800203284002041840020B2
:102F3000DC550020000000204988002058030020B4
:102F4000600300205403002010B5DFF8280C00783F
:102F500001282CD1DFF8200C4488DFF8580A0088BB
:102F6000A4B22018B0F5797F6CDCA4B22200DFF89F
:102F70000C1CDFF8400A0088DFF83C3AC01802F069
:102F80007BFCDFF8300A00882018DFF8281A088058
:102F90001A20DFF8201A0988DFF81C2A8854DFF885
:102FA000140A0088401CDFF80C1A08804AE0DFF899
:102FB000C80B0488DFF8FC090088A4B22018B0F51B
:102FC000797F21DCA4B22200DFF8B81BDFF8E40926
:102FD0000088DFF8E439C01802F04EFCDFF8D409AD
:102FE00000882018DFF8CC1908801A20DFF8C419EF
:102FF0000988DFF8C4298854DFF8B8090088401C24
:10300000DFF8B01908801DE0DFF8A809008840F259
:10301000E631884204DB40F2E530DFF89819088099
:103020001B20DFF890190988DFF88C298854DFF815
:1030300084090088401CDFF87C190880DFF8480B01
:1030400002F0D2FB002000F0CBFB10BD6403002097
:10305000780300202C0401087C03002080B5222086
:10306000DFF80C1B0988DFF850298854DFF8000BC3
:103070000088401CDFF8F81A08800522DFF80C1BD6
:10308000DFF8EC0A0088DFF83039C01802F0BEFB28
:10309000DFF8DC0A0088401DDFF8D41A08802220FF
:1030A000DFF8CC1A0988DFF810298854DFF8C00A45
:1030B0000088401CDFF8B81A088001BD5487002042
:1030C00025640000680300209C04010880030020A0
:1030D000AC0401085188002070030020700501082D
:1030E0006C0300205C03002010B504227AA1DFF8F5
:1030F000A00A02F08BFB0F22DFF8981ADFF8980A7B
:1031000002F084FB00F0A6FB2220DFF8641A098895
:10311000DFF8A4288854DFF8580A0088401CDFF83C
:10312000501A0880DFF8680A02F02EFB0400E4B2AF
:103130002200DFF85C1ADFF8380A0088DFF87838F8
:10314000C01802F063FBDFF8280A0088E4B22018F8
:10315000DFF81C1A08802220DFF8141A0988DFF82B
:1031600058288854DFF8080A0088401CDFF8001A45
:1031700008802C20DFF8F8190988DFF83C288854EB
:10318000DFF8EC090088401CDFF8E41908802220F1
:10319000DFF8DC190988DFF820288854DFF8D00927
:1031A0000088401CDFF8C8190880DFF8EC0902F03D
:1031B000EBFA0400E4B22200DFF8DC19DFF8B00912
:1031C0000088DFF8F437C01802F020FBDFF8A00910
:1031D0000088E4B22018DFF8981908802220DFF870
:1031E00090190988DFF8D0278854DFF8840900880F
:1031F000401CDFF87C1908802C20DFF8741909883E
:10320000DFF8B4278854DFF868090088401CDFF82D
:10321000601908802220DFF858190988DFF89827FC
:103220008854DFF84C090088401CDFF844190880F6
:10323000DFF8680902F0A8FA0400E4B22200DFF81F
:103240005C19DFF82C090088DFF86C37C01802F031
:10325000DDFADFF81C090088E4B22018DFF8101945
:1032600008802220DFF808190988DFF84C278854E5
:10327000DFF8FC080088401CDFF8F418088010BD57
:1032800010B500240222DFF8F018DFF828070088C4
:10329000DFF82437C01802F05FFF0400DFF81407DE
:1032A00000882018DFF80C1708800020DFF8C41809
:1032B0000870012000F094FA10BD80B5C0B2DFF8AC
:1032C000E01851F82010002905D0C0B2DFF8D0185E
:1032D00051F82000804701BD5443500070477047AB
:1032E0007047704710B5042276A1DFF8A40802F0F9
:1032F0008DFA0F22DFF89C18DFF89C0802F086FA9E
:1033000000F0A8FA2220DFF868180988DFF8A8265C
:103310008854DFF85C080088401CDFF854180880E7
:10332000DFF86C0802F030FA0400E4B22200DFF8A3
:103330006018DFF83C080088DFF87C36C01802F01F
:1033400065FADFF82C080088E4B22018DFF82018AE
:1033500008802220DFF818180988DFF85C268854D6
:10336000DFF80C080088401CDFF8041808802C20C7
:10337000DFF8FC170988DFF840268854DFF8F007EB
:103380000088401CDFF8E81708802220DFF8E017EB
:103390000988DFF824268854DFF8D4070088401C09
:1033A000DFF8CC170880DFF8F00702F0EDF9040031
:1033B000E4B22200DFF8E017DFF8B4070088DFF896
:1033C000F835C01802F022FADFF8A4070088E4B24A
:1033D0002018DFF89C1708802220DFF8941709884E
:1033E000DFF8D4258854DFF888070088401CDFF810
:1033F000801708802C20DFF878170988DFF8B825B7
:103400008854DFF86C070088401CDFF864170880D8
:103410002220DFF85C170988DFF89C258854DFF844
:1034200050070088401CDFF848170880DFF86C0759
:1034300002F0AAF90400E4B22200DFF86017DFF816
:1034400030070088DFF87035C01802F0DFF9DFF8C8
:1034500020070088E4B22018DFF814170880222023
:10346000DFF80C170988DFF850258854DFF80007CB
:103470000088401CDFF8F816088010BD8C82002000
:10348000EC0201084D88002010B500240222DFF86C
:10349000E816DFF820050088DFF81C35C01802F0B8
:1034A0005BFE0400DFF80C0500882018DFF8041527
:1034B00008800020DFF8BC160870012000F090F9A9
:1034C00010BD000054435000340101084F88002013
:1034D00074030020040301084B880020704710B5D6
:1034E0002220DFF88C160988DFF8CC248854DFF816
:1034F00080060088401CDFF878160880DFF8A406F4
:1035000002F042F9421EDFF89C16DFF864060088DC
:10351000DFF8A434C01802F079F9DFF85406048803
:10352000DFF8800602F030F9401E0019DFF840167F
:1035300008802220DFF838160988DFF87C248854B8
:10354000DFF82C060088401CDFF8241608802C20A9
:10355000DFF81C160988DFF860248854DFF81006AD
:103560000088401CDFF8081608802220DFF80016CB
:103570000988DFF844248854DFF8F4050088401CEB
:10358000DFF8EC150880DFF8200602F0FDF8421E97
:10359000DFF81416DFF8D8050088DFF81C34C018EF
:1035A00002F034F9DFF8C8050488DFF8FC0502F002
:1035B000EBF8401E0019DFF8B81508802220DFF86C
:1035C000B0150988DFF8F0238854DFF8A4050088D7
:1035D000401CDFF89C1508802C20DFF89415098822
:1035E000DFF8D4238854DFF888050088401CDFF812
:1035F000801508802220DFF878150988DFF8B823C5
:103600008854DFF86C050088401CDFF864150880DA
:10361000DFF8980502F0B8F8421EDFF89015DFF8E1
:1036200050050088DFF89033C01802F0EFF8DFF89B
:1036300040050488DFF8740502F0A6F8401E001962
:10364000DFF82C1508802220DFF824150988DA4AD3
:103650008854DFF81C050088401CDFF8141508802A
:1036600010BD03203121DFF808251288D24BD15438
:103670002C21DFF8FC241288CF4BD1543221DFF803
:10368000F0241288CC4BD154DFF8E4140988C0B27E
:103690004018DFF8DC1408807047DFF81405007864
:1036A000092810DADFF8080500783030DFF8C01498
:1036B0000988C14A8854DFF8B8040088401CDFF844
:1036C000B014088027E0DFF8E80400780A2190FBB6
:1036D000F1F03030DFF898140988B74A8854DFF8E1
:1036E00090040088401CDFF888140880DFF8C004CC
:1036F00000780A2190FBF1F201FB12003030DFF874
:1037000070140988AC4A8854DFF864040088401CAF
:10371000DFF85C140880704780B501210091012317
:103720003422C0B20100A74801F0BCFF01BD10B5B2
:1037300004002100012000F066FC002801D0207860
:1037400001E05FF0FF3000B210BDF8B504000D00DD
:103750000026002705E0BFB2395D012000F0AFFC74
:103760007F1CBFB2ADB2AF42F5D33000C0B2F2BDE4
:10377000DFF8401491F84410C0B2814212D0C0B2B8
:103780000A2803DADFF82C1481F84400C0B20828B4
:1037900004DB0120DFF81C14086003E00020DFF8E0
:1037A00014140860704700008D820020DFF80404C4
:1037B00090F844007047844981F86A00704780B2ED
:1037C00040F2DD51884205DB40F2DC50DFF8E813BF
:1037D000088002E0DFF8E01308807047528800207C
:1037E00080B5DFF89C134871DFF894034079002816
:1037F00007D002F0D4F900F598508830DFF8BC13F8
:10380000086001BD1C030108DFF8A8034079704778
:1038100058EA00089803002080B589B2002905D035
:1038200089B202F00EFD0020FFF7DAFF002002BD92
:10383000DFF8800390F84400042801DB012000E059
:103840000020704701207047DFF87403007870474C
:103850005001010810B58CB000240622002100A8F8
:1038600001F088FF02A803F042FE02220DF10D01D3
:1038700000A802F071FC0400641CE4B2220000A95C
:10388000DFF8180301F0C2FF0CB010BD5003002098
:1038900080B5DFF8EC0290F8460001280FD14FF414
:1038A0000061DFF8200300F06BFE002805D1DFF88F
:1038B000180301F099FF002002E0012000E0012040
:1038C00002BD000038FC0008128400205087002050
:1038D0004A8800204888002070B4002805D001786C
:1038E000322902D14178302901D000205FE081786F
:1038F0000A22C37802FB01311039C9B2042291FBBC
:10390000F2F303FB1213002B0CD042790A238479C3
:1039100003FB0242DFF8B43213EB4202A2F222426E
:1039200012880BE042790A23847903FB0242DFF814
:103930009C3213EB4202A2F20A421288037A0A2452
:10394000457A04FB035340F211241B1B9A18C9B299
:1039500040F26D130C00E4B2641E042594FBF5F4F0
:10396000641C03FB014192B25118DFF864225143F9
:10397000C27A0A23047B03FB0242B2F504724FF4BD
:103980006163847B0A25C67B05FB0464B4F504747B
:103990003C256C4303FB0242437C0A24807C04FBED
:1039A0000300B0F504708018081810F5E14070BCF1
:1039B0007047000024880020386B002054870020C6
:1039C0004788002014870020A0800020A47D0020CC
:1039D000A67D0020F0B58DB002A803F0D8FE9DF8BA
:1039E0000800012840F0B7807A480078002852D1BA
:1039F0009DF809004FF47A719DF80A2064235A4318
:103A000001FB00209DF80B100A2202FB01009DF82B
:103A10000C10081800F53C50B0309DF80E100A222A
:103A20009DF80F3002FB013110399DF811200A2357
:103A30009DF8124003FB0242103A9DF814300A240C
:103A40009DF8155004FB0353103B9DF817400A25C1
:103A50009DF8186005FB0464103C9DF81A500A2676
:103A60009DF81B7006FB0575103DEDB20195E4B2A3
:103A70000094DBB2D2B2C9B280B205F045F804F0CE
:103A800004FF554908605448006801F0E7FD012033
:103A9000504908705AE050480068002856D004F099
:103AA000F4FE4D490968401AB0F5167F4ED99DF8CD
:103AB00009004FF47A719DF80A2064235A4301FBF0
:103AC00000209DF80B100A2202FB01009DF80C104B
:103AD000081800F53C50B0309DF80E100A229DF8F1
:103AE0000F3002FB013110399DF811200A239DF897
:103AF000124003FB0242103A9DF814300A249DF84C
:103B0000155004FB0353103B9DF817400A259DF800
:103B1000186005FB0464103C9DF81A500A269DF8B5
:103B20001B7006FB0575103DEDB20195E4B20094E3
:103B3000DBB2D2B2C9B280B204F0E6FF04F0A5FE57
:103B4000254908602448006801F088FD0DF109004E
:103B5000FFF7C2FE09E008A805F063F8002803D1CA
:103B600008A8FFF7B9FE00E000200DB0F0BD00008E
:103B7000248800204E88002048670020346B0020F5
:103B80000C8400204C6700205CFE00082806010819
:103B9000DD800020BC040108E1800020FF800020BF
:103BA00018F80008A1800020B5800020C9800020FE
:103BB0004B8800200C840020268800205C87002091
:103BC0004F8800200008014034030108ACFC0008C5
:103BD00080510100508800205887002000B585B032
:103BE000C0B2002807D0022800F08F8049D30328F4
:103BF00000F0D18015E14FF48060ADF800000420A2
:103C00008DF8030000A9DFF8700800F055FC4FF4B0
:103C10000070ADF8000001208DF8020018208DF82A
:103C2000030000A9DFF8500800F046FC5FF4E13023
:103C300001900020ADF808000020ADF80A00002037
:103C4000ADF80C000020ADF810000C20ADF80E000F
:103C500001A9DFF8280805F0F7F8012240F2255104
:103C6000DFF8180805F060F9002240F22661DFF85D
:103C70000C0805F059F90121DFF8000805F046F9B4
:103C8000CFE00820ADF8000004208DF8030000A963
:103C9000DFF8E40700F010FC0420ADF8000001207C
:103CA0008DF8020018208DF8030000A9DFF8C8077E
:103CB00000F002FC5FF4E13001900020ADF8080054
:103CC0000020ADF80A000020ADF80C000020ADF88F
:103CD00010000C20ADF80E0001A9DFF8A40705F0D4
:103CE000B3F8012240F22551DFF8940705F01CF9E2
:103CF000002240F22661DFF8880705F015F901215E
:103D0000DFF87C0705F002F98BE04FF40060ADF8B6
:103D1000000004208DF8030000A9DFF8680700F018
:103D2000CBFB4FF48060ADF8000001208DF802005D
:103D300018208DF8030000A9DFF8480700F0BCFB4D
:103D40004FF4165001900020ADF808000020ADF8A7
:103D50000A000020ADF80C000020ADF810000C2087
:103D6000ADF80E0001A9DFF8200705F06DF801227B
:103D700040F22551DFF8100705F0D6F8002240F296
:103D80002661DFF8040705F0CFF80121DFF8F80617
:103D900005F0BCF845E04FF48060ADF8000001206C
:103DA0008DF802001C208DF8030000A9DFF8DC0666
:103DB00000F082FB4FF40060ADF8000004208DF8A5
:103DC000030000A9DFF8C40600F076FB42F6A0006D
:103DD00001900020ADF808000020ADF80A00002096
:103DE000ADF80C000020ADF810000C20ADF80E006E
:103DF00001A9DFF89C0605F027F8012240F22551C1
:103E0000DFF88C0605F090F8002240F22661DFF81A
:103E1000800605F089F80121DFF8740605F076F8D0
:103E2000FFE705B000BD80B5C0B2042880F2EA808B
:103E30000021C0B21C22DFF85C3602FB0032918008
:103E40000021C0B21C22DFF84C3602FB0032118088
:103E50000021C0B21C22DFF83C3602FB0032518048
:103E60000021C0B21C22DFF82C3602FB0032118286
:103E70000021C0B21C22DFF81C3602FB0032918107
:103E80000021C0B21C22DFF80C3602FB0032D181C7
:103E90000021C0B21C22DFF8FC3502FB0032916128
:103EA000C0B2002806D0022858D02ED3032800F034
:103EB0008080A7E0DFF8E015C0B21C22DFF8D4351F
:103EC00002FB0032916040F2DC51C0B21C22DFF8EC
:103ED000C43502FB0032D180DFF8C015C0B21C220D
:103EE000DFF8B03502FB003251614FF47A71C0B295
:103EF0001C22DFF8A03502FB00325182C0B200F074
:103F000071FA0020FFF76AFE7CE0DFF89415C0B27A
:103F10001C22DFF8803502FB003291600A21C0B21A
:103F20001C22DFF8703502FB0032D180DFF87415F7
:103F3000C0B21C22DFF85C3502FB003251610A215D
:103F4000C0B21C22DFF84C3502FB00325182C0B2F5
:103F500000F048FA0120FFF741FE53E0DFF8481572
:103F6000C0B21C22DFF82C3502FB003291604FF406
:103F70001671C0B21C22DFF81C3502FB0032D18062
:103F8000DFF82815C0B21C22DFF8083502FB00322A
:103F9000516140F2B451C0B21C22DFF8F83402FB88
:103FA00000325182C0B200F01DFA0220FFF716FE67
:103FB00028E0DFF8FC14C0B21C22DFF8D83402FB82
:103FC000003291601421C0B21C22DFF8C83402FB19
:103FD0000032D180DFF8DC14C0B21C22DFF8B43428
:103FE00002FB003251611421C0B21C22DFF8A4345C
:103FF00002FB00325182C0B200F0F4F90320FFF757
:10400000EDFDFFE701BD70B504000D000026E4B230
:10401000042C01DB002051E0002D01D100204DE0F7
:1040200005F009F8E4B21C20DFF8681400FB041066
:104030000088E4B21C21DFF85C2401FB04214988DC
:10404000884237D0E4B21C20DFF8481400FB04108B
:104050004088401CE4B21C21DFF8382401FB042115
:104060004880E4B21C20DFF82C1400FB04104088C8
:10407000E4B21C21DFF81C2401FB0421C98888421A
:1040800007D30020E4B21C21DFF8082401FB04213F
:104090004880E4B21C20DFF8FC1300FB04104088C9
:1040A000E4B21C21DFF8EC2301FB04218968405CA9
:1040B00028700126002004F0C5FF300070BD70B5E7
:1040C00004000D000026E4B2042C01DB002098E07F
:1040D00004F0B1FFE4B21C20DFF8B81300FB0410B9
:1040E000008AE4B21C21DFF8AC2301FB0421498AD9
:1040F000884245D2E4B21C20DFF8981300FB04107C
:10410000008A401CE4B21C21DFF8882301FB042153
:104110000882E4B21C20DFF87C1300FB04108089C5
:10412000401CE4B21C21DFF86C2301FB04218881D0
:10413000E4B21C20DFF85C1300FB04108089E4B2B9
:104140001C21DFF8502301FB0421498A884207D350
:104150000020E4B21C21DFF83C2301FB042188810C
:10416000E4B21C20DFF82C1300FB04108089E4B2B9
:104170001C21DFF8202301FB042149694554012655
:10418000E4B21C20DFF80C1300FB04108069002847
:1041900033D12000C0B200F035F80120E4B21C2178
:1041A000DFF8F02201FB04218861E4B2002C05D085
:1041B000022C13D00AD3032C18D01EE0012240F2A7
:1041C0002661DFF8B80204F0AFFE16E0012240F2EB
:1041D0002661DFF8AC0204F0A7FE0EE0012240F2F7
:1041E0002661DFF8A40204F09FFE06E0012240F2FF
:1041F0002661DFF89C0204F097FE002004F022FF05
:10420000300070BD10B5C0B2002805D0022848D0DB
:1042100045D3032847D048E0984AC0B21C21DFF8B4
:10422000743201FB0031098A491EC0B21C23994C2B
:1042300003FB00431982C0B21C21964B01FB0031E5
:10424000C989491CC0B21C23924C03FB0043D9818D
:10425000C0B21C218F4B01FB0031C989C0B21C23A5
:104260008C4C03FB00435B8A994206D30021C0B209
:104270001C23884C03FB0043D981C0B21C21854B11
:1042800001FB0031C989C0B21C23824C03FB0040F2
:104290004069095C89B2100004F06FFE10BD784AD5
:1042A000BBE7794AB9E77A4AB7E7F7E710B5010003
:1042B000C9B2002905D0022919D016D3032918D074
:1042C00019E06E48C9B21C22724B02FB013292897E
:1042D000C9B21C236F4C03FB0143DB899A420BD00C
:1042E0000800C0B2FFF78EFF12E06548EAE76648B3
:1042F000E8E76748E6E70BE00022C9B21C23654CFB
:1043000003FB01418A61002240F2266104F00CFEA9
:1043100010BD000081B0C0B2042861DAC0B200282C
:1043200005D0022807D004D3032806D007E053495C
:1043300005E0534903E0544901E05549FFE70A8885
:104340008DF8002089888DF801109DF80010032257
:10435000114241D1C0B21C214E4A01FB0021098803
:10436000491CC0B21C224B4B02FB00321180C0B270
:104370001C21484A01FB00210988C0B21C22454B80
:1043800002FB0032D288914206D30021C0B21C2227
:10439000404B02FB00321180C0B21C213D4A01FBA0
:1043A00000210988C0B21C223A4B02FB003252881D
:1043B00091420FD0C0B21C21364A01FB002109886E
:1043C000C0B21C22334B02FB003080689DF80120F4
:1043D0000A5405E000BF03E0C0B2012800D100BFCD
:1043E00001B07047C0B2002805D0022805D003D321
:1043F000032803D003E07047FDE7FCE7FBE7FAE79B
:10440000C0B2042837DAC0B21C21224A01FB0021C5
:10441000002930D00021C0B21C221E4B02FB00320A
:1044200091800021C0B21C221A4B02FB0032118085
:104430000021C0B21C22174B02FB00325180002128
:10444000C0B21C22134B02FB003211820021C0B209
:104450001C22104B02FB003291810021C0B21C22B1
:104460000C4B02FB0032D1810021C0B21C22094B4F
:1044700002FB0030816170470008014000380140B4
:1044800000440040000C0140004800400010014082
:10449000004C00401C820020B85B00200873002004
:1044A000FC86002008870020747900209461002099
:1044B00098860020AC860020F0B40022002600245C
:1044C00000250023002791F803C01CF00F0C624662
:1044D00091F803C05FEACC6C01D58B781A430B7856
:1044E0001B0621D00368002406E0CD78482D02D1B8
:1044F0000125A5400561641C082C14D20125A540A6
:104500000E882E40AE42F6D1A5000F2616FA05F70A
:10451000BB4312FA05F52B43CD78282DE5D10125B3
:10452000A5404561E7E703600B88FF2B26DD436864
:10453000002420E0012514F10806B5400E882E4025
:10454000AE4217D1A5000F2616FA05F7BB4312FAA3
:1045500005F52B43CD78282D04D1012514F108064B
:10456000B5404561CD78482D04D1012514F10806E8
:10457000B5400561641C082CDCD34360F0BC704777
:104580000022806889B2084201D0012200E00022A6
:104590001000C0B2704789B20161704789B24161B1
:1045A0007047D2B2002A02D089B2016101E089B21B
:1045B0004161704770B400220024002300250028C8
:1045C00002D5304A136801E02F4A1368C0F303454F
:1045D00082B210F44014B4F5401F08D133F0706378
:1045E000294C246834F07064274D2C600FE0C4021D
:1045F00005D50324AC40A34353F0706307E0440D9A
:10460000E4B2240112FA04F4A34353F07063C9B274
:10461000002905D0410DC9B2090112FA01F10B437D
:10462000002802D51748036001E01748036070BCFA
:10463000704710B400220F2311F00304E4B2A40069
:10464000A3401A00C9B28B10104C54F8233033EA3F
:104650000202C9B28B100D4C44F82320C9B28A1053
:104660000A4B53F82220C0B211F00303DBB29B00C7
:1046700098401043C9B28910044A42F8210010BC86
:10468000704700001C000140040001400800014088
:10469000E0B5DFF81007DFF810170860DFF80C0747
:1046A000DFF80C17086042F21000DFF80817086006
:1046B0005FF04430DFF8001708605FF04430DFF847
:1046C000FC1608600020DFF8F8160860DFF8F40632
:1046D000DFF8F41608605FF04430DFF8F016086089
:1046E0004FF48050DFF8E81608605FF04430DFF8E0
:1046F000E41608605FF04430DFF8DC160860002044
:10470000DFF8D816086000F041FB002821D108210D
:104710000120FFF78EFF4FF48070019000208DF88C
:1047200008000C208DF8090001208DF80A0001A86E
:1047300004F0A4FC17208DF800000F208DF8010074
:104740000F208DF8020001208DF8030000A804F06E
:10475000FEFC002000F01DFB01210120FFF769FF96
:104760000220019000208DF808000C208DF809002F
:1047700001208DF80A0001A804F080FC07208DF8C4
:1047800000000F208DF801000F208DF8020001209D
:104790008DF8030000A804F0DAFC07BD704780B56F
:1047A000DFF83C0604F005FE04F0E4FE01BD10B5A0
:1047B00004F05CFF040004F097FF002805D1E4B288
:1047C0002100DFF8200601F00FF80020DFF81816AE
:1047D000086004F046FF002807D104F001FF00281C
:1047E00003D104F052FF002807D004F022FF002874
:1047F00003D104F012FF00281FD00120DFF8E815D4
:10480000086000F07FF804F06FFF002813D004F078
:10481000ECFE002809D004F0F5FE0FF2B50247F2D5
:1048200030510C2005F00FF907E004F0E7FE0020FE
:1048300004F0C0FE01E000F04BF810BD10B500F030
:10484000E1F86421012005F041F800F09EF8DFF85E
:104850009C05007803280BDADFF890050478DFF870
:104860008C050078DFF8881551F82000804700E0BB
:104870000324DFF878050078E4B28442E7D1E0E76A
:1048800080B5012005F03AF801BD38B500240025B7
:1048900004F0ECFE050001F082F9DFF858154968D4
:1048A000884212D3DFF850050068002802D1EDB22B
:1048B000002D01D0012400E00024E4B2002C04D03B
:1048C0000020DFF8341508600025200032BD00000C
:1048D00080B501220121DFF8E004FFF762FE00222B
:1048E0004FF40071DFF8E004FFF75BFE642000F096
:1048F00051F9DFF808050078002802D1042004F0FF
:104900001FFF01BD80B501220421DFF8AC04FFF7D1
:1049100048FE192000F03EF9DFF8E0040078002896
:1049200002D1052004F00CFF01BD80B501F037F97C
:104930001930DFF8C014086007E0002000F02FFAFB
:10494000002004F07FFB05F001F901F028F9DFF801
:10495000A4140968884217D205F064FA002802D02E
:1049600000F060F9ECE705F08CF940F27E418842F6
:10497000E3DA00F011FA0128E2D104F086FE002803
:10498000DED100F06FF9DBE701BD80B505F04AFA32
:10499000002802D000F046F933E005F0D2FB1528DC
:1049A00015D3DFF85C0400F01FFF0121062004F09E
:1049B00065FF0100042004F01AFF43F6982004F07C
:1049C000D7FF012000F0EBF900F04CF919E005F0F9
:1049D00044FE002815D0DFF82C040068002808D019
:1049E00005F02DFA00280CD00020DFF8181408601C
:1049F00007E005F024FA002803D10120DFF80414B1
:104A0000086001BD80B5FFF7D2FE0120DFF8DC139E
:104A1000087001BD0120DFF8D4130870704780B51D
:104A200005F00CFE00280FD104F02FFE002806D15F
:104A300002F020FE04F01DFE04F02AFE01E004F066
:104A40001CFE00F03BF805E005F007FE002801D051
:104A500000F001F801BD80B5DFF88C030068002884
:104A60001FD10120DFF880130860FFF74BFF04F02F
:104A70003BFE002813D004F0B8FD002809D004F054
:104A8000C1FDDFF8842347F230510C2004F0DBFF36
:104A900007E004F0B3FD002004F08CFD01E0FFF717
:104AA00017FF0220DFF84413087001BD80B505F040
:104AB000D4FD002801D1FFF7ADFF01BD80B5DFF8BF
:104AC0004C0300F091FE06F0CEFB002810D104F05C
:104AD000C8FD00280CD106F096FC4FF47A7004F063
:104AE00047FFFEF7D5FE002802D0C94800F07CFE43
:104AF00004F0BFFD04F0C1FD00F069F806F061FDAF
:104B0000642004F035FF00220421AB48FFF749FD83
:104B100006F0A9FB002811D102F09FFD00280DD15D
:104B200005F0CEFD002803D00520BA49088003E037
:104B30004FF49670B749088000F09FF806F096FB96
:104B4000002002F087FD04F022FF04F092FDFFF741
:104B50009FFD0020A549087001BD10B500240AE0A2
:104B600000F056F8FFF71AFE04F0F0FF002004F002
:104B700069FAFFF714FE002C08D001F010F8844207
:104B800001D3012000E00020C0B200E00120002895
:104B9000E6D110BD10B5040001F001F820189549C8
:104BA000086004E0002004F04DFA04F0CFFF00F0AC
:104BB000F6FF904909688842F4D310BD8B4800780D
:104BC000002801D1012000E00020C0B2704770B57C
:104BD000002500F01DF80026002400E0641CE4B26B
:104BE000002C07D1E4B28C48205C04F097FD00282B
:104BF000F4D00D26F6B20D2E03D10524322004F098
:104C0000B7FEF6B20D2E02D16D1C0A2DE1DB70BD90
:104C100080B5FFF73AFE002802D0012004F0CAFC5C
:104C200001BD000080B505F09AFDFFF747FF00F0D9
:104C3000B6FF7A4908186F49C8600CE004F086FF97
:104C400004F0C4FF002004F0FDF930BF00BF00BF36
:104C500000BF00BF00BF00F0A2FF6649C9688842DC
:104C6000ECD301BD80B5012000F093F802F002FD05
:104C700004F0FFFC04F00CFD01BD80B500F06AF803
:104C80004FF4A06004F05EFA29208DF800000020A7
:104C90008DF8010000208DF8020001208DF803003E
:104CA00000A804F054FA01215FF0C05006F014FE91
:104CB000012006F07FFE012006F06AFD612006F06B
:104CC0002FFE0028FAD04FF4007006F065FD012099
:104CD00006F068FD03F046FE49F6404003F01EFE74
:104CE00003F03AFE0121022003F0A8FD03F034FE98
:104CF00003F0CBFD47490988081803F01FFE03F0B5
:104D00002BFE01BDE0B55FF4003004F00DFA5FF456
:104D10000030019000208DF8080008208DF809006F
:104D200000208DF80A0001A804F0A8F94FF4A06053
:104D300004F008FA29208DF8000000208DF8010009
:104D400000208DF8020000208DF8030000A804F078
:104D5000FEF907BD00B583B05FF4003004F0E4F95C
:104D60005FF40030009000208DF8040008208DF8DA
:104D7000050001208DF8060000A804F07FF907BDAA
:104D800024480088704723490880704724480068F9
:104D900070472349086070472248007870472149CE
:104DA000087070474444B3B4000801404444843858
:104DB000040801400C080140000C0140040C0140B3
:104DC0000C0C0140434433430010014004100140E7
:104DD0000C10014000140140041401400C14014067
:104DE0000024014014020108C08700205C880020D4
:104DF0007C050108D0860020B88700205488002058
:104E0000BCFD0008BC870020D1480008C40301088D
:104E1000A4FE000880880020DAC1000820BF02003C
:104E20007088002082880020DFF8D807007870475B
:104E300080B50020DFF8CC170870052004F027FEAD
:104E4000072004F024FE01BD70B50400002504F025
:104E5000AFFB0600FEF7BEFD0500280E2070280CF3
:104E60006070280AA070E5703078207170786071E9
:104E70005520A07170BD00B5C3B000918DF804003D
:104E80004FF48272C0B21421DFF87C3701FB00318D
:104E900002A800F0F1FC00A9002000F0DFF80128D2
:104EA00001D1012000E0002043B000BD80B5010029
:104EB000012000F0D3F800F001F801BD80B5012019
:104EC00000F0A7F900280CD100F00CF800F042F82F
:104ED000012806D10FF2A5024FF47A71072004F0E1
:104EE000B2FD01BD80B5012000F02EF9002821D0CF
:104EF000007801280ED002280DD003280CD00628F7
:104F00000FD00A280ED00B280DD00C280CD00D285D
:104F10000BD00FE00EE00DE000210720FFF7ABFF04
:104F200008E007E006E005E004E000210220FFF7CA
:104F3000A2FFFFE701BD80B5012000F005F90028C0
:104F400007D00078022802D0062801D001E000E056
:104F5000FFE701BD10B50024012000F0F5F800289E
:104F600001D1002008E00078022801D0062801D1F4
:104F7000012400E00024200010BD000038B5002509
:104F80000024DFF888060078401CDFF880160870DF
:104F900000F025F8012804D0DFF870060078032817
:104FA00013DB0020DFF864160870FFF7C4FF00254C
:104FB00000E06D1CEDB20C2D01DA002CF9D0012CB3
:104FC0000CD0012000F033F808E0FFF78BFFDFF88A
:104FD00040264FF47A71072004F035FD31BD10B53D
:104FE0000024012000F0B0F8002801D101201DE0CC
:104FF0000178012913D016D3032910D009D305292C
:1050000009D00CD307290AD007D3092909D006D320
:1050100009E0002408E0012406E0012404E0012462
:1050200002E0012400E001248460200010BD38B5B6
:105030000400012000F088F80500FFF78BFF01282D
:1050400003D1A8686968884702E02000696888473A
:10505000012000F09EF8FFF731FF31BD38B50400A4
:10506000E4B20C20DFF8AC2500FB04208079E4B228
:105070000C22DFF8A03502FB04325279904257D25D
:10508000E4B20C20DFF88C2500FB04200068E4B2B9
:105090000C22DFF8803502FB0432D279E4B20C2313
:1050A000DFF8705503FB04531B7903FB0200E4B2E5
:1050B0000C22DFF8603502FB0432127900F0DCFBD1
:1050C000E4B20C20DFF84C1500FB04108079401C82
:1050D000E4B20C21DFF83C2501FB04218871E4B225
:1050E0000C20DFF8301500FB0410C079401CE4B23E
:1050F0000C21DFF8202501FB0421C871E4B20C204B
:10510000DFF8101500FB0410C079E4B20C21DFF8C1
:10511000042501FB04214979884207D10020E4B22B
:105120000C21DFF8F02401FB0421C87101200AE002
:10513000E4B2002C06D1087900F078F8012801D1FA
:10514000012000E0002032BD10B4C0B20C21DFF815
:10515000C42401FB00218979002917D0C0B20C2199
:10516000DFF8B02401FB0021097AC0B20C22DFF87D
:10517000A43402FB00321279C0B20C23DFF894444D
:1051800003FB0040006802FB010000E0002010BCAF
:105190007047C0B20C21DFF87C2401FB0021897923
:1051A000002935D0C0B20C21DFF8682401FB0021B2
:1051B0008979491EC0B20C22DFF8583402FB003254
:1051C0009171C0B20C21DFF84C2401FB0021097A57
:1051D000491CC0B20C22DFF83C3402FB00321172D1
:1051E000C0B20C21DFF82C2401FB0021097AC0B2E7
:1051F0000C22DFF8203402FB00325279914207D1B1
:105200000021C0B20C22DFF80C3402FB0030017226
:105210007047C0B20C21DFF8FC2301FB002080792D
:10522000002801D1012000E000207047DFF8E813DA
:10523000097814290EDADFF8E0130978DFF8DC23A7
:105240008854DFF8D4030078401CDFF8CC130870D2
:10525000012004E01420DFF8C0130870002070471C
:10526000DFF8A00300787047DFF8981308707047E4
:105270000121DFF8AC231170DFF8A8130870704724
:1052800010B504000020FFF75FFF010000290AD0DD
:105290000868002807D0E4B2002C01D1012000E00A
:1052A0000020096888470020FFF773FF0020FFF700
:1052B000DBFF10BD10B50124002811D001790629AB
:1052C00005D100F0C7F801280BD1002409E00079CE
:1052D000072806D100F0CAF8012802D1002400E016
:1052E0000024200010BD10B50020FFF72DFF0400A2
:1052F0002000FFF7DFFF01281DD1DFF82C03FFF7A7
:10530000A3FDDFF82413200000F05EFF01280BD17D
:105310000120FFF7A9FF00F042FC00F51C501030FF
:10532000DFF8081308600CE00020FFF732FF0020D0
:10533000FFF79AFF05E00020FFF72BFF0020FFF7A3
:1053400093FF10BD0020DFF8D81208700020DFF8AE
:10535000D41208700020DFF8D81208700020DFF89F
:10536000CC120860704780B5DFF8B40200780128DD
:1053700014D10020DFF8B81208700020DFF8AC125A
:105380000860DFF8A0020078012803D10020FFF7B1
:1053900077FF42E00120FFF773FF3EE000F0FFFBE4
:1053A000DFF888120968814237D2DFF8800200688E
:1053B000002803D10020FFF763FF2EE0DFF8700222
:1053C0000078401CDFF868120870DFF8640200788B
:1053D00004280BDB0020DFF858120870FCF717FFD9
:1053E000002200211420FCF77BFF16E0DFF84002CA
:1053F0000078022190FBF1F202FB1102002A0CD08E
:1054000000F0CDFB00F51C501030DFF820120860D2
:10541000002200211520FCF763FF01BD80B5FFF7D6
:105420001FFF002802D0012805D007E0FFF78AFF00
:10543000FFF759FF02E0FFF796FFFFE701BD704756
:1054400080B5FEF7B3F9082803DBFFF7F8FFFFF795
:10545000E5FF01BD002070470020DFF8DC11087077
:105460000020DFF8D81108707047704780B5DFF86A
:10547000C8010078DFF8C4110978884201D2002001
:1054800002E0FFF7E9FF012002BD80B56C49097811
:10549000142920DA00B2012808DB022068490978C3
:1054A0000E22684B02FB013108700AE000206449BB
:1054B00009780E22634B02FB0131087000205D4920
:1054C00008705F480078401C5D4908705C480178AE
:1054D0005D4800F089F901BD1CB5002403F0D5F941
:1054E00000905A484079FF2801D000207DE0052433
:1054F00000E0641E64B2002C04D464B25348205C03
:10550000FF28F6D064B2002C25D504F0C9FBADF815
:10551000060000984E49086001204C49087004229A
:1055200049F2060100A806F03BFB022249F20A01FB
:105530000DF1060006F034FB01224FF41041434800
:1055400006F02EFB64B22300009ABDF80610414815
:1055500000F04AF948E064B23F4850F8240000994E
:1055600064B23B4A52F82420891A88423CD264B281
:10557000374850F824000099884235D204F090FB57
:10558000ADF80400009864B2314911EB8401486021
:10559000012064B22D4961184870042264B20620CB
:1055A00049F20C0100FB041100A806F0F9FA0222EE
:1055B00064B2062049F2100100FB041101A806F0B4
:1055C000EFFA012264B204F51041491C64B21F488D
:1055D0002018401C06F0E4FA64B22300009ABDF8DB
:1055E00004101C4800F000F9012016BD80B54FF4EE
:1055F000104006F082FA06220021144800F0BAF8A2
:1056000001BD00006388002054010020658800204F
:105610007D4F00080403002064880020708600206D
:105620005E8800205F880020CC840020188800203D
:10563000608800206288002066880020678800203B
:1056400061880020D47E0020540001084487002097
:10565000B0850020C8FE00081C03002000B583B000
:1056600000280DD0009003F0C0FB01904FF4604083
:1056700006F043FA08224FF4604100A806F090FAC1
:1056800007BD10B5040008224FF46041200006F069
:1056900042FB206810F1010F03D1002020600020A0
:1056A000606010BD10B4019C002C02D0521C9142CD
:1056B0001CD2002B0DD0CA08125C0823B1FBF3F4F6
:1056C00004FB1314DFF8A430E35C1A43C9080A543E
:1056D0000CE0CA08125C0823B1FBF3F404FB1314BA
:1056E000DFF88C30E35C1A40C9080A5410BC7047DC
:1056F000CA08105C0822B1FBF2F303FB1213DFF8B7
:105700006C10595C084201D0012000E00020C0B2BA
:10571000704770B4002301E0401C5B1CDC008C422D
:105720001FD20478002CF7D0002400E0641C082C61
:10573000F2D2DFF83850655D06783542F6D0002A9F
:1057400005D00278DFF82850655D2A40027014EB1E
:10575000C300884202D214EBC30004E05FF0FF30C4
:1057600001E05FF0FF3070BC7047000040060108A8
:105770004806010810B5044610460A460146204670
:1057800006F03AFB204610BD00F10103810704D06A
:1057900010F8011B89B18107FAD10268B2F1013119
:1057A000914311F0803F04BF50F8042FF6E710F842
:1057B000011B11B110F8011BFBE7C01A704701E093
:1057C000491C521E72B10B7890F800C09C4505D060
:1057D00002D24FF0FF3070470120704710F8013BB4
:1057E000002BEDD1002070470EB400B582B003A9A4
:1057F0000091024600AB0121034878440A3006F0CC
:105800003AFB06BC5DF810FBEDAB000001B58B0761
:1058100018D1121F21D351F8043BA3F1013C2CEA0B
:10582000030C1CF0803C04BF40F8043BF1E79CFAF9
:105830008CFCBCFA8CF1C1F118018B40CB4040F8D4
:10584000043B13E0042A09D311F8013B521E00F86F
:10585000013B5BB18B07F7D1DBE7121D5AB111F8A1
:10586000013B521E00F8013B03B1F8D111001CBFEF
:10587000002206F0C5FA01BD10B5044606F092FB01
:10588000204610BD2DE9F04782B006000F0090467B
:1058900099460C99404680B200F090FB05000A9CA6
:1058A000002D6DD01FFA88F8286B10EB8800B0F13E
:1058B000040A5FEADA0A5FEACA0A1FFA88F8CDF832
:1058C00000800D9B22003900280000F0EDFA4A46C6
:1058D0003100504606F0A2FB28600B98002800D04B
:1058E000056006F0C5FBDFF8E0070068401CDFF844
:1058F000D8170860DFF8D407006800280AD1DFF85D
:10590000CC070560DFF8C0070068012810D100F05F
:10591000E8FA0DE0DFF8B8070068002808D1DFF8E2
:10592000AC070068C06A844202D3DFF8A0070560B4
:10593000DFF8A0070068E96A884203D2E86ADFF866
:1059400094170860DFF890070068401CDFF888179C
:105950000860DFF888070068E96A884203D2E86ACD
:10596000DFF878170860291DE86A1422DFF870371D
:1059700002FB003006F0C4FB012506F082FB01E0CB
:105980005FF0FF35012D0CD1DFF8440700680028D7
:1059900007D0DFF838070068C06AA04201D206F0DD
:1059A00062FB2800BDE8F68738B504000020002C13
:1059B00011D000F084F8DFF8340700682418DFF80D
:1059C0000C070068001D06F0C4FB0500200000F075
:1059D000D6FA00F07CF8002801D106F044FB31BD76
:1059E00038B5040006F044FBDFF8E00600688442A6
:1059F00000D10024002C03D1DFF8D006056800E0B8
:105A00002500281D06F0A5FBA96A002903D015F181
:105A1000180006F09EFB291DDFF8D40606F070FB87
:105A200006F02FFB002C16D1DFF8A4060068002832
:105A300002D006F018FB0EE0DFF8B4060068DFF8CD
:105A400088160968884204D10020DFF880160860B3
:105A500001E000F03AF931BD00214269DFF89036EB
:105A60009A4208D1826ADFF88C369A4203D0806A63
:105A7000002800D101210800704700B585B0002042
:105A8000039000200290002001900020009000234D
:105A90008022DFF868160FF20140FFF7F3FE0128BD
:105AA0000BD103F0C8FA0120DFF8241608600020AB
:105AB000DFF83816086006F0BEFA05B000BDDFF862
:105AC00038060068401CDFF830160860704770B573
:105AD000002406F0CDFADFF820060068401EDFF84B
:105AE00018160860DFF810060068002853D1DFF8A8
:105AF000D805006800284ED0002525E0DFF8F40521
:105B0000C068C66816F1180006F023FB301D06F0C9
:105B100020FBDFF8C8050068F16A884203D2F06A0A
:105B2000DFF8B8150860311DF06A1422DFF8B035CF
:105B300002FB003006F0E4FAF06ADFF8901509681D
:105B4000C96A884200D30125DFF8A805006800284B
:105B5000D4D1DFF8AC050068002809D10DE000F0D1
:105B600028F8DFF89C050068401EDFF894150860EF
:105B7000DFF88C0500680028F1D1012D04D0DFF892
:105B800084050068012806D101240020DFF874157F
:105B9000086006F068FA06F074FA200070BD10B5CF
:105BA00003F049FADFF844150C6803F04BFA2000C3
:105BB00010BD10B5DFF840050068002874D1DFF88B
:105BC0002C050068401CDFF824150860DFF81C0570
:105BD0000068002827D1DFF830050068DFF82C15B1
:105BE0000968DFF824251160DFF820150860DFF868
:105BF00020050068401CDFF818150860DFF808056C
:105C000000680068002805D15FF0FF30DFF8041558
:105C1000086008E0DFF8F0040068C068C4686068E5
:105C2000DFF8F0140860DFF8C4040068DFF8E4145B
:105C30000968884241D31CE0201D06F08AFAA06A58
:105C4000002803D014F1180006F083FADFF88C0462
:105C50000068E16A884203D2E06ADFF880140860D5
:105C6000211DE06A1422DFF8783402FB003006F0D0
:105C700047FADFF8940400680068002805D15FF057
:105C8000FF30DFF89014086017E0DFF87C0400684C
:105C9000C068C4686068DFF8541409688142CBD2D8
:105CA000DFF87014086008E0DFF854040068401C56
:105CB000DFF84C14086003F073FEDFF8440400685A
:105CC000002801D103F06CFE10BD80B5DFF8280478
:105CD0000068002804D00120DFF82814086053E091
:105CE000DFF8E8030068006BDFF8E0130968096873
:105CF000884209D3DFF8D403006810F13401DFF8DB
:105D0000CC03006803F047FE1422DFF80C14DFF820
:105D1000BC030068006B06F02FFA002811D0DFF8F2
:105D2000AC03006810F13401DFF8A003006803F051
:105D300032FE06E0DFF8A4030068401EDFF89C1383
:105D40000860DFF8980300681421DFF8942301FB52
:105D5000002000680028EDD0DFF8800300681421DF
:105D6000DFF87C2301FB00204168496841604168FD
:105D700010F10802914202D14168496841604068CF
:105D8000C068DFF84813086001BD10B50C00DFF8EB
:105D90003C130968183106F0C1F9DFF830030068D8
:105DA000001D06F0D6F914F1010F07D1C7480068AD
:105DB000011DDFF83C0306F0A3F904E0CB480068BE
:105DC000201800F0DCF810BD10B5C068C46814F1EC
:105DD000180006F0BEF9C8480068002813D1201D3D
:105DE00006F0B7F9BD480068E16A884202D2E06A6D
:105DF000BA490860211DE06A1422B94B02FB003049
:105E000006F07EF904E014F11801BA4806F078F9BA
:105E1000E06AAE490968C96A884201D3012000E0FE
:105E2000002010BDBA4909680160B04909684160A5
:105E3000704738B504000D0006F01AF9286810F113
:105E4000010F01D100241FE0B14800682168884299
:105E500006D0A64800686168884201D3012413E097
:105E6000A24800686168401A296888420BD22868F5
:105E70009E490968401A6168081828602000FFF7E9
:105E8000D1FF002400E0012406F0FBF8200032BD21
:105E900001209C490860704780B500F044F806F086
:105EA000E2F803F079FDF8E738B504001500102298
:105EB00014F13400FFF7AAFC002084F84300052DFC
:105EC00000D30425E5626564201D06F016F914F17F
:105ED000180006F012F92461D5F10500A061646292
:105EE00031BD10B5002406E014207D4900FB0410EC
:105EF00006F0F4F8641C052CF6D3884806F0EEF89A
:105F0000874806F0EBF87B4806F0E8F8754806F09D
:105F1000E5F8774806F0E2F880487B490860804859
:105F20007A49086010BD10B51CE00024E4B2FFF708
:105F3000CEFD002C16D106F09BF86A48C068C468F4
:105F4000201D06F006F960480068401E5E490860A2
:105F500065480068401E6449086006F092F8200019
:105F600000F04EF860480068002807D0FFF7A7FD52
:105F70005C4800680028D8D10124D7E710BD10B5CF
:105F8000040052480068446058480068844207D2C0
:105F90004E480068011D5D48006806F0BFF80CE03F
:105FA0004A480068011D5848006806F0B7F859488B
:105FB0000068844201D25748046010BD70B50400E7
:105FC0000D00482006F00AF90600002E16D0002D1C
:105FD00005D1A4B2A00006F001F90500FFE7356382
:105FE000306B002804D1300006F05FF9002605E090
:105FF000A4B2A200A521306BFFF7BCFB300070BD3E
:1060000010B50400206B06F050F9200006F04DF9A1
:1060100010BD2E480068704710B50400002C2FD02A
:10602000E06A2A490968C96A884229D22748006873
:10603000C06AD0F10500A0616069E16A1422284BB2
:1060400002FB0131884217D1201D06F082F81F495A
:106050000968C96AE16221490968E26A914202D28B
:10606000E06A1E490860211DE06A14221C4B02FBF5
:10607000003006F045F803E014480068C06AE062AA
:1060800010BD10B50400002C1CD0E06A616C884281
:1060900018D0201D06F05DF8616CE162E16AD1F173
:1060A0000501A1610D490968E26A914202D2E06AE4
:1060B0000A490860211DE06A1422094B02FB0030E6
:1060C00006F01EF810BD0000F0870020E0870020D9
:1060D00000880020F887002014880020FC8700201A
:1060E0005883002048860020EC870020F487002099
:1060F0005C86002034860020048800208006010889
:10610000088800200C880020E4870020E887002011
:106110001088002094030020540401080C860020FD
:10612000208600200CB41CB5044604A801900A4641
:10613000009401AB00A907487844183005F09BFE95
:10614000009A0021117000285CBF0098001B16BC4B
:106150005DF80CFB43340000FEB413000022002560
:10616000002407E00E781700FFB2FF00BE4075194B
:10617000491C521C92B29BB29A42F3D300210CE00C
:106180000A22B5FBF2F302FB1352C9B200ABCA54A8
:106190000A22B5FBF2F5641C491C002DF0D1E4B2D3
:1061A0002200002109E0E4B200ABE31813F8013C3F
:1061B0003033C9B20B54641E491CE4B2002CF2D136
:1061C000100080B2FEBC704738B504000D004FF4DB
:1061D0007A720021DFF87C0DFFF7CCFA0020DFF89F
:1061E000EC1C08804FF47A73DFF8682D290020003A
:1061F00000F080FBDFF8D41C0880DFF8D00C0088AA
:10620000B0F57A7F08DDDFF8C40C0188DFF8480DAF
:10621000FFF7EAFA002013E0DFF8B00C008800284E
:1062200005D1DFF8380DFFF7DFFA002008E0002283
:10623000DFF8980C0188DFF81C0D06F071F80120DA
:1062400032BD32B5040013E0ADB2112D09DB00A957
:10625000200000F01FF80500691E89B2200000F040
:106260005CFFADB22C19BDF80000401BADF800007A
:10627000BDF8000000280CD0BDF80010200000F090
:106280004EF80500ADB2112DDEDA200000F040FF1F
:10629000E7E731BDF8B504000D0000260020002717
:1062A00000210E0012E000280FD02888B6B2801B13
:1062B000821EB6B23019811CB6B23019401CFFF7ED
:1062C000DBFA2888401E28800020761C2988B6B278
:1062D0008E4221D2002F1FD1B6B2315DB6B2325DEF
:1062E000B6B233195B7813EB0222C9B21C2901D173
:1062F0000127EAE792B241F61D31521A02D0521E2E
:1063000005D0D0E71B20B6B230550120CBE71C20CA
:10631000B6B230550120C6E7300080B2F2BD10B4ED
:10632000002200230024220005E092B2145C1C2C01
:1063300000D10123521C92B289B28A4201D2002BB1
:10634000F3D0100080B210BC704780B54FF40050FD
:1063500005F0D3FB01BD80B516224FF40051DFF8E4
:10636000900C05F0D8FC01BD80B5FFF7EEFF1622BA
:106370004FF40051DFF8780C05F012FC01BD10B5A8
:10638000040089B22F29C0F28080DFF8680CFFF783
:106390002BFA607CDFF8DC1DC871A07CDFF8D41D0F
:1063A0000872207EDFF8CC1D487294F828000B2874
:1063B00005DB94F82800DFF8BC1D887203E00A2092
:1063C000DFF8B01D887294F828000B2805DB94F8DC
:1063D0002900DFF8A01DC87203E00A20DFF8941D31
:1063E000C872207FDFF88C1D0873607FDFF8841D82
:1063F0004873A07FDFF87C1D8873E07FDFF8741D91
:10640000C87394F82000DFF86C1D087494F821001C
:10641000DFF8601D487494F82200DFF8581D887476
:1064200094F82300DFF84C1DC87494F82400DFF8BA
:10643000441D087594F82500DFF8381D487594F858
:106440002600DFF8301D887594F82700DFF8241D3A
:10645000C87594F82A00DFF81C1D487694F82B00C4
:10646000DFF8101D887694F82C00DFF8081DC87638
:1064700005F089FF4FF4805005F03FFB1C224FF4DC
:106480008051DFF8F00C05F08BFB10BD2DE9F84FC3
:1064900004000025002600275FF0000B5FF00009D4
:1064A0005FF0000AE078217910EB012005006079A7
:1064B000A17910EB01200600E079217A10EB012090
:1064C0000700B6B23100DFF8E40CFFF78DF90020C9
:1064D00001F0C6F8DFF8180B807ADFF8141BC97AD0
:1064E00010EB012080B2411CB6B2B14209D0B6B265
:1064F000002E06D080B2411CDFF8540DFFF774F96E
:10650000B8E1ADB2B6B2B54206D2ADB22900DFF8FD
:10651000440DFFF769F9ADE1DFF8D40AC079DFF87F
:10652000D01A8979090411EB0060DFF8C41A49799F
:1065300010EB0120DFF8B81A097911EB0008ADB2B1
:10654000002D00F09781DFF8A80A0078AA282DD145
:10655000DFF89C0A4078552828D1B6B2002E33D1F6
:10656000AA20DFF88C1A08705520DFF8841A4870CA
:10657000DFF87C0A0572ADB2280ADFF8741A487297
:10658000DFF86C0A007B6178884205D1DFF8600A89
:10659000407BA178884213D00020DFF8541A08709D
:1065A0000020DFF84C1A4870FFF7CFFEB6B2002E7D
:1065B00000F01281002004F0BAFE05F0E4FE59E17B
:1065C000012004F0B4FE55E1B6B2ADB2AE4277D1CF
:1065D0005FF00009607AA17A10EB012081464FF646
:1065E000FF7A5FF0000B19E001220BF5402120310A
:1065F00000A805F090FB012200A9504680B205F0EA
:10660000ECFE82464FF47A70BBFBF0F100FB11B058
:10661000002801D103F09AFA1BF1010BC345E3D323
:10662000D14510D052464946DFF82C0CFFF7DCF874
:106630000020DFF8BC1908700020DFF8B41948709A
:10664000FFF783FEB2E716225FF44021DFF8A009CE
:1066500005F0A6FA4FF47A7003F08AF916225FF477
:106660004021DFF88C0905F056FBFFF76EFE4FF472
:10667000405005F042FA4FF4804005F03EFA4FF4E6
:10668000A04005F03AFA4FF4C04005F036FA4FF456
:10669000E04005F032FA4FF4004005F02EFA5FF4C6
:1066A000C02005F02AFA4946DFF8140DFFF79CF8E0
:1066B0004FF47A7003F05CF9002002F07BFFD9E020
:1066C000AA20DFF82C1908705520DFF8241948702B
:1066D000DFF81C090572ADB2280ADFF814194872F8
:1066E000DFF80C098672B6B2300ADFF80419C872F6
:1066F0006078DFF8FC180873A078DFF8F4184873A6
:106700005FF0000A3A0014F10901504680B205F02A
:1067100064FE824617EB0808B8F57C3F08D941466D
:10672000DFF8080DFFF760F8002004F000FEA1E09C
:10673000002F4BD03A0092B208F540202030C11B08
:1067400014F1090005F02CFA642003F011F93A0065
:1067500092B208F540202030C11B14F1090005F069
:10676000DAFA5FF000093A0014F10901484680B2F4
:1067700005F033FE8146D14510D052464946DFF838
:10678000D40CFFF731F80020DFF8641808700020FF
:10679000DFF85C184870FFF7D8FD07E7DFF850080E
:1067A00080F804805FEA1820DFF8441848715FEA37
:1067B0001840DFF83C1888715FEA1860DFF830187D
:1067C000C8714146DFF8C80CFFF70EF8FFF7CCFDA3
:1067D000012004F0ACFD4DE0AA20DFF81418087089
:1067E0005520DFF80C184870DFF804080572ADB2C8
:1067F000280ADFF8FC174872DFF8F4078672B6B291
:10680000300ADFF8EC17C8726078DFF8E417087315
:10681000A078DFF8DC174873380EDFF8D417C8719A
:10682000380CDFF8CC178871380ADFF8C4174871C4
:10683000DFF8BC0707715FF0000B09E04FF48050F0
:1068400000FB0BF010F5402005F057F91BF1010B90
:10685000BBF1400FF2D3002F07D03A0092B2DFF81D
:10686000301D14F1090005F09BF9FFF77DFD0120B3
:1068700004F05DFDBDE8F18F80B50178002903D1FA
:10688000012004F03FFD05E00078552802D10020EA
:1068900004F038FD01BD704780B502784178D2B26E
:1068A000012A0ED0212A1DD0232A10D0292A02D055
:1068B000372A12D01CE0C9B289B2801CFFF7E6FD6E
:1068C00016E0C9B289B2801CFFF759FD10E0C9B2C9
:1068D00089B2801CFFF7D0FF0AE0C9B289B200F08C
:1068E00067FC05E0C9B289B2801CFFF7D4FFFFE75F
:1068F00001BD70472DE9F04F8FB004000D00160068
:106900001F005FF000085FF000095FF0000A5FF011
:10691000000B01A806F08CF800901FFA89F94A468E
:1069200000993000FEF7A8FF009806F0A4F81022A6
:10693000E91D1FFA89F919EB0600FEF79DFF19F111
:106940001009B7EB090292B21FFA89F919EB060197
:10695000200000F05FF982461AEB09092079062829
:1069600024D02079072800F08B805FF0000BD7E05F
:106970001AEB09091C201FFA89F909F8060019F118
:1069800001091BF1010B5FFA8BFBBBF1050F0BDA61
:106990005FFA8BFB2079142101FB004010EB8B0088
:1069A0008368DBB2002B0DD118F101085FFA88F87B
:1069B000B8F1070F38DAFEF74DFD002834D15FF04B
:1069C000000BE0E7DBB2002BDBD01FFA89F9BFB286
:1069D000B945D6D2B7EB090292B21FFA89F919EB81
:1069E00006012800DBB2DFF82CCC5CF82330984796
:1069F0008246B7EB090292B2514689B21FFA89F971
:106A000019EB060000F051FB8246DFF80C0CFEF794
:106A1000EBFE1FFA8AFABAF1000FA9D1DFF8FC0BDE
:106A2000FEF7E2FE002091E05FFA88F8B8F1000F6F
:106A300005D1FEF70FFD002801D1002086E0484671
:106A400080B283E01AEB09091C201FFA89F909F8C2
:106A5000060019F101091BF1010B5FFA8BFBBBF179
:106A6000050F0BDA5FFA8BFB2079142101FB004044
:106A700010EB8B008368DBB2002B0DD118F10108FD
:106A80005FFA88F8B8F1070F38DAFEF7EFFC002854
:106A900034D15FF0000BE0E7DBB2002BDBD01FFA54
:106AA00089F9BFB2B945D6D2B7EB090292B21FFA43
:106AB00089F919EB06012800DBB2DFF858CB5CF846
:106AC000233098478246B7EB090292B2514689B209
:106AD0001FFA89F919EB060000F0E7FA8246DFF8A1
:106AE000400BFEF781FE1FFA8AFABAF1000FA9D116
:106AF000DFF8280BFEF778FE002027E05FFA88F821
:106B0000B8F1000F05D1FEF7B1FC002801D100203B
:106B10001CE0484680B219E01AEB09091BF1010B91
:106B20005FFA8BFBBBF1050F0EDA5FFA8BFB207966
:106B3000142101FB004010EB8B00D0F808805FFAB5
:106B400088F8B8F1000F04D1484680B20FB0BDE814
:106B5000F08F5FFA88F8B8F1000FDFD01FFA89F9DB
:106B6000BFB2B945DAD2B7EB090292B21FFA89F97E
:106B700019EB060128005FFA88F8DFF8983A53F815
:106B8000283098478246B7EB090292B2514689B243
:106B90001FFA89F919EB060000F087FA82461FFAFE
:106BA0008AFABAF1000F05D1DFF8700AFEF71CFE71
:106BB0000020CBE75FFA88F8B8F1010F0CD0ABD317
:106BC000B8F1030F12D00CD3B8F1050F18D012D3BF
:106BD000B8F1060F19D09FE7DFF8480AFEF704FE68
:106BE0009AE7DFF83C0AFEF7FFFD95E7DFF8380A81
:106BF000FEF7FAFD90E7DFF8340AFEF7F5FD8BE7C4
