:020000040800F2
:10000000300400207D0E0008690D00086B0D00080B
:100010006D0D00086F0D0008710D00080000000054
:10002000000000000000000000000000750D000846
:10003000730D000800000000770D0008790D00081E
:100040007B0D00087D0D00087F0D0008810D000864
:10005000830D0008850D0008870D0008890D000834
:100060008B0D00088D0D00088F0D0008910D000804
:10007000930D0008950D0008970D0008990D0008D4
:100080009B0D00089D0D00089F0D0008A10D0008A4
:10009000A30D0008A50D0008A70D0008A90D000874
:1000A000AB0D0008AD0D0008AF0D0008B10D000844
:1000B000B30D0008B50D0008B70D0008B90D000814
:1000C000BB0D0008BD0D0008BF0D0008C10D0008E4
:1000D000C30D0008C50D0008C70D0008C90D0008B4
:1000E000CB0D0008CD0D0008CF0D0008FFFFFFFF6E
:1000F000DFF85803DFF858130860DFF85803DFF81B
:1001000050130860704738B5040004255FF43020B0
:1001100000F0BAF90500EDB2042D20D1DFF8380364
:10012000006850F00200DFF830130860DFF82C039D
:100130000460DFF82403006850F04000DFF8181373
:1001400008605FF4302000F09FF90500DFF8080335
:10015000006841F6FD710840DFF8FC1208602800D5
:10016000C0B232BD38B5A524042500F04FF90028EF
:1001700000D000245FF4302000F086F90500EDB2D5
:10018000042D53D1DFF8C402DFF8D4120860DFF881
:10019000C402DFF8CC120860DFF8BC02006850F03F
:1001A0002000DFF8B4120860DFF8AC02006850F0FD
:1001B0004000DFF8A41208605FF4302000F064F91A
:1001C0000500EDB2042D25D1DFF88C02006841F660
:1001D000DF710840DFF880120860DFF87C020068F9
:1001E00050F01000DFF870120860DFF87802048029
:1001F0004FF4005000F048F90500EDB2052D15D080
:10020000DFF85402006841F6EF710840DFF8481249
:1002100008600BE0EDB2052D08D0DFF83C02006865
:1002200041F6EF710840DFF8301208602800C0B2D4
:1002300032BD70B582B005000C000426002000908D
:100240004FF4005000F020F90600F6B2042E2DD134
:10025000DFF80402006850F00100DFF8FC110860CC
:100260002C804FF4005000F00FF90600F6B2042E77
:1002700013D1A81C0090200C009908804FF4005066
:1002800000F002F90600DFF8D001006841F6FE71C7
:100290000840DFF8C411086008E0DFF8BC0100681E
:1002A00041F6FE710840DFF8B01108603000C0B2BE
:1002B00076BD2DE9F0414FF6FF744FF6FF754FF60E
:1002C000FF764FF6FF775FF00408C04310F0FF01A0
:1002D0000C00C0F307210D00010CC9B20E00000E86
:1002E00007004FF4005000F0CFF880465FFA88F81E
:1002F000B8F1040F4ED1554859490860554858493E
:1003000008605548006850F0100053490860A4B2D6
:10031000FF2C06D0544804804FF4005000F0B4F88D
:1003200080465FFA88F8B8F1040F09D1ADB2FF2D0D
:1003300006D04E4805804FF4005000F0A5F88046E6
:100340005FFA88F8B8F1040F09D1B6B2FF2E06D0D3
:10035000474806804FF4005000F096F880465FFA58
:1003600088F8B8F1040F09D1BFB2FF2F06D0414879
:1003700007804FF4005000F087F880465FFA88F855
:10038000B8F1050F06D03448006841F6EF71084017
:10039000314908604046C0B2BDE8F081F8B50400BC
:1003A0000D001600042729482D49086029482C49CA
:1003B00008604FF4005000F067F80700FFB2042F08
:1003C0001AD12548006850F010002349086056F003
:1003D000F80028432043284908804FF4005000F0DB
:1003E00053F80700FFB2052F06D01B48006841F6FE
:1003F000EF710840184908603800C0B2F2BD1F48CC
:100400000068800870471E480068704700201B493C
:100410000968890701D5012000E00020C0B27047BB
:10042000042018490968C90701D501200CE01548C6
:100430000068400701D5022006E012480068C006A7
:1004400001D5032000E00420C0B2704723016745B6
:1004500004200240AB89EFCD10200240142002405E
:100460000820024000F8FF1F08F8FF1F0AF8FF1FCE
:100470000CF8FF1F0EF8FF1F02F8FF1F1C200240A0
:10048000202002400C20024038B504000425FFF76C
:10049000C7FF050003E0FFF7C3FF0500641EEDB2D0
:1004A000012D01D1002CF6D1002C00D1052528000A
:1004B000C0B232BD80B57548006875490840B0F1DA
:1004C000005F0ED173480068734908607248006885
:1004D000724908606D48006800F01EF96F480068B6
:1004E000804701BD80B56E480068B0F10060000B28
:1004F0006C49086001206B4909688840401EC04370
:1005000069490860FFF77FFF674909680840664945
:100510000968884203D001206449086002E0002095
:100520006249086001BD80B5FFF7E2FD7C206049AB
:10053000086000205F49086010E0594800685E4983
:1005400009885C4A126802FB0100FFF7DCFD5B4989
:10055000087058480068401C5649086055480068B3
:1005600053490968884203D2544800780428E4D0EB
:1005700001BD10B582B0524840685249884202D34A
:1005800050484F4948604148454908604E484F49E6
:100590000860002415E004224C48016800A800F01F
:1005A0006DF900993E480068FFF743FE4748006830
:1005B000001D464908603A480068001D3849086037
:1005C000241D374800683E49496801F1006111F572
:1005D0000051884204D2324800683D498842DAD34B
:1005E0005FF4402000F02CF913BD2DE9F8430024FE
:1005F0000025012602275FF004085FF00109FFF7DC
:1006000002FF0500284800682840274909688842F9
:1006100038D0FFF7F4FE040023480068284322493D
:100620000860FFF79FFD81461F48006810F1010F29
:1006300005D01D480068C043FFF73BFE814614F01B
:100640000700072811D0E00700D40026A00700D437
:100650000027600701D45FF00008424692B23900DB
:1006600089B2300080B2FFF799FE5FFA89F9B9F1DB
:10067000040F07D101214FF4006000F0D5F94F209D
:1006800000F0F2F9BDE8F18300000000002000084E
:100690000000FF2F04200008180000201400002094
:1006A000000000201C00002020000020240000206A
:1006B0002C00002028000020080000200A00002054
:1006C0000C000020E0FF030020000C0004000020CC
:1006D000FFFF030830BF704720BF704740BF70471F
:1006E000BFF36F8F7047BFF34F8F7047BFF35F8FBC
:1006F000704701DF7047EFF31480704780F3148870
:10070000BFF36F8F7047EFF30980704780F309885C
:100710007047EFF30880704780F30888704772B61F
:10072000704762B6704771B6704761B6704780F324
:1007300011887047EFF31280704740BA704700BAD3
:10074000704710B450F8041B81B102681218001DE4
:1007500050F8043BDC0744BFA9F10104E31852F848
:10076000044B43F8044B091FF9D1EBE710BC704769
:1007700080B50121042000F047F901214FF4805099
:1007800000F042F92020ADF8000003208DF80200AF
:1007900018208DF8030000A9DFF8F00100F06CF9D3
:1007A0008020ADF8000000A9DFF8E00100F064F956
:1007B0004020ADF8000004208DF8030000A9DFF808
:1007C000CC0100F059F91020ADF8000010208DF890
:1007D000030000A9DFF8B40100F04EF901BD00B537
:1007E00085B0FFF7C5FF1021DFF8A00100F0A8F9E0
:1007F0000020ADF800004FF48270ADF80200002038
:10080000ADF804000220ADF806000120ADF80800A4
:100810004FF40070ADF80A002020ADF80C00002065
:10082000ADF80E000720ADF8100000A9DFF8580160
:1008300000F08CF90121544800F0A8F905B000BD82
:1008400010B5040000F07DF81021504800F07BF94D
:10085000202000F05DF8200CC0B200F059F8200A0A
:10086000C0B200F055F82000C0B200F051F81021DD
:10087000464800F065F900F071F810BD70B504004D
:100880000D0016001021414800F05DF9032000F032
:100890003FF8280CC0B200F03BF8280AC0B200F0C4
:1008A00037F82800C0B200F033F804E0A52000F0CB
:1008B0002FF82070641C3000461E80B20028F5D14D
:1008C0001021324800F03CF970BDF8B50024002535
:1008D0000026002710212D4800F035F99F2000F058
:1008E00017F8A52000F014F80500A52000F010F876
:1008F0000600A52000F00CF807001021234800F0A6
:100900001FF9300250EA0540384304002000F2BDD0
:1009100010B5040002211C4800F04AF90028F9D063
:10092000E4B2210089B2184800F03EF901211648CE
:1009300000F03EF90028F9D0134800F037F9C0B2B2
:1009400010BD80B51021114800F0FDF80620FFF71A
:10095000DFFF10210D4800F0F3F801BD10B50024B1
:1009600010210A4800F0EFF80520FFF7D1FFA5207D
:10097000FFF7CEFF0400E4B2E007F8D410210348EB
:1009800000F0DEF810BD000000300140000801401A
:10099000DFF8B400006850F00100DFF8AC10086028
:1009A000DFF8A8000068DFF8A8100840DFF89C1006
:1009B0000860DFF894000068DFF898100840DFF85E
:1009C00088100860DFF88000006830F48020DFF8CD
:1009D00078100860DFF87400006830F4FE00DFF87B
:1009E0006C100860DFF86000006830F0A050DFF89D
:1009F000581008605FF47F00DFF85C10086000208A
:100A0000DFF8581008607047C9B2002905D01449B2
:100A1000096808431249086005E01149096831EA8C
:100A200000000F4908607047C9B2002905D00D4980
:100A3000096808430B49086005E00A49096831EA7A
:100A4000000008490860704700100240041002408E
:100A50000000FFF0FFFFF6FE081002402C100240DD
:100A6000181002401C100240C0B250F08000014932
:100A700008607047002C0040F0B4002200260024DB
:100A800000250023002791F803C01CF00F0C6246DC
:100A900091F803C05FEACC6C01D58B781A430B78D0
:100AA0001B0621D00368002406E0CD78482D02D132
:100AB0000125A5400561641C082C14D20125A54020
:100AC0000E882E40AE42F6D1A5000F2616FA05F785
:100AD000BB4312FA05F52B43CD78282DE5D101252E
:100AE000A5404561E7E703600B88FF2B26DD4368DF
:100AF000002420E0012514F10806B5400E882E40A0
:100B0000AE4217D1A5000F2616FA05F7BB4312FA1D
:100B100005F52B43CD78282D04D1012514F10806C5
:100B2000B5404561CD78482D04D1012514F1080662
:100B3000B5400561641C082CDCD34360F0BC7047F1
:100B400089B20161704789B24161704710B40022D7
:100B500003881A0012F441520B884C8823438C8876
:100B60002343CC8823430C8923434C8923438C891A
:100B70002343CC8923431A430280828B4FF2FF73B5
:100B80001A408283098A018210BC7047C9B20029C9
:100B900004D0018851F04001018004E001884FF643
:100BA000BF72114001807047818170478089704712
:100BB00000220089084201D0012200E0002210003A
:100BC000C0B2704780B5FFF70AFEFFF77EFE5E49B0
:100BD00088420ED108225FF440215C48FFF74EFEA8
:100BE0005A48008845F2AA51884204D0FFF762FCB7
:100BF00001E0FFF75FFC00F00FF8FFF773FC5448CB
:100C00000068012801D1FFF7F0FCFFF78CFCFFF72B
:100C1000B0FCFFF74FFCF2E700B583B00020019075
:100C200000200090FFF7B4FE4A48006850F480307E
:100C3000484908604748006810F400300090019867
:100C4000401C01900098002803D10198B0F5A06FD6
:100C5000F0D140480068800302D50120009001E0F7
:100C600000200090009801285FD13B48006850F0B8
:100C7000100039490860384800688008800036490B
:100C800008603548006850F0020033490860334876
:100C900000683249086031480068304908602F48D0
:100CA000006850F480602D4908602D4800682D4987
:100CB00008402B4908602A48006840F4843050F00E
:100CC0003400274908602348006850F080602149BB
:100CD0000860204800680001FBD52048006830F417
:100CE0007C101E4908601D48006850F410201B4904
:100CF00008601848006850F0807016490860154870
:100D000000688001FBD51548006880088000134901
:100D100008601248006850F00200104908600F484F
:100D2000006810F00C000828F9D101213C20FFF7E1
:100D30006BFE01215FF40030FFF776FE01214FF4D6
:100D40008040FFF771FE07BD1540C8000C00002071
:100D50002400002000100240002002400410024045
:100D60002C10024000F0FEFF7047FEE7FEE7FEE7B2
:100D7000FEE770477047704770477047704770478D
:100D800070477047704770477047704770477047AB
:100D9000704770477047704770477047704770479B
:100DA000704770477047704770477047704770478B
:100DB000704770477047704770477047704770477B
:100DC000704770477047704770477047704770476B
:100DD00010B5074979441831064C7C44163404E0B8
:100DE0000A68081D511888470146A142F8D110BD74
:100DF0002C0000004C00000050F8041B61B150F8BA
:100E0000042BD30744BFA9F101039A18002342F829
:100E1000043B091FFAD1EFE770470000DDFFFFFF39
:100E2000240000000C0000200000000017F9FFFF64
:100E30000C00000054000000000000200000000032
:100E400000F00BF8002801D0FFF7C2FF0020C046D9
:100E5000C046FFF7B7FE00F002F80120704700F02F
:100E600001B800000746384600F002F8FBE7000032
:100E700001491820ABBEFBE726000200C046C04671
:100E8000C046C046FFF7DCFF0020000800000C0051
:100E900000080400FFFFFFFFFFFFFFFFFFFFFFFF52
:100EA000FFFFFFFFFFFFFFFFFFFFFFFFFFFFFFFF52
:100EB000FFFFFFFFFFFFFFFFFFFFFFFFFFFFFFFF42
:100EC000FFFFFFFFFFFFFFFFFFFFFFFFFFFFFFFF32
:100ED000FFFFFFFFFFFFFFFFFFFFFFFFFFFFFFFF22
:10200000A88B0020F5EC00086DDC00086FDC0008F0
:1020100079DC000883DC00088DDC0008000000008B
:102020000000000000000000000000003B860008E7
:1020300097DC000800000000F185000843AA0008B2
:1020400041EE000845EE000849EE000827DE0008D2
:102050004DEE000851EE000855EE000899DC00082E
:1020600059EE00085DEE000861EE000865EE00081C
:1020700069EE00086DEE000871EE000875EE0008CC
:1020800079EE00087DEE000881EE000800000000F7
:10209000000000000000000000000000B9DC0008A3
:1020A00085EE000889EE00088DEE000891EE00082C
:1020B00095EE000899EE00089DEE0008A1EE0008DC
:1020C000A5EE0008A9EE0008ADEE0008B1EE00088C
:1020D0008DDD0008D5DC000803DD000831DD0008D7
:1020E000B5EE0008BDDD0008B9EE000800000000F4
:1020F00000000000000000000000000000000000E0
:102100000000000000000000BDEE0008C1EE000865
:102110005FDD0008C5EE0008C9EE0008CDEE00083E
:10212000D1EE0008D5EE0008D9EE0008DDEE00087B
:10213000E1EE0008E5EE0008E9EE0008000000000E
:10214000000000000000000000000000EDEE0008AC
:1021500080B500F057FE0020DFF89C1B81F8460098
:10216000012001F044FE0020DFF88C1B48710020A4
:10217000DFF8841B81F8440001BD80B501220121F4
:10218000DFF8240A02F0F1F901224FF40071DFF8C0
:102190001C0A02F0EAF940F24C4002F0DFFC002297
:1021A0004FF40071DFF8040A02F0DFF90120DFF8D4
:1021B000441C087001BDDFF83C0C0078704780B506
:1021C0000020DFF8381B81F867000120DFF8281BAA
:1021D00081F8460001224FF40071DFF8D00902F0C7
:1021E000C4F94FF4487002F0B9FC00224FF40071BA
:1021F000DFF8B80902F0B9F940F6B83002F0AEFCE9
:1022000000220121DFF8A00902F0AFF901BD80B57D
:1022100002F0EEFD00F0F6FD01BD000010B5DFF8A4
:10222000E00A0078352801DB00F0CEFDDFF8D00AA7
:102230000078002819D101223421DFF8C80A03F000
:1022400048FA040001F0D6FA022806D10C2C04D07A
:102250000C20DFF8AC1A087007E0601E332803D2A8
:10226000DFF89C0A047000E000BFDFF8940A0078F1
:1022700000281DD0DFF8880A0078342818DADFF843
:10228000900C0078002803D002280AD006D30BE077
:10229000DFF86C0A007800F08BFC09E000F00DFD1F
:1022A00006E000F031FD03E00020DFF8641C087058
:1022B00010BD80B503E09DF8000000F028F800A8EC
:1022C00001F02BFA10F1010FF5D101BD80B5C0B2BC
:1022D00001F018FA01BDDFF8B41B0988DFF81C2BE8
:1022E0008854DFF8A80B0088401CDFF8A01B08808A
:1022F000DFF8980B008840F2DB51884205DB0020B4
:10230000DFF8881B0880012000E00020704710B52E
:102310000400DFF8EC0A0078002805D002282FD04E
:1023200022D3032869D078E00020DFF8601B088002
:1023300040F2DC520021DFF8C40A03F0FBF9E4B2FA
:102340000D2C04D10120DFF8B81A08700BE0200032
:10235000C0B2FFF7C0FF0220DFF8A41A0870012006
:10236000DFF8441D086060E0E4B20A2C07D10220C7
:10237000DFF88C1A08700120DFF82C1D086054E08B
:10238000E4B20D2C0DD1DFF8200D0068002808D034
:102390000320DFF86C1A08700020DFF80C1D0860BD
:1023A0002AE001F027FA012822D1DFF8E00A0088AC
:1023B000DFF8481A401810F8010C3E2813D1E4B297
:1023C000202C10D10020DFF8381A0870022001F00C
:1023D000FDF90120DFF84C1B0870002200210C20C1
:1023E000FFF774FF08E02000C0B2FFF774FF03E0BE
:1023F0002000C0B2FFF76FFF17E0E4B20A2C0BD148
:102400000020DFF8FC190870DFF8800A0188C9B2E3
:10241000DFF8E80900F00AF807E00020DFF8E0192B
:1024200008700020DFF8801C086010BD70B5040043
:102430000025C9B2200000F092F9002840F08E81FA
:10244000DFF8BC08007816283BD1DFF8DC0A00680A
:1024500003F07AF90200DFF8D00A0168200003F0E7
:102460008EF900280DD0DFF8C40A006803F06CF97B
:102470000200DFF8B80A0168200003F080F90028A4
:1024800008D10120DFF89C1A08700125082001F00E
:1024900065F952E1DFF8A00B006803F055F902007E
:1024A000DFF8940B0168200003F069F9002840F080
:1024B00044810120DFF86C1A08700125FFF7A7FEA0
:1024C0003BE1DFF86C0A006803F03EF90200DFF838
:1024D000600A0168200003F052F9002805D10320AA
:1024E000DFF8401A0870012527E1DFF8500B00687B
:1024F00003F02AF90200DFF8440B0168200003F022
:102500003EF9002811D10120DFF8181A08700125C2
:10251000062001F023F9FFF77AFE002001F056F9BA
:10252000DFF81C0B03F040F907E1DFF8180B006837
:1025300003F00AF90200DFF80C0B0168200003F039
:102540001EF9002813D10120DFF8D81908700125E1
:10255000DFF8A40790F84600012804D0002001F01D
:10256000FDF8FFF754FE002001F030F9E5E0DFF858
:10257000400B006803F0E8F80200DFF8340B016854
:10258000200003F0FCF800280ED10120DFF8941998
:1025900008700125002001F0E1F8FFF738FEDFF8B0
:1025A000140B03F001F9C8E0DFF80C0B006803F02E
:1025B000CBF80200DFF8000B0168200003F0DFF821
:1025C000002827D10220DFF85C1908700125DFF808
:1025D000EC0A03F0E9F8DFF828070078282804D08F
:1025E000DFF81C070078242804D10020DFF8341914
:1025F0000870A2E0DFF8C80A00781528C0F29D80B4
:10260000002001F0ABF8FFF702FE0020DFF8B01A5F
:10261000087092E0DFF8AC0A006803F095F8020059
:10262000DFF8A00A0168200003F0A9F8002804D10F
:10263000DFF8940A03F0B8F87FE0DFF8900A00684A
:1026400003F082F80200DFF8840A0168200003F03A
:1026500096F8002805D10120DFF8C8180870012578
:102660006BE0DFF8D409006803F06EF80200DFF8D1
:10267000C8090168200003F082F8002805D1012074
:10268000DFF8A0180870012557E0DFF8440A006859
:1026900003F05AF80200DFF8380A0168200003F05E
:1026A0006EF800280CD10120DFF878180870012599
:1026B00001F072F8022840D1032001F04FF83CE00D
:1026C000DFF83C0600782E2805D10120DFF85418E9
:1026D0000870012531E0DFF828060078DFF8881D52
:1026E0000870200003F030F8DFF87C1D91F86510C9
:1026F000D1F16401814206D2DFF86C0D90F86500DB
:10270000D0F1640603E0200003F01EF80600B6B224
:1027100032002100DFF8500D90F86500DFF8483DE9
:10272000C018401C03F052F8DFF83C0D90F865002B
:102730003018DFF8341D81F86500012D0ED1DFF867
:10274000C0050078DFF8201D0870200002F0FCFFB3
:10275000DFF8141D81F8650000F0CFF970BDF8B501
:1027600004000D000026012744E0FFB21420DFF82A
:10277000B01700FB0710401C02F0E6FF0200FFB29A
:102780001420DFF89C1700FB0710411CDFF86C06D3
:1027900002F0F5FF00282CD1FFB2002F27D0FFB2A6
:1027A000112F24DAFFB21420DFF8741700FB071092
:1027B000C06800280AD02900C9B22000FFB2142244
:1027C000DFF85C3702FB0732D2689047FFB2142073
:1027D000DFF84C1700FB07100069002807D0FFB294
:1027E0001420DFF83C1700FB071000698047112711
:1027F00001267F1CFFB2112FB7DB3000F2BD7047FE
:10280000C9B2092907DB007A312804D10120DFF899
:10281000E814086003E00020DFF8DC14086070476B
:102820000021C279303A0A2A07D281790A22C07976
:1028300002FB0100B0F1100102E08079B0F130013B
:10284000C9B2202904DB1F20DFF8AC1408710AE0AC
:10285000C9B2202903DADFF8A004017103E00020E7
:10286000DFF8941408717047002100F20D0206E0B1
:102870000A20137800FB0130B0F13001521C1078AF
:102880000D280BD010782C2808D010783028EFDADB
:1028900010783A28ECDB002006E0521C10780A2859
:1028A000FBD1521C080080B2704710B50400002014
:1028B000E17A30390800C0B2012802D002280CD0D9
:1028C00042E0022000F06DFFDFF8A00B02F06CFF89
:1028D0000120DFF89C1B087036E040F2DC5200213A
:1028E000DFF8380602F026FF2000FFF7BDFF40F2B8
:1028F000DD51884202DB40F2DC5002E02000FFF7AD
:10290000B3FFDFF8F41408800020DFF8641B0870C0
:10291000DFF8E4040088002815D0DFF8DC04018823
:10292000DFF8900B02F040FFDFF88C0B00780028F6
:1029300003D10120DFF8801B0870DFF8BC04008899
:1029400000F033FFFFE7FFE710BD80B50021007AFC
:1029500030380100C9B201290CD100F01DFF052853
:1029600002D1062000F0FAFE0120DFF8901381F872
:102970006C0007E0C9B2002904D10020DFF87C1305
:1029800081F86C0001BD7047704780B50322C11DFE
:10299000DFF8280B006802F0F2FE00280BD100F0EF
:1029A000FBFE032802D1042000F0D8FE0120D34909
:1029B00081F86B0007E0DFF8080B02F0F5FE00205D
:1029C000CE4981F86B0001BD10B50024007B303882
:1029D0000400E4B2002C0ED0002200212C20FFF7CE
:1029E00075FCDFF8E00A0470DFF8DC0D0078401CAD
:1029F000DFF8D41D087010BD80B50021407A303852
:102A00000100C9B2012907D0C9B2052904D0C9B251
:102A1000DFF8DC0D02F0C8FE01BD704780B5417AD9
:102A20002D2912D1817A3039C27A2E2A07D0C27A62
:102A30000A2A04D00A225143C07A30384118C9B258
:102A40004842AD4981F845000FE0417A3039827A39
:102A50002E2A07D0827A0A2A04D00A225143807A89
:102A600030384118A44880F84510A34890F9451023
:102A7000DFF8A80D02F098FE01BD7047704770475F
:102A800070472DE9F0410400884600260025002704
:102A90000322CCA1200002F072FE00282BD10026D8
:102AA00000E0761CF6B25FFA88F8B8F101008642C1
:102AB00004DAF6B2305D3A28F3D13500032607E098
:102AC0000A20F6B2315D00FB0710B0F13007761C2A
:102AD000F6B2EDB2AE4204D2F6B2305D30380A281A
:102AE000EED3BFB2002F06D0390089B2EDB228195B
:102AF000401C00F087FEBDE8F08180B5002000E0BA
:102B0000401CC0B2082818D2DFF85C190978C0B29E
:102B1000DFF87C2D12F830209142F1D1C0B2DFF8FD
:102B2000701D11EBC0014968002906D0C0B2DFF862
:102B3000601D11EBC0004068804701BD80B500F00A
:102B40002BFE062802D1072000F008FE01BD7047C9
:102B500080B500F021FE012802D1022000F0FEFD28
:102B600001BD704780B5DFF80009407830380A2889
:102B700006D20F22DFF81C1CDFF8980302F05CFE7F
:102B800001BD80B50F22DFF80C1CE34802F054FEB3
:102B900001BD704780B52022DFF8F81BDFF8F40C88
:102BA00002F04AFE01BD0000000C0140001001408F
:102BB00010B50400E4B26001DFF8401C405CDFF8AF
:102BC000401C08700020DFF8A01808700020DFF813
:102BD000981881F8650064220021DFF8B80B02F034
:102BE000A9FDE4B2DFF8140C10EB44104069002892
:102BF00017D0E4B2DFF8040C10EB4410C0690028D1
:102C00000FD02000C0B200F043F9E4B2DFF8EC0BC3
:102C100010EB4410007D000703D52000C0B200F087
:102C200042FBDFF85C0D008840F2E731884204DBAC
:102C300040F2E630DFF8481D08800D20DFF8401D27
:102C40000988DFF8402D8854DFF8340D0088401CD7
:102C5000DFF82C1D08800A20DFF8241D0988DFF822
:102C6000242D8854DFF8180D0088401CDFF8101D53
:102C70000880DFF80C0D0188DFF8080D00F05BFD1F
:102C8000E4B2DFF8780B10EB44108069DFF8C81B62
:102C9000086002F064FFDFF8C01B09680818DFF85D
:102CA000F81B0860DFF8F40B0078401CDFF8EC1B21
:102CB000087002209649087010BD80B5002099491F
:102CC000087002F04CFFDFF8901B09680818DFF865
:102CD000C81B086002208E490870DFF8C00B00781E
:102CE000401CDFF8B81B0870DFF8940C0188DFF88F
:102CF000940C00F020FD01BD0C840020A080002079
:102D00006A8700207886002080B502F028FFDFF86F
:102D1000881B0968814203D38248007802283DD18C
:102D2000DFF87C0B00780C2802D100F04DF847E06A
:102D3000DFF8680B0078DFF8C81A0978884203D2F8
:102D40000120734908703BE076480078002811D1D3
:102D5000DFF84C0B0078DFF8A41A11EB4010007D6F
:102D6000C00607D5002000F0F9FC00F02DF8FFF7B1
:102D70004EFA25E06B48007800280CD1DFF8200BD4
:102D80000078DFF8781A11EB4010007DC00702D4FC
:102D900000F01AF814E000F017F811E0DFF8000B6B
:102DA00000780C2806D100F025FD022808D100F09B
:102DB0000BF805E05B480078012801D100F004F829
:102DC00001BD000049504400002056490870002011
:102DD0004F49087000200A4908700020DFF8C01A27
:102DE00008700020DFF8B41A08700020DFF8981B84
:102DF000086070476E8700205A870020005000202E
:102E00006987002080B500204649087000204049AD
:102E100008700020DFF8881A08700020DFF87C1A9C
:102E200008700020A04908600020DFF8601B0870CF
:102E300007220021DFF8580B02F07CFC4FF47A7275
:102E40000021DFF8400B02F075FC0020DFF8441B86
:102E500081F86B000020DFF83C1B81F86C0000203B
:102E6000DFF8341B08700020DFF82C1B48704FF48B
:102E700096720021DFF8240B02F05CFC0020DFF8E2
:102E8000CC1C0860002000F0A1FC01BD5887002088
:102E900038B50400E4B2DFF8640910EB4410401CBC
:102EA00002F052FC0500EDB22A00E4B2DFF84C0952
:102EB00010EB4410411CDFF8CC0A02F087FCEDB2A5
:102EC000DFF8BC0A058031BD80B5DFF8CC0A027896
:102ED00076A1DFF8680C0088DFF8A83AC01803F084
:102EE00001F9DFF8581C0988C0B24018DFF84C1C03
:102EF00008800D20DFF8441C0988DFF8882A8854F0
:102F0000DFF8380C0088401CDFF8301C088001BD59
:102F1000688700203284002041840020DC55002096
:102F2000000000206B870020580300206003002071
:102F30005403002010B5DFF8080C007801282CD1CC
:102F4000DFF8000C4488DFF8380A0088A4B22018A3
:102F5000B0F5797F6CDCA4B22200DFF8EC1BDFF85F
:102F6000200A0088DFF81C3AC01802F065FCDFF880
:102F7000100A00882018DFF8081A08801A20DFF8E5
:102F8000001A0988DFF8FC298854DFF8F409008862
:102F9000401CDFF8EC1908804AE0DFF8A80B048831
:102FA000DFF8DC090088A4B22018B0F5797F21DCB5
:102FB000A4B22200DFF8981BDFF8C4090088DFF80C
:102FC000C439C01802F038FCDFF8B40900882018B2
:102FD000DFF8AC1908801A20DFF8A4190988DFF897
:102FE000A4298854DFF898090088401CDFF890195C
:102FF00008801DE0DFF88809008840F2E631884249
:1030000004DB40F2E530DFF8781908801B20DFF898
:1030100070190988DFF86C298854DFF86409008882
:10302000401CDFF85C190880DFF8280B02F0BCFBBD
:10303000002000F0CBFB10BD6403002078030020CB
:1030400008EC00087C03002080B52220DFF8EC1A91
:103050000988DFF830298854DFF8E00A0088401C2E
:10306000DFF8D81A08800522DFF8EC1ADFF8CC0A5E
:103070000088DFF81039C01802F0A8FBDFF8BC0A9E
:103080000088401DDFF8B41A08802220DFF8AC1A4F
:103090000988DFF8F0288854DFF8A00A0088401C6F
:1030A000DFF8981A088001BDA8860020256400007A
:1030B0006803002064EC00088003002074EC000822
:1030C000738700207003002028ED00086C030020A7
:1030D0005C03002010B504227AA1DFF8800A02F018
:1030E00075FB0F22DFF8781ADFF8780A02F06EFB22
:1030F00000F096FB2220DFF8441A0988DFF88428C4
:103100008854DFF8380A0088401CDFF8301A08803D
:10311000DFF8480A02F018FB0400E4B22200DFF8EE
:103120003C1ADFF8180A0088DFF85838C01802F097
:103130004DFBDFF8080A0088E4B22018DFF8FC191C
:1031400008802220DFF8F4190988DFF8382888542D
:10315000DFF8E8090088401CDFF8E01908802C201F
:10316000DFF8D8190988DFF81C288854DFF8CC0963
:103170000088401CDFF8C41908802220DFF8BC1941
:103180000988DFF800288854DFF8B0090088401C5F
:10319000DFF8A8190880DFF8CC0902F0D5FA04009E
:1031A000E4B22200DFF8BC19DFF890090088DFF8EC
:1031B000D437C01802F00AFBDFF880090088E4B2B7
:1031C0002018DFF8781908802220DFF870190988A4
:1031D000DFF8B0278854DFF864090088401CDFF866
:1031E0005C1908802C20DFF854190988DFF894272F
:1031F0008854DFF848090088401CDFF8401908802F
:103200002220DFF838190988DFF878278854DFF89A
:103210002C090088401CDFF824190880DFF84809D1
:1032200002F092FA0400E4B22200DFF83C19DFF861
:103230000C090088DFF84C37C01802F0C7FADFF835
:10324000FC080088E4B22018DFF8F018088022207B
:10325000DFF8E8180988DFF82C278854DFF8DC0845
:103260000088401CDFF8D418088010BD10B5002479
:103270000222DFF8D018DFF808070088DFF80437EB
:10328000C01802F049FF0400DFF8F4060088201897
:10329000DFF8EC1608800020DFF8A4180870012081
:1032A00000F094FA10BD80B5C0B2DFF8C01851F834
:1032B0002010002905D0C0B2DFF8B01851F8200066
:1032C000804701BD544350007047704770477047B6
:1032D00010B5042276A1DFF8840802F077FA0F22F5
:1032E000DFF87C18DFF87C0802F070FA00F098FA3A
:1032F0002220DFF848180988DFF888268854DFF88C
:103300003C080088401CDFF834180880DFF84C08BF
:1033100002F01AFA0400E4B22200DFF84018DFF8E5
:103320001C080088DFF85C36C01802F04FFADFF89E
:103330000C080088E4B22018DFF80018088022206A
:10334000DFF8F8170988DFF83C268854DFF8EC0727
:103350000088401CDFF8E41708802C20DFF8DC1719
:103360000988DFF820268854DFF8D0070088401C41
:10337000DFF8C81708802220DFF8C0170988DFF8B7
:1033800004268854DFF8B4070088401CDFF8AC1727
:103390000880DFF8D00702F0D7F90400E4B2220079
:1033A000DFF8C017DFF894070088DFF8D835C018B9
:1033B00002F00CFADFF884070088E4B22018DFF886
:1033C0007C1708802220DFF874170988DFF8B425FD
:1033D0008854DFF868070088401CDFF86017088011
:1033E0002C20DFF858170988DFF898258854DFF873
:1033F0004C070088401CDFF8441708802220DFF8C3
:103400003C170988DFF87C258854DFF830070088EE
:10341000401CDFF828170880DFF84C0702F094F909
:103420000400E4B22200DFF84017DFF8100700883C
:10343000DFF85035C01802F0C9F9DFF8000700883E
:10344000E4B22018DFF8F41608802220DFF8EC162A
:103450000988DFF830258854DFF8E0060088401C32
:10346000DFF8D816088010BD8C820020E0EA000842
:103470006F87002010B500240222DFF8C816DFF89D
:1034800000050088DFF8FC34C01802F045FE040097
:10349000DFF8EC0400882018DFF8E414088000202E
:1034A000DFF89C160870012000F090F910BD0000B4
:1034B0005443500060E90008718700207403002025
:1034C000F8EA00086D870020704710B52220DFF869
:1034D0006C160988DFF8AC248854DFF86006008891
:1034E000401CDFF858160880DFF8840602F02CF93B
:1034F000421EDFF87C16DFF844060088DFF88434CB
:10350000C01802F063F9DFF834060488DFF86006BB
:1035100002F01AF9401E0019DFF820160880222058
:10352000DFF818160988DFF85C248854DFF80C06E9
:103530000088401CDFF8041608802C20DFF8FC15FA
:103540000988DFF840248854DFF8F0050088401C23
:10355000DFF8E81508802220DFF8E0150988DFF899
:1035600024248854DFF8D4050088401CDFF8CC15EB
:103570000880DFF8000602F0E7F8421EDFF8F415D5
:10358000DFF8B8050088DFF8FC33C01802F01EF938
:10359000DFF8A8050488DFF8DC0502F0D5F8401E46
:1035A0000019DFF8981508802220DFF890150988A7
:1035B000DFF8D0238854DFF884050088401CDFF84A
:1035C0007C1508802C20DFF874150988DFF8B423F7
:1035D0008854DFF868050088401CDFF86015088013
:1035E0002220DFF858150988DFF898238854DFF87F
:1035F0004C050088401CDFF844150880DFF878058A
:1036000002F0A2F8421EDFF87015DFF830050088DE
:10361000DFF87033C01802F0D9F8DFF8200504880D
:10362000DFF8540502F090F8401E0019DFF80C1581
:1036300008802220DFF804150988D24A8854DFF870
:10364000FC040088401CDFF8F414088010BD03203F
:103650003121DFF8E8241288CA4BD1542C21DFF83D
:10366000DC241288C74BD1543221DFF8D0241288D1
:10367000C44BD154DFF8C4140988C0B24018DFF835
:10368000BC1408807047DFF8F4040078092810DAC9
:10369000DFF8E80400783030DFF8A0140988B94A70
:1036A0008854DFF898040088401CDFF890140880E4
:1036B00027E0DFF8C80400780A2190FBF1F03030F1
:1036C000DFF878140988AF4A8854DFF8700400885E
:1036D000401CDFF868140880DFF8A00400780A2195
:1036E00090FBF1F201FB12003030DFF85014098832
:1036F000A44A8854DFF844040088401CDFF83C14D6
:103700000880704780B50121009101233422C0B2A6
:1037100001009F4801F0A6FF01BD10B50400210083
:10372000012000F054FC002801D0207801E05FF077
:10373000FF3000B210BDF8B504000D0000260027D0
:1037400005E0BFB2395D012000F09DFC7F1CBFB2D7
:10375000ADB2AF42F5D33000C0B2F2BDDFF82014F5
:1037600091F84410C0B2814212D0C0B20A2803DAE4
:10377000DFF80C1481F84400C0B2082804DB0120F3
:10378000DFF8FC13086003E00020DFF8F4130860A2
:10379000704700008D820020DFF8E40390F84400B9
:1037A00070477C4981F86A00704780B240F2DD5171
:1037B000884205DB40F2DC50DFF8C813088002E0E5
:1037C000DFF8C013088070477487002080B5DFF8E9
:1037D0007C134871DFF874034079002807D002F0A9
:1037E000BEF900F598508830DFF89C13086001BDE1
:1037F00010EB0008DFF8880340797047ECD300082D
:103800009803002080B589B2002905D089B202F062
:10381000F8FC0020FFF7DAFF002002BD7CE9000879
:1038200010B58CB000240622002100A801F082FF10
:1038300002A803F0D4F902220DF10D0100A802F054
:103840006BFC0400641CE4B2220000A9DFF818033A
:1038500001F0BCFF0CB010BD5003002080B5DFF8B4
:10386000EC0290F8460001280FD14FF40061DFF818
:103870001C0300F069FE002805D1DFF8140301F0F5
:1038800093FF002002E0012000E0012002BD0000C3
:10389000CCE5000812840020A48600206C8700205C
:1038A0006A87002070B4002805D00178322902D13F
:1038B0004178302901D000205FE081780A22C37866
:1038C00002FB01311039C9B2042291FBF2F303FB70
:1038D0001213002B0CD042790A23847903FB024295
:1038E000DFF8B03213EB4202A2F2224212880BE060
:1038F00042790A23847903FB0242DFF8983213EB02
:103900004202A2F20A421288037A0A24457A04FB90
:10391000035340F211241B1B9A18C9B240F26D13D5
:103920000C00E4B2641E042594FBF5F4641C03FB54
:10393000014192B25118DFF860225143C27A0A2342
:10394000047B03FB0242B2F504724FF46163847B93
:103950000A25C67B05FB0464B4F504743C256C435E
:1039600003FB0242437C0A24807C04FB0300B0F585
:1039700004708018081810F5E14070BC7047000012
:1039800054870020386B0020A8860020698700201B
:1039900078860020A0800020A47D0020A67D002045
:1039A000F0B58DB002A803F00EFA9DF808000128CA
:1039B00040F0B78079480078002852D19DF809007E
:1039C0004FF47A719DF80A2064235A4301FB0020CA
:1039D0009DF80B100A2202FB01009DF80C1008183C
:1039E00000F53C50B0309DF80E100A229DF80F30C3
:1039F00002FB013110399DF811200A239DF8124075
:103A000003FB0242103A9DF814300A249DF8155029
:103A100004FB0353103B9DF817400A259DF81860DE
:103A200005FB0464103C9DF81A500A269DF81B7093
:103A300006FB0575103DEDB20195E4B20094DBB2D2
:103A4000D2B2C9B280B204F06BFB04F02AFA544936
:103A500008605348006801F0E1FD01204F490870FB
:103A60005AE04F480068002856D004F01AFA4C4932
:103A70000968401AB0F5167F4ED99DF809004FF439
:103A80007A719DF80A2064235A4301FB00209DF8B7
:103A90000B100A2202FB01009DF80C10081800F51B
:103AA0003C50B0309DF80E100A229DF80F3002FBFA
:103AB000013110399DF811200A239DF8124003FBB3
:103AC0000242103A9DF814300A249DF8155004FB68
:103AD0000353103B9DF817400A259DF8186005FB1D
:103AE0000464103C9DF81A500A269DF81B7006FBD2
:103AF0000575103DEDB20195E4B20094DBB2D2B28F
:103B0000C9B280B204F00CFB04F0CBF92449086080
:103B10002348006801F082FD0DF10900FFF7C2FEA5
:103B200009E008A804F089FB002803D108A8FFF7E2
:103B3000B9FE00E000200DB0F0BD00005487002069
:103B40007087002048670020346B00200C84002020
:103B50004C6700209CE70008E0ED0008DD800020B5
:103B600084EC0008E1800020FF800020ACE1000828
:103B7000A1800020B5800020C98000206D87002032
:103B80000C84002056870020B086002000080140E9
:103B900028EB000840E600088051010072870020F1
:103BA000AC86002000B585B0C0B2002807D002283E
:103BB00000F08F8049D3032800F0D18015E14FF445
:103BC0008060ADF8000004208DF8030000A9DFF844
:103BD000700800F055FC4FF40070ADF800000120B3
:103BE0008DF8020018208DF8030000A9DFF85008B6
:103BF00000F046FC5FF4E13001900020ADF80800D1
:103C00000020ADF80A000020ADF80C000020ADF84F
:103C100010000C20ADF80E0001A9DFF8280804F010
:103C20000BFC012240F22551DFF8180804F074FC67
:103C3000002240F22661DFF80C0804F06DFC01213F
:103C4000DFF8000804F05AFCCFE00820ADF80000CF
:103C500004208DF8030000A9DFF8E40700F010FC51
:103C60000420ADF8000001208DF8020018208DF826
:103C7000030000A9DFF8C80700F002FC5FF4E130A0
:103C800001900020ADF808000020ADF80A000020E7
:103C9000ADF80C000020ADF810000C20ADF80E00BF
:103CA00001A9DFF8A40704F0C7FB012240F2255167
:103CB000DFF8940704F030FC002240F22661DFF8C0
:103CC000880704F029FC0121DFF87C0704F016FCCA
:103CD0008BE04FF40060ADF8000004208DF8030085
:103CE00000A9DFF8680700F0CBFB4FF48060ADF867
:103CF000000001208DF8020018208DF8030000A9B3
:103D0000DFF8480700F0BCFB4FF41650019000208C
:103D1000ADF808000020ADF80A000020ADF80C0056
:103D20000020ADF810000C20ADF80E0001A9DFF85E
:103D3000200704F081FB012240F22551DFF8100733
:103D400004F0EAFB002240F22661DFF8040704F0E9
:103D5000E3FB0121DFF8F80604F0D0FB45E04FF467
:103D60008060ADF8000001208DF802001C208DF865
:103D7000030000A9DFF8DC0600F082FB4FF40060CE
:103D8000ADF8000004208DF8030000A9DFF8C40698
:103D900000F076FB42F6A00001900020ADF808008C
:103DA0000020ADF80A000020ADF80C000020ADF8AE
:103DB00010000C20ADF80E0001A9DFF89C0604F0FD
:103DC0003BFB012240F22551DFF88C0604F0A4FBF6
:103DD000002240F22661DFF8800604F09DFB0121FD
:103DE000DFF8740604F08AFBFFE705B000BD80B57C
:103DF000C0B2042880F2EA800021C0B21C22DFF8A1
:103E00005C3602FB003291800021C0B21C22DFF838
:103E10004C3602FB003211800021C0B21C22DFF8B8
:103E20003C3602FB003251800021C0B21C22DFF878
:103E30002C3602FB003211820021C0B21C22DFF8B6
:103E40001C3602FB003291810021C0B21C22DFF837
:103E50000C3602FB0032D1810021C0B21C22DFF8F7
:103E6000FC3502FB00329161C0B2002806D0022866
:103E700058D02ED3032800F08080A7E0DFF8E015AB
:103E8000C0B21C22DFF8D43502FB0032916040F250
:103E9000DC51C0B21C22DFF8C43502FB0032D180F5
:103EA000DFF8C015C0B21C22DFF8B03502FB0032CB
:103EB00051614FF47A71C0B21C22DFF8A03502FBC9
:103EC00000325182C0B200F071FA0020FFF76AFEA2
:103ED0007CE0DFF89415C0B21C22DFF8803502FBCD
:103EE000003291600A21C0B21C22DFF8703502FB5B
:103EF0000032D180DFF87415C0B21C22DFF85C35C7
:103F000002FB003251610A21C0B21C22DFF84C359D
:103F100002FB00325182C0B200F048FA0120FFF7E4
:103F200041FE53E0DFF84815C0B21C22DFF82C3503
:103F300002FB003291604FF41671C0B21C22DFF810
:103F40001C3502FB0032D180DFF82815C0B21C22DC
:103F5000DFF8083502FB0032516140F2B451C0B2C3
:103F60001C22DFF8F83402FB00325182C0B200F0AC
:103F70001DFA0220FFF716FE28E0DFF8FC14C0B29D
:103F80001C22DFF8D83402FB003291601421C0B249
:103F90001C22DFF8C83402FB0032D180DFF8DC14C9
:103FA000C0B21C22DFF8B43402FB0032516114218C
:103FB000C0B21C22DFF8A43402FB00325182C0B22E
:103FC00000F0F4F90320FFF7EDFDFFE701BD70B548
:103FD00004000D000026E4B2042C01DB002051E0B7
:103FE000002D01D100204DE004F01DFBE4B21C20A7
:103FF000DFF8681400FB04100088E4B21C21DFF82D
:104000005C2401FB04214988884237D0E4B21C209B
:10401000DFF8481400FB04104088401CE4B21C2167
:10402000DFF8382401FB04214880E4B21C20DFF8CB
:104030002C1400FB04104088E4B21C21DFF81C247F
:1040400001FB0421C988884207D30020E4B21C2167
:10405000DFF8082401FB04214880E4B21C20DFF8CB
:10406000FC1300FB04104088E4B21C21DFF8EC23B1
:1040700001FB04218968405C28700126002004F0BF
:10408000D9FA300070BD70B504000D000026E4B20E
:10409000042C01DB002098E004F0C5FAE4B21C20F7
:1040A000DFF8B81300FB0410008AE4B21C21DFF82B
:1040B000AC2301FB0421498A884245D2E4B21C208A
:1040C000DFF8981300FB0410008A401CE4B21C21A6
:1040D000DFF8882301FB04210882E4B21C20DFF80A
:1040E0007C1300FB04108089401CE4B21C21DFF823
:1040F0006C2301FB04218881E4B21C20DFF85C13EF
:1041000000FB04108089E4B21C21DFF8502301FB7E
:104110000421498A884207D30020E4B21C21DFF839
:104120003C2301FB04218881E4B21C20DFF82C131E
:1041300000FB04108089E4B21C21DFF8202301FB7E
:104140000421496945540126E4B21C20DFF80C1310
:1041500000FB04108069002833D12000C0B200F0B9
:1041600035F80120E4B21C21DFF8F02201FB042124
:104170008861E4B2002C05D0022C13D00AD3032CA2
:1041800018D01EE0012240F22661DFF8B80204F0E8
:10419000C3F916E0012240F22661DFF8AC0204F018
:1041A000BBF90EE0012240F22661DFF8A40204F020
:1041B000B3F906E0012240F22661DFF89C0204F028
:1041C000ABF9002004F036FA300070BD10B5C0B273
:1041D000002805D0022848D045D3032847D048E01E
:1041E000984AC0B21C21DFF8743201FB0031098A01
:1041F000491EC0B21C23994C03FB00431982C0B274
:104200001C21964B01FB0031C989491CC0B21C23FB
:10421000924C03FB0043D981C0B21C218F4B01FBA0
:104220000031C989C0B21C238C4C03FB00435B8A5C
:10423000994206D30021C0B21C23884C03FB0043E3
:10424000D981C0B21C21854B01FB0031C989C0B2A4
:104250001C23824C03FB00404069095C89B21000BA
:1042600004F083F910BD784ABBE7794AB9E77A4A86
:10427000B7E7F7E710B50100C9B2002905D0022958
:1042800019D016D3032918D019E06E48C9B21C22E0
:10429000724B02FB01329289C9B21C236F4C03FBA3
:1042A0000143DB899A420BD00800C0B2FFF78EFFB2
:1042B00012E06548EAE76648E8E76748E6E70BE0AA
:1042C0000022C9B21C23654C03FB01418A61002214
:1042D00040F2266104F020F910BD000081B0C0B2A8
:1042E000042861DAC0B2002805D0022807D004D320
:1042F000032806D007E0534905E0534903E0544939
:1043000001E05549FFE70A888DF8002089888DF87B
:1043100001109DF800100322114241D1C0B21C21AE
:104320004E4A01FB00210988491CC0B21C224B4B9C
:1043300002FB00321180C0B21C21484A01FB00215F
:104340000988C0B21C22454B02FB0032D288914240
:1043500006D30021C0B21C22404B02FB0032118068
:10436000C0B21C213D4A01FB00210988C0B21C22B9
:104370003A4B02FB0032528891420FD0C0B21C214E
:10438000364A01FB00210988C0B21C22334B02FBD4
:10439000003080689DF801200A5405E000BF03E06A
:1043A000C0B2012800D100BF01B07047C0B20028E0
:1043B00005D0022805D003D3032803D003E07047BB
:1043C000FDE7FCE7FBE7FAE7C0B2042837DAC0B242
:1043D0001C21224A01FB0021002930D00021C0B25B
:1043E0001C221E4B02FB003291800021C0B21C2215
:1043F0001A4B02FB003211800021C0B21C22174B65
:1044000002FB003251800021C0B21C22134B02FB80
:10441000003211820021C0B21C22104B02FB00327C
:1044200091810021C0B21C220C4B02FB0032D181D1
:104430000021C0B21C22094B02FB00308161704791
:10444000000801400038014000440040000C0140D9
:104450000048004000100140004C00401C82002039
:10446000B85B002008730020608600206C86002066
:104470007479002094610020FC85002010860020C3
:10448000F0B400220026002400250023002791F824
:1044900003C01CF00F0C624691F803C05FEACC6CBD
:1044A00001D58B781A430B781B0621D003680024B2
:1044B00006E0CD78482D02D10125A5400561641C98
:1044C000082C14D20125A5400E882E40AE42F6D10C
:1044D000A5000F2616FA05F7BB4312FA05F52B4384
:1044E000CD78282DE5D10125A5404561E7E703609A
:1044F0000B88FF2B26DD4368002420E0012514F102
:104500000806B5400E882E40AE4217D1A5000F26F2
:1045100016FA05F7BB4312FA05F52B43CD78282D83
:1045200004D1012514F10806B5404561CD78482D28
:1045300004D1012514F10806B5400561641C082C5E
:10454000DCD34360F0BC70470022806889B2084227
:1045500001D0012200E000221000C0B2704789B2F1
:104560000161704789B241617047D2B2002A02D01E
:1045700089B2016101E089B24161704770B40022E3
:10458000002400230025002802D5304A136801E0EA
:104590002F4A1368C0F3034582B210F44014B4F5F7
:1045A000401F08D133F07063294C246834F07064E4
:1045B000274D2C600FE0C40205D50324AC40A34373
:1045C00053F0706307E0440DE4B2240112FA04F4DE
:1045D000A34353F07063C9B2002905D0410DC9B29D
:1045E000090112FA01F10B43002802D517480360B4
:1045F00001E01748036070BC704710B400220F231D
:1046000011F00304E4B2A400A3401A00C9B28B1055
:10461000104C54F8233033EA0202C9B28B100D4C0F
:1046200044F82320C9B28A100A4B53F82220C0B2A2
:1046300011F00303DBB29B0098401043C9B289100C
:10464000044A42F8210010BC704700001C000140E1
:104650000400014008000140E0B5DFF81007DFF872
:1046600010170860DFF80C07DFF80C17086042F23B
:104670001000DFF8081708605FF04430DFF800171B
:1046800008605FF04430DFF8FC1608600020DFF8B7
:10469000F8160860DFF8F406DFF8F41608605FF03B
:1046A0004430DFF8F01608604FF48050DFF8E81669
:1046B00008605FF04430DFF8E41608605FF04430D3
:1046C000DFF8DC1608600020DFF8D816086000F07C
:1046D00041FB002821D108210120FFF78EFF4FF474
:1046E0008070019000208DF808000C208DF80900E2
:1046F00001208DF80A0001A803F0B8FF17208DF8FB
:1047000000000F208DF801000F208DF8020001201D
:104710008DF8030000A804F012F8002000F01DFB43
:1047200001210120FFF769FF0220019000208DF890
:1047300008000C208DF8090001208DF80A0001A85E
:1047400003F094FF07208DF800000F208DF8010082
:104750000F208DF8020001208DF8030000A803F05F
:10476000EEFF07BD704780B5DFF83C0604F019F98D
:1047700004F0F8F901BD10B504F068FA040004F083
:104780009DFA002805D1E4B22100DFF8200601F0EF
:104790000BF80020DFF81816086004F052FA002821
:1047A00007D104F00DFA002803D104F05EFA0028C6
:1047B00007D004F02EFA002803D104F01EFA0028D6
:1047C0001FD00120DFF8E815086000F07FF804F042
:1047D00075FA002813D004F0F8F9002809D004F085
:1047E00001FA0FF2B50247F230510C2004F007FC39
:1047F00007E004F0F3F9002004F0CCF901E000F048
:104800004BF810BD10B500F0E1F86421012004F070
:1048100039FB00F09EF8DFF89C05007803280BDADE
:10482000DFF890050478DFF88C050078DFF888154C
:1048300051F82000804700E00324DFF87805007875
:10484000E4B28442E7D1E0E780B5012004F032FB16
:1048500001BD38B50024002504F0F8F9050001F089
:104860007EF9DFF858154968884212D3DFF8500501
:104870000068002802D1EDB2002D01D0012400E033
:104880000024E4B2002C04D00020DFF834150860C6
:104890000025200032BD000080B501220121DFF893
:1048A000E004FFF762FE00224FF40071DFF8E0043D
:1048B000FFF75BFE642000F051F9DFF8080500788F
:1048C000002802D1042004F025FA01BD80B50122A0
:1048D0000421DFF8AC04FFF748FE192000F03EF990
:1048E000DFF8E0040078002802D1052004F012FA75
:1048F00001BD80B501F033F91930DFF8C01408604C
:1049000007E0002000F02FFA002003F093FE04F0EF
:10491000F9FB01F024F9DFF8A4140968884217D2E2
:1049200004F05CFD002802D000F060F9ECE704F030
:1049300084FC40F27E418842E3DA00F011FA01285B
:10494000E2D104F092F90028DED100F06FF9DBE744
:1049500001BD80B504F042FD002802D000F046F908
:1049600033E004F043FE152815D3DFF85C0400F0B3
:104970001BFF0121062004F05DFA0100042004F071
:1049800012FA43F6982004F0CFFA012000F0EBF978
:1049900000F04CF919E005F0ACF8002815D0DFF86C
:1049A0002C040068002808D004F025FD00280CD055
:1049B0000020DFF81814086007E004F01CFD002850
:1049C00003D10120DFF80414086001BD80B5FFF7B2
:1049D000D2FE0120DFF8DC13087001BD0120DFF8F2
:1049E000D4130870704780B505F074F800280FD113
:1049F00004F03BF9002806D102F06EF904F029F921
:104A000004F036F901E004F028F900F03BF805E085
:104A100005F06FF8002801D000F001F801BD80B565
:104A2000DFF88C03006800281FD10120DFF8801315
:104A30000860FFF74BFF04F041F9002813D004F0A1
:104A4000C4F8002809D004F0CDF8DFF8842347F239
:104A500030510C2004F0D3FA07E004F0BFF8002036
:104A600004F098F801E0FFF717FF0220DFF8441385
:104A7000087001BD80B505F03CF8002801D1FFF7B2
:104A8000ADFF01BD80B5DFF84C0300F08DFE05F0F1
:104A900001F9002810D104F0D4F800280CD105F059
:104AA00084F94FF47A7004F03FFAFEF7D7FE00283D
:104AB00002D0C94800F078FE04F0CBF804F0CDF83D
:104AC00000F069F805F04FFA642004F02DFA002296
:104AD0000421AB48FFF749FD05F0DCF8002811D1AF
:104AE00002F0E9F800280DD105F036F8002803D0CF
:104AF0000520BA49088003E04FF49670B749088052
:104B000000F09FF805F0C9F8002002F0D1F804F099
:104B10001AFA04F09EF8FFF79FFD0020A5490870DF
:104B200001BD10B500240AE000F056F8FFF71AFEA8
:104B300004F0E8FA002003F07DFDFFF714FE002CDE
:104B400008D001F00CF8844201D3012000E00020DD
:104B5000C0B200E001200028E6D110BD10B504006D
:104B600000F0FDFF20189549086004E0002003F0E4
:104B700061FD04F0C7FA00F0F2FF9049096888422D
:104B8000F4D310BD8B480078002801D1012000E04B
:104B90000020C0B2704770B5002500F01DF8002657
:104BA000002400E0641CE4B2002C07D1E4B28C487D
:104BB000205C04F09DF80028F4D00D26F6B20D2EEE
:104BC00003D10524322004F0AFF9F6B20D2E02D144
:104BD0006D1C0A2DE1DB70BD80B5FFF73AFE0028A1
:104BE00002D0012003F0D6FF01BD000080B505F022
:104BF00002F8FFF747FF00F0B2FF7A4908186F4943
:104C0000C8600CE004F07EFA04F0BCFA002003F067
:104C100011FD30BF00BF00BF00BF00BF00BF00F0EC
:104C20009EFF6649C9688842ECD301BD80B501206A
:104C300000F093F802F050F804F00BF804F018F8C4
:104C400001BD80B500F06AF84FF4A06003F072FD7A
:104C500029208DF8000000208DF8010000208DF83B
:104C6000020001208DF8030000A803F068FD012177
:104C70005FF0C05005F002FB012005F06DFB012044
:104C800005F058FA612005F01DFB0028FAD04FF41A
:104C9000007005F053FA012005F056FA03F06EF9A2
:104CA00049F6404003F046F903F062F90121022081
:104CB00003F0D0F803F05CF903F0F3F847490988F2
:104CC000081803F047F903F053F901BDE0B55FF4AC
:104CD000003003F021FD5FF40030019000208DF8DA
:104CE000080008208DF8090000208DF80A0001A8AE
:104CF00003F0BCFC4FF4A06003F01CFD29208DF8EC
:104D0000000000208DF8010000208DF80200002036
:104D10008DF8030000A803F012FD07BD00B583B0B5
:104D20005FF4003003F0F8FC5FF4003000900020E6
:104D30008DF8040008208DF8050001208DF806008C
:104D400000A803F093FC07BD24480088704723495E
:104D500008807047244800687047234908607047FE
:104D60002248007870472149087070474444B3B422
:104D70000008014044448438040801400C08014004
:104D8000000C0140040C01400C0C0140434433432F
:104D900000100140041001400C10014000140140BB
:104DA000041401400C1401400024014040EA0008B2
:104DB000F48600207B87002034ED00083486002034
:104DC000EC8600207587002024E70008F08600208C
:104DD00099480008A0EB0008E4E700089C87002041
:104DE000BEA9000820BF02008C8700209E870020FB
:104DF00080B50020DFF8CC170870052004F023F9F7
:104E0000072004F020F901BD70B50400002503F06F
:104E1000BFFE0600FEF7C4FD0500280E2070280C1A
:104E20006070280AA070E570307820717078607129
:104E30005520A07170BD00B5C3B000918DF804007D
:104E40004FF48272C0B21421DFF87C3701FB0031CD
:104E500002A800F0F1FC00A9002000F0DFF8012812
:104E600001D1012000E0002043B000BD80B5010069
:104E7000012000F0D3F800F001F801BD80B5012059
:104E800000F0A7F900280CD100F00CF800F042F86F
:104E9000012806D10FF2A5024FF47A71072004F021
:104EA000AEF801BD80B5012000F02EF9002821D018
:104EB000007801280ED002280DD003280CD0062837
:104EC0000FD00A280ED00B280DD00C280CD00D289E
:104ED0000BD00FE00EE00DE000210720FFF7ABFF45
:104EE00008E007E006E005E004E000210220FFF70B
:104EF000A2FFFFE701BD80B5012000F005F9002801
:104F000007D00078022802D0062801D001E000E096
:104F1000FFE701BD10B50024012000F0F5F80028DE
:104F200001D1002008E00078022801D0062801D134
:104F3000012400E00024200010BD000038B5002549
:104F40000024DFF888060078401CDFF8801608701F
:104F500000F025F8012804D0DFF870060078032857
:104F600013DB0020DFF864160870FFF7C4FF00258C
:104F700000E06D1CEDB20C2D01DA002CF9D0012CF3
:104F80000CD0012000F033F808E0FFF78BFFDFF8CA
:104F900040264FF47A71072004F031F831BD10B586
:104FA0000024012000F0B0F8002801D101201DE00C
:104FB0000178012913D016D3032910D009D305296C
:104FC00009D00CD307290AD007D3092909D006D361
:104FD00009E0002408E0012406E0012404E00124A3
:104FE00002E0012400E001248460200010BD38B5F7
:104FF0000400012000F088F80500FFF78BFF01286E
:1050000003D1A8686968884702E02000696888477A
:10501000012000F09EF8FFF731FF31BD38B50400E4
:10502000E4B20C20DFF8AC2500FB04208079E4B268
:105030000C22DFF8A03502FB04325279904257D29D
:10504000E4B20C20DFF88C2500FB04200068E4B2F9
:105050000C22DFF8803502FB0432D279E4B20C2353
:10506000DFF8705503FB04531B7903FB0200E4B225
:105070000C22DFF8603502FB0432127900F0DCFB11
:10508000E4B20C20DFF84C1500FB04108079401CC2
:10509000E4B20C21DFF83C2501FB04218871E4B265
:1050A0000C20DFF8301500FB0410C079401CE4B27E
:1050B0000C21DFF8202501FB0421C871E4B20C208B
:1050C000DFF8101500FB0410C079E4B20C21DFF802
:1050D000042501FB04214979884207D10020E4B26C
:1050E0000C21DFF8F02401FB0421C87101200AE043
:1050F000E4B2002C06D1087900F078F8012801D13B
:10510000012000E0002032BD10B4C0B20C21DFF855
:10511000C42401FB00218979002917D0C0B20C21D9
:10512000DFF8B02401FB0021097AC0B20C22DFF8BD
:10513000A43402FB00321279C0B20C23DFF894448D
:1051400003FB0040006802FB010000E0002010BCEF
:105150007047C0B20C21DFF87C2401FB0021897963
:10516000002935D0C0B20C21DFF8682401FB0021F2
:105170008979491EC0B20C22DFF8583402FB003294
:105180009171C0B20C21DFF84C2401FB0021097A97
:10519000491CC0B20C22DFF83C3402FB0032117211
:1051A000C0B20C21DFF82C2401FB0021097AC0B227
:1051B0000C22DFF8203402FB00325279914207D1F1
:1051C0000021C0B20C22DFF80C3402FB0030017267
:1051D0007047C0B20C21DFF8FC2301FB002080796E
:1051E000002801D1012000E000207047DFF8E8131B
:1051F000097814290EDADFF8E0130978DFF8DC23E8
:105200008854DFF8D4030078401CDFF8CC13087012
:10521000012004E01420DFF8C0130870002070475C
:10522000DFF8A00300787047DFF898130870704724
:105230000121DFF8AC231170DFF8A8130870704764
:1052400010B504000020FFF75FFF010000290AD01D
:105250000868002807D0E4B2002C01D1012000E04A
:105260000020096888470020FFF773FF0020FFF740
:10527000DBFF10BD10B50124002811D001790629EB
:1052800005D100F0C7F801280BD1002409E000790E
:10529000072806D100F0CAF8012802D1002400E056
:1052A0000024200010BD10B50020FFF72DFF0400E2
:1052B0002000FFF7DFFF01281DD1DFF82C03FFF7E7
:1052C000A3FDDFF82413200000F05EFF01280BD1BE
:1052D0000120FFF7A9FF00F042FC00F51C50103040
:1052E000DFF8081308600CE00020FFF732FF002011
:1052F000FFF79AFF05E00020FFF72BFF0020FFF7E4
:1053000093FF10BD0020DFF8D81208700020DFF8EE
:10531000D41208700020DFF8D81208700020DFF8DF
:10532000CC120860704780B5DFF8B402007801281D
:1053300014D10020DFF8B81208700020DFF8AC129A
:105340000860DFF8A0020078012803D10020FFF7F1
:1053500077FF42E00120FFF773FF3EE000F0FFFB24
:10536000DFF888120968814237D2DFF880020068CE
:10537000002803D10020FFF763FF2EE0DFF8700262
:105380000078401CDFF868120870DFF864020078CB
:1053900004280BDB0020DFF858120870FCF737FFF9
:1053A000002200211420FCF791FF16E0DFF84002F4
:1053B0000078022190FBF1F202FB1102002A0CD0CE
:1053C00000F0CDFB00F51C501030DFF82012086013
:1053D000002200211520FCF779FF01BD80B5FFF701
:1053E0001FFF002802D0012805D007E0FFF78AFF41
:1053F000FFF759FF02E0FFF796FFFFE701BD704797
:1054000080B5FEF7C9F9082803DBFFF7F8FFFFF7BF
:10541000E5FF01BD002070470020DFF8DC110870B7
:105420000020DFF8D81108707047704780B5DFF8AA
:10543000C8010078DFF8C4110978884201D2002041
:1054400002E0FFF7E9FF012002BD80B56C49097851
:10545000142920DA00B2012808DB02206849097803
:105460000E22684B02FB013108700AE000206449FB
:1054700009780E22634B02FB0131087000205D4960
:1054800008705F480078401C5D4908705C480178EE
:105490005D4800F089F901BD1CB5002402F001FD52
:1054A00000905A484079FF2801D000207DE0052473
:1054B00000E0641E64B2002C04D464B25348205C43
:1054C000FF28F6D064B2002C25D503F0C5FEADF858
:1054D000060000984E49086001204C4908700422DB
:1054E00049F2060100A805F02DF8022249F20A014E
:1054F0000DF1060005F026F801224FF41041434853
:1055000005F020F864B22300009ABDF80610414867
:1055100000F04AF948E064B23F4850F8240000998E
:1055200064B23B4A52F82420891A88423CD264B2C1
:10553000374850F824000099884235D203F08CFE99
:10554000ADF80400009864B2314911EB8401486061
:10555000012064B22D4961184870042264B206200B
:1055600049F20C0100FB041100A804F0EBFF022239
:1055700064B2062049F2100100FB041101A804F0F6
:10558000E1FF012264B204F51041491C64B21F48D6
:105590002018401C04F0D6FF64B22300009ABDF826
:1055A00004101C4800F000F9012016BD80B54FF42E
:1055B000104004F074FF06220021144800F0BAF8ED
:1055C00001BD000081870020540100208387002056
:1055D0003D4F00080403002082870020E88500205A
:1055E0007C8700207D870020948400204C87002049
:1055F0007E87002080870020848700208587002008
:105600007F870020D47E0020E0E8000898860020F4
:105610003C85002008E800081C03002000B583B08A
:1056200000280DD0009002F0DDFE01904FF46040A4
:1056300004F035FF08224FF4604100A804F082FF17
:1056400007BD50F8041B61B150F8042BD30744BFC9
:10565000A9F101039A18002342F8043B091FFAD16B
:10566000EFE7704710B4019C002C02D0521C91420D
:105670001CD2002B0DD0CA08125C0823B1FBF3F436
:1056800004FB1314DFF8A430E35C1A43C9080A547E
:105690000CE0CA08125C0823B1FBF3F404FB1314FA
:1056A000DFF88C30E35C1A40C9080A5410BC70471C
:1056B000CA08105C0822B1FBF2F303FB1213DFF8F7
:1056C0006C10595C084201D0012000E00020C0B2FB
:1056D000704770B4002301E0401C5B1CDC008C426E
:1056E0001FD20478002CF7D0002400E0641C082CA2
:1056F000F2D2DFF83850655D06783542F6D0002AE0
:1057000005D00278DFF82850655D2A40027014EB5E
:10571000C300884202D214EBC30004E05FF0FF3004
:1057200001E05FF0FF3070BC70470000E8ED00085A
:10573000F0ED000810B5044610460A460146204622
:1057400005F02CF8204610BD00F10103810704D0BC
:1057500010F8011B89B18107FAD10268B2F1013159
:10576000914311F0803F04BF50F8042FF6E710F882
:10577000011B11B110F8011BFBE7C01A704701E0D3
:10578000491C521E72B10B7890F800C09C4505D0A0
:1057900002D24FF0FF3070470120704710F8013BF4
:1057A000002BEDD1002070470EB400B582B003A9E4
:1057B0000091024600AB0121034878440A3005F00D
:1057C0002CF806BC5DF810FB0994000001B58B07AE
:1057D00018D1121F21D351F8043BA3F1013C2CEA4C
:1057E000030C1CF0803C04BF40F8043BF1E79CFA3A
:1057F0008CFCBCFA8CF1C1F118018B40CB4040F815
:10580000043B13E0042A09D311F8013B521E00F8AF
:10581000013B5BB18B07F7D1DBE7121D5AB111F8E1
:10582000013B521E00F8013B03B1F8D111001CBF2F
:10583000002204F0B7FF01BD10B5044605F084F85E
:10584000204610BD2DE9F04782B006000F009046BB
:1058500099460C99404680B200F090FB05000A9CE6
:10586000002D6DD01FFA88F8286B10EB8800B0F17E
:10587000040A5FEADA0A5FEACA0A1FFA88F8CDF872
:1058800000800D9B22003900280000F0EDFA4A4606
:105890003100504605F094F828600B98002800D09D
:1058A000056005F0B7F8DFF8E0070068401CDFF896
:1058B000D8170860DFF8D407006800280AD1DFF89D
:1058C000CC070560DFF8C0070068012810D100F0A0
:1058D000E8FA0DE0DFF8B8070068002808D1DFF823
:1058E000AC070068C06A844202D3DFF8A0070560F5
:1058F000DFF8A0070068E96A884203D2E86ADFF8A7
:1059000094170860DFF890070068401CDFF88817DC
:105910000860DFF888070068E96A884203D2E86A0D
:10592000DFF878170860291DE86A1422DFF870375D
:1059300002FB003005F0B6F8012505F074F801E02F
:105940005FF0FF35012D0CD1DFF844070068002817
:1059500007D0DFF838070068C06AA04201D205F01E
:1059600054F82800BDE8F68738B504000020002C64
:1059700011D000F084F8DFF8340700682418DFF84D
:105980000C070068001D05F0B6F80500200000F0C7
:10599000D6FA00F07CF8002801D105F036F831BDC8
:1059A00038B5040005F036F8DFF8E00600688442F8
:1059B00000D10024002C03D1DFF8D006056800E0F8
:1059C0002500281D05F097F8A96A002903D015F1D4
:1059D000180005F090F8291DDFF8D40605F062F8EC
:1059E00005F021F8002C16D1DFF8A4060068002885
:1059F00002D005F00AF80EE0DFF8B4060068DFF820
:105A000088160968884204D10020DFF880160860F3
:105A100001E000F03AF931BD00214269DFF890362B
:105A20009A4208D1826ADFF88C369A4203D0806AA3
:105A3000002800D101210800704700B585B0002082
:105A4000039000200290002001900020009000238D
:105A50008022DFF868160FF20140FFF7F3FE0128FD
:105A60000BD102F0E0FD0120DFF8241608600020D1
:105A7000DFF83816086004F0B0FF05B000BDDFF8AD
:105A800038060068401CDFF830160860704770B5B3
:105A9000002404F0BFFFDFF820060068401EDFF896
:105AA00018160860DFF810060068002853D1DFF8E8
:105AB000D805006800284ED0002525E0DFF8F40561
:105AC000C068C66816F1180005F015F8301D05F01D
:105AD00012F8DFF8C8050068F16A884203D2F06A5C
:105AE000DFF8B8150860311DF06A1422DFF8B03510
:105AF00002FB003004F0D6FFF06ADFF89015096869
:105B0000C96A884200D30125DFF8A805006800288B
:105B1000D4D1DFF8AC050068002809D10DE000F011
:105B200028F8DFF89C050068401EDFF8941508602F
:105B3000DFF88C0500680028F1D1012D04D0DFF8D2
:105B400084050068012806D101240020DFF87415BF
:105B5000086004F05AFF04F066FF200070BD10B525
:105B600002F061FDDFF844150C6802F063FD2000CF
:105B700010BD10B5DFF840050068002874D1DFF8CB
:105B80002C050068401CDFF824150860DFF81C05B0
:105B90000068002827D1DFF830050068DFF82C15F1
:105BA0000968DFF824251160DFF820150860DFF8A8
:105BB00020050068401CDFF818150860DFF80805AC
:105BC00000680068002805D15FF0FF30DFF8041599
:105BD000086008E0DFF8F0040068C068C468606826
:105BE000DFF8F0140860DFF8C4040068DFF8E4149C
:105BF0000968884241D31CE0201D04F07CFFA06AA4
:105C0000002803D014F1180004F075FFDFF88C04AD
:105C10000068E16A884203D2E06ADFF88014086015
:105C2000211DE06A1422DFF8783402FB003004F012
:105C300039FFDFF8940400680068002805D15FF0A0
:105C4000FF30DFF89014086017E0DFF87C0400688C
:105C5000C068C4686068DFF8541409688142CBD218
:105C6000DFF87014086008E0DFF854040068401C96
:105C7000DFF84C14086003F06FF9DFF844040068A3
:105C8000002801D103F068F910BD80B5DFF82804C1
:105C90000068002804D00120DFF82814086053E0D1
:105CA000DFF8E8030068006BDFF8E01309680968B3
:105CB000884209D3DFF8D403006810F13401DFF81B
:105CC000CC03006803F043F91422DFF80C14DFF86A
:105CD000BC030068006B04F021FF002811D0DFF83E
:105CE000AC03006810F13401DFF8A003006803F092
:105CF0002EF906E0DFF8A4030068401EDFF89C13CD
:105D00000860DFF8980300681421DFF8942301FB92
:105D1000002000680028EDD0DFF88003006814211F
:105D2000DFF87C2301FB002041684968416041683D
:105D300010F10802914202D141684968416040680F
:105D4000C068DFF84813086001BD10B50C00DFF82B
:105D50003C130968183104F0B3FEDFF83003006823
:105D6000001D04F0C8FE14F1010F07D1C7480068F8
:105D7000011DDFF83C0304F095FE04E0CB48006809
:105D8000201800F0DCF810BD10B5C068C46814F12C
:105D9000180004F0B0FEC8480068002813D1201D88
:105DA00004F0A9FEBD480068E16A884202D2E06AB8
:105DB000BA490860211DE06A1422B94B02FB003089
:105DC00004F070FE04E014F11801BA4804F06AFE11
:105DD000E06AAE490968C96A884201D3012000E03F
:105DE000002010BDBA4909680160B04909684160E6
:105DF000704738B504000D0004F00CFE286810F15F
:105E0000010F01D100241FE0B148006821688842D9
:105E100006D0A64800686168884201D3012413E0D7
:105E2000A24800686168401A296888420BD2286835
:105E30009E490968401A6168081828602000FFF729
:105E4000D1FF002400E0012404F0EDFD200032BD6C
:105E500001209C490860704780B500F044F804F0C8
:105E6000D4FD03F075F8F8E738B5040015001022EA
:105E700014F13400FFF7AAFC002084F84300052D3C
:105E800000D30425E5626564201D04F008FE14F1CA
:105E9000180004F004FE2461D5F10500A0616462DD
:105EA00031BD10B5002406E014207D4900FB04102C
:105EB00004F0E6FD641C052CF6D3884804F0E0FDF0
:105EC000874804F0DDFD7B4804F0DAFD754804F0F6
:105ED000D7FD774804F0D4FD80487B4908608048AE
:105EE0007A49086010BD10B51CE00024E4B2FFF749
:105EF000CEFD002C16D104F08DFD6A48C068C46840
:105F0000201D04F0F8FD60480068401E5E490860EE
:105F100065480068401E6449086004F084FD200064
:105F200000F04EF860480068002807D0FFF7A7FD92
:105F30005C4800680028D8D10124D7E710BD10B50F
:105F4000040052480068446058480068844207D200
:105F50004E480068011D5D48006804F0B1FD0CE08A
:105F60004A480068011D5848006804F0A9FD5948D6
:105F70000068844201D25748046010BD70B5040027
:105F80000D00482004F0FCFD0600002E16D0002D68
:105F900005D1A4B2A00004F0F3FD0500FFE73563CE
:105FA000306B002804D1300004F051FE002605E0DB
:105FB000A4B2A200A521306BFFF7BCFB300070BD7E
:105FC00010B50400206B04F042FE200004F03FFEF8
:105FD00010BD2E480068704710B50400002C2FD06B
:105FE000E06A2A490968C96A884229D227480068B4
:105FF000C06AD0F10500A0616069E16A1422284BF3
:1060000002FB0131884217D1201D04F074FD1F49A5
:106010000968C96AE16221490968E26A914202D2CB
:10602000E06A1E490860211DE06A14221C4B02FB35
:10603000003004F037FD03E014480068C06AE062F5
:1060400010BD10B50400002C1CD0E06A616C8842C1
:1060500018D0201D04F04FFD616CE162E16AD1F1BE
:106060000501A1610D490968E26A914202D2E06A24
:106070000A490860211DE06A1422094B02FB003026
:1060800004F010FD10BD00002487002014870020BC
:10609000348700202C87002048870020308700208C
:1060A00058830020C08500202087002028870020FA
:1060B000D4850020AC8500203887002028EE000819
:1060C0003C87002040870020188700201C87002084
:1060D000448700209403002030EC000884850020D1
:1060E000988500200CB41CB5044604A801900A460B
:1060F000009401AB00A907487844183004F08DFBE8
:10610000009A0021117000285CBF0098001B16BC8B
:106110005DF80CFB371D0000FEB4130000220025C3
:10612000002407E00E781700FFB2FF00BE4075198B
:10613000491C521C92B29BB29A42F3D300210CE04C
:106140000A22B5FBF2F302FB1352C9B200ABCA54E8
:106150000A22B5FBF2F5641C491C002DF0D1E4B213
:106160002200002109E0E4B200ABE31813F8013C7F
:106170003033C9B20B54641E491CE4B2002CF2D176
:10618000100080B2FEBC704738B504000D004FF41B
:106190007A720021DFF8E80AFFF7CCFA0020DFF876
:1061A000E41A08804FF47A73DFF8D42A290020001B
:1061B00000F080FBDFF8CC1A0880DFF8C80A0088FE
:1061C000B0F57A7F08DDDFF8BC0A0188DFF8B80A8D
:1061D000FFF7EAFA002013E0DFF8A80A0088002899
:1061E00005D1DFF8A80AFFF7DFFA002008E0002257
:1061F000DFF8900A0188DFF8880A04F063FD0120C7
:1062000032BD32B5040013E0ADB2112D09DB00A997
:10621000200000F01FF80500691E89B2200000F080
:1062200065FBADB22C19BDF80000401BADF80000B5
:10623000BDF8000000280CD0BDF80010200000F0D0
:106240004EF80500ADB2112DDEDA200000F049FB5A
:10625000E7E731BDF8B504000D0000260020002757
:1062600000210E0012E000280FD02888B6B2801B53
:10627000821EB6B23019811CB6B23019401CFFF72D
:10628000DBFA2888401E28800020761C2988B6B2B8
:106290008E4221D2002F1FD1B6B2315DB6B2325D2F
:1062A000B6B233195B7813EB0222C9B21C2901D1B3
:1062B0000127EAE792B241F61D31521A02D0521E6E
:1062C00005D0D0E71B20B6B230550120CBE71C200B
:1062D000B6B230550120C6E7300080B2F2BD10B42E
:1062E000002200230024220005E092B2145C1C2C42
:1062F00000D10123521C92B289B28A4201D2002BF2
:10630000F3D0100080B210BC704780B54FF400503D
:1063100004F0C5F801BD80B516224FF40051DFF836
:10632000740904F0CAF901BD80B5FFF7EEFF16222B
:106330004FF40051DFF85C0904F004F901BD10B519
:10634000040089B22F29C0F28080DFF84409FFF7EA
:106350002BFA607CDFF84019C871A07CDFF838198F
:106360000872207EDFF83019487294F828000B2854
:1063700005DB94F82800DFF82019887203E00A2072
:10638000DFF81419887294F828000B2805DB94F8BC
:106390002900DFF80419C87203E00A20DFF8F818B2
:1063A000C872207FDFF8F0180873607FDFF8E81804
:1063B0004873A07FDFF8E0188873E07FDFF8D81813
:1063C000C87394F82000DFF8D018087494F82100FE
:1063D000DFF8C418487494F82200DFF8BC188874F9
:1063E00094F82300DFF8B018C87494F82400DFF89C
:1063F000A818087594F82500DFF89C18487594F8DB
:106400002600DFF89418887594F82700DFF88818BC
:10641000C87594F82A00DFF88018487694F82B00A5
:10642000DFF87418887694F82C00DFF86C18C876BA
:1064300004F07BFC4FF4805004F031F81C224FF440
:106440008051DFF8540804F07DF810BD2DE9F84FB5
:1064500004000025002600275FF0000B5FF0000914
:106460005FF0000AE078217910EB012005006079E7
:10647000A17910EB01200600E079217A10EB0120D0
:106480000700B6B23100DFF81408FFF78DF90020DD
:1064900000F016FCDFF8FC07807ADFF8F817C97AFD
:1064A00010EB012080B2411CB6B2B14209D0B6B2A5
:1064B000002E06D080B2411CDFF8E407FFF774F924
:1064C000B8E1ADB2B6B2B54206D2ADB22900DFF83E
:1064D000D407FFF769F9ADE1DFF8B807C079DFF855
:1064E000B4178979090411EB0060DFF8A81749791E
:1064F00010EB0120DFF89C17097911EB0008ADB211
:10650000002D00F09781DFF88C070078AA282DD1A4
:10651000DFF880074078552828D1B6B2002E33D155
:10652000AA20DFF8701708705520DFF86817487048
:10653000DFF860070572ADB2280ADFF85817487215
:10654000DFF85007007B6178884205D1DFF8440707
:10655000407BA178884213D00020DFF838170870FC
:106560000020DFF830174870FFF7CFFEB6B2002EDC
:1065700000F01281002003F0ACFB04F0D6FB59E1DF
:10658000012003F0A6FB55E1B6B2ADB2AE4277D121
:106590005FF00009607AA17A10EB012081464FF686
:1065A000FF7A5FF0000B19E001220BF5402120314A
:1065B00000A804F082F8012200A9504680B204F03D
:1065C000C3FB82464FF47A70BBFBF0F100FB11B0C5
:1065D000002801D102F096FD1BF1010BC345E3D366
:1065E000D14510D052464946DFF8D006FFF7DCF817
:1065F0000020DFF8A01608700020DFF89816487019
:10660000FFF783FEB2E716225FF44021DFF884062D
:1066100003F098FF4FF47A7002F086FC16225FF4C4
:106620004021DFF8700604F048F8FFF76EFE4FF4E3
:10663000405003F034FF4FF4804003F030FF4FF43C
:10664000A04003F02CFF4FF4C04003F028FF4FF4AC
:10665000E04003F024FF4FF4004003F020FF5FF41C
:10666000C02003F01CFF4946DFF85C06FFF79CF8EA
:106670004FF47A7002F058FC002002F08BFAD9E057
:10668000AA20DFF8101608705520DFF808164870A9
:10669000DFF800060572ADB2280ADFF8F815487277
:1066A000DFF8F0058672B6B2300ADFF8E815C87276
:1066B0006078DFF8E0150873A078DFF8D815487324
:1066C0005FF0000A3A0014F10901504680B204F06C
:1066D0003BFB824617EB0808B8F57C3F08D94146DA
:1066E000DFF8F005FFF760F8002003F0F2FAA1E010
:1066F000002F4BD03A0092B208F540202030C11B49
:1067000014F1090003F01EFF642002F00DFC3A00B2
:1067100092B208F540202030C11B14F1090003F0AB
:10672000CCFF5FF000093A0014F10901484680B23D
:1067300004F00AFB8146D14510D052464946DFF8A5
:106740009C05FFF731F80020DFF84815087000209D
:10675000DFF840154870FFF7D8FD07E7DFF834058C
:1067600080F804805FEA1820DFF8281548715FEA96
:106770001840DFF8201588715FEA1860DFF81415FB
:10678000C8714146DFF85805FFF70EF8FFF7CCFD5A
:10679000012003F09EFA4DE0AA20DFF8F8140870FB
:1067A0005520DFF8F0144870DFF8E8040572ADB248
:1067B000280ADFF8E0144872DFF8D8048672B6B20F
:1067C000300ADFF8D014C8726078DFF8C814087394
:1067D000A078DFF8C0144873380EDFF8B814C87119
:1067E000380CDFF8B0148871380ADFF8A814487143
:1067F000DFF8A00407715FF0000B09E04FF4805050
:1068000000FB0BF010F5402003F049FE1BF1010BDB
:10681000BBF1400FF2D3002F07D03A0092B2DFF85D
:10682000C41414F1090003F08DFEFFF77DFD012073
:1068300003F04FFABDE8F18F80B50178002903D14C
:10684000012003F031FA05E00078552802D100203C
:1068500003F02AFA01BD704780B502784178D2B2C0
:10686000012A0ED0212A1DD0232A10D0292A02D095
:10687000372A12D01CE0C9B289B2801CFFF7E6FDAE
:1068800016E0C9B289B2801CFFF759FD10E0C9B209
:1068900089B2801CFFF7D0FF0AE0C9B289B200F0CC
:1068A0006BF805E0C9B289B2801CFFF7D4FFFFE79F
:1068B00001BD704778B58FB01400002501230FAAE1
:1068C00000A804F062FD0600002E04D0B2883168F2
:1068D0002000FEF7B1FF300004F086FD002010B06C
:1068E00070BD80B50120FEF7A3FC01BD70B582B07C
:1068F00004000D00002610220021DFF8EC03FEF753
:1069000019FF0200290089B2200000F084F8060077
:10691000DFF8D803007840308DF80000012E05D153
:1069200030208DF801000FF21D0203E031208DF8B8
:10693000010000221C208DF80200032100A804F0B1
:10694000DAF973BD10B50400E4B22100DFF8A0034A
:10695000FEF72AFFE4B2012C09D1DFF89803DFF833
:1069600088134860DFF88003FEF780FA03E0DFF861
:106970007803FEF77BFA10BD10B582B00400607892
:10698000A17811EB0020ADF80000BDF80000072849
:1069900021DBBDF8000040F2B551884203DB40F234
:1069A000B450ADF800004FF4C04003F078FD02226F
:1069B0004FF4C04100A803F0C5FDBDF8002046F229
:1069C0000201E01C03F0BEFDBDF80000011FE01D48
:1069D00001F0C8F81EE002224FF4C0410DF10200A0
:1069E00003F06BFEBDF8020040F2B45188420DDAAC
:1069F000BDF8022046F20201200003F05EFEBDF861
:106A00000200011F201D01F0ADF803E0DFF8E802ED
:106A1000FEF7CAFE13BD2DE9F04784B004000D0057
:106A2000160000275FF00108A1465FF0000AADB232
:106A30002A00210000A8FEF7FFFE04F0C4FC0F218D
:106A4000DFF8A8221170002E01D0002C01D1002007
:106A50008CE000F08EF8010010224846FEF78FFE11
:106A6000002840F08080B5F11201002004E080B2DF
:106A70000219127CD719401C80B289B28842F6D321
:106A8000ADB2281910F8020C4FF48071ADB22A197A
:106A900012F8012C01FB002ABFB21FFA8AFA5745EF
:106AA00063D199F81700DFF844120870DFF83C0250
:106AB0000178DFF84802FEF777FE99F81700012801
:106AC00018D0212843D022280AD023282BD02828C8
:106AD0000BD0292819D0322820D037282ED03FE0DB
:106AE000032030705FF001083FE0092030705FF054
:106AF00001083AE00B203070290089B214F1170028
:106B0000FFF7AAFE5FF001082FE0290089B214F117
:106B10001700FFF7A1FE5FF0010826E00C2030709F
:106B20005FF0010821E00D203070290089B214F1D6
:106B30001700FFF791FE5FF0010816E0290089B207
:106B400014F11700FFF788FE5FF001080DE029003F
:106B500089B214F11700FFF77FFE5FF0010804E02F
:106B60005FF0000801E05FF00008404604B0BDE8B7
:106B7000F087DFF88C01704780B50422002100A85F
:106B800003F09BFD9DF800009DF80110090411EB36
:106B900000609DF8021010EB01209DF8031008180A
:106BA000DFF86011884201D1012000E0002002BD21
:106BB00080B5002003F073FC55208DF80000AA205A
:106BC0008DF8010055208DF80200AA208DF80300F1
:106BD0000422002100A803F0B5FC002002BD10B57E
:106BE0000400FFF7C9FF002807D01C22DFF81811A6
:106BF0002000FEF721FE012000E0002010BD10B5AE
