:020000040800F2
:100000003804002005100008F10E0008F30E000867
:10001000F50E0008F70E0008F90E000800000000B9
:10002000000000000000000000000000FD0E0008BD
:10003000FB0E000800000000FF0E0008010F000882
:10004000030F0008050F0008070F0008090F00083C
:100050000B0F00080D0F00080F0F0008110F00080C
:10006000130F0008150F0008170F0008190F0008DC
:100070001B0F00081D0F00081F0F0008210F0008AC
:10008000230F0008250F0008270F0008290F00087C
:100090002B0F00082D0F00082F0F0008310F00084C
:1000A000330F0008350F0008370F0008390F00081C
:1000B0003B0F00083D0F00083F0F0008410F0008EC
:1000C000430F0008450F0008470F0008490F0008BC
:1000D0004B0F00084D0F00084F0F0008510F00088C
:1000E000530F0008550F0008570F0008FFFFFFFFD0
:1000F00080B50121042000F007FA01214FF480505F
:1001000000F002FA2020ADF8000003208DF8020074
:1001100018208DF803006946DFF8700300F024FA18
:100120008020ADF800006946DFF8600300F01CFA9B
:100130004020ADF8000004208DF803006946DFF888
:100140004C0300F011FA1020ADF8000010208DF8DB
:1001500003006946DFF8340300F006FA01BD00B57C
:1001600085B0FFF7C5FF1021DFF8200300F05CFA2F
:100170000020ADF800004FF48270ADF802000020BE
:10018000ADF804000220ADF806000120ADF808002B
:100190004FF40070ADF80A002020ADF80C000020EC
:1001A000ADF80E000720ADF810006946B64800F023
:1001B00041FA0121B44800F05CFA05B000BD10B569
:1001C000040000F03FF91021B04800F030FA202080
:1001D00000F01FF9200CC0B200F01BF9200AC0B2D9
:1001E00000F017F92000C0B200F013F91021A74861
:1001F00000F01AFA00F033F910BD70B504000D00DC
:10020000160000F01FF91021A04800F010FA02209B
:1002100000F0FFF8280CC0B200F0FBF8280AC0B2CA
:1002200000F0F7F82800C0B200F0F3F803E02078FF
:1002300000F0EFF8641C3000461E80B20028F6D1B2
:100240001021924800F0F0F900F009F970BD2DE995
:10025000F04105000C0000275FF000080020002698
:1002600000272000464292B24FF4807192FBF1F7D2
:1002700092B24FF4807192FBF1F301FB1328C0B2EC
:10028000002821D1FFB2002F10D192B22100280006
:10029000FFF7B3FF73E04FF4807221002800FFF7EF
:1002A000ACFF14F580744FF4807005443800471E8D
:1002B000C0B20028EFD15FFA88F8424692B221001E
:1002C0002800FFF79AFF5AE0FFB2002F20D130003C
:1002D0004146C0B2C9B2884214D2B8EB0607F6B2A2
:1002E000320092B221002800FFF787FFF6B23419DE
:1002F000F6B23544FFB23A0092B221002800FFF76F
:100300007CFF3CE092B221002800FFF776FF36E048
:10031000F6B2921B92B24FF4807092FBF0F792B259
:100320004FF4807092FBF0F100FB1128F6B232001E
:1003300092B221002800FFF760FFF6B23419F6B23E
:1003400035440AE04FF4807221002800FFF755FF82
:1003500014F580744FF4807005443800471EC0B215
:100360000028EFD15FFA88F8B8F1000F07D05FFAE4
:1003700088F8424692B221002800FFF73EFFBDE810
:10038000F08170B504000D00160010213F4800F008
:100390004EF9032000F03DF8280CC0B200F039F807
:1003A000280AC0B200F035F82800C0B200F031F8D9
:1003B00004E0A52000F02DF82070641C3000461EDB
:1003C00080B20028F5D11021304800F02DF970BD21
:1003D00070B5002000240025002610212B4800F0D5
:1003E00026F99F2000F015F8A52000F012F804006F
:1003F000A52000F00EF80500A52000F00AF8060080
:100400001021224800F010F9280250EA044030433D
:1004100070BD10B5040002211B4800F03CF9002813
:10042000F9D0E4B2210089B2174800F030F9012177
:10043000154800F030F90028F9D0134800F029F9E8
:10044000C0B210BD80B51021104800F0F0F80620B1
:10045000FFF7DFFF10210D4800F0E6F801BD80B581
:1004600000201021094800F0E2F80520FFF7D1FF35
:10047000A520FFF7CEFFC0B2C007F9D41021034872
:1004800000F0D2F801BD000000300140000801403A
:10049000DFF8B400006850F00100DFF8AC1008602D
:1004A000DFF8A8000068DFF8A8100840DFF89C100B
:1004B0000860DFF894000068DFF898100840DFF863
:1004C00088100860DFF88000006830F48020DFF8D2
:1004D00078100860DFF87400006830F4FE00DFF880
:1004E0006C100860DFF86000006830F0A050DFF8A2
:1004F000581008605FF47F00DFF85C10086000208F
:10050000DFF8581008607047C9B2002905D01449B7
:10051000096808431249086005E01149096831EA91
:1005200000000F4908607047C9B2002905D00D4985
:10053000096808430B49086005E00A49096831EA7F
:100540000000084908607047001002400410024093
:100550000000FFF0FFFFF6FE081002402C100240E2
:10056000181002401C10024070B400220025002325
:10057000002600240025CA7812F00F02CB78DB0693
:1005800001D58B781A430B781B0621D00468002311
:1005900006E0CD78482D02D101259D4005615B1C08
:1005A000082B14D2012515FA03F60D883540B54203
:1005B000F5D19E000F25B540AC4312FA06F52C4349
:1005C000CD78282DE5D101259D404561E7E7046000
:1005D0000B88FF2B26DD4468002320E0012513F162
:1005E000080615FA06F60D883540B54216D19E006C
:1005F0000F25B540AC4312FA06F52C43CD78282DD3
:1006000004D1012513F10806B5404561CD78482D88
:1006100004D1012513F10806B54005615B1C082BC8
:10062000DCD3446070BC704789B20161704789B205
:100630004161704710B40022028812F441520B88C5
:100640004C8823438C882343CC8823430C89234341
:100650004C8923438C892343CC8923431A4302804A
:10066000828B4FF2FF731A408283098A018210BC89
:100670007047C9B2002904D0018851F040010180BF
:1006800004E001884FF6BF721140018070478181FC
:1006900070478089704700220089084201D00122FA
:1006A00000E000221000C0B270470103DFF814031D
:1006B000DFF814130860DFF81403DFF80C13086088
:1006C000704710B5040004205FF4302000F098F962
:1006D000C0B204281FD1DFF8F802006850F0020011
:1006E000DFF8EC120860DFF8EC020460DFF8E002EB
:1006F000006850F04000DFF8D81208605FF4302046
:1007000000F07EF9DFF8C812096841F6FD72114069
:10071000DFF8BC221160C0B210BD10B5A5240420C2
:1007200000F02EF9002800D000245FF4302000F003
:1007300067F9C0B2042851D1DFF88802DFF89812B7
:100740000860DFF88802DFF890120860DFF88002A6
:10075000006850F02000DFF878120860DFF87002BF
:10076000006850F04000DFF8681208605FF4302045
:1007700000F046F9C0B2042824D1DFF85402006822
:1007800041F6DF710840DFF848120860DFF84002E8
:10079000006850F01000DFF838120860DFF83C0203
:1007A00004804FF4005000F02BF9C0B2052815D09A
:1007B000DFF81C12096841F6EF721140DFF81022D1
:1007C00011600BE0C0B2052808D0DFF804120968F8
:1007D00041F6EF721140DFF8F8211160C0B210BD90
:1007E00038B505000C000420002000904FF40050A4
:1007F00000F006F9C0B204282BD1DFF8D40100685C
:1008000050F00100DFF8C81108602C804FF4005050
:1008100000F0F6F8C0B2042812D1A81C0090200CF9
:10082000009908804FF4005000F0EAF8DFF8A011BA
:10083000096841F6FE721140DFF89421116008E06A
:10084000DFF88C11096841F6FE721140DFF8802153
:100850001160C0B232BDF8B501004FF6FF744FF61B
:10086000FF754FF6FF764FF6FF770420C94311F06E
:10087000FF04C1F30725080C00F0FF060F0E4FF42C
:10088000005000F0BDF8C0B2042842D14D49524A90
:1008900011604E49504A11604D49096851F01001EC
:1008A0004B4A1160A4B2FF2C05D04D4804804FF490
:1008B000005000F0A5F8C0B2042808D1ADB2FF2D59
:1008C00005D0484805804FF4005000F099F8C0B2B8
:1008D000042808D1B6B2FF2E05D0434806804FF455
:1008E000005000F08DF8C0B2042808D1BFB2FF2F2D
:1008F00005D03E4807804FF4005000F081F8C0B2A8
:10090000052806D03249096841F6EF721140304A95
:100910001160C0B2F2BD70B504000D0016000420D5
:1009200028482D49086029482B4908604FF4005099
:1009300000F066F8C0B2042819D12548006850F0CC
:1009400010002349086056F0F80028432043284946
:1009500008804FF4005000F053F8C0B2052806D0CC
:100960001B49096841F6EF721140194A1160C0B283
:1009700070BD20480068800870471F4800687047B5
:1009800000201C480068800701D5012000E00020FD
:10099000C0B27047042019480068C00701D5012083
:1009A0000CE016480068400701D5022006E0134815
:1009B0000068C00601D5032000E00420C0B27047E3
:1009C000000000002301674504200240AB89EFCD01
:1009D00010200240142002400820024000F8FF1FAF
:1009E00008F8FF1F0AF8FF1F0CF8FF1F0EF8FF1F83
:1009F00002F8FF1F1C200240202002400C20024071
:100A000010B504000420FFF7C5FF02E0FFF7C2FFA6
:100A1000641EC0B2012801D1002CF7D1002C00D1F6
:100A20000520C0B210BD000080B58B4800688B491E
:100A30000840B0F1005F0ED189480068894908601C
:100A400088480068884908608348006800F04AF9CF
:100A500085480068804701BD80B58448006810F172
:100A60007840000B8249086001208149096888406C
:100A7000401EC0437F490860FFF77FFF7D4909683A
:100A800008407C490968884203D001207A490860FF
:100A900002E000207849086001BD80B5FFF706FE3E
:100AA0007C207649086000207549086010E06F4896
:100AB000006874490988724A126802FB0100FFF756
:100AC00000FE714908706E480068401C6C4908605F
:100AD0006B48006869490968884203D26A4800780F
:100AE0000428E4D001BD80B568480088ADF8000056
:100AF0006748FFF764FB022265496846FFF7A7FBDA
:100B000001BD80B5022262496846FFF73AFC9DF8B4
:100B10000000552805D19DF80100AA2801D1012027
:100B20000AE09DF80000012805D19DF80100032886
:100B300001D1022000E0002002BD70B582B05FF458
:100B400005245648407955498979090411EB00601C
:100B50005249C97910EB01205049097A0D184D48C6
:100B6000854200D34B4D3C4840490860002610E0C8
:100B7000042221006846FFF704FC00993B48006806
:100B8000FFF72EFE241D39480068001D3749086014
:100B9000361D3648006805F1006111F500518842A4
:100BA00004D2324800683C498842E1D35FF4042013
:100BB000FFF705FBFFF797FF73BD2DE9F0415FF0ED
:100BC000000800270124022504260127FFF7D5FE8F
:100BD000070028480068384026490968884238D00C
:100BE000FFF7C7FE80462348006838432149086064
:100BF000FFF793FD07001F48006810F1010F05D0B3
:100C00001C480068C043FFF726FE070018F00700E5
:100C1000072813D05FEAC87000D400245FEA887008
:100C200000D400255FEA487000D40026320092B25A
:100C3000290089B2200080B2FFF76DFEFFB2042FB9
:100C400007D101214FF40060FFF76EFC4F2000F048
:100C50005FF8BDE8F0810000002000080000FF2FD1
:100C600004200008080000200400002000000020EC
:100C70000C00002010000020140000201C000020A8
:100C8000180000203400002036000020AA060008CA
:100C900000701000E0FF0300FFFF030820000020A9
:100CA00030BF704720BF704740BF7047BFF36F8FA2
:100CB0007047BFF34F8F7047BFF35F8F704701DFFF
:100CC0007047EFF31480704780F31488BFF36F8F81
:100CD0007047EFF30980704780F309887047EFF39E
:100CE0000880704780F30888704772B6704762B614
:100CF000704771B6704761B6704780F311887047CE
:100D0000EFF31280704740BA704700BA7047000096
:100D1000C0B250F08000014908607047002C0040CC
:100D200080B5FFF71CFAFFF753FB6949884224D1CD
:100D300011225FF404216748FFF723FB6548007820
:100D400003281CD0FFF7DDFEC0B2002803D0022824
:100D500009D005D30CE0FFF7C6FEFFF765FE0EE0F5
:100D6000FFF762FE0BE0FFF7BEFEFFF75DFE06E059
:100D7000FFF7B9FEFFF758FE01E0FFF755FE00F060
:100D80000FF8FFF769FE54480068012801D1FFF70A
:100D900014FFFFF782FEFFF7D0FEFFF745FEF2E7F4
:100DA00000B583B00020019000200090FFF770FB99
:100DB0004A48006850F48030484908604748006855
:100DC00010F4003000900198401C01900098002819
:100DD00003D10198B0F5A06FF0D1404800688003BE
:100DE00002D50120009001E0002000900098012829
:100DF0005FD13B48006850F010003949086038481E
:100E0000006880088000364908603548006850F066
:100E100002003349086033480068324908603148AD
:100E20000068304908602F48006850F480602D4900
:100E300008602D4800682D4908402B4908602A4861
:100E4000006840F4843050F034002749086023489B
:100E5000006850F080602149086020480068000167
:100E6000FBD52048006830F47C101E4908601D48FE
:100E7000006850F410201B4908601848006850F0C2
:100E8000807016490860154800688001FBD5154838
:100E9000006880088000134908601248006850F01C
:100EA0000200104908600F48006810F00C00082884
:100EB000F9D101213C20FFF727FB01215FF400302D
:100EC000FFF732FB01214FF48040FFF72DFB07BDF8
:100ED0001540C8002000002014000020001002402F
:100EE00000200240041002402C10024000F0FEFFDF
:100EF0007047FEE7FEE7FEE7FEE770477047704782
:100F00007047704770477047704770477047704729
:100F10007047704770477047704770477047704719
:100F20007047704770477047704770477047704709
:100F300070477047704770477047704770477047F9
:100F400070477047704770477047704770477047E9
:100F5000704770477047704730B5016842688468D1
:100F6000014401EB5203D20748BF4C44994201D1DE
:100F70000C3030BD11F9012B11F8015B002A04F887
:100F8000015B02D5521CF9D1F0E7521EF4D5EDE712
:100F900010B5074979441831064C7C44163404E0F6
:100FA0000A68081D114488470146A142F8D110BDC6
:100FB0000800000014000000A1FFFFFF5400000023
:100FC000140000000000002000F00BF8002801D001
:100FD000FFF7DEFF0020AFF30080FFF7A1FE00F077
:100FE00002F80120704700F001B8000007463846BB
:100FF00000F002F8FBE70000202109032631182049
:10100000ABBEF9E7AFF30080AFF30080FFF7DCFF82
:101010000300200008CF00010804FFFFFFFFFFFFCF
:10102000FFFFFFFFFFFFFFFFFFFFFFFFFFFFFFFFD0
:10103000FFFFFFFFFFFFFFFFFFFFFFFFFFFFFFFFC0
:10104000FFFFFFFFFFFFFFFFFFFFFFFFFFFFFFFFB0
:10105000FFFFFFFFFFFFFFFFFFFFFFFFFFFFFFFFA0
:1020000058070020E9E5000879D500087BD50008CD
:1020100085D500088FD5000891D500080000000084
:102020000000000000000000000000008F83000896
:102030009BD500080000000045830008ADA80008FB
:1020400079E700087DE7000881E700081DD7000850
:1020500089E700088DE7000891E700089DD5000892
:1020600099E700089DE70008A1E70008A5E7000838
:10207000A9E70008ADE70008B1E70008B5E70008E8
:10208000B9E70008BDE70008C1E70008000000004C
:10209000000000000000000000000000B1D50008B2
:1020A000C9E70008CDE70008D1E70008D5E7000838
:1020B000D9E70008DDE70008E1E70008E5E70008E8
:1020C000E9E70008EDE70008F1E70008F5E7000898
:1020D00081D60008C9D50008F7D5000825D6000824
:1020E00009E800089BD6000811E80008000000007D
:1020F00000000000000000000000000000000000E0
:10210000000000000000000015E8000819E80008C1
:1021100053D6000821E8000825E8000829E800084F
:102120002DE8000831E8000835E8000839E8000823
:102130003DE8000841E8000845E80008000000000C
:1021400000000000000000000000000049E8000856
:1021500080B501F019F80020DFF8281C81F846004E
:10216000012001F01AFF0020DFF8181C4871002040
:10217000DFF8101C81F8440001BD80B50122012167
:10218000DFF8780B02F003FB642002F0A6FD0122C9
:102190004FF40071DFF8680B02F0F9FA40F24C409E
:1021A00002F09BFD00224FF40071DFF8540B02F0A7
:1021B000EEFA0120DFF8B81C087001BD80B50122DD
:1021C0004FF40071DFF8380B02F0E1FA4FF4487079
:1021D00002F083FD00224FF40071DFF8240B02F0BF
:1021E000D6FA40F6B83002F078FD00220121DFF87F
:1021F0000C0B02F0CCFA0020DFF8741C087001BD53
:10220000DFF86C0C0078704780B50020DFF8781B91
:1022100081F867000120DFF86C1B81F8460001227D
:102220004FF40071DFF8D80A02F0B1FA4FF44870A9
:1022300002F053FD00224FF40071DFF8C40A02F0EF
:10224000A6FA40F6B83002F048FD00220121DFF87E
:10225000AC0A02F09CFA01BD80B502F07BFE00F0F2
:1022600093FF01BD10B5DFF8A40B0078362801DB21
:1022700000F064FFDFF8940B0078002819D10122E8
:102280003521DFF88C0B03F07BF8040001F074FCBF
:10229000022806D10C2C04D00C20DFF8701B08702B
:1022A00007E0601E342803D2DFF8600B047000E002
:1022B00000BFDFF8580B007800281DD0DFF84C0B6A
:1022C0000078352818DADFF81C0C0078002803D0D5
:1022D00002280AD006D30BE0DFF8300B007800F0BC
:1022E0000FFE09E000F098FE06E000F0BBFE03E000
:1022F0000020DFF8F01B087010BD80B503E09DF8EA
:10230000000000F02CF8684601F0D0FB10F1010F3E
:10231000F5D101BDDFF86C0A0079704780B5C0B215
:1023200001F0B6FB01BDDFF8C41BDFF8C42B128837
:102330008854DFF8BC0B0088401CDFF8B41B088011
:10234000DFF8AC0B008840F2DB51884205DB00204F
:10235000DFF89C1B0880012000E00020704738B5A2
:102360000400DFF8900B0078002806D0022839D04E
:102370002CD3032800F0E880F6E00020DFF8701B83
:1023800008800020DFF8701B08700020DFF86C1B4D
:10239000088040F2DC510022DFF8505B280003F097
:1023A0001FF8E4B20D2C04D10120DFF8481B08709F
:1023B0000BE02000C0B2FFF7B6FF0220DFF8341BAD
:1023C00008700120DFF8701D0860D5E0E4B20A2C27
:1023D00007D10220DFF81C1B08700120DFF8581D10
:1023E0000860C9E0DFF8080B0088082839D1002010
:1023F000032262A1DFF8F40A03F025F8002830D1A7
:10240000002000E0401CC0B2082808DADFF8DC1A1F
:10241000C0B2095C3A29F5D1DFF8DC1A0870032054
:102420000EE0DFF8D81A09880A22DFF8C03AC0B2F5
:102430001B5C02FB01313039DFF8C02A1180401CDF
:102440000100DFF8B42A1278C9B2914206D2DFF84F
:102450009C1AC0B2095C30390A29E2D3032001F08A
:102460007CFB01F089FB032831D12000C0B2FFF7CB
:102470005AFFDFF87C0A0088DFF8801A0988DFF845
:10248000782A12785118491C884208DA0220DFF8AD
:10249000641A08700120DFF8A01C086053E00020D7
:1024A000DFF8501A08700020DFF88C1C0860DFF895
:1024B0004C0A0188DFF8340ADFF83C2A127810440D
:1024C000401C01F05FFB002001F047FB3BE0E4B261
:1024D0000D2C0DD1DFF8600C0068002808D0032017
:1024E000DFF8101A08700020DFF84C1C08602AE0A2
:1024F00001F042FB012822D1DFF8F009DFF8F019E2
:102500000988084410F8010C3E2813D1E4B2202CAD
:1025100010D10020DFF8DC190870022001F01DFB4B
:102520000120DFF8481C0870002200210C20FFF772
:10253000F5FE08E02000C0B2FFF7F5FE03E0200042
:10254000C0B2FFF7F0FE17E0E4B20A2C0BD1002076
:10255000DFF8A0190870DFF898090188C9B2DFF820
:102560008C0900F00DF807E00020DFF888190870EA
:102570000020DFF8C41B086031BD00004950440052
:1025800070B504000025DFF8E80B0078002808D0BB
:10259000C9B2200000F0FAFB0020DFF8D41B08705D
:1025A000CCE1C9B2200000F0CAF9002840F0C68191
:1025B000DFF858080078162840D1DFF8B80B00681B
:1025C00002F05CFF0200DFF8AC0B0168200002F0B3
:1025D0003AFF00280DD0DFF8A00B006802F04EFF94
:1025E0000200DFF8940B0168200002F02CFF0028A5
:1025F0000DD10120DFF8741B0870012501F093FA5A
:10260000082880F28A81082001F073FA85E1DFF85A
:102610006C0B006802F032FF0200DFF8600B01680B
:10262000200002F010FF002840F077810120DFF841
:102630003C1B08700125FFF70FFE6EE1DFF8400B31
:10264000006802F01BFF0200DFF8340B0168200075
:1026500002F0F9FE002805D10320DFF8101B0870F6
:1026600001255AE1DFF81C0B006802F007FF0200A9
:10267000DFF8100B0168200002F0E5FE002815D1FC
:102680000120DFF8E81A08700125062001F031FA70
:10269000FFF7E2FD002001F060FA0020DFF8D01A19
:1026A0000870DFF8880B02F005FF36E1DFF8800BD9
:1026B000006802F0E3FE0200DFF8740B01682000FE
:1026C00002F0C1FE002821D10120DFF8A01A087015
:1026D0000125DFF8B00690F84600012812D000204E
:1026E000DFF88C1A0870FFF7B7FD002001F001FA3F
:1026F000FFF764FD4FF47A7002F0EFFAFFF73DFD4B
:10270000FFF7AAFD002001F028FA06E1DFF8A40B8C
:10271000006802F0B3FE0200DFF8980B01682000A9
:1027200002F091FE002812D10120DFF8401A087053
:102730000125002001F0DDF90020DFF8341A0870CF
:10274000FFF78AFDDFF8700B02F0B4FEE5E0DFF87A
:102750006C0B006802F092FE0200DFF8600B01686B
:10276000200002F070FE002831D10220DFF8FC19B1
:1027700008700125DFF8480B02F09CFEDFF88C069C
:102780000078282804D0DFF884060078242804D1B3
:102790000020DFF8D8190870BFE0DFF8280B0078B8
:1027A0001528C0F2BA80FFF757FDFFF707FD4FF479
:1027B0007A7002F092FA002001F09BF9FFF7DDFC3D
:1027C000FFF74AFD0020DFF8FC1A0870A5E0DFF8EB
:1027D000F80A006802F052FE0200DFF8EC0A016815
:1027E000200002F030FE002805D10120DFF87C191E
:1027F0000870012591E0DFF8D40A006802F03EFE7F
:102800000200DFF8C80A0168200002F01CFE002860
:1028100005D10120DFF85419087001257DE0DFF8AB
:102820005C09006802F02AFE0200DFF85009016826
:10283000200002F008FE002805D10120DFF82C1945
:102840000870012569E0DFF8940B006802F016FEBD
:102850000200DFF8880B0168200002F0F4FD002878
:102860000CD10120DFF804190870012501F05BF993
:10287000022852D1032001F03CF94EE0DFF88C052C
:1028800000782E2805D10120DFF8E0180870012516
:1028900043E0DFF8B00B006802F0F0FD0200DFF863
:1028A000A40B0168200002F0CEFD002803D1022015
:1028B00001F01FF931E0DFF854050078DFF86C1DF6
:1028C0000870200002F0DAFDDFF8601D91F8651055
:1028D000D1F16401814206D2DFF8500D90F8650015
:1028E000D0F1640603E0200002F0C8FD0600B6B295
:1028F00032002100DFF8340DDFF8303D93F8653009
:102900001844401C02F0E8FDDFF8200D90F8650047
:102910003018DFF8181D81F86500012D0ED1DFF8A1
:10292000EC040078DFF8041D0870200002F0A6FD1A
:10293000DFF8F81C81F8650000F047FA70BDF8B5C3
:1029400004000D00002601274AE0DFF81407FFB25B
:10295000142101FB07F10844401C02F08FFD020026
:10296000DFF8FC06FFB2142101FB07F10844411C0B
:10297000DFF8780502F067FD002830D1FFB2002FA4
:102980002BD0FFB2112F28DADFF8D406FFB21421C2
:1029900001FB07F10844C06800280BD02900C9B228
:1029A0002000DFF8BC26FFB2142303FB07F31A4410
:1029B000D2689047DFF8A806FFB2142101FB07F1A7
:1029C00008440069002808D0DFF89406FFB21421FB
:1029D00001FB07F1084400698047112701267F1C8D
:1029E000FFB2112FB1DB3000F2BD7047C9B2092927
:1029F00007DB007A312804D10120DFF88813086052
:102A000003E00020DFF87C13086070470021C179E3
:102A100030390A2907D281790A22C07902FB0100E4
:102A2000B0F1100102E08079B0F13001C9B2202983
:102A300003DB1F20D349087108E0C9B2202902DA5C
:102A4000D048017102E00020CE4908717047002192
:102A50000D3005E00A22037802FB01313039401CB9
:102A600002780D2A0BD002782C2A08D00278302A5E
:102A7000F0DA02783A2AEDDB002006E0401C02780A
:102A80000A2AFBD1401C080080B2704738B5040008
:102A90000020E07A3038C0B2012802D002280CD0E1
:102AA00043E0022001F046F8DFF8880B02F002FD57
:102AB0000120DFF8841B087037E040F2DC5100226F
:102AC000DFF89855280002F08BFC2000FFF7BFFFCD
:102AD00040F2DD51884202DB40F2DC5002E020008F
:102AE000FFF7B5FFDFF8001408800020DFF8481B6F
:102AF0000870DFF8F4030088002815D0DFF8E80339
:102B00000188DFF8380B02F0D5FCDFF8340B0078D1
:102B1000002803D10120DFF8281B0870DFF8C80364
:102B2000008801F00DF8FFE7FFE731BD80B5002117
:102B3000007AB0F13001C9B201290BD100F0F3FFE6
:102B4000052802D1062000F0D4FF01208E4981F82B
:102B50006C0006E0C9B2002903D100208A4981F83F
:102B60006C0001BD70470120DFF804160870704743
:102B700080B50322C11DDFF8CC0A006802F063FCB7
:102B800000280BD100F0CFFF032802D1042000F071
:102B9000B0FF01207C4981F86B0007E0DFF8A80A4C
:102BA00002F088FC0020784981F86B0001BD10B567
:102BB0000024417B30390A2907D2017B0A22407B5D
:102BC00002FB0100B0F1100402E0007BB0F1300420
:102BD000E4B2002C0ED0002200212C20FFF79EFB37
:102BE000DFF8040C0470DFF81C0E0078401CDFF8DE
:102BF000141E087010BD70B500250400417A3039EC
:102C00000A2904D30025604880F8825044E0407AC5
:102C1000B0F13005EDB2012D02D0EDB2052D32D16B
:102C20000020052000F065FF0221200002F0FEFCDC
:102C30000600300002F0EAFCC0B200280BD0701C85
:102C400002F0BAFC504981F87D00F01C02F0B4FC9F
:102C50004D4981F87E000321200002F0E7FC0600C8
:102C6000300002F0D3FCC0B2002812D0701C02F079
:102C7000A3FC454981F87F00F01C02F09DFC42490D
:102C800081F8800005E0EDB22900DFF89C0B02F02E
:102C900011FC3D4880F8825070BD704780B5417A84
:102CA0002D2912D1817A3039C27A2E2A07D0C27AE0
:102CB0000A2A04D00A225143C07A30384118C9B2D6
:102CC0004842304981F845000FE0417A3039827A34
:102CD0002E2A07D0827A0A2A04D00A225143807A07
:102CE00030384118274880F84510264890F945109B
:102CF000DFF83C0E02F0DEFB01BD0000000C0140DD
:102D0000001001407047704770477047C9B21A29D8
:102D100037DB3221DFF8242E11703021DFF81C2E32
:102D20005170017ADFF8142E9170417ADFF80C2E81
:102D3000D170C17ADFF8042E1171017BDFF8FC2D10
:102D40005171817BDFF8F42D9171C17BDFF8EC2D9F
:102D5000D171417CDFF8E42D1172817CDFF8DC2D2C
:102D60005172017DDFF8D42D9172417DDFF8CC2DB9
:102D7000D172C17DDFF8C42D1173007EDFF8BC1D58
:102D800048737047BC8C00207C860020F0B599B059
:102D900004000D0000260027002709E0FFB204EB25
:102DA000470002F009FC6946FFB2C855761C7F1C3B
:102DB000FFB27800EDB2A842F0DBF6B2310089B282
:102DC000684600F0DFFE19B0F0BD80B5002000E0DD
:102DD000401CC0B2082818D2DFF850180978DFF874
:102DE000B82DC0B212F830209142F1D1DFF8A81D01
:102DF000C0B201EBC0014968002906D0DFF8981D78
:102E0000C0B201EBC0004068804701BD8C9000203B
:102E10009C8F002080B500F086FE062802D1072096
:102E200000F067FE01BD80B5072000F062FE01BD25
:102E300080B500F078FE012802D1022000F059FE92
:102E400001BD704710B5DFF8401CDFF8400C02F000
:102E500031FBDFF8D807407830380A2806D20F2235
:102E6000DFF8241C6A4C200002F01AFC10BD0000A0
:102E7000909000201FB500240F22DFF80C1C654C39
:102E8000200002F00DFC0F2262496C46200002F087
:102E900007FC00208DF80F005E49DFF80C0C02F0F3
:102EA00009FB66208DF80F0000240CE06846E4B2B0
:102EB00000EB440002F080FBDFF8B01DE4B22144D7
:102EC00081F86D00641CE4B2082CEFDB1FBD704775
:102ED00010B52022DFF8B01BDFF8984D200002F07B
:102EE000DFFB10BD8A9000207C900020305F002026
:102EF0007A9000208B900020929000207890002003
:102F000038B50400DFF8940CE4B26101405CDFF8EE
:102F1000701C08700020DFF8141708700020DFF81C
:102F20000C1781F8650064210022DFF85C5B280043
:102F300002F056FADFF8640CE4B26101084440691B
:102F4000002817D0DFF8540CE4B261010844C069CE
:102F500000280FD02000C0B200F06CF9DFF83C0C64
:102F6000E4B261010844007D000703D52000C0B22F
:102F700000F04DFBDFF8000D008840F2E731884299
:102F800004DB40F2E630DFF8F01C08800D20DFF8AB
:102F9000EC1CDFF8E42C12888854DFF8DC0C008885
:102FA000401CDFF8D41C08800A20DFF8D01CDFF8B2
:102FB000C82C12888854DFF8C00C0088401CDFF849
:102FC000B81C0880DFF8B00C0188DFF8B00C00F006
:102FD0007BFDDFF8C80BE4B2610108448069DFF8CB
:102FE000C01B086002F013FDDFF8B41B0968081865
:102FF000DFF83C1C0860DFF86C0C0078401CDFF840
:10300000641C08700220DFF8601C087031BD0000ED
:10301000E28C0020F18C002080B50020DFF8641CD9
:10302000087002F0F4FCDFF8781B09680818DFF874
:10303000001C08600220DFF8301C0870DFF8240C48
:103040000078401CDFF81C1C0870DFF82C0C01888D
:10305000DFF8280C00F038FD01BD00000C650020F1
:103060000C00002080B502F0D2FCDFF8C41B096818
:10307000814204D3DFF80C0C0078022848D1DFF835
:10308000F00B00780C2802D100F058F853E0DFF87C
:10309000D40B0078DFF8E81A0978884204D20120BE
:1030A000DFF8C41B087046E0DFF8D80B0078002872
:1030B00019D1DFF8E80ADFF8B81B0978490108449C
:1030C000007DC0060FD500F039F8FFF7C5F8FFF70F
:1030D00075F84FF47A7001F000FE002000F009FD51
:1030E000FFF74BF827E0DFF89C0B007800280CD1A5
:1030F000DFF8A80ADFF8781B097849010844007D49
:10310000C00702D400F01AF815E000F017F812E03A
:10311000DFF85C0B00780C2806D100F02DFD0228AA
:1031200009D100F00BF806E0DFF8580B0078012811
:1031300001D100F003F801BDC88F002000200B4929
:1031400008700020DFF8201B08700020DFF8301B1B
:1031500008700020DFF8181B08700020DFF8041B3F
:1031600008700020DFF8201B086070478D90002059
:1031700094900020640100206C0100207001002068
:10318000600100208401002010B50020DFF8F41A4F
:1031900008700020DFF8D01A08700020DFF8D01A7D
:1031A00008700020DFF8BC1A08700020DFF8D81A79
:1031B00008600020DFF8C81A087007210022DFF835
:1031C000CC4A200002F00CF94FF47A710022DFF8AB
:1031D000AC4A200002F004F90020DFF8901A81F8D0
:1031E0006B000020DFF8841A81F86C000522DFF8FC
:1031F000A01ADFF8C04A200002F052FA0020DFF8DF
:10320000C01A08700020DFF8B81A48704FF49671A1
:103210000022DFF8C04A200002F0E2F80020DFF8C8
:10322000D81A0860002000F098FC10BDD4E4000813
:103230008C01002038B50400DFF86009E4B26101B8
:103240000844401C02F01AF90500EDB22A00DFF82C
:103250004C09E4B261010844411CDFF8200A02F085
:103260003BF9EDB2DFF8100A058031BD80B5DFF81B
:10327000500A027872A1DFF8040ADFF8803A1B884E
:10328000184402F089FEDFF8741A0988C0B24018A9
:10329000DFF8681A08800D20DFF8E019DFF85C2AF3
:1032A00012888854DFF8540A0088401CDFF84C1A52
:1032B000088001BD7401002058E50008900100203D
:1032C00068E50008969000207C010020780100202D
:1032D00038B5DFF82C0A007801282ED1DFF8240A4F
:1032E0004488DFF894090088A4B22018B0F5797FEB
:1032F00070DCA4B2DFF8101ADFF88009DFF8782953
:10330000128800EB02052200280002F0C9F9DFF85C
:10331000680900882018DFF8601908801A20DFF893
:103320005C19DFF8542912888854DFF84C090088AA
:10333000401CDFF8441908804CE0DFF8C809048815
:10334000DFF834090088A4B22018B0F5797F23DCB7
:10335000A4B2DFF8B819DFF82409DFF81C291288B5
:1033600000EB02052200280002F09AF9DFF80809B4
:1033700000882018DFF8001908801A20DFF8FC18F0
:10338000DFF8F42812888854DFF8EC080088401C25
:10339000DFF8E41808801DE0DFF8DC08008840F260
:1033A000E631884204DB40F2E530DFF8CC180880D3
:1033B0001B20DFF8C818DFF8C02812888854DFF80F
:1033C000B8080088401CDFF8B0180880DFF8400912
:1033D00002F070F8002000F0C0FB31BD6801002051
:1033E00080B52220DFF89418DFF81029128888545D
:1033F000DFF808090088401CDFF800190880052262
:10340000DFF88C18DFF87408DFF8F0381B881844F0
:1034100002F062F8DFF8E4080088401DDFF8DC18ED
:1034200008802220DFF85418DFF8D028128888544A
:10343000DFF8C8080088401CDFF8C018088001BD0C
:10344000256400008801002010B5042278A1DFF86F
:10345000C40802F041F800F0A5FB00F0EBFB2220CD
:10346000DFF81818DFF8942812888854DFF88C08E1
:103470000088401CDFF884180880DFF8980801F005
:10348000FDFF0400E4B22200DFF88818DFF8EC0743
:10349000DFF868381B88184402F01EF8DFF85C0873
:1034A0000088E4B22018DFF8541808802220DFF8E2
:1034B000CC17DFF8482812888854DFF840080088C5
:1034C000401CDFF8381808802C20DFF8B017DFF830
:1034D0002C2812888854DFF824080088401CDFF864
:1034E0001C1808802220DFF89417DFF810281288B3
:1034F0008854DFF808080088401CDFF800180880AE
:10350000DFF8140801F0BAFF0400E4B22200DFF88B
:103510000818DFF86807DFF8E4371B88184401F063
:10352000DBFFDFF8D8070088E4B22018DFF8CC17FB
:1035300008802220DFF84417DFF8C027128888545B
:10354000DFF8B8070088401CDFF8B01708802C208F
:10355000DFF82817DFF8A42712888854DFF89C07C3
:103560000088401CDFF8941708802220DFF80C1731
:10357000DFF8882712888854DFF880070088401C0D
:10358000DFF878170880DFF8940701F077FF040070
:10359000E4B22200DFF88417DFF8E006DFF85C37DA
:1035A0001B88184401F098FFDFF850070088E4B248
:1035B0002018DFF8481708802220DFF8C016DFF84F
:1035C0003C2712888854DFF834070088401CDFF855
:1035D0002C17088010BD80B500200222DFF82417C8
:1035E000DFF89806DFF890361B88184401F0AAFF30
:1035F000DFF8841609884018DFF87C160880002060
:10360000DFF8FC160870012000F0A7FA01BD80B5B4
:10361000DFF80C17C0B251F82010002905D0DFF8F0
:103620000017C0B251F82000804701BD3C8B00203C
:103630005443500004E300089190002094E10008F6
:1036400095900020800100201CE30008704770471F
:103650007047704710B5042272A1DFF8B80601F078
:103660003BFFDFF8B816DFF8B00602F00AFE2220B2
:10367000DFF80816DFF8842612888854DFF87C0605
:103680000088401CDFF874160880DFF8880601F017
:10369000F5FE0400E4B22200DFF87816DFF8DC055E
:1036A000DFF858361B88184401F016FFDFF84C0687
:1036B0000088E4B22018DFF8441608802220DFF8E2
:1036C000BC15DFF8382612888854DFF830060088E9
:1036D000401CDFF8281608802C20DFF8A015DFF842
:1036E0001C2612888854DFF814060088401CDFF876
:1036F0000C1608802220DFF88415DFF800261288D7
:103700008854DFF8F8050088401CDFF8F0150880C1
:10371000DFF8040601F0B2FE0400E4B22200DFF894
:10372000F815DFF85805DFF8D4351B88184401F088
:10373000D3FEDFF8C8050088E4B22018DFF8BC1516
:1037400008802220DFF83415DFF8B025128888546D
:10375000DFF8A8050088401CDFF8A01508802C20A1
:10376000DFF81815DFF8942512888854DFF88C05E7
:103770000088401CDFF8841508802220DFF8FC1444
:10378000DFF8782512888854DFF870050088401C1F
:10379000DFF868150880DFF8840501F06FFE04008B
:1037A000E4B22200DFF87415DFF8D004DFF84C35FE
:1037B0001B88184401F090FEDFF840050088E4B251
:1037C0002018DFF8381508802220DFF8B014DFF861
:1037D0002C2512888854DFF824050088401CDFF867
:1037E0001C15088010BD00008F90002080B50020BF
:1037F0000222DFF81015DFF88404DFF87C341B8820
:10380000184401F09FFEDFF8701409884018DFF8B3
:10381000681408800020DFF8E8140870012000F028
:103820009CF901BD5443500034E30008704710B5C3
:103830002220DFF84814DFF8C42412888854DFF807
:10384000BC040088401CDFF8B4140880DFF864046E
:1038500001F014FE0200DFF85C14DFF82004DFF84A
:103860009C341B88184401F037FEDFF8900404886C
:10387000DFF8400401F002FE0019DFF88014088030
:103880002220DFF8F813DFF8742412888854DFF858
:103890006C040088401CDFF8641408802C20DFF8DA
:1038A000DC13DFF8582412888854DFF850040088AD
:1038B000401CDFF8481408802220DFF8C013DFF82E
:1038C0003C2412888854DFF834040088401CDFF858
:1038D0002C140880DFF84C0401F0D0FD421EDFF804
:1038E0004414DFF89803DFF814341B88184401F0FF
:1038F000F3FDDFF808040488DFF8280401F0BEFDBA
:10390000401E0019DFF8F41308802220DFF86C1342
:10391000DFF8E82312888854DFF8E0030088401CB1
:10392000DFF8D81308802C20DFF85013DFF8CC2301
:1039300012888854DFF8C4030088401CDFF8BC13E9
:1039400008802220DFF83413DFF8B023128888546F
:10395000DFF8A8030088401CDFF8A0130880DFF818
:10396000C80301F08BFD421EDFF8BC13DFF80C0327
:10397000DFF888331B88184401F0AEFDDFF87C03C4
:103980000488DFF8A40301F079FD401E0019DFF878
:103990006C1308802220DFF8E412DFF8602312881D
:1039A0008854DFF858030088401CDFF85013088063
:1039B00010BD3120DFF8C412DFF84023128888548C
:1039C000DFF838030088401CDFF8301308802C2013
:1039D000AA49DFF8282312888854DFF820030088DA
:1039E000401CDFF8181308803420A449DFF80C23AA
:1039F00012888854DFF804030088401CDFF8FC12AA
:103A00000880704797900020DFF8200300780A288C
:103A100010DADFF81803007830309849DFF8DC223C
:103A200012888854DFF8D4020088401CDFF8CC12DA
:103A3000088027E0DFF8F40200780A2190FBF1F01B
:103A400030308E49DFF8B42212888854DFF8AC0297
:103A50000088401CDFF8A4120880DFF8D00200784C
:103A60000A2190FBF1F201FB120030308349DFF8AC
:103A70008C2212888854DFF884020088401CDFF80A
:103A80007C120880704700003D8B002028E600086B
:103A900080B50121009101233522C0B201007B488D
:103AA00001F040FC01BD000034E6000810B5040040
:103AB0002100012000F076FB002801D0207801E0F1
:103AC0005FF0FF3000B210BDF8B504000D00002615
:103AD000002705E0BFB2E15D012000F0C7FB7F1CBD
:103AE0003800290080B289B28842F3D33000C0B2D6
:103AF000F2BDDFF8041291F844100200D2B29142F4
:103B000010D0C0B20A2803DADFF8EC1181F84400C3
:103B1000C0B2082803DB01207749086002E00020DA
:103B2000754908607047744890F844007047000079
:103B3000B0E10008574981F86A0070473C8F0020C7
:103B400080B240F2DD51884204DB40F2DC5078491B
:103B5000088001E076490880704780B56649487161
:103B600065484079002806D001F051FF00F59850D3
:103B700088307049086001BD5F4840797047000097
:103B80003603002080B589B2002902D089B203F043
:103B900091F8002002BD000080DD0008C8CA0008BE
:103BA0000800002010B58EB00024112100226C46C0
:103BB000200001F015FC01220DF11101684601F011
:103BC000C1FC04002E206946E4B20855641C0122A1
:103BD0000DF1120168462300DBB2184401F0B2FC7B
:103BE00004192E206946E4B20855641C01220DF127
:103BF000130168462300DBB2184401F0A3FC04194A
:103C00002E206946E4B20855641C012205A96846C5
:103C10002300DBB2184401F095FC0419641CE4B2E3
:103C2000220069463C4801F057FC0EB010BD000070
:103C3000C48F002010B58CB00022062100226C46F3
:103C4000200001F0CDFB02220DF10D01684601F0CC
:103C500079FC0200521CD2B26946304801F03CFCAB
:103C60000CB010BD8E9000208A9000207C86002031
:103C70008C900020C28C00207690002024730020BD
:103C80008B9000208D900020C88F00209C8F0020FA
:103C9000ECE600087C86002038B504000D00022206
:103CA0002549200001F0FCFC02222449280001F0F3
:103CB000F7FC31BD7D860020214890F882007047D6
:103CC0007483002010B5040008221E49200001F072
:103CD000E7FC10BD7683002010B5040008221A49C5
:103CE000200001F0DDFC10BD10B504000E221749C4
:103CF000200001F0D5FC10BDBC8C00207690002087
:103D000093900020346F002020730020386F002033
:103D1000C4DF0008B9860020BD860020DB860020B5
:103D2000CCD8000891860020A58600208F90002026
:103D300078900020CC8F0020F9860020FB860020A0
:103D40007C860020E9860020F18600203C8F002040
:103D500000B585B0C0B2002807D0022800F08F80DF
:103D600049D3032800F0D18015E14FF48060ADF80D
:103D7000000004208DF803006946DFF8F00800F029
:103D800095FC4FF40070ADF8000001208DF80200A2
:103D900018208DF803006946DFF8D00800F086FC93
:103DA0005FF4E13001900020ADF808000020ADF88C
:103DB0000A000020ADF80C000020ADF810000C2027
:103DC000ADF80E0001A9DFF8A80804F0E1F901221E
:103DD00040F22551DFF8980804F048FA002240F23A
:103DE0002661DFF88C0804F041FA0121DFF8800831
:103DF00004F02EFACFE00820ADF8000004208DF882
:103E000003006946DFF8640800F050FC0420ADF8B8
:103E1000000001208DF8020018208DF8030069468B
:103E2000DFF8480800F042FC5FF4E1300190002028
:103E3000ADF808000020ADF80A000020ADF80C0035
:103E40000020ADF810000C20ADF80E0001A9DFF83D
:103E5000240804F09DF9012240F22551DFF81408EE
:103E600004F004FA002240F22661DFF8080804F0AA
:103E7000FDF90121DFF8FC0704F0EAF98BE04FF4CB
:103E80000060ADF8000004208DF803006946DFF8FB
:103E9000E80700F00BFC4FF48060ADF80000012053
:103EA0008DF8020018208DF803006946DFF8C80776
:103EB00000F0FCFB4FF4165001900020ADF8080014
:103EC0000020ADF80A000020ADF80C000020ADF88D
:103ED00010000C20ADF80E0001A9DFF8A00704F0D7
:103EE00057F9012240F22551DFF8900704F0BEF99E
:103EF000002240F22661DFF8840704F0B7F90121BF
:103F0000DFF8780704F0A4F945E04FF48060ADF8DD
:103F1000000001208DF802001C208DF80300694686
:103F2000DFF85C0700F0C2FB4FF40060ADF8000062
:103F300004208DF803006946DFF8440700F0B6FB63
:103F40005FF4E13001900020ADF808000020ADF8EA
:103F50000A000020ADF80C000020ADF810000C2085
:103F6000ADF80E0001A9DFF81C0704F011F90122D9
:103F700040F22551DFF80C0704F078F9002240F2F6
:103F80002661DFF8000704F071F90121DFF8F4067B
:103F900004F05EF9FFE705B000BD80B5C0B20428AB
:103FA00080F2FF800021DFF8E026C0B21C2303FB73
:103FB00000F31A4491800021DFF8CC26C0B21C2304
:103FC00003FB00F3D1520021DFF8BC26C0B21C2352
:103FD00003FB00F31A4451800021DFF8AC26C0B285
:103FE0001C2303FB00F31A4411820021DFF89826FA
:103FF000C0B21C2303FB00F31A4491810021DFF8B7
:104000008826C0B21C2303FB00F31A44D18100218F
:10401000DFF87426C0B21C2303FB00F31A4491613D
:10402000C0B2002806D0022860D030D3032800F0A8
:104030008B80B6E0DFF85416DFF84C26C0B21C23A4
:1040400003FB00F31A4491609621DFF83C26C0B2CE
:104050001C2303FB00F31A44D180DFF83416DFF889
:104060002826C0B21C2303FB00F31A445161962199
:10407000DFF81426C0B21C2303FB00F31A4451825C
:10408000C0B200F0A1FA0020FFF762FE89E0DFF87D
:104090000416DFF8F425C0B21C2303FB00F31A4416
:1040A000916040F24C41DFF8E025C0B21C2303FBD5
:1040B00000F31A44D180DFF8E015DFF8CC25C0B258
:1040C0001C2303FB00F31A4451614FF47A71DFF8AB
:1040D000B825C0B21C2303FB00F31A445182C0B2BE
:1040E00000F072FA0120FFF733FE5AE0DFF8AC155A
:1040F000DFF89425C0B21C2303FB00F31A4491603F
:104100004FF41671DFF88025C0B21C2303FB00F3C7
:104110001A44D180DFF88815DFF86C25C0B21C2363
:1041200003FB00F31A4451616421DFF85C25C0B23F
:104130001C2303FB00F31A445182C0B200F044FA7E
:104140000220FFF705FE2CE0DFF85815DFF83825D0
:10415000C0B21C2303FB00F31A4491601421DFF862
:104160002825C0B21C2303FB00F31A44D180DFF8DA
:104170003815DFF81425C0B21C2303FB00F31A44E2
:1041800051611421DFF80025C0B21C2303FB00F3AA
:104190001A445182C0B200F017FA0320FFF7D8FD8D
:1041A000FFE701BD70B504000D000026E4B2042C49
:1041B00001DB002059E0002D01D1002055E004F082
:1041C000DCF8DFF8C404E4B21C2101FB04F1405A1E
:1041D000DFF8B414E4B21C2202FB04F21144498853
:1041E00088423ED0DFF8A004E4B21C2101FB04F1B8
:1041F00008444088401CDFF89014E4B21C2202FB03
:1042000004F211444880DFF88004E4B21C2101FB71
:1042100004F108444088DFF87014E4B21C2202FB69
:1042200004F21144C988884208D30020DFF85814EA
:10423000E4B21C2202FB04F211444880DFF8480477
:10424000E4B21C2101FB04F108448068DFF8381453
:10425000E4B21C2202FB04F211444988405C28703D
:104260000126002004F090F8300070BD70B5040005
:104270000D000026E4B2042C01DB0020A5E004F0D0
:104280007CF8DFF80404E4B21C2101FB04F10844CB
:10429000008ADFF8F413E4B21C2202FB04F211449A
:1042A000498A88424ED2DFF8E003E4B21C2101FBC8
:1042B00004F10844008A401CDFF8CC13E4B21C224D
:1042C00002FB04F211440882DFF8BC03E4B21C21B3
:1042D00001FB04F108448089401CDFF8AC13E4B210
:1042E0001C2202FB04F211448881DFF89C03E4B233
:1042F0001C2101FB04F108448089DFF88C13E4B22F
:104300001C2202FB04F21144498A884208D300208F
:10431000DFF87413E4B21C2202FB04F2114488811A
:10432000DFF86403E4B21C2101FB04F10844406996
:10433000DFF85413E4B21C2202FB04F21144898911
:1043400045540126DFF84003E4B21C2101FB04F1CF
:1043500008448069002834D12000C0B200F036F84B
:104360000120DFF82413E4B21C2202FB04F2114402
:104370008861E4B2002C05D0022C13D00AD3032CA0
:1043800018D01EE0012240F22661DFF8E40203F0BB
:104390006DFF16E0012240F22661DFF8D80203F03B
:1043A00065FF0EE0012240F22661DFF8D00203F043
:1043B0005DFF06E0012240F22661DFF8C80203F04B
:1043C00055FF002003F0E0FF300070BD10B5C0B213
:1043D000002805D0022853D050D3032852D053E0F0
:1043E000DFF88C22DFF8A012C0B21C2303FB00F31D
:1043F0001944098A491EDFF89032C0B21C2404FB1C
:1044000000F423441982DFF88012C0B21C2303FB9E
:1044100000F31944C989491C9B4BC0B21C2404FBFE
:1044200000F42344D9819849C0B21C2303FB00F354
:104430001944C989944BC0B21C2404FB00F42344E2
:104440005B8A994207D300218F4BC0B21C2404FB26
:1044500000F42344D9818C49C0B21C2303FB00F330
:1044600019444969884BC0B21C2460431844C08970
:10447000095C89B2100003F022FF10BD7D4AB1E74C
:104480007E4AAFE77F4AADE7F7E710B5C0B2002834
:1044900005D002281AD017D3032819D01AE0744B7C
:1044A0007949C0B21C2202FB00F211448989764A84
:1044B000C0B21C2404FB00F42244D28991420AD0E9
:1044C000C0B2FFF783FF13E06A4BE9E76B4BE7E706
:1044D0006C4BE5E70CE000216B4AC0B21C24604342
:1044E00010448161002240F22661180003F0BEFEF4
:1044F00010BD000081B0C0B2042863DAC0B2002849
:1045000005D0022807D004D3032806D007E0584975
:1045100005E0584903E0594901E05A49FFE70A8894
:104520008DF8002089888DF801109DF80010032275
:10453000114243D15449C0B21C2202FB00F2895AF5
:10454000491C514AC0B21C2303FB00F3D1524E490F
:10455000C0B21C2202FB00F2895A4B4AC0B21C2393
:1045600003FB00F31A44D288914206D30021464A45
:10457000C0B21C2303FB00F3D1524349C0B21C223A
:1045800002FB00F2895A404AC0B21C2303FB00F32D
:104590001A44528891420FD03B49C0B21C2202FB00
:1045A00000F211448968384AC0B21C235843105A9B
:1045B0009DF801200A5405E000BF03E0C0B20128C5
:1045C00000D100BF01B07047C0B2002805D002285A
:1045D00005D003D3032803D003E07047FDE7FCE7D1
:1045E000FBE7FAE7C0B204283DDA2749C0B21C2233
:1045F00002FB00F21144002935D00021224AC0B24A
:104600001C2303FB00F31A44918000211E4AC0B210
:104610001C2303FB00F3D15200211B4AC0B21C2310
:1046200003FB00F31A4451800021174AC0B21C2337
:1046300003FB00F31A4411820021134AC0B21C2369
:1046400003FB00F31A44918100210F4AC0B21C23DE
:1046500003FB00F31A44D18100210B4AC0B21C2392
:104660005843104481617047000000000008014079
:104670000038014000440040000C01400048004068
:1046800000100140004C0040CC8A00204C850020E6
:10469000E4850020E86A0020F47A0020DC7E002017
:1046A000088C0020148F0020288F002070B4002276
:1046B00000250023002600240025CA7812F00F02EE
:1046C000CB78DB0601D58B781A430B781B0621D0FB
:1046D0000468002306E0CD78482D02D101259D40D5
:1046E00005615B1C082B14D2012515FA03F60D8811
:1046F0003540B542F5D19E000F25B540AC4312FAC6
:1047000006F52C43CD78282DE5D101259D40456146
:10471000E7E704600B88FF2B26DD4468002320E0D8
:10472000012513F1080615FA06F60D883540B54245
:1047300016D19E000F25B540AC4312FA06F52C4366
:10474000CD78282D04D1012513F10806B540456127
:10475000CD78482D04D1012513F10806B540056137
:104760005B1C082BDCD3446070BC7047002280685F
:1047700089B2084201D0012200E000221000C0B23C
:10478000704789B20161704789B241617047D2B206
:10479000002A02D089B2016101E089B2416170470B
:1047A00030B40022002400230024002802D51C4A33
:1047B000136801E01B4A1368C0F3034482B210F48B
:1047C0004015B5F5401F08D133F07063154C2468CF
:1047D00034F07064134D2C6010E0C50206D503253B
:1047E00015FA04F4A34353F0706307E0440DE4B2F8
:1047F000240112FA04F4A34353F07063C9B20029F0
:1048000005D0410DC9B2090112FA01F10B4300288C
:1048100002D50348036001E00248036030BC7047E2
:104820001C00014004000140E0B55FF04430DFF8B7
:104830008C1608605FF04430DFF8841608600020B2
:10484000DFF880160860DFF88006DFF88016086061
:104850005FF04430DFF8781608600020DFF8741647
:104860000860DFF87406DFF8741608605FF0443003
:10487000DFF86C1608600020DFF8681608605FF04B
:104880004430DFF8641608605FF04430DFF85C16EF
:1048900008600020DFF85816086001200190002011
:1048A0008DF808000C208DF8090001208DF80A0011
:1048B00001A803F085FD06208DF800000F208DF87B
:1048C00001000F208DF8020001208DF803006846DA
:1048D00003F0DDFD07BD704780B5DFF8180603F073
:1048E000DEFE03F0BBFF01BD10B504F029F80400A3
:1048F00004F068F8002805D1E4B22100DFF8F805DB
:1049000000F0D8FD0020DFF8F415086004F013F87B
:10491000002812D10120DFF8E415086000F09AF8B1
:10492000DFF8DC0500F0C6FD03F0DDFF0FF2091231
:104930004FF4FA610A2004F0D7F910BD10B592B017
:10494000002100F0F8F804F080FA02F02DF9684632
:1049500001F0B8FC01F0EEFBC0B203280AD19DF8CB
:1049600016009DF8171011EB00204EF6602101FB98
:1049700000F109E09DF80B009DF80C1011EB0020F0
:104980004FF47A7101FB00F14EF66020814202D2B1
:104990004EF6602105E0DFF86C05814201D3DFF8B7
:1049A00068150FF2E1420C2004F09EF96421012009
:1049B00004F0DAF800F08AF8DFF8500500780328F0
:1049C0000BDADFF848050478DFF84405DFF83C151A
:1049D000097850F82100804700E00324DFF82C0517
:1049E0000078E4B28442E7D1E0E780B5012004F02A
:1049F000D3F801BD38B50024002503F0A1FF050060
:104A000001F005F8DFF80C154968884212D3DFF889
:104A100008050068002802D1EDB2002D01D0012464
:104A200000E00024E4B2002C04D00020DFF8E814F9
:104A300008600025200032BD80B501220121DFF889
:104A40008C04FFF7A4FE642000F047F9052003F072
:104A5000D3FF01BD80B501220421DFF87004FFF708
:104A600096FE192000F039F9062003F0C5FF01BDBC
:104A700080B500F0CCFF1930DFF89814086007E02B
:104A8000002000F0F4F9002003F07EFC04F08CFB21
:104A900000F0BDFFDFF87C140968884215D204F0ED
:104AA000DFFC002802D000F049F9ECE704F00FFC2D
:104AB000F028E5DA00F0D8F90128E4D103F04FFF3F
:104AC0000028E0D100F059F9DDE701BD80B504F020
:104AD000C7FC002802D000F031F92BE004F066FE9C
:104AE00015280DD3DFF8340400F0E4FC43F69820D9
:104AF00004F08CF8012000F0BAF900F03EF919E05A
:104B000005F037F8002815D0DFF8140400680028F5
:104B100008D004F0B2FC00280CD00020DFF800140C
:104B2000086007E004F0A9FC002803D10120DFF8A9
:104B3000F013086001BD80B5FFF7D6FE0120DFF855
:104B4000CC13087001BD0120DFF8C0130870704756
:104B500080B504F0FFFF002809D103F000FF002812
:104B600002D103F0F0FE08E003F0F1FE05E005F0ED
:104B700000F8002801D000F001F801BD80B5DFF891
:104B80007C030068002816D10120DFF8701308604C
:104B9000FFF760FF03F016FF00280CD0DFF8840356
:104BA00000F088FC03F09FFEDFF87C234FF4FA61ED
:104BB0000A2004F099F80220DFF85013087001BDB4
:104BC00080B504F0D6FF002801D1FFF7BCFF01BD7E
:104BD00010B592B0002401F0ADFA0400684601F06F
:104BE00071FBE4B2032C09D19DF818009DF819104F
:104BF00011EB00203C2101FB00F408E09DF80E00C1
:104C00009DF80F1011EB00203C2101FB00F4B52CA6
:104C100001D2DFF818433C3CDFF8140300F04AFCF3
:104C200005F085F84FF47A7003F0F0FF01F094FF7F
:104C3000642003F0EBFF03F086FE03F088FE002201
:104C40000421A248FFF7A3FD002201219F48FFF79E
:104C50009EFD00220221A148FFF799FD012220219B
:104C60009A48FFF794FD012210219848FFF78FFD25
:104C700000F047F8642003F0C9FF200000F0EEF8D0
:104C800000F081F805F011F903F0CFFF03F05BFEAF
:104C9000FFF7CAFD00209D49087003F0DFFD12B048
:104CA00010BD10B500240AE000F03EF8FFF713FE37
:104CB00004F07AFA002003F067FBFFF70DFE002CEA
:104CC00007D000F0A4FE844201D3012002E00020BE
:104CD00000E001200028E7D110BD10B5040000F06D
:104CE00096FE20188B49086004E0002003F04CFB7E
:104CF00004F05AFA00F08BFE864909688842F4D322
:104D000010BD38B5002400F00FF80025EDB20D2DD0
:104D100003D10520322003F079FFEDB20D2D02D131
:104D2000641C0A2CEFDB31BD80B5FFF763FE002861
:104D300002D0012003F0C8FD01BD000080B504F0E1
:104D400056FF012818D004F04AFFFFF741FF00F09A
:104D50005EFE784908186F49C86007E004F024FA3D
:104D600030BF00BF00BF00BF00BF00BF00F04FFE5C
:104D70006849C9688842F1D301BD80B503F0E3FDFD
:104D800003F0F0FD01BD10B582B029208DF80000C0
:104D900000208DF8010000208DF8020001208DF820
:104DA0000300684603F073FB01215FF0C05005F07B
:104DB00040F9012005F0A6F9012005F09BF801203B
:104DC00005F083F8412005F058F90028FAD04FF497
:104DD000807005F093F8012005F096F805F030FAA0
:104DE00047F6FF7005F008FA05F024FA01210220C9
:104DF00005F0C0F905F01EFA05F0E3F9040000F033
:104E00002AF8001905F008FA05F014FA13BDE0B508
:104E10005FF4003003F028FB5FF4003001900020C5
:104E20008DF8080008208DF8090000208DF80A0090
:104E300001A803F0C5FA29208DF8000000208DF8A4
:104E4000010000208DF8020000208DF80300684664
:104E500003F01DFB07BD38480068704736490860FD
:104E600070473649086070473548007870473449C4
:104E70000870704780B501F06FFE002003F024FD3C
:104E800001BD000080B52F480068002810D001F057
:104E9000ACFE00280CD100202A4908602A4800F006
:104EA00009FB2A4A47F230510C2003F01DFF04E0B1
:104EB000274800F0FFFAFFF741FF01BD000801405D
:104EC000040801400C08014041414444000C0140E9
:104ED000040C01400C0C01401444444400100140F7
:104EE000041001400C100140001401400414014062
:104EF0000C1401400024014074E2000818900020C6
:104F00003CE4000801BADB0000BADB00A1900020FD
:104F10004CE600085C8F00201090002024DF000881
:104F20001490002054E40008394A00088051010020
:104F30006CE4000820BF02003C0300204003002076
:104F4000500300207C0200204CDF0008854E000842
:104F500084E4000880B50020DFF89C130870062068
:104F600003F0E8FE01BD10B50400002001F09EFA38
:104F7000010E2170010C6170010AA170E07010BD7A
:104F800010B592B000918DF804004122DFF86C1347
:104F90000DF10504200000F083FB6946002000F0BD
:104FA00007F8012801D1012000E0002012B010BD57
:104FB00038B50400DFF84803E4B20C2202FB04F227
:104FC00010448079DFF83823E4B20C2303FB04F3A8
:104FD0001A445279904262D2DFF82403E4B20C22E0
:104FE00002FB04F28558DFF81803E4B20C2202FB3E
:104FF00004F21044C079DFF80823E4B20C2303FB69
:1050000004F31A44127950430544DFF8F402E4B281
:105010000C2202FB04F210440279280000F040FB4D
:10502000DFF8DC02E4B20C2101FB04F108448079D2
:10503000401CDFF8CC12E4B20C2202FB04F2114453
:105040008871DFF8BC02E4B20C2101FB04F10844D2
:10505000C079401CDFF8A812E4B20C2202FB04F273
:105060001144C871DFF89802E4B20C2101FB04F18D
:105070000844C079DFF88812E4B20C2202FB04F283
:1050800011444979884208D10020DFF87412E4B253
:105090000C2202FB04F21144C871012000E0002040
:1050A00032BD10B4DFF85812C0B20C2202FB00F27D
:1050B00011448979002919D0DFF84412C0B20C22BA
:1050C00002FB00F28958DFF83822C0B20C2303FB40
:1050D00000F31A44127ADFF82832C0B20C2460437D
:1050E0001844007900FB02F0084400E0002010BCE6
:1050F0007047DFF80C12C0B20C2202FB00F2114420
:10510000897900293BD0DFF8F811C0B20C2202FBEC
:1051100000F211448979491EDFF8E421C0B20C2362
:1051200003FB00F31A449171DFF8D411C0B20C22D2
:1051300002FB00F21144097A491CDFF8C421C0B215
:105140000C2303FB00F31A441172DFF8B411C0B250
:105150000C2202FB00F21144097ADFF8A421C0B24C
:105160000C2303FB00F31A445279914207D100212A
:10517000DFF88C21C0B20C235843104401727047F1
:105180006049097814290ADA5F495E4A127888541E
:105190005C480078401C5B490870012003E0142043
:1051A00058490870002070475348007870475249AA
:1051B0000870704710B504000020FFF772FF01006F
:1051C00000290AD00868002807D0E4B2002C01D1D9
:1051D000012000E00020096888470020FFF789FFD0
:1051E0000020FFF7E4FF10BD10B50124002809D00E
:1051F0000079052805D100F078F8012803D10024B2
:1052000001E000E00024200010BD012141750121D2
:1052100081750021C175012101760021817600216F
:10522000C1760121417600210177012141770121D9
:1052300081770021C177002180F82010704710B5D8
:105240000020FFF72EFF04002000FFF7CDFF01280C
:105250001DD13048FFF787FE2E48FFF7D6FF2D49B6
:10526000200001F0E9FC01280AD10120FFF79FFF8F
:1052700000F0CDFB00F51C501030274908600CE011
:105280000020FFF736FF0020FFF791FF05E0002028
:10529000FFF72FFF0020FFF78AFF10BD00201B49FA
:1052A000087000201A49087000201C49087000206E
:1052B00019490860704780B5FFF776FF002802D0D3
:1052C000012805D008E0FFF7E9FFFFF7B8FF03E08A
:1052D0000020FFF76FFFFFE701BD80B5FEF723FC5D
:1052E000082801DBFFF7E7FF01BD002070470C49EC
:1052F0000870704770470000A6900020B0020020A0
:1053000098020020A7900020008F0020A29000208B
:10531000A39000200C8E002070900020A49000200C
:10532000A590002010B4019C002C02D0521C914288
:1053300016D2002B0AD0CA08825CDFF89C3011F02C
:1053400007041B5D1A43C908425409E0CA08825C7D
:10535000DFF8883011F007041B5D1A40C908425479
:1053600010BC7047CA08805CDFF86C2011F00701A0
:10537000515C084201D0012000E00020C0B270471B
:1053800070B4002301E0401C5B1CDC008C421FD287
:105390000478002CF7D0002400E0641C082CF2D222
:1053A000DFF834502D5D06783542F6D0002A05D05E
:1053B0000278DFF828502D5D2A40027014EBC300FC
:1053C000884202D214EBC30004E05FF0FF3001E03A
:1053D0005FF0FF3070BC7047F4E60008FCE60008A0
:1053E00062F30F2262F31F42401810F0030308D04B
:1053F000C91A1FD3DB0748BF00F8012D28BF20F8CA
:10540000022D130030B414461546103928BF20E988
:105410003C00FAD8490728BF20E90C0048BF40F8F3
:10542000042D890028BF20F8022D48BF00F8012D67
:1054300030BC7047C91818BF00F8012DCB0728BF32
:1054400000F8012D704710B401E0491C521E6AB1EA
:105450000B7804789C4205D010BC2CBF01204FF083
:10546000FF30704710F8013B002BEED110BC00203C
:1054700070470268531C03601170704700F101030C
:10548000810704D010F8011B89B18107FAD10268A5
:10549000B2F10131914311F0803F04BF50F8042F65
:1054A000F6E710F8011B11B110F8011BFBE7C01A59
:1054B000704710000EB400B582B003A900910246F7
:1054C0006B460121034878440A3005F00BF906BC0D
:1054D0005DF810FBC98F000001B58B0718D1121FB2
:1054E00021D351F8043BA3F1013C2CEA030C1CF03E
:1054F000803C04BF40F8043BF1E79CFA8CFCBCFA0A
:105500008CF1C1F118018B40CB4040F8043B13E013
:10551000042A09D311F8013B521E00F8013B5BB18C
:105520008B07F7D1DBE7121D5AB111F8013B521E70
:1055300000F8013B03B1F8D111001CBF0022FFF7B6
:1055400053FF01BDFEB4130000220025002407E034
:105550000E781700FFB2FF00BE407519491C521C9F
:1055600016001F00B6B2BFB2BE42F1D300210CE05C
:105570000A22B5FBF2F302FB13526B46C9B25A542E
:105580000A22B5FBF2F5641C491C002DF0D1E4B2EF
:105590002200002109E06B46E4B2234413F8013CE9
:1055A0003033C9B24354641E491CE4B2002CF2D11A
:1055B000100080B2FEBC70470021017861390629D5
:1055C00004D201785739C9B209010BE001783A29B0
:1055D00004DB01783739C9B2090103E001783039B9
:1055E000C9B209014278613A062A03D24078573895
:1055F000411808E042783A2A02DB4078373801E067
:105600004078303841180800C0B27047002100E0EF
:10561000491C02782C2A06D00278002A03D0401CAC
:10562000C9B2FF29F4D10800C0B2704730B40022DB
:10563000002300E05B1C0478002C0DD014000D004A
:10564000E4B2EDB2AC4207D004782C2C00D1521C4D
:10565000401CDBB2FF2BEDD130BC704780B204217F
:1056600090FBF1F201FB1201002916D180B26421F6
:1056700090FBF1F201FB120100290CD180B24FF432
:10568000C87190FBF1F201FB1200002801D101204A
:1056900004E0002002E0012000E00020704755AA4D
:1056A00062B38B0708D0521E11F8013B00F8013B92
:1056B00000F024808B07F6D1830740F0208000BFE4
:1056C000103A07D330B4B1E83810103AA0E83810D7
:1056D000F9D230BC530724BFB1E80810A0E8081085
:1056E00044BF51F8043B40F8043BD20724BF31F8D3
:1056F000022B20F8022B44BF0B7803707047083A46
:1057000007D3B1E80810083A40F8043B40F804CB4E
:10571000F7D25307E4E700002DE9F04782B0060016
:105720000F00904699460C99404680B200F080FBED
:1057300005000A9C002D6DD0286B1FFA88F800EB3D
:105740008800B0F1040A5FEADA0A5FEACA0A1FFABF
:1057500088F8CDF800800D9B22003900280000F069
:10576000DDFA4A463100504605F058F828600B989B
:10577000002800D0056005F07BF8DFF8C00700685E
:10578000401CDFF8B8170860DFF8B407006800288D
:105790000AD1DFF8AC070560DFF8A0070068012830
:1057A00010D100F0D8FA0DE0DFF898070068002863
:1057B00008D1DFF88C070068C06A844202D3DFF8A2
:1057C00080070560DFF880070068E96A884203D235
:1057D000E86ADFF874170860DFF870070068401C9B
:1057E000DFF868170860DFF868070068E96A884230
:1057F00003D2E86ADFF858170860291DDFF854075C
:10580000EA6A14235A43104405F078F8012505F09C
:1058100038F801E05FF0FF35012D0CD1DFF82407E7
:105820000068002807D0DFF818070068C06AA042A7
:1058300001D205F018F82800BDE8F68710B504007D
:105840000020002C10D000F072F8DFF81407006878
:105850002418DFF8EC060068001D05F078F8200039
:1058600000F0C7FA00F06BF8002801D104F0FBFF4C
:1058700010BD38B5040004F0FBFFDFF8C406006873
:10588000844200D10024002C03D1DFF8B40605685F
:1058900000E02500281D05F05AF8A86A002803D06A
:1058A00015F1180005F053F8291DDFF8B80605F0CA
:1058B00025F804F0E6FF002C16D1DFF88806006812
:1058C000002802D004F0CFFF0EE0DFF89806006851
:1058D000DFF868160968884204D10020DFF86016F6
:1058E000086001E000F029F931BD00B585B0002065
:1058F00003900020029000200190002000900023DF
:105900008022DFF86C160FF20540FFF705FF012833
:105910000BD102F032FD0120DFF8281608600020CC
:10592000DFF83C16086004F086FF05B000BDDFF824
:105930003C060068401CDFF834160860704770B5FC
:10594000002404F095FFDFF824060068401EDFF80D
:105950001C160860DFF814060068002853D1DFF831
:10596000DC05006800284ED0002525E0DFF8F805AA
:10597000C068C66816F1180004F0E9FF301D04F095
:10598000E6FFDFF8CC050068F16A884203D2F06ACE
:10599000DFF8BC150860311DDFF8B805F26A142382
:1059A0005A43104404F0AAFFF06ADFF8941509681E
:1059B000C96A884200D30125DFF8AC0500680028D9
:1059C000D4D1DFF8B0050068002809D10DE000F05F
:1059D00028F8DFF8A0050068401EDFF89815086079
:1059E000DFF8900500680028F1D1012D04D0DFF820
:1059F00088050068012806D101240020DFF8781509
:105A0000086004F030FF04F03CFF200070BD10B5CA
:105A100002F0B3FCDFF848150C6802F0B5FC20007A
:105A200010BD10B5DFF844050068002874D1DFF818
:105A300030050068401CDFF828150860DFF82005F5
:105A40000068002827D1DFF834050068DFF830153A
:105A50000968DFF828251160DFF824150860DFF8F1
:105A600024050068401CDFF81C150860DFF80C05F1
:105A700000680068002805D15FF0FF30DFF80815E6
:105A8000086008E0DFF8F4040068C068C468606873
:105A9000DFF8F4140860DFF8C8040068DFF8E814E1
:105AA0000968884241D31CE0201D04F050FFA06A21
:105AB000002803D014F1180004F049FFDFF8900427
:105AC0000068E16A884203D2E06ADFF88414086063
:105AD000211DDFF88004E26A14235A43104404F0C5
:105AE0000DFFDFF8980400680068002805D15FF01A
:105AF000FF30DFF89414086017E0DFF880040068D6
:105B0000C068C4686068DFF8581409688142CBD265
:105B1000DFF87414086008E0DFF858040068401CDF
:105B2000DFF85014086003F089F8DFF848040068D3
:105B3000002801D103F082F810BD80B5DFF82C04F5
:105B40000068002804D00120DFF82C14086052E01F
:105B5000DFF8EC030068006BDFF8E41309680968FC
:105B6000884209D3DFF8D803006810F13401DFF868
:105B7000D003006803F05DF81422DFF81014DFF89A
:105B8000C0030068006B04F0F5FE002811D0DFF8B8
:105B9000B003006810F13401DFF8A403006803F0DB
:105BA00048F806E0DFF8A8030068401EDFF8A013FD
:105BB0000860DFF89C030068DFF898131422504354
:105BC00008580028EED0DFF88C03DFF8841309684A
:105BD000142251430844416849684160416810F10A
:105BE0000802914202D14168496841604068C0683A
:105BF000DFF84C13086001BD10B50C00DFF840134E
:105C00000968183104F088FEDFF834030068001DCD
:105C100004F09DFE14F1010F07D1C9480068011D71
:105C2000DFF8400304F06AFE05E0DFF834030068A3
:105C3000201800F0DEF810BD10B5C068C46814F17B
:105C4000180004F084FEC9480068002813D1201D04
:105C500004F07DFEBE480068E16A884202D2E06A34
:105C6000BB490860211DBB48E26A14235A43104413
:105C700004F044FE04E014F11801BB4804F03EFEB9
:105C8000E06AAF490968C96A884201D3012000E08F
:105C9000002010BDBB4909680160B1490968416035
:105CA000704738B504000D0004F0E2FD286810F1DB
:105CB000010F01D100241FE0B2480068216888422A
:105CC00006D0A74800686168884201D3012413E028
:105CD000A34800686168401A296888420BD2286886
:105CE0009F490968401A6168081828602000FFF77A
:105CF000D1FF002400E0012404F0C3FD200032BDE8
:105D000001209D49086070470000000080B500F048
:105D100045F804F0A8FD02F08DFFF8E738B504005F
:105D20001500102214F13400FFF7D6FB002084F890
:105D30004300052D00D30425E5626564201D04F0B1
:105D4000DAFD14F1180004F0D6FD2461D5F1050048
:105D5000A061646231BD10B5002407E07D481421C4
:105D600001FB04F1084404F0B7FD641C052CF5D3D5
:105D7000874804F0B1FD874804F0AEFD7A4804F08E
:105D8000ABFD754804F0A8FD764804F0A5FD8048F9
:105D90007A4908607F487A49086010BD10B51BE059
:105DA0000024FFF7CCFD002C16D104F061FD6A48F9
:105DB000C068C468201D04F0CAFD60480068401E29
:105DC0005E49086065480068401E6449086004F048
:105DD00058FD200000F04FF860480068002807D008
:105DE000FFF7A5FD5C4800680028D9D10124D8E759
:105DF00010BD10B50400524800684460584800685F
:105E0000844207D24E480068011D5D48006804F0D6
:105E100083FD0CE04A480068011D5848006804F002
:105E20007BFD59480068844201D25748046010BD88
:105E300070B504000D00482004F0CEFD0600002ED1
:105E400017D0002D05D1A4B2A00004F0C5FD0500B7
:105E5000FFE73563306B002804D1300004F025FEE5
:105E6000002606E0A4B2A100A522346B2000FFF7B3
:105E7000B7FA300070BD10B50400206B04F015FEB9
:105E8000200004F012FE10BD2D480068704710B5C8
:105E90000400002C2FD0E06A29490968C96A8842A9
:105EA00029D227480068C06AD0F10500A061606966
:105EB0002849E26A14235A431144884217D1201D0D
:105EC00004F045FD1E480068C06AE0622048006892
:105ED000E16A884202D2E06A1D490860211D1D481E
:105EE000E26A14235A43104404F008FD03E0144806
:105EF0000068C06AE06210BD10B50400002C1CD020
:105F0000E06A616C884218D0201D04F020FD606CAE
:105F1000E062E06AD0F10500A0610D480068E16A26
:105F2000884202D2E06A0A490860211D0948E26AF3
:105F300014235A43104404F0E1FC10BD48900020A3
:105F40003890002058900020509000206C90002045
:105F500054900020A48B0020D88E00204490002074
:105F60004C900020EC8E0020C48E00205C9000201D
:105F700044E7000860900020649000203C900020DE
:105F800040900020689000209402002024E5000842
:105F90009C8E0020B08E00200CB41CB5044604A8D2
:105FA00001900A46009401AB6946074878441830CE
:105FB00004F098FB009A0021117000285CBF009843
:105FC000001B16BC5DF80CFBABF4FFFF002801D1F1
:105FD000002005E00178090240784118080080B2ED
:105FE0007047002901D1002005E0020092B2120A98
:105FF0000A7048700120704780B5002002F057FFFA
:1060000001BD7CB504000025002C01D1002050E02A
:1060100016220021200003F04CF814222100280051
:1060200080B204F06DFD05002078617811EB00204E
:106030004AF2A551884206D1ADB2207D617D11EBB7
:106040000020854234D01422DFF8501BDFF8506B5B
:106050003000FFF725FBDFF84C0BFDF733FE142271
:10606000DFF83C1B280080B204F04AFD0500280040
:1060700080B2000ADFF8281B0875DFF8240B45758D
:1060800000F060FDDFF8181B84B068461822FFF7A7
:1060900017FB0FBC00F00EF81622DFF8041B2000DF
:1060A000FFF7FEFADFF8540B00F067F8002000E07D
:1060B000012076BD0FB400B587B00020142208A9D6
:1060C00080B204F01DFD010089B2090A8DF8341078
:1060D0008DF83500002002F0EAFE642002F096FD03
:1060E0001622002108A802F034FF642002F08EFD81
:1060F00016220021684602F0DCFF1622694608A835
:1061000004F038FC002801D1012000E0002007B095
:106110005DF814FB00B583B0DFF8E41A8873DFF88C
:10612000E01A84B068461822FFF7CAFA0FBCFFF7DE
:10613000C1FF07BDDFF8C80A807B704780B500202B
:106140004322DFF8B81A80B204F0DAFC010089B209
:10615000090ADFF8A82A82F84310DFF8A01A81F8AC
:1061600044004FF4805002F0A2FE45224FF48051CB
:10617000DFF8880A02F0EDFE01BD30B58FB00400F3
:1061800000254322DFF87C1A2000FFF789FA43221A
:106190002100280080B204F0B3FC0500280080B282
:1061A000000A84F8430084F84450210084B0684613
:1061B0004522FFF775FA0FBC00F026F80FB030BD8E
:1061C00038B504000025002C01D100201BE0452239
:1061D0004FF48051200002F06CFF43222100280080
:1061E00080B204F08DFC0500ADB294F8430094F841
:1061F000441011EB0020854204D02000FFF7BDFFC2
:10620000002000E0012032BD0FB430B593B0002073
:106210000024432216A980B204F072FC010089B266
:10622000090A8DF89B108DF89C00432216A9DFF80F
:10623000CC592800FFF734FA4FF4805002F037FEB3
:10624000642002F0E3FC45224FF4805116A802F0CE
:1062500080FE642002F0DAFC45224FF4805116A83B
:1062600002F027FF0A22694616A804F083FB0028E3
:1062700001D1012001E0641C002013B030BC5DF8A6
:1062800014FB70B582B006000C000025DFF8780919
:10629000FFF7F4F80500DFF87019300004F05AFC3D
:1062A000DFF85809807F8DF80000DFF85009407F43
:1062B0008DF80100022269462000FFF743F928000B
:1062C000C0B276BD10B504004522DFF830192000B9
:1062D000FFF7E6F910BD80B5DFF82009FFF74DFFA5
:1062E00001BD70B5002801D10020DEE0017832291F
:1062F00073D181780A22C37802FB01311039C9B207
:10630000042291FBF2F302FB1312002A0CD0DFF8F7
:10631000FC2803790A24457904FB035302EB43026A
:10632000A2F2224212880BE0DFF8E02803790A2467
:10633000457904FB035302EB4302A2F20A4212889E
:1063400083790A24C57904FB035340F211241B1BF3
:106350009A18C9B240F26D130C00E4B2641E042511
:1063600094FBF5F4641C03FB014192B25118DFF871
:10637000A0285143027A0A23447A03FB0242B2F571
:1063800004724FF46163847A0A25C67A05FB0464BB
:10639000B4F504743C256C4303FB0242037B0A24DE
:1063A000407B04FB0300B0F5047084180C1940F224
:1063B000B27503E0DFF85C0804196D1CADB2B5F5E9
:1063C000FA6F71DA280080B2FFF748F90028F1D09F
:1063D00004F1F17414F50544EFE781780A22C378DB
:1063E00002FB01315639C9B2042291FBF2F302FBE0
:1063F0001312002A0CD0DFF8142803790A244579F7
:1064000004FB035302EB4302A2F2224212880BE088
:10641000DFF8F82703790A24457904FB035302EBDC
:106420004302A2F20A42128883790A24C57904FB46
:10643000035340F211241B1B9A18C9B2002911D032
:10644000C9B240F26D130C00E4B2641E042594FB43
:10645000F5F4641C03FB014192B25118DFF8B02738
:10646000514304E092B2DFF8A81701FB02F1027A6F
:106470000A23447A03FB0242B2F504724FF46163CB
:10648000847A0A25C67A05FB0464B4F504743C25B5
:106490006C4303FB0242037B0A24407B04FB0300A2
:1064A000B0F5047084180C19200070BDF0B58BB0E5
:1064B00002A804F0C1FB9DF80800012840F0B58057
:1064C000DFF854070078002850D19DF809004FF4F8
:1064D0007A719DF80A2064235A4301FB00209DF83D
:1064E0000B100A2202FB01009DF80C10081800F5A1
:1064F0003C50B0309DF80D100A229DF80E3002FB82
:10650000013110399DF80F200A239DF8104003FB3C
:106510000242103A9DF811300A249DF8125004FBF3
:106520000353103B9DF813400A259DF8146005FBAA
:106530000464103C9DF815500A269DF8167006FB61
:106540000575103DEDB20195E4B20094DBB2D2B214
:10655000C9B280B203F030FF03F033FEDFF8BC169F
:1065600008600120DFF8B016087059E0DFF8AC06CB
:106570000068002854D003F024FEDFF8A016096854
:10658000401AB0F5167F4BD99DF809004FF47A7187
:106590009DF80A2064235A4301FB00209DF80B104C
:1065A0000A2202FB01009DF80C10081800F53C506F
:1065B000B0309DF80D100A229DF80E3002FB01311B
:1065C00010399DF80F200A239DF8104003FB02426A
:1065D000103A9DF811300A249DF8125004FB035321
:1065E000103B9DF813400A259DF8146005FB0464D8
:1065F000103C9DF815500A269DF8167006FB05758F
:10660000103DEDB20195E4B20094DBB2D2B2C9B252
:1066100080B203F0D1FE03F0D4FDDFF8001608606D
:106620000DF10900FFF75DFE09E006A803F052FF37
:10663000002803D106A8FFF754FE00E000200BB0AD
:10664000F0BD80B54FF4005002F031FC01BD0FB435
:1066500030B585B0269C002C01D100203DE01A21E8
:1066600000222000FEF7BCFE04220DF17E01251D54
:106670002800FFF715F804220DF1830114F1080535
:106680002800FFF70DF8FFF711FF2599002905D124
:106690006846FDF729FB6846FFF723FE010E2170CF
:1066A000010C6170010AA170E070042222A914F1AA
:1066B0000C052800FEF7F4FF022223A914F11105AE
:1066C0002800FEF7EDFF9DF88F00E0749DF8910023
:1066D00060759DF830002075012005B030BC5DF874
:1066E00014FB10B584B00A224FF40051684602F042
:1066F000E0FC9DF80000FF280CD19DF80100FF2868
:1067000008D10A210022DFF818452000FEF768FEB4
:10671000002060E001A8FFF759FCDFF8041588802D
:106720000DF10200FFF752FCDFF8F414488002A8D4
:10673000FFF74CFCDFF8E81408810DF10600FFF7C5
:1067400045FCDFF8DC14C8806846FFF73FFCDFF843
:10675000D0140880DFF8C8048088812809DB002075
:10676000DFF8BC1488800020DFF8B41448800020D3
:1067700031E0DFF8AC044088932805DB0020DFF827
:10678000A0144880002026E0DFF8940400898128C6
:1067900009DB0020DFF8881408810020DFF880146E
:1067A000C880002017E0DFF87804C088922805DB55
:1067B0000020DFF86C14C88000200CE0DFF86004D3
:1067C0000088B0F5924F05DD0020DFF854140880F2
:1067D000002000E0012004B010BDDFF84404008870
:1067E000704710B50400002C01D100200AE04FF4DE
:1067F000005002F05CFB0A224FF40051200002F02E
:10680000A8FB012010BD10B50400DFF81404C088F7
:1068100000282BD1DFF8080400894FF48051484349
:1068200010F5405002F043FBDFF8F4030088B0F5A8
:10683000924F1BD1DFF8E80300889238DFF8E013AD
:106840000880DFF8DC0300897F2804DB0020DFF804
:10685000D013888006E0DFF8C8030089401CDFF809
:10686000C01388800020DFF8B81348801A22DFF8B0
:10687000B00300894FF48051484310F54050DFF8D1
:10688000A013C9881A2303FB0101200002F061FB59
:10689000DFF88C03C088401CDFF88413C880DFF861
:1068A0008003C08892280ADB0020DFF87413C880B8
:1068B000DFF86C030089401CDFF864130881DFF8FF
:1068C00060030089802807DB0020DFF8541308816B
:1068D0000020DFF84C13C880DFF844030088B0F5CF
:1068E000924F07DADFF838030088401CDFF83013D6
:1068F000088010E04FF49240DFF824130880DFF89E
:1069000020030089DFF818138880DFF81403C0889B
:10691000DFF80C134880012010BD10B5DFF800131C
:106920000988002907D00100C9B2DFF8F4221288D3
:1069300089B2914208D30A210022DFF8E442200004
:10694000FEF74EFD002073E0DFF8D4124988C0B294
:106950004118DFF8CC225180DFF8C412498892290F
:106960000ADB0021DFF8B8225180DFF8B4128988F1
:10697000491CDFF8AC229180DFF8A41289888029B5
:1069800009DB0020DFF8981288800020DFF89012E1
:10699000488001204CE0DFF888120988002920D0C7
:1069A000DFF87C120988C0B2081ADFF87412088078
:1069B000DFF86C020088002813D10020DFF8601295
:1069C00088800020DFF8581208810020DFF850127C
:1069D00048800020DFF84812C880FFF732FE01200F
:1069E00026E0DFF83C028088DFF83412098988420B
:1069F0001DD1DFF82C024088DFF82412C9888842B4
:106A000015D10020DFF8181208800020DFF81012DE
:106A100088800020DFF8081208810020DFF80012CB
:106A200048800020DFF8F811C880FFF70AFE012037
:106A300010BD2DE9F04104000D005FF00008DFF803
:106A4000E0014688DFF8D8018788DFF8D4010088A4
:106A50002900C9B289B2884202D2DFF8C401058890
:106A6000EDB2DFF8BC0140884019922800DB350008
:106A7000EDB21A2000FB05F100222000FEF7B0FC69
