:020000040800F2
:102000005807002071E1000869D200086BD200086F
:1020100075D200087FD2000881D2000800000000BD
:102020000000000000000000000000007B820008AB
:102030008BD200080000000031820008B5A700081C
:1020400001E3000805E3000809E300080DD40008D7
:1020500011E3000815E3000819E300088DD2000819
:1020600021E3000825E3000829E300082DE3000828
:1020700031E3000835E3000839E300083DE30008D8
:1020800041E3000845E3000849E3000800000000C0
:10209000000000000000000000000000A1D20008C5
:1020A00051E3000855E3000859E300085DE3000828
:1020B00061E3000865E3000869E300086DE30008D8
:1020C00071E3000875E3000879E300087DE3000888
:1020D00071D30008B9D20008E7D2000815D3000870
:1020E00091E300088BD3000899E30008000000008A
:1020F00000000000000000000000000000000000E0
:1021000000000000000000009DE30008A1E30008BB
:1021100043D30008A9E30008ADE30008B1E30008D9
:10212000B5E30008B9E30008BDE30008C1E3000817
:10213000C5E30008C9E30008CDE300080000000083
:10214000000000000000000000000000D1E30008D3
:1021500080B501F017F80020DFF8241C81F8460054
:10216000012001F022FF0020DFF8141C487100203C
:10217000DFF80C1C81F8440001BD80B501224FF44A
:102180000061DFF8740B02F0FFFA642002F052FDE8
:1021900001228021DFF8640B02F0F6FA40F24C4095
:1021A00002F048FD00228021DFF8500B02F0ECFA2B
:1021B0000120DFF8B81C087001BD80B50122802124
:1021C000DFF8380B02F0E0FA4FF4487002F032FD0D
:1021D00000228021DFF8240B02F0D6FA40F6B83056
:1021E00002F028FD00224FF40061DFF80C0B02F032
:1021F000CBFA0020DFF8741C087001BDDFF86C0C0E
:102200000078704780B50020DFF8781B81F8670000
:102210000120DFF86C1B81F8460001228021DFF8E5
:10222000DC0A02F0B1FA4FF4487002F003FD00221C
:102230008021DFF8C80A02F0A7FA40F6B83002F0B1
:10224000F9FC00224FF40061DFF8AC0A02F09CFABE
:1022500001BD80B502F006FE00F094FF01BD000054
:1022600010B5DFF8A40B0078362801DB00F064FF1E
:10227000DFF8940B0078002819D101223521DFF80E
:102280008C0B02F0FFFF040001F077FC022806D15E
:102290000C2C04D00C20DFF8701B087007E0601EC7
:1022A000342803D2DFF8600B047000E000BFDFF8D1
:1022B000580B007800281DD0DFF84C0B007835282B
:1022C00018DADFF81C0C0078002803D002280AD0A6
:1022D00006D30BE0DFF8300B007800F00FFE09E0CA
:1022E00000F098FE06E000F0BBFE03E00020DFF8FF
:1022F000F01B087010BD80B503E09DF8000000F0F1
:102300002CF8684601F0D0FB10F1010FF5D101BDAA
:10231000DFF86C0A0079704780B5C0B201F0B6FBF7
:1023200001BDDFF8C41BDFF8C42B12888854DFF826
:10233000BC0B0088401CDFF8B41B0880DFF8AC0B36
:10234000008840F2DB51884205DB0020DFF89C1B4F
:102350000880012000E00020704738B50400DFF855
:10236000900B0078002806D0022839D02CD30328FF
:1023700000F0E880F6E00020DFF8701B0880002005
:10238000DFF8701B08700020DFF86C1B088040F23B
:10239000DC510022DFF8505B280002F0A3FFE4B21A
:1023A0000D2C04D10120DFF8481B08700BE0200041
:1023B000C0B2FFF7B6FF0220DFF8341B087001201F
:1023C000DFF8701D0860D5E0E4B20A2C07D10220C6
:1023D000DFF81C1B08700120DFF8581D0860C9E0F9
:1023E000DFF8080B0088082839D10020032262A1F9
:1023F000DFF8F40A02F0A9FF002830D1002000E045
:10240000401CC0B2082808DADFF8DC1AC0B2095C48
:102410003A29F5D1DFF8DC1A087003200EE0DFF866
:10242000D81A09880A22DFF8C03AC0B21B5C02FB46
:1024300001313039DFF8C02A1180401C0100DFF87B
:10244000B42A1278C9B2914206D2DFF89C1AC0B2FF
:10245000095C30390A29E2D3032001F07FFB01F047
:102460008CFB032831D12000C0B2FFF75AFFDFF800
:102470007C0A0088DFF8801A0988DFF8782A127849
:102480005118491C884208DA0220DFF8641A0870E3
:102490000120DFF8A01C086053E00020DFF8501A8C
:1024A00008700020DFF88C1C0860DFF84C0A0188F7
:1024B000DFF8340ADFF83C2A12781044401C01F09F
:1024C00061FB002001F04AFB3BE0E4B20D2C0DD192
:1024D000DFF8600C0068002808D00320DFF8101A2D
:1024E00008700020DFF84C1C08602AE001F045FB72
:1024F000012822D1DFF8F009DFF8F0190988084433
:1025000010F8010C3E2813D1E4B2202C10D1002089
:10251000DFF8DC190870022001F020FB0120DFF851
:10252000481C0870002200210C20FFF7F5FE08E08F
:102530002000C0B2FFF7F5FE03E02000C0B2FFF7B5
:10254000F0FE17E0E4B20A2C0BD10020DFF8A0194E
:102550000870DFF898090188C9B2DFF88C0900F02B
:102560000DF807E00020DFF8881908700020DFF878
:10257000C41B086031BD00004950440070B5040020
:102580000025DFF8E80B0078002808D0C9B2200049
:1025900000F0FAFB0020DFF8D41B0870CCE1C9B2D0
:1025A000200000F0CAF9002840F0C681DFF8580882
:1025B0000078162840D1DFF8B80B006802F0DCFE86
:1025C0000200DFF8AC0B0168200002F0BEFE00281C
:1025D0000DD0DFF8A00B006802F0CEFE0200DFF89D
:1025E000940B0168200002F0B0FE00280DD10120FC
:1025F000DFF8741B0870012501F095FA082880F2B5
:102600008A81082001F073FA85E1DFF86C0B00681D
:1026100002F0B2FE0200DFF8600B0168200002F059
:1026200094FE002840F077810120DFF83C1B087001
:102630000125FFF70EFE6EE1DFF8400B006802F0A7
:102640009BFE0200DFF8340B0168200002F07DFEE3
:10265000002805D10320DFF8101B087001255AE17E
:10266000DFF81C0B006802F087FE0200DFF8100B99
:102670000168200002F069FE002815D10120DFF872
:10268000E81A08700125062001F031FAFFF7E1FD94
:10269000002001F063FA0020DFF8D01A0870DFF89C
:1026A000880B02F085FE36E1DFF8800B006802F04F
:1026B00063FE0200DFF8740B0168200002F045FEA3
:1026C000002821D10120DFF8A01A08700125DFF8C9
:1026D000B00690F84600012812D00020DFF88C1ACE
:1026E0000870FFF7B6FD002001F001FAFFF765FD65
:1026F0004FF47A7002F09EFAFFF73FFDFFF7A9FD55
:10270000002001F02BFA06E1DFF8A40B006802F0CC
:1027100033FE0200DFF8980B0168200002F015FE7E
:10272000002812D10120DFF8401A0870012500208E
:1027300001F0DDF90020DFF8341A0870FFF789FD99
:10274000DFF8700B02F034FEE5E0DFF86C0B006898
:1027500002F012FE0200DFF8600B0168200002F0B8
:10276000F4FD002831D10220DFF8FC1908700125A2
:10277000DFF8480B02F01CFEDFF88C0600782828F2
:1027800004D0DFF884060078242804D10020DFF884
:10279000D8190870BFE0DFF8280B00781528C0F2C0
:1027A000BA80FFF756FDFFF708FD4FF47A7002F08C
:1027B00041FA002001F09BF9FFF7DFFCFFF749FD2C
:1027C0000020DFF8FC1A0870A5E0DFF8F80A0068BE
:1027D00002F0D2FD0200DFF8EC0A0168200002F0EE
:1027E000B4FD002805D10120DFF87C19087001250F
:1027F00091E0DFF8D40A006802F0BEFD0200DFF8C5
:10280000C80A0168200002F0A0FD002805D10120BF
:10281000DFF85419087001257DE0DFF85C090068D5
:1028200002F0AAFD0200DFF850090168200002F062
:102830008CFD002805D10120DFF82C190870012536
:1028400069E0DFF8940B006802F096FD0200DFF803
:10285000880B0168200002F078FD00280CD10120CF
:10286000DFF804190870012501F05DF9022852D142
:10287000032001F03CF94EE0DFF88C0500782E28AB
:1028800005D10120DFF8E0180870012543E0DFF8EA
:10289000B00B006802F070FD0200DFF8A40B0168C5
:1028A000200002F052FD002803D1022001F01FF9A0
:1028B00031E0DFF854050078DFF86C1D0870200067
:1028C00002F05AFDDFF8601D91F86510D1F1640146
:1028D000814206D2DFF8500D90F86500D0F1640611
:1028E00003E0200002F048FD0600B6B232002100ED
:1028F000DFF8340DDFF8303D93F865301844401CA4
:1029000002F068FDDFF8200D90F865003018DFF860
:10291000181D81F86500012D0ED1DFF8EC04007858
:10292000DFF8041D0870200002F026FDDFF8F81C17
:1029300081F8650000F047FA70BDF8B504000D009D
:10294000002601274AE0DFF81407FFB2142101FB3B
:1029500007F10844401C02F00FFD0200DFF8FC06FE
:10296000FFB2142101FB07F10844411CDFF8780590
:1029700002F0EBFC002830D1FFB2002F2BD0FFB2C9
:10298000112F28DADFF8D406FFB2142101FB07F17A
:102990000844C06800280BD02900C9B22000DFF825
:1029A000BC26FFB2142303FB07F31A44D2689047F6
:1029B000DFF8A806FFB2142101FB07F10844006903
:1029C000002808D0DFF89406FFB2142101FB07F1BC
:1029D000084400698047112701267F1CFFB2112F90
:1029E000B1DB3000F2BD7047C9B2092907DB007ABC
:1029F000312804D10120DFF88813086003E00020AB
:102A0000DFF87C13086070470021C17930390A294A
:102A100007D281790A22C07902FB0100B0F11001CE
:102A200002E08079B0F13001C9B2202903DB1F2018
:102A3000D349087108E0C9B2202902DAD0480171EF
:102A400002E00020CE490871704700210D3005E0FA
:102A50000A22037802FB01313039401C02780D2A2A
:102A60000BD002782C2A08D00278302AF0DA0278CB
:102A70003A2AEDDB002006E0401C02780A2AFBD14E
:102A8000401C080080B2704738B504000020E07A8E
:102A90003038C0B2012802D002280CD043E0022016
:102AA00001F048F8DFF8880B02F082FC0120DFF823
:102AB000841B087037E040F2DC510022DFF89855A3
:102AC000280002F00FFC2000FFF7BFFF40F2DD51AD
:102AD000884202DB40F2DC5002E02000FFF7B5FF45
:102AE000DFF8001408800020DFF8481B0870DFF8CA
:102AF000F4030088002815D0DFF8E8030188DFF828
:102B0000380B02F055FCDFF8340B0078002803D1B5
:102B10000120DFF8281B0870DFF8C803008801F0E7
:102B20000FF8FFE7FFE731BD80B50021007AB0F173
:102B30003001C9B201290BD100F0F5FF052802D1FF
:102B4000062000F0D4FF01208E4981F86C0006E0D9
:102B5000C9B2002903D100208A4981F86C0001BD67
:102B600070470120DFF804160870704780B5032213
:102B7000C11DDFF8CC0A006802F0E7FB00280BD18A
:102B800000F0D1FF032802D1042000F0B0FF0120A3
:102B90007C4981F86B0007E0DFF8A80A02F008FC26
:102BA0000020784981F86B0001BD10B50024417BFD
:102BB00030390A2907D2017B0A22407B02FB01003F
:102BC000B0F1100402E0007BB0F13004E4B2002C5C
:102BD0000ED0002200212C20FFF79EFBDFF8040C12
:102BE0000470DFF81C0E0078401CDFF8141E08701B
:102BF00010BD70B500250400417A30390A2904D38C
:102C00000025604880F8825044E0407AB0F13005F9
:102C1000EDB2012D02D0EDB2052D32D100200520FC
:102C200000F065FF0221200002F07EFC060030006B
:102C300002F06AFCC0B200280BD0701C02F03AFC13
:102C4000504981F87D00F01C02F034FC4D4981F8B8
:102C50007E000321200002F067FC0600300002F035
:102C600053FCC0B2002812D0701C02F023FC45496E
:102C700081F87F00F01C02F01DFC424981F88000C1
:102C800005E0EDB22900DFF89C0B02F091FB3D4816
:102C900080F8825070BD704780B5417A2D2912D1DD
:102CA000817A3039C27A2E2A07D0C27A0A2A04D011
:102CB0000A225143C07A30384118C9B248423049DB
:102CC00081F845000FE0417A3039827A2E2A07D008
:102CD000827A0A2A04D00A225143807A3038411875
:102CE000274880F84510264890F94510DFF8400E37
:102CF00002F05EFB01BD0000000801400010014031
:102D00007047704770477047C9B21A2937DB3221C4
:102D1000DFF8282E11703021DFF8202E5170017A53
:102D2000DFF8182E9170417ADFF8102ED170C17A39
:102D3000DFF8082E1171017BDFF8002E5171817BC5
:102D4000DFF8F82D9171C17BDFF8F02DD171417C56
:102D5000DFF8E82D1172817CDFF8E02D5172017DE2
:102D6000DFF8D82D9172417DDFF8D02DD172C17D71
:102D7000DFF8C82D1173007EDFF8C01D487370475F
:102D8000BC8C00207C860020F0B599B004000D00BA
:102D900000260027002709E0FFB204EB470002F0FD
:102DA00089FB6946FFB2C855761C7F1CFFB27800CC
:102DB000EDB2A842F0DBF6B2310089B2684600F00D
:102DC000E1FE19B0F0BD80B5002000E0401CC0B2AB
:102DD000082818D2DFF850180978DFF8BC2DC0B2E7
:102DE00012F830209142F1D1DFF8AC1DC0B201EBF6
:102DF000C0014968002906D0DFF89C1DC0B201EB74
:102E0000C0004068804701BD8A9000209C8F002050
:102E100080B500F088FE062802D1072000F067FE8A
:102E200001BD80B5072000F062FE01BD80B500F055
:102E30007AFE012802D1022000F059FE01BD704740
:102E400010B5DFF8401CDFF8400C02F0B1FADFF8F3
:102E5000D807407830380A2806D20F22DFF8241C21
:102E60006A4C200002F09AFB10BD00008E900020FA
:102E70001FB500240F22DFF80C1C654C200002F067
:102E80008DFB0F2262496C46200002F087FB002078
:102E90008DF80F005E49DFF80C0C02F089FA66200D
:102EA0008DF80F0000240CE06846E4B200EB44000B
:102EB00002F000FBDFF8B41DE4B2214481F86D009C
:102EC000641CE4B2082CEFDB1FBD704710B5202254
:102ED000DFF8B01BDFF89C4D200002F05FFB10BD57
:102EE000889000207A900020305F002078900020A9
:102EF00089900020909000207690002038B5040042
:102F0000DFF8980CE4B26101405CDFF8741C0870D3
:102F10000020DFF8141708700020DFF80C1781F884
:102F2000650064210022DFF85C5B280002F0DAF91A
:102F3000DFF8680CE4B2610108444069002817D04A
:102F4000DFF8580CE4B261010844C06900280FD0D2
:102F50002000C0B200F06CF9DFF8400CE4B261016F
:102F60000844007D000703D52000C0B200F04DFBEF
:102F7000DFF8040D008840F2E731884204DB40F2BC
:102F8000E630DFF8F41C08800D20DFF8F01CDFF8D5
:102F9000E82C12888854DFF8E00C0088401CDFF829
:102FA000D81C08800A20DFF8D41CDFF8CC2C12884B
:102FB0008854DFF8C40C0088401CDFF8BC1C088073
:102FC000DFF8B40C0188DFF8B40C00F07BFDDFF80B
:102FD000CC0BE4B2610108448069DFF8C41B0860CF
:102FE00002F093FCDFF8B81B09680818DFF8401CF2
:102FF0000860DFF8700C0078401CDFF8681C08706F
:103000000220DFF8641C087031BD0000E28C002053
:10301000F18C002080B50020DFF8681C087002F0F9
:1030200074FCDFF87C1B09680818DFF8041C0860D2
:103030000220DFF8341C0870DFF8280C0078401CF0
:10304000DFF8201C0870DFF8300C0188DFF82C0C4A
:1030500000F038FD01BD00000C6500200C000020D0
:1030600080B502F052FCDFF8C81B0968814204D326
:10307000DFF8100C0078022848D1DFF8F40B007854
:103080000C2802D100F058F853E0DFF8D80B007894
:10309000DFF8EC1A0978884204D20120DFF8C81B57
:1030A000087046E0DFF8DC0B0078002819D1DFF863
:1030B000EC0ADFF8BC1B097849010844007DC00612
:1030C0000FD500F039F8FFF7C4F8FFF776F84FF4A2
:1030D0007A7001F0AFFD002000F009FDFFF74DF818
:1030E00027E0DFF8A00B007800280CD1DFF8AC0A4D
:1030F000DFF87C1B097849010844007DC00702D431
:1031000000F01AF815E000F017F812E0DFF8600B95
:1031100000780C2806D100F030FD022809D100F01B
:103120000BF806E0DFF85C0B0078012801D100F015
:1031300003F801BDC88F002000200B490870002053
:10314000DFF8241B08700020DFF8341B0870002013
:10315000DFF81C1B08700020DFF8081B0870002037
:10316000DFF8241B086070478B90002092900020AD
:10317000640100206C01002070010020600100202B
:103180008401002010B50020DFF8F81A0870002034
:10319000DFF8D41A08700020DFF8D41A0870002075
:1031A000DFF8C01A08700020DFF8DC1A0860002081
:1031B000DFF8CC1A087007210022DFF8D04A20007F
:1031C00002F090F84FF47A710022DFF8B04A200044
:1031D00002F088F80020DFF8941A81F86B000020D4
:1031E000DFF8881A81F86C000522DFF8A41ADFF8EE
:1031F000C44A200002F0D2F90020DFF8C41A087097
:103200000020DFF8BC1A48704FF496710022DFF8F6
:10321000C44A200002F066F80020DFF8EC1A0860CB
:10322000002000F09BFC10BD5CE000088C01002039
:1032300038B50400DFF86409E4B261010844401CB9
:1032400002F09AF80500EDB22A00DFF85009E4B266
:1032500061010844411CDFF8240A02F0BBF8EDB21A
:10326000DFF8140A058031BD80B5DFF8540A027812
:1032700072A1DFF8080ADFF8943A1B88184402F0BC
:1032800009FEDFF8881A0988C0B24018DFF87C1AF6
:1032900008800D20DFF8E419DFF8702A12888854BE
:1032A000DFF8680A0088401CDFF8601A088001BD5A
:1032B00074010020E0E0000890010020F0E0000828
:1032C000949000207C0100207801002038B5DFF8C0
:1032D000400A007801282ED1DFF8380A4488DFF848
:1032E00098090088A4B22018B0F5797F70DCA4B2E8
:1032F000DFF8241ADFF88409DFF87C29128800EB54
:1033000002052200280002F049F9DFF86C09008864
:103310002018DFF8641908801A20DFF86019DFF838
:10332000582912888854DFF850090088401CDFF8BB
:10333000481908804CE0DFF8DC090488DFF8380918
:103340000088A4B22018B0F5797F23DCA4B2DFF89E
:10335000CC19DFF82809DFF82029128800EB0205D4
:103360002200280002F01AF9DFF80C090088201862
:10337000DFF8041908801A20DFF80019DFF8F828B0
:1033800012888854DFF8F0080088401CDFF8E8183D
:1033900008801DE0DFF8E008008840F2E63188424E
:1033A00004DB40F2E530DFF8D01808801B20DFF89E
:1033B000CC18DFF8C42812888854DFF8BC080088CD
:1033C000401CDFF8B4180880DFF8540901F0F0FF62
:1033D000002000F0C3FB31BD6801002080B5222031
:1033E000DFF89818DFF8242912888854DFF81C09C0
:1033F0000088401CDFF8141908800522DFF89018B7
:10340000DFF87808DFF804391B88184401F0E2FF80
:10341000DFF8F8080088401DDFF8F0180880222047
:10342000DFF85818DFF8E42812888854DFF8DC0841
:103430000088401CDFF8D418088001BD2564000016
:103440008801002010B5042278A1DFF8D80801F027
:10345000C1FF00F0A7FB00F0EDFB2220DFF81C18F5
:10346000DFF8A82812888854DFF8A0080088401CDC
:10347000DFF898180880DFF8AC0801F07DFF040041
:10348000E4B22200DFF89C18DFF8F007DFF87C38A0
:103490001B88184401F09EFFDFF870080088E4B232
:1034A0002018DFF8681808802220DFF8D017DFF82E
:1034B0005C2812888854DFF854080088401CDFF824
:1034C0004C1808802C20DFF8B417DFF84028128849
:1034D0008854DFF838080088401CDFF8301808806E
:1034E0002220DFF89817DFF8242812888854DFF8A4
:1034F0001C080088401CDFF814180880DFF8280832
:1035000001F03AFF0400E4B22200DFF81C18DFF8F3
:103510006C07DFF8F8371B88184401F05BFFDFF811
:10352000EC070088E4B22018DFF8E01708802220BA
:10353000DFF84817DFF8D42712888854DFF8CC0763
:103540000088401CDFF8C41708802C20DFF82C17F7
:10355000DFF8B82712888854DFF8B0070088401CCD
:10356000DFF8A81708802220DFF81017DFF89C2763
:1035700012888854DFF894070088401CDFF88C1705
:103580000880DFF8A80701F0F7FE0400E4B222008B
:10359000DFF89817DFF8E406DFF870371B88184467
:1035A00001F018FFDFF864070088E4B22018DFF8A4
:1035B0005C1708802220DFF8C416DFF85027128835
:1035C0008854DFF848070088401CDFF8401708805F
:1035D00010BD80B500200222DFF83817DFF89C0606
:1035E000DFF894361B88184401F02AFFDFF88816AC
:1035F00009884018DFF8801608800020DFF81017CF
:103600000870012000F0AAFA01BD80B5DFF820178C
:10361000C0B251F82010002905D0DFF81417C0B24D
:1036200051F82000804701BD3C8B002054435000DE
:1036300004DF00088F90002094DD000893900020A4
:10364000800100201CDF00087047704770477047FA
:1036500010B5042272A1DFF8CC0601F0BBFEDFF842
:10366000CC16DFF8C40602F08AFD2220DFF80C1623
:10367000DFF8982612888854DFF890060088401CEE
:10368000DFF888160880DFF89C0601F075FE04005C
:10369000E4B22200DFF88C16DFF8E005DFF86C36C4
:1036A0001B88184401F096FEDFF860060088E4B23B
:1036B0002018DFF8581608802220DFF8C015DFF840
:1036C0004C2612888854DFF844060088401CDFF836
:1036D0003C1608802C20DFF8A415DFF8302612886D
:1036E0008854DFF828060088401CDFF82016088080
:1036F0002220DFF88815DFF8142612888854DFF8B6
:103700000C060088401CDFF804160880DFF8180655
:1037100001F032FE0400E4B22200DFF80C16DFF8FC
:103720005C05DFF8E8351B88184401F053FEDFF82C
:10373000DC050088E4B22018DFF8D01508802220CC
:10374000DFF83815DFF8C42512888854DFF8BC0587
:103750000088401CDFF8B41508802C20DFF81C1509
:10376000DFF8A82512888854DFF8A0050088401CDF
:10377000DFF8981508802220DFF80015DFF88C2587
:1037800012888854DFF884050088401CDFF87C1517
:103790000880DFF8980501F0EFFD0400E4B2220094
:1037A000DFF88815DFF8D404DFF860351B8818448B
:1037B00001F010FEDFF854050088E4B22018DFF8AD
:1037C0004C1508802220DFF8B414DFF84025128859
:1037D0008854DFF838050088401CDFF83015088071
:1037E00010BD00008D90002080B500200222DFF87F
:1037F0002415DFF88804DFF880341B88184401F0B2
:103800001FFEDFF8741409884018DFF86C14088074
:103810000020DFF8FC140870012000F09FF901BDC2
:103820005443500034DF0008704710B52220DFF801
:103830004C14DFF8D82412888854DFF8D0040088AC
:10384000401CDFF8C8140880DFF8680401F094FD1C
:103850000200DFF86014DFF82404DFF8B0341B88BE
:10386000184401F0B7FDDFF8A4040488DFF844042D
:1038700001F082FD0019DFF8941408802220DFF89F
:10388000FC13DFF8882412888854DFF8800400884D
:10389000401CDFF8781408802C20DFF8E013DFF8F4
:1038A0006C2412888854DFF864040088401CDFF818
:1038B0005C1408802220DFF8C413DFF8502412883B
:1038C0008854DFF848040088401CDFF84014088062
:1038D000DFF8600401F050FD421EDFF85814DFF8F5
:1038E0009C03DFF828341B88184401F073FDDFF8CF
:1038F0001C040488DFF83C0401F03EFD401E001962
:10390000DFF8081408802220DFF87013DFF8FC23AA
:1039100012888854DFF8F4030088401CDFF8EC13A9
:1039200008802C20DFF85413DFF8E0231288885435
:10393000DFF8D8030088401CDFF8D013088022206D
:10394000DFF83813DFF8C42312888854DFF8BC038B
:103950000088401CDFF8B4130880DFF8DC0301F0B6
:103960000BFD421EDFF8D013DFF81003DFF89C33A5
:103970001B88184401F02EFDDFF890030488DFF85F
:10398000B80301F0F9FC401E0019DFF8801308802D
:103990002220DFF8E812DFF8742312888854DFF859
:1039A0006C030088401CDFF86413088010BD3120D0
:1039B000DFF8C812DFF8542312888854DFF84C036C
:1039C0000088401CDFF8441308802C20AB49DFF846
:1039D0003C2312888854DFF834030088401CDFF849
:1039E0002C1308803420A549DFF82023128888543E
:1039F000DFF818030088401CDFF8101308807047B8
:103A000095900020DFF8340300780A2810DADFF8F8
:103A10002C03007830309949DFF8F022128888545E
:103A2000DFF8E8020088401CDFF8E012088027E099
:103A3000DFF8080300780A2190FBF1F030308F495D
:103A4000DFF8C82212888854DFF8C0020088401CC2
:103A5000DFF8B8120880DFF8E40200780A2190FB52
:103A6000F1F201FB120030308449DFF8A022128805
:103A70008854DFF898020088401CDFF89012088014
:103A8000704700003D8B0020B0E1000880B50121A7
:103A9000009101233522C0B201007C4801F0C4FB33
:103AA00001BD0000BCE1000810B5040021000120A8
:103AB00000F080FB002801D0207801E05FF0FF30AB
:103AC00000B210BDF8B504000D000026002705E087
:103AD000BFB2E15D012000F0D1FB7F1C380029005E
:103AE00080B289B28842F3D33000C0B2F2BDDFF8B1
:103AF000181291F844100200D2B2914212D0C0B212
:103B00000A2803DADFF8001281F84400C0B208285E
:103B100004DB0120DFF8F011086003E00020DFF88B
:103B2000E81108607047784890F84400704700003A
:103B3000B0DD0008574981F86A0070473C8F0020CB
:103B400080B240F2DD51884205DB40F2DC50DFF804
:103B5000F011088001E07A490880704780B56A4911
:103B6000487169484079002806D001F0CEFE00F582
:103B7000985088307349086001BD634840797047A8
:103B80003403002080B589B2002902D089B203F045
:103B90000DF8002002BD0000A8D9000884C7000865
:103BA0000800002010B58EB00024112100226C46C0
:103BB000200001F097FB01220DF11101684601F090
:103BC0003FFC04002E206946E4B20855641C012223
:103BD0000DF1120168462300DBB2184401F030FCFD
:103BE00004192E206946E4B20855641C01220DF127
:103BF000130168462300DBB2184401F021FC0419CC
:103C00002E206946E4B20855641C012205A96846C5
:103C10002300DBB2184401F013FC0419641CE4B265
:103C200022006946404801F0D5FB0EB010BD0000EF
:103C3000C48F002010B58CB00022062100226C46F3
:103C4000200001F04FFB02220DF10D01684601F04A
:103C5000F7FB0200521CD2B26946344801F0BAFBAD
:103C60000CB010BD8C900020889000207C86002035
:103C70008A900020C28C00207490002024730020C1
:103C8000899000208B900020C88F00209C8F0020FE
:103C900074E200087C86002038B504000D00022282
:103CA0002949200001F07AFC02222849280001F06D
:103CB00075FC31BD7D860020254890F88200704754
:103CC0007483002010B5040008222249200001F06E
:103CD00065FC10BD7683002010B5040008221E4943
:103CE000200001F05BFC10BD10B504001B480078FB
:103CF000322806D10E221949200001F04FFC012084
:103D000000E0002010BD0000BC8C0020749000205A
:103D100091900020346F002020730020386F002025
:103D2000C4DB0008B9860020BD860020DB860020A9
:103D3000BCD5000891860020A58600208D9000202B
:103D400076900020CC8F0020F9860020FB86002092
:103D50007C860020E9860020F18600203C8F002030
:103D600000B585B0C0B2002807D0022800F08F80CF
:103D700049D3032800F0D18015E14FF48060ADF8FD
:103D8000000004208DF803006946DFF8F00800F019
:103D900095FC4FF40070ADF8000001208DF8020092
:103DA00018208DF803006946DFF8D00800F086FC83
:103DB0005FF4E13001900020ADF808000020ADF87C
:103DC0000A000020ADF80C000020ADF810000C2017
:103DD000ADF80E0001A9DFF8A80804F04FF90122A0
:103DE00040F22551DFF8980804F0B6F9002240F2BD
:103DF0002661DFF88C0804F0AFF90121DFF88008B4
:103E000004F09CF9CFE00820ADF8000004208DF804
:103E100003006946DFF8640800F050FC0420ADF8A8
:103E2000000001208DF8020018208DF8030069467B
:103E3000DFF8480800F042FC5FF4E1300190002018
:103E4000ADF808000020ADF80A000020ADF80C0025
:103E50000020ADF810000C20ADF80E0001A9DFF82D
:103E6000240804F00BF9012240F22551DFF8140870
:103E700004F072F9002240F22661DFF8080804F02D
:103E80006BF90121DFF8FC0704F058F98BE04FF4DF
:103E90000060ADF8000004208DF803006946DFF8EB
:103EA000E80700F00BFC4FF48060ADF80000012043
:103EB0008DF8020018208DF803006946DFF8C80766
:103EC00000F0FCFB4FF4165001900020ADF8080004
:103ED0000020ADF80A000020ADF80C000020ADF87D
:103EE00010000C20ADF80E0001A9DFF8A00704F0C7
:103EF000C5F8012240F22551DFF8900704F02CF9B3
:103F0000002240F22661DFF8840704F025F9012140
:103F1000DFF8780704F012F945E04FF48060ADF85F
:103F2000000001208DF802001C208DF80300694676
:103F3000DFF85C0700F0C2FB4FF40060ADF8000052
:103F400004208DF803006946DFF8440700F0B6FB53
:103F50005FF4E13001900020ADF808000020ADF8DA
:103F60000A000020ADF80C000020ADF810000C2075
:103F7000ADF80E0001A9DFF81C0704F07FF801225C
:103F800040F22551DFF80C0704F0E6F8002240F279
:103F90002661DFF8000704F0DFF80121DFF8F406FE
:103FA00004F0CCF8FFE705B000BD80B5C0B204282E
:103FB00080F2FF800021DFF8E026C0B21C2303FB63
:103FC00000F31A4491800021DFF8CC26C0B21C23F4
:103FD00003FB00F3D1520021DFF8BC26C0B21C2342
:103FE00003FB00F31A4451800021DFF8AC26C0B275
:103FF0001C2303FB00F31A4411820021DFF89826EA
:10400000C0B21C2303FB00F31A4491810021DFF8A6
:104010008826C0B21C2303FB00F31A44D18100217F
:10402000DFF87426C0B21C2303FB00F31A4491612D
:10403000C0B2002806D0022860D030D3032800F098
:104040008B80B6E0DFF85416DFF84C26C0B21C2394
:1040500003FB00F31A4491609621DFF83C26C0B2BE
:104060001C2303FB00F31A44D180DFF83416DFF879
:104070002826C0B21C2303FB00F31A445161962189
:10408000DFF81426C0B21C2303FB00F31A4451824C
:10409000C0B200F0A1FA0020FFF762FE89E0DFF86D
:1040A0000416DFF8F425C0B21C2303FB00F31A4406
:1040B000916040F24C41DFF8E025C0B21C2303FBC5
:1040C00000F31A44D180DFF8E015DFF8CC25C0B248
:1040D0001C2303FB00F31A4451614FF47A71DFF89B
:1040E000B825C0B21C2303FB00F31A445182C0B2AE
:1040F00000F072FA0120FFF733FE5AE0DFF8AC154A
:10410000DFF89425C0B21C2303FB00F31A4491602E
:104110004FF41671DFF88025C0B21C2303FB00F3B7
:104120001A44D180DFF88815DFF86C25C0B21C2353
:1041300003FB00F31A4451616421DFF85C25C0B22F
:104140001C2303FB00F31A445182C0B200F044FA6E
:104150000220FFF705FE2CE0DFF85815DFF83825C0
:10416000C0B21C2303FB00F31A4491601421DFF852
:104170002825C0B21C2303FB00F31A44D180DFF8CA
:104180003815DFF81425C0B21C2303FB00F31A44D2
:1041900051611421DFF80025C0B21C2303FB00F39A
:1041A0001A445182C0B200F017FA0320FFF7D8FD7D
:1041B000FFE701BD70B504000D000026E4B2042C39
:1041C00001DB002059E0002D01D1002055E004F072
:1041D0004AF8DFF8C404E4B21C2101FB04F1405AA0
:1041E000DFF8B414E4B21C2202FB04F21144498843
:1041F00088423ED0DFF8A004E4B21C2101FB04F1A8
:1042000008444088401CDFF89014E4B21C2202FBF2
:1042100004F211444880DFF88004E4B21C2101FB61
:1042200004F108444088DFF87014E4B21C2202FB59
:1042300004F21144C988884208D30020DFF85814DA
:10424000E4B21C2202FB04F211444880DFF8480467
:10425000E4B21C2101FB04F108448068DFF8381443
:10426000E4B21C2202FB04F211444988405C28702D
:104270000126002003F0FEFF300070BD70B5040081
:104280000D000026E4B2042C01DB0020A5E003F0C1
:10429000EAFFDFF80404E4B21C2101FB04F1084446
:1042A000008ADFF8F413E4B21C2202FB04F211448A
:1042B000498A88424ED2DFF8E003E4B21C2101FBB8
:1042C00004F10844008A401CDFF8CC13E4B21C223D
:1042D00002FB04F211440882DFF8BC03E4B21C21A3
:1042E00001FB04F108448089401CDFF8AC13E4B200
:1042F0001C2202FB04F211448881DFF89C03E4B223
:104300001C2101FB04F108448089DFF88C13E4B21E
:104310001C2202FB04F21144498A884208D300207F
:10432000DFF87413E4B21C2202FB04F2114488810A
:10433000DFF86403E4B21C2101FB04F10844406986
:10434000DFF85413E4B21C2202FB04F21144898901
:1043500045540126DFF84003E4B21C2101FB04F1BF
:1043600008448069002834D12000C0B200F036F83B
:104370000120DFF82413E4B21C2202FB04F21144F2
:104380008861E4B2002C05D0022C13D00AD3032C90
:1043900018D01EE0012240F22661DFF8E40203F0AB
:1043A000DBFE16E0012240F22661DFF8D80203F0BE
:1043B000D3FE0EE0012240F22661DFF8D00203F0C6
:1043C000CBFE06E0012240F22661DFF8C80203F0CE
:1043D000C3FE002003F04EFF300070BD10B5C0B228
:1043E000002805D0022853D050D3032852D053E0E0
:1043F000DFF88C22DFF8A012C0B21C2303FB00F30D
:104400001944098A491EDFF89032C0B21C2404FB0B
:1044100000F423441982DFF88012C0B21C2303FB8E
:1044200000F31944C989491C9B4BC0B21C2404FBEE
:1044300000F42344D9819849C0B21C2303FB00F344
:104440001944C989944BC0B21C2404FB00F42344D2
:104450005B8A994207D300218F4BC0B21C2404FB16
:1044600000F42344D9818C49C0B21C2303FB00F320
:1044700019444969884BC0B21C2460431844C08960
:10448000095C89B2100003F090FE10BD7D4AB1E7CF
:104490007E4AAFE77F4AADE7F7E710B5C0B2002824
:1044A00005D002281AD017D3032819D01AE0744B6C
:1044B0007949C0B21C2202FB00F211448989764A74
:1044C000C0B21C2404FB00F42244D28991420AD0D9
:1044D000C0B2FFF783FF13E06A4BE9E76B4BE7E7F6
:1044E0006C4BE5E70CE000216B4AC0B21C24604332
:1044F00010448161002240F22661180003F02CFE76
:1045000010BD000081B0C0B2042863DAC0B2002838
:1045100005D0022807D004D3032806D007E0584965
:1045200005E0584903E0594901E05A49FFE70A8884
:104530008DF8002089888DF801109DF80010032265
:10454000114243D15449C0B21C2202FB00F2895AE5
:10455000491C514AC0B21C2303FB00F3D1524E49FF
:10456000C0B21C2202FB00F2895A4B4AC0B21C2383
:1045700003FB00F31A44D288914206D30021464A35
:10458000C0B21C2303FB00F3D1524349C0B21C222A
:1045900002FB00F2895A404AC0B21C2303FB00F31D
:1045A0001A44528891420FD03B49C0B21C2202FBF0
:1045B00000F211448968384AC0B21C235843105A8B
:1045C0009DF801200A5405E000BF03E0C0B20128B5
:1045D00000D100BF01B07047C0B2002805D002284A
:1045E00005D003D3032803D003E07047FDE7FCE7C1
:1045F000FBE7FAE7C0B204283DDA2749C0B21C2223
:1046000002FB00F21144002935D00021224AC0B239
:104610001C2303FB00F31A44918000211E4AC0B200
:104620001C2303FB00F3D15200211B4AC0B21C2300
:1046300003FB00F31A4451800021174AC0B21C2327
:1046400003FB00F31A4411820021134AC0B21C2359
:1046500003FB00F31A44918100210F4AC0B21C23CE
:1046600003FB00F31A44D18100210B4AC0B21C2382
:104670005843104481617047000000000008014069
:104680000038014000440040000C01400048004058
:1046900000100140004C0040CC8A00204C850020D6
:1046A000E4850020E86A0020F47A0020DC7E002007
:1046B000088C0020148F0020288F002070B4002266
:1046C00000250023002600240025CA7812F00F02DE
:1046D000CB78DB0601D58B781A430B781B0621D0EB
:1046E0000468002306E0CD78482D02D101259D40C5
:1046F00005615B1C082B14D2012515FA03F60D8801
:104700003540B542F5D19E000F25B540AC4312FAB5
:1047100006F52C43CD78282DE5D101259D40456136
:10472000E7E704600B88FF2B26DD4468002320E0C8
:10473000012513F1080615FA06F60D883540B54235
:1047400016D19E000F25B540AC4312FA06F52C4356
:10475000CD78282D04D1012513F10806B540456117
:10476000CD78482D04D1012513F10806B540056127
:104770005B1C082BDCD3446070BC704789B20161BC
:10478000704789B241617047D2B2002A02D089B223
:10479000016101E089B24161704730B40022002418
:1047A00000230024002802D51C4A136801E01C4A9B
:1047B0001368C0F3034482B210F44015B5F5401FEE
:1047C00008D133F07063164C246834F07064144DD3
:1047D0002C6010E0C50206D5032515FA04F4A343A6
:1047E00053F0706307E0440DE4B2240112FA04F4BC
:1047F000A34353F07063C9B2002905D0410DC9B27B
:10480000090112FA01F10B43002802D503480360A5
:1048100001E00348036030BC704700001C00014009
:1048200004000140E0B55FF04430DFF8A4150860F3
:104830005FF04430DFF89C1508600020DFF8981521
:104840000860DFF89805DFF8981508605FF04430DD
:10485000DFF8901508600020DFF88C150860DFF89D
:104860008C05DFF88C1508605FF04430DFF88415A4
:1048700008600020DFF8801508605FF04430DFF842
:104880007C1508605FF04430DFF874150860002084
:10489000DFF8701508600120019000208DF80800F5
:1048A0000C208DF8090001208DF80A0001A803F002
:1048B000FDFC06208DF800000F208DF801000F2070
:1048C0008DF8020001208DF80300684603F055FDC5
:1048D00007BD704780B5DFF8300503F066FE03F0D2
:1048E00047FF01BD10B503F0B1FF040003F0F0FF76
:1048F000002805D1E4B22100DFF8100500F058FDD2
:104900000020DFF80C15086003F09BFF002812D18F
:104910000120DFF8FC14086000F06AF8DFF8F40406
:1049200000F046FD03F065FF0FF2B5024FF4FA61A7
:104930000A2004F05FF910BD10B592B0002000F01D
:10494000C9F804F008FA02F0ADF8684601F038FC46
:1049500001F06EFB6421012004F08CF800F085F872
:10496000DFF8B404007803280BDADFF8AC0404782D
:10497000DFF8A804DFF8A014097850F82100804778
:1049800000E00324DFF890040078E4B28442E7D129
:10499000E0E780B5012004F085F801BD38B50024BA
:1049A000002503F053FF050000F0AFFFDFF870149F
:1049B0004968884212D3DFF86C040068002802D1ED
:1049C000EDB2002D01D0012400E00024E4B2002C5F
:1049D00004D00020DFF84C1408600025200032BD10
:1049E00080B5642000F026F9052003F08BFF01BD9F
:1049F00080B501224FF48071DFF8D403FFF7C4FEC5
:104A0000192000F017F9062003F07CFF01BD80B5E6
:104A100000F07BFF1930DFF80814086007E0002081
:104A200000F0D1F9002003F025FC04F043FB00F076
:104A30006CFFDFF8EC130968884215D204F096FC8D
:104A4000002802D000F026F9ECE704F0C6FBF028BD
:104A5000E5DA00F0B5F90128E4D103F006FF0028FB
:104A6000E0D100F036F9DDE701BD80B504F07EFC51
:104A7000002802D000F00EF92BE004F01DFE1528EE
:104A80000DD3DFF8A40300F093FC43F6982004F064
:104A900043F8012000F097F900F01BF919E004F049
:104AA000EEFF002815D0DFF884030068002808D046
:104AB00004F069FC00280CD00020DFF870130860B7
:104AC00007E004F060FC002803D10120DFF85C134C
:104AD000086001BD80B5FFF705FF0120DFF838133E
:104AE000087001BD0120DFF830130870704780B5F1
:104AF00004F0B6FF002809D103F0B7FE002802D168
:104B000003F0A7FE08E003F0A8FE05E004F0B7FFFD
:104B1000002801D000F001F801BD80B5BC48006854
:104B2000002813D10120BA490860FFF761FF03F0A4
:104B3000CFFE00280AD0BE4800F03AFC03F059FE30
:104B4000BC4A4FF4FA610A2004F054F80220B2493A
:104B5000087001BD80B504F092FF002801D1FFF775
:104B6000C1FF01BD00B593B0002001F061FA6846B5
:104B700001F026FBB04800F01BFC05F05CF84FF498
:104B80007A7003F0C9FF01F065FF642003F0C4FFF1
:104B900003F05FFE03F061FE00224FF480718C4849
:104BA000FFF7F2FD00224FF400618948FFF7ECFDAA
:104BB00000224FF400618648FFF7E6FD0122402104
:104BC0008748FFF7E1FD012280218548FFF7DCFDE2
:104BD00000F044F8642003F09FFF00F080F805F037
:104BE000E8F803F0A8FF03F034FEFFF71BFE0020F7
:104BF0008949087003F0BCFD13B000BD10B5002456
:104C00000AE000F03EF8FFF764FE04F053FA0020DB
:104C100003F030FBFFF75EFE002C07D000F075FEBE
:104C2000844201D3012002E0002000E0012000289E
:104C3000E7D110BD10B5040000F067FE20187849D8
:104C4000086004E0002003F015FB04F033FA00F0E4
:104C50005CFE734909688842F4D310BD38B500245E
:104C600000F00FF80025EDB20D2D03D10520322004
:104C700003F052FFEDB20D2D02D1641C0A2CEFDBC4
:104C800031BD80B5FFF78AFE002802D0012003F075
:104C9000A1FD01BD80B504F030FF012818D004F05B
:104CA00024FFFFF75FFF00F030FE644908185C49FD
:104CB000C86007E004F0FEF930BF00BF00BF00BFCE
:104CC00000BF00BF00F021FE5549C9688842F1D3FA
:104CD00001BD80B503F0BDFD03F0CAFD01BD10B5F7
:104CE00082B029208DF8000000208DF801000020FE
:104CF0008DF8020001208DF80300684603F03DFBAB
:104D000001215FF0C05005F018F9012005F07EF98F
:104D1000012005F073F8012005F05BF8412005F053
:104D200030F90028FAD04FF4807005F06BF80120BC
:104D300005F06EF805F008FA47F6FF7005F0E0F9A7
:104D400005F0FCF90121022005F098F905F0F6F9CB
:104D500005F0BBF9040000F02AF8001905F0E0F9AD
:104D600005F0ECF913BDE0B55FF4003003F0F2FAA2
:104D70005FF40030019000208DF8080008208DF8C5
:104D8000090000208DF80A0001A803F08FFA2920FD
:104D90008DF8000000208DF8010000208DF8020041
:104DA00000208DF80300684603F0E7FA07BD2448A9
:104DB00000687047224908607047224908607047C0
:104DC00021480078704720490870704700000000B3
:104DD00000080140040801400C08014041414444DE
:104DE000000C0140040C01400C0C014014444444EC
:104DF00000100140041001400C100140001401405B
:104E0000041401400C1401400024014074DE000829
:104E100018900020DCDF00089F900020D4E10008FB
:104E20005C8F0020109000204CDB000814900020C4
:104E3000F4DF0008E14900080CE0000820BF020090
:104E40003C030020400300205003002080B501F007
:104E500001FE002003F0BEFC01BD0268531C03608C
:104E60001170704780B50020DFF894130870062099
:104E700003F0E6FE01BD10B50400002001F094FA35
:104E8000010E2170010C6170010AA170E07010BD6B
:104E900010B592B000918DF804004122DFF8641340
:104EA0000DF10504200000F079FB6946002000F0B8
:104EB00007F8012801D1012000E0002012B010BD48
:104EC00038B50400DFF84003E4B20C2202FB04F220
:104ED00010448079DFF83023E4B20C2303FB04F3A1
:104EE0001A445279904262D2DFF81C03E4B20C22D9
:104EF00002FB04F28558DFF81003E4B20C2202FB37
:104F000004F21044C079DFF80023E4B20C2303FB61
:104F100004F31A44127950430544DFF8EC02E4B27A
:104F20000C2202FB04F210440279280000F036FB48
:104F3000DFF8D402E4B20C2101FB04F108448079CB
:104F4000401CDFF8C412E4B20C2202FB04F211444C
:104F50008871DFF8B402E4B20C2101FB04F10844CB
:104F6000C079401CDFF8A012E4B20C2202FB04F26C
:104F70001144C871DFF89002E4B20C2101FB04F186
:104F80000844C079DFF88012E4B20C2202FB04F27C
:104F900011444979884208D10020DFF86C12E4B24C
:104FA0000C2202FB04F21144C871012000E0002031
:104FB00032BD10B4DFF85012C0B20C2202FB00F276
:104FC00011448979002919D0DFF83C12C0B20C22B3
:104FD00002FB00F28958DFF83022C0B20C2303FB39
:104FE00000F31A44127ADFF82032C0B20C24604376
:104FF0001844007900FB02F0084400E0002010BCD7
:105000007047DFF80412C0B20C2202FB00F2114418
:10501000897900293BD0DFF8F011C0B20C2202FBE5
:1050200000F211448979491EDFF8DC21C0B20C235B
:1050300003FB00F31A449171DFF8CC11C0B20C22CB
:1050400002FB00F21144097A491CDFF8BC21C0B20E
:105050000C2303FB00F31A441172DFF8AC11C0B249
:105060000C2202FB00F21144097ADFF89C21C0B245
:105070000C2303FB00F31A445279914207D100211B
:10508000DFF88421C0B20C235843104401727047EA
:105090005E49097814290ADA5D495C4A1278885415
:1050A0005A480078401C59490870012003E0142038
:1050B00056490870002070475148007870475049A1
:1050C0000870704710B504000020FFF772FF010060
:1050D00000290AD00868002807D0E4B2002C01D1CA
:1050E000012000E00020096888470020FFF789FFC1
:1050F0000020FFF7E4FF10BD10B50124002809D0FF
:105100000079052805D100F078F8012803D10024A2
:1051100001E000E00024200010BD012141750121C3
:1051200081750021C1750121017600218176002160
:10513000C1760121417600210177012141770121CA
:1051400081770021C177002180F82010704710B5C9
:105150000020FFF72EFF04002000FFF7CDFF0128FD
:105160001DD12E48FFF787FE2C48FFF7D6FF2B49AD
:10517000200001F0DDFC01280AD10120FFF79FFF8C
:1051800000F0C3FB00F51C501030254908600CE00E
:105190000020FFF736FF0020FFF791FF05E0002019
:1051A000FFF72FFF0020FFF78AFF10BD00201949ED
:1051B000087000201849087000201A490870002063
:1051C00017490860704780B5FFF776FF002802D0C6
:1051D000012805D008E0FFF7E9FFFFF7B8FF03E07B
:1051E0000020FFF76FFFFFE701BD80B5FEF79BFCD6
:1051F000082801DBFFF7E7FF01BD0020704770477B
:10520000A3900020AC02002094020020A490002073
:10521000008F0020A0900020A19000200C8E002084
:1052200070900020A290002010B4019C002C02D0AD
:10523000521C914216D2002B0AD0CA08825CDFF8B9
:105240009C3011F007041B5D1A43C908425409E061
:10525000CA08825CDFF8883011F007041B5D1A4031
:10526000C908425410BC7047CA08805CDFF86C2043
:1052700011F00701515C084201D0012000E000203C
:10528000C0B2704770B4002301E0401C5B1CDC001E
:105290008C421FD20478002CF7D0002400E0641C5C
:1052A000082CF2D2DFF834502D5D06783542F6D066
:1052B000002A05D00278DFF828502D5D2A400270C0
:1052C00014EBC300884202D214EBC30004E05FF089
:1052D000FF3001E05FF0FF3070BC70477CE20008F7
:1052E00084E2000862F30F2262F31F42401810F0BC
:1052F000030308D0C91A1FD3DB0748BF00F8012DEC
:1053000028BF20F8022D130030B41446154610397A
:1053100028BF20E93C00FAD8490728BF20E90C0043
:1053200048BF40F8042D890028BF20F8022D48BF4F
:1053300000F8012D30BC7047C91818BF00F8012DC6
:10534000CB0728BF00F8012D704710B401E0491CBD
:10535000521E6AB10B7804789C4205D010BC2CBF59
:1053600001204FF0FF30704710F8013B002BEED1C9
:1053700010BC00207047100000F10103810704D029
:1053800010F8011B89B18107FAD10268B2F101312D
:10539000914311F0803F04BF50F8042FF6E710F856
:1053A000011B11B110F8011BFBE7C01A704755AA89
:1053B0000EB400B582B003A9009102466B460121EC
:1053C000034878440A3005F011F906BC5DF810FB7B
:1053D000558C000001B58B0718D1121F21D351F84D
:1053E000043BA3F1013C2CEA030C1CF0803C04BFFD
:1053F00040F8043BF1E79CFA8CFCBCFA8CF1C1F15B
:1054000018018B40CB4040F8043B13E0042A09D339
:1054100011F8013B521E00F8013B5BB18B07F7D13D
:10542000DBE7121D5AB111F8013B521E00F8013B97
:1054300003B1F8D111001CBF0022FFF757FF01BDD7
:10544000FEB4130000220025002407E00E781700A8
:10545000FFB2FF00BE407519491C521C16001F0008
:10546000B6B2BFB2BE42F1D300210CE00A22B5FBB6
:10547000F2F302FB13526B46C9B25A540A22B5FB2F
:10548000F2F5641C491C002DF0D1E4B22200002189
:1054900009E06B46E4B2234413F8013C3033C9B24F
:1054A0004354641E491CE4B2002CF2D1100080B2B7
:1054B000FEBC7047002101786139062904D20178C9
:1054C0005739C9B209010BE001783A2904DB0178A8
:1054D0003739C9B2090103E001783039C9B209018D
:1054E0004278613A062A03D240785738411808E0DA
:1054F00042783A2A02DB4078373801E04078303889
:1055000041180800C0B27047002100E0491C027831
:105510002C2A06D00278002A03D0401CC9B2FF29E9
:10552000F4D10800C0B2704730B40022002300E07C
:105530005B1C0478002C0DD014000D00E4B2EDB219
:10554000AC4207D004782C2C00D1521C401CDBB29A
:10555000FF2BEDD130BC704780B2042190FBF1F2FB
:1055600001FB1201002916D180B2642190FBF1F2F7
:1055700001FB120100290CD180B24FF4C87190FBDD
:10558000F1F201FB1200002801D1012004E000200B
:1055900002E0012000E000207047000062B38B07AA
:1055A00008D0521E11F8013B00F8013B00F02480A6
:1055B0008B07F6D1830740F0208000BF103A07D355
:1055C00030B4B1E83810103AA0E83810F9D230BC45
:1055D000530724BFB1E80810A0E8081044BF51F8F1
:1055E000043B40F8043BD20724BF31F8022B20F8DB
:1055F000022B44BF0B7803707047083A07D3B1E819
:105600000810083A40F8043B40F804CBF7D253079F
:10561000E4E700002DE9F04782B006000F00904655
:1056200099460C99404680B200F080FB05000A9C28
:10563000002D6DD0286B1FFA88F800EB8800B0F1C0
:10564000040A5FEADA0A5FEACA0A1FFA88F8CDF8A4
:1056500000800D9B22003900280000F0DDFA4A4648
:105660003100504605F05EF828600B98002800D005
:10567000056005F081F8DFF8C0070068401CDFF81E
:10568000B8170860DFF8B407006800280AD1DFF80F
:10569000AC070560DFF8A0070068012810D100F012
:1056A000D8FA0DE0DFF898070068002808D1DFF885
:1056B0008C070068C06A844202D3DFF88007056067
:1056C000DFF880070068E96A884203D2E86ADFF8F9
:1056D00074170860DFF870070068401CDFF868176F
:1056E0000860DFF868070068E96A884203D2E86A60
:1056F000DFF858170860291DDFF85407EA6A1423F9
:105700005A43104405F07EF8012505F03EF801E00B
:105710005FF0FF35012D0CD1DFF824070068002869
:1057200007D0DFF818070068C06AA04201D205F070
:105730001EF82800BDE8F68710B504000020002CF4
:1057400010D000F072F8DFF8140700682418DFF8B2
:10575000EC060068001D05F07EF8200000F0C7FA96
:1057600000F06BF8002801D105F001F810BD38B544
:10577000040005F001F8DFF8C4060068844200D197
:105780000024002C03D1DFF8B406056800E02500F2
:10579000281D05F060F8A86A002803D015F118004C
:1057A00005F059F8291DDFF8B80605F02BF804F0CC
:1057B000ECFF002C16D1DFF888060068002802D024
:1057C00004F0D5FF0EE0DFF898060068DFF86816F1
:1057D0000968884204D10020DFF86016086001E003
:1057E00000F029F931BD00B585B0002003900020FC
:1057F0000290002001900020009000238022DFF81A
:105800006C160FF20540FFF705FF01280BD102F0DF
:105810002AFD0120DFF8281608600020DFF83C167A
:10582000086004F08CFF05B000BDDFF83C0600689E
:10583000401CDFF834160860704770B5002404F08F
:105840009BFFDFF824060068401EDFF81C16086086
:10585000DFF814060068002853D1DFF8DC05006883
:1058600000284ED0002525E0DFF8F805C068C6689E
:1058700016F1180004F0EFFF301D04F0ECFFDFF824
:10588000CC050068F16A884203D2F06ADFF8BC15E3
:105890000860311DDFF8B805F26A14235A4310443A
:1058A00004F0B0FFF06ADFF894150968C96A88420D
:1058B00000D30125DFF8AC0500680028D4D1DFF85B
:1058C000B0050068002809D10DE000F028F8DFF8E5
:1058D000A0050068401EDFF898150860DFF8900505
:1058E00000680028F1D1012D04D0DFF88805006898
:1058F000012806D101240020DFF87815086004F0A3
:1059000036FF04F042FF200070BD10B502F0ABFC82
:10591000DFF848150C6802F0ADFC200010BD10B592
:10592000DFF844050068002874D1DFF8300500680E
:10593000401CDFF828150860DFF820050068002803
:1059400027D1DFF834050068DFF830150968DFF883
:1059500028251160DFF824150860DFF824050068A9
:10596000401CDFF81C150860DFF80C0500680068B3
:10597000002805D15FF0FF30DFF80815086008E067
:10598000DFF8F4040068C068C4686068DFF8F414E5
:105990000860DFF8C8040068DFF8E8140968884286
:1059A00041D31CE0201D04F056FFA06A002803D05C
:1059B00014F1180004F04FFFDFF890040068E16A6A
:1059C000884203D2E06ADFF884140860211DDFF802
:1059D0008004E26A14235A43104404F013FFDFF8F2
:1059E000980400680068002805D15FF0FF30DFF8F8
:1059F0009414086017E0DFF880040068C068C46889
:105A00006068DFF8581409688142CBD2DFF874145B
:105A1000086008E0DFF858040068401CDFF8501404
:105A2000086003F091F8DFF848040068002801D10D
:105A300003F08AF810BD80B5DFF82C040068002858
:105A400004D00120DFF82C14086052E0DFF8EC03EA
:105A50000068006BDFF8E41309680968884209D31D
:105A6000DFF8D803006810F13401DFF8D0030068D4
:105A700003F065F81422DFF81014DFF8C0030068A3
:105A8000006B04F0FBFE002811D0DFF8B0030068C3
:105A900010F13401DFF8A403006803F050F806E0C9
:105AA000DFF8A8030068401EDFF8A0130860DFF8E5
:105AB0009C030068DFF8981314225043085800280C
:105AC000EED0DFF88C03DFF8841309681422514309
:105AD0000844416849684160416810F108029142F8
:105AE00002D14168496841604068C068DFF84C13E2
:105AF000086001BD10B50C00DFF8401309681831CB
:105B000004F08EFEDFF834030068001D04F0A3FEED
:105B100014F1010F07D1C9480068011DDFF84003E7
:105B200004F070FE05E0DFF834030068201800F090
:105B3000DEF810BD10B5C068C46814F1180004F098
:105B40008AFEC9480068002813D1201D04F083FE96
:105B5000BE480068E16A884202D2E06ABB49086038
:105B6000211DBB48E26A14235A43104404F04AFE44
:105B700004E014F11801BB4804F044FEE06AAF49A8
:105B80000968C96A884201D3012000E0002010BDE5
:105B9000BB4909680160B14909684160704738B57F
:105BA00004000D0004F0E8FD286810F1010F01D198
:105BB00000241FE0B24800682168884206D0A74848
:105BC00000686168884201D3012413E0A34800689B
:105BD0006168401A296888420BD228689F49096881
:105BE000401A6168081828602000FFF7D1FF0024E0
:105BF00000E0012404F0C9FD200032BD01209D49D0
:105C0000086070470000000080B500F045F804F01F
:105C1000AEFD02F095FFF8E738B50400150010223C
:105C200014F13400FFF7D6FB002084F84300052D63
:105C300000D30425E5626564201D04F0E0FD14F145
:105C4000180004F0DCFD2461D5F10500A061646258
:105C500031BD10B5002407E07D48142101FB04F19B
:105C6000084404F0BDFD641C052CF5D3874804F0FE
:105C7000B7FD874804F0B4FD7A4804F0B1FD7548DB
:105C800004F0AEFD764804F0ABFD80487A49086028
:105C90007F487A49086010BD10B51BE00024FFF76B
:105CA000CCFD002C16D104F067FD6A48C068C468BA
:105CB000201D04F0D0FD60480068401E5E49086069
:105CC00065480068401E6449086004F05EFD2000DD
:105CD00000F04FF860480068002807D0FFF7A5FDE6
:105CE0005C4800680028D9D10124D8E710BD10B560
:105CF000040052480068446058480068844207D253
:105D00004E480068011D5D48006804F089FD0CE004
:105D10004A480068011D5848006804F081FD594850
:105D20000068844201D25748046010BD70B5040079
:105D30000D00482004F0D4FD0600002E17D0002DE1
:105D400005D1A4B2A00004F0CBFD0500FFE7356348
:105D5000306B002804D1300004F02BFE002606E052
:105D6000A4B2A100A522346B2000FFF7BBFA3000DB
:105D700070BD10B50400206B04F01BFE200004F081
:105D800018FE10BD2D480068704710B50400002CA7
:105D90002FD0E06A29490968C96A884229D2274870
:105DA0000068C06AD0F10500A06160692849E26A14
:105DB00014235A431144884217D1201D04F04BFD8F
:105DC0001E480068C06AE06220480068E16A8842B4
:105DD00002D2E06A1D490860211D1D48E26A1423B1
:105DE0005A43104404F00EFD03E014480068C06AF2
:105DF000E06210BD10B50400002C1CD0E06A616C9C
:105E0000884218D0201D04F026FD606CE062E06A34
:105E1000D0F10500A0610D480068E16A884202D215
:105E2000E06A0A490860211D0948E26A14235A43BE
:105E3000104404F0E7FC10BD48900020389000208A
:105E400058900020509000206C900020549000202A
:105E5000A48B0020D88E0020449000204C9000207D
:105E6000EC8E0020C48E00205C900020CCE2000864
:105E700060900020649000203C9000204090002022
:105E80006890002090020020ACE000089C8E00206A
:105E9000B08E00200CB41CB5044604A801900A463C
:105EA000009401AB694607487844183004F09EFB23
:105EB000009A0021117000285CBF0098001B16BCDE
:105EC0005DF80CFB97EFFFFF002801D1002005E0F3
:105ED0000178090240784118080080B27047002913
:105EE00001D1002005E0020092B2120A0A70487047
:105EF0000120704780B5002002F05FFF01BD7CB536
:105F000004000025002C01D1002050E016220021C1
:105F1000200003F054F814222100280080B204F07D
:105F200073FD05002078617811EB00204AF2A5513D
:105F3000884206D1ADB2207D617D11EB0020854203
:105F400034D01422DFF8501BDFF8506B3000FFF71D
:105F500025FBDFF84C0BFDF7B5FE1422DFF83C1BE8
:105F6000280080B204F050FD0500280080B2000A2D
:105F7000DFF8281B0875DFF8240B457500F060FD7D
:105F8000DFF8181B84B068461822FFF717FB0FBC18
:105F900000F00EF81622DFF8041B2000FFF7FEFACF
:105FA000DFF8500B00F067F8002000E0012076BD1C
:105FB0000FB400B587B00020142208A980B204F005
:105FC00023FD010089B2090A8DF834108DF83500DF
:105FD000002002F0F2FE642002F09EFD1622002155
:105FE00008A802F03CFF642002F096FD1622002172
:105FF000684602F0E4FF1622694608A804F03EFC59
:10600000002801D1012000E0002007B05DF814FB5A
:1060100000B583B0DFF8E01A8873DFF8DC1A84B0CB
:1060200068461822FFF7CAFA0FBCFFF7C1FF07BD89
:10603000DFF8C40A807B704780B500204322DFF878
:10604000B41A80B204F0E0FC010089B2090ADFF85A
:10605000A42A82F84310DFF89C1A81F844004FF418
:10606000805002F0AAFE45224FF48051DFF8840AE6
:1060700002F0F5FE01BD30B58FB0040000254322CB
:10608000DFF8781A2000FFF789FA43222100280060
:1060900080B204F0B9FC0500280080B2000A84F840
:1060A000430084F84450210084B068464522FFF73D
:1060B00075FA0FBC00F026F80FB030BD38B50400FB
:1060C0000025002C01D100201BE045224FF4805117
:1060D000200002F074FF43222100280080B204F067
:1060E00093FC0500ADB294F8430094F8441011EB12
:1060F0000020854204D02000FFF7BDFF002000E013
:10610000012032BD0FB430B593B0002000244322EB
:1061100016A980B204F078FC010089B2090A8DF852
:106120009B108DF89C00432216A9DFF8C85928005F
:10613000FFF734FA4FF4805002F03FFE642002F083
:10614000EBFC45224FF4805116A802F088FE642033
:1061500002F0E2FC45224FF4805116A802F02FFF16
:106160000A22694616A804F089FB002801D1012003
:1061700001E0641C002013B030BC5DF814FB70B566
:1061800082B006000C000025DFF87409FFF7F4F870
:106190000500DFF86C19300004F060FCDFF85409EA
:1061A000807F8DF80000DFF84C09407F8DF80100FA
:1061B000022269462000FFF743F92800C0B276BDED
:1061C00010B504004522DFF82C192000FFF7E6F98E
:1061D00010BD80B5DFF81C09FFF74DFF01BD70B59C
:1061E000002801D10020DEE00178322973D18178C6
:1061F0000A22C37802FB01311039C9B2042291FB93
:10620000F2F302FB1312002A0CD0DFF8F82803790E
:106210000A24457904FB035302EB4302A2F2224213
:1062200012880BE0DFF8DC2803790A24457904FBA7
:10623000035302EB4302A2F20A42128883790A2432
:10624000C57904FB035340F211241B1B9A18C9B2F1
:1062500040F26D130C00E4B2641E042594FBF5F4C7
:10626000641C03FB014192B25118DFF89C28514392
:10627000027A0A23447A03FB0242B2F504724FF415
:106280006163847A0A25C67A05FB0464B4F5047454
:106290003C256C4303FB0242037B0A24407B04FB46
:1062A0000300B0F5047084180C1940F2B27503E0D5
:1062B000DFF8580804196D1CADB2B5F5FA6F71DA44
:1062C000280080B2FFF748F90028F1D004F1F174FA
:1062D00014F50544EFE781780A22C37802FB013107
:1062E0005639C9B2042291FBF2F302FB1312002AC1
:1062F0000CD0DFF8102803790A24457904FB0353F6
:1063000002EB4302A2F2224212880BE0DFF8F427EC
:1063100003790A24457904FB035302EB4302A2F2FA
:106320000A42128883790A24C57904FB035340F298
:1063300011241B1B9A18C9B2002911D0C9B240F20E
:106340006D130C00E4B2641E042594FBF5F4641C88
:1063500003FB014192B25118DFF8AC27514304E02E
:1063600092B2DFF8A41701FB02F1027A0A23447A01
:1063700003FB0242B2F504724FF46163847A0A258A
:10638000C67A05FB0464B4F504743C256C4303FB36
:106390000242037B0A24407B04FB0300B0F5047037
:1063A00084180C19200070BDF0B58BB002A804F061
:1063B000C7FB9DF80800012840F0B580DFF85007C2
:1063C0000078002850D19DF809004FF47A719DF8AB
:1063D0000A2064235A4301FB00209DF80B100A2277
:1063E00002FB01009DF80C10081800F53C50B0307D
:1063F0009DF80D100A229DF80E3002FB0131103974
:106400009DF80F200A239DF8104003FB0242103A2A
:106410009DF811300A249DF8125004FB0353103BE1
:106420009DF813400A259DF8146005FB0464103C98
:106430009DF815500A269DF8167006FB0575103D4F
:10644000EDB20195E4B20094DBB2D2B2C9B280B22F
:1064500003F036FF03F039FEDFF8B81608600120BC
:10646000DFF8AC16087059E0DFF8A80600680028CD
:1064700054D003F02AFEDFF89C160968401AB0F5E4
:10648000167F4BD99DF809004FF47A719DF80A20C8
:1064900064235A4301FB00209DF80B100A2202FBE3
:1064A00001009DF80C10081800F53C50B0309DF824
:1064B0000D100A229DF80E3002FB013110399DF8B3
:1064C0000F200A239DF8104003FB0242103A9DF86A
:1064D00011300A249DF8125004FB0353103B9DF821
:1064E00013400A259DF8146005FB0464103C9DF8D8
:1064F00015500A269DF8167006FB0575103DEDB285
:106500000195E4B20094DBB2D2B2C9B280B203F01A
:10651000D7FE03F0DAFDDFF8FC1508600DF1090085
:10652000FFF75DFE09E006A803F058FF002803D13D
:1065300006A8FFF754FE00E000200BB0F0BD80B5C8
:106540004FF4005002F039FC01BD0FB430B585B0F6
:10655000269C002C01D100203DE01A2100222000C1
:10656000FEF7C0FE04220DF17E01251D2800FFF775
:1065700015F804220DF1830114F108052800FFF736
:106580000DF8FFF711FF2599002905D16846FDF7A1
:10659000ABFB6846FFF723FE010E2170010C617012
:1065A000010AA170E070042222A914F10C05280050
:1065B000FEF7F4FF022223A914F111052800FEF7CB
:1065C000EDFF9DF88F00E0749DF8910060759DF8D7
:1065D00030002075012005B030BC5DF814FB10B50B
:1065E00084B00A224FF40051684602F0E8FC9DF89E
:1065F0000000FF280CD19DF80100FF2808D10A21D6
:106600000022DFF814452000FEF76CFE002060E059
:1066100001A8FFF759FCDFF8001588800DF1020092
:10662000FFF752FCDFF8F014488002A8FFF74CFC9B
:10663000DFF8E41408810DF10600FFF745FCDFF8F0
:10664000D814C8806846FFF73FFCDFF8CC140880F8
:10665000DFF8C4048088812809DB0020DFF8B81443
:1066600088800020DFF8B0144880002031E0DFF897
:10667000A8044088932805DB0020DFF89C1448809C
:10668000002026E0DFF890040089812809DB002043
:10669000DFF8841408810020DFF87C14C880002013
:1066A00017E0DFF87404C088922805DB0020DFF8CB
:1066B0006814C88000200CE0DFF85C040088B0F5A6
:1066C000924F05DD0020DFF850140880002000E024
:1066D000012004B010BDDFF840040088704710B5F9
:1066E0000400002C01D100200AE04FF4005002F019
:1066F00064FB0A224FF40051200002F0B0FB01209D
:1067000010BD10B50400DFF81004C08800282BD19C
:10671000DFF8040400894FF48051484310F54050DD
:1067200002F04BFBDFF8F0030088B0F5924F1BD16D
:10673000DFF8E40300889238DFF8DC130880DFF824
:10674000D80300897F2804DB0020DFF8CC13888081
:1067500006E0DFF8C4030089401CDFF8BC13888022
:106760000020DFF8B41348801A22DFF8AC03008958
:106770004FF48051484310F54050DFF89C13C9880E
:106780001A2303FB0101200002F069FBDFF88803F4
:10679000C088401CDFF88013C880DFF87C03C08805
:1067A00092280ADB0020DFF87013C880DFF8680346
:1067B0000089401CDFF860130881DFF85C03008962
:1067C000802807DB0020DFF8501308810020DFF865
:1067D0004813C880DFF840030088B0F5924F07DA0D
:1067E000DFF834030088401CDFF82C13088010E029
:1067F0004FF49240DFF820130880DFF81C03008973
:10680000DFF814138880DFF81003C088DFF808135E
:106810004880012010BD10B5DFF8FC12098800295E
:1068200007D00100C9B2DFF8F022128889B2914284
:1068300008D30A210022DFF8E0422000FEF752FDD3
:10684000002073E0DFF8D0124988C0B24118DFF8A9
:10685000C8225180DFF8C012498892290ADB002142
:10686000DFF8B4225180DFF8B0128988491CDFF8C4
:10687000A8229180DFF8A0128988802909DB0020F6
:10688000DFF8941288800020DFF88C124880012005
:106890004CE0DFF884120988002920D0DFF8781254
:1068A0000988C0B2081ADFF870120880DFF86802A1
:1068B0000088002813D10020DFF85C1288800020B7
:1068C000DFF8541208810020DFF84C1248800020C5
:1068D000DFF84412C880FFF732FE012026E0DFF81F
:1068E00038028088DFF83012098988421DD1DFF82C
:1068F00028024088DFF82012C988884215D100207C
:10690000DFF8141208800020DFF80C1288800020C5
:10691000DFF8041208810020DFF8FC114880002015
:10692000DFF8F411C880FFF70AFE012010BD2DE941
:10693000F04104000D005FF00008DFF8DC0146883C
:10694000DFF8D4018788DFF8D00100882900C9B2B8
:1069500089B2884202D2DFF8C0010588EDB2DFF8C3
:10696000B80140884019922800DB3500EDB21A20AA
:1069700000FB05F100222000FEF7B4FC5FF00008E8
:1069800019E01A22BFB24FF4805000FB07F010F557
:106990004050B6B25FFA88F818EB06011A2303FBE1
:1069A00001015FFA88F81A2000FB08F0204402F089
:1069B00006FB18F101085FFA88F8B6B216EB08007A
:1069C000922805DA40462900C0B2C9B28842D8D31D
:1069D0002800C0B2BDE8F08180B55FF4042002F069
:1069E000ECF901BD80B5002801D1002005E024228A
:1069F0005FF4042102F0E3FA012002BD10B582B079
:106A0000002402224649684602F0D9FA9DF80000A7
:106A1000552804D19DF80100AA2800D101242000A6
:106A2000C0B216BD80B53F480088ADF800003C48B4
:106A300002F0C3F902223A49684602F010FA01BD99
:106A400080B5FFF757FAFFF7F7FAFFF778FDFFF782
:106A5000C3FF01BDE0B569462F480088FFF73FFA44
:106A600001A92D488088FFF73AFA0DF102012A4862
:106A70004088FFF734FA02A927480089FFF72FFA68
:106A80000DF106012448C088FFF729FA6846FFF790
:106A900026FE07BD00000000EC010020848E0020CF
:106AA000868E002010B501241348FFF728FA00282D
:106AB00000D100240F48FFF701FB002800D100247B
:106AC000FFF78DFD002800D100241448FFF78AFF4E
:106AD000002800D10024FFF791FF002801D1FFF723
:106AE000A1FF200010BD1049087070470F480078C2
:106AF00070470000048D0020848E002000020020DA
:106B0000238D002094DA0008805101008033E101D8
:106B10009C900020E88F0020788F0020C48D0020FA
:106B200000701000AE5300089A9000209B90002047
:106B300070B504000D004FF47A710022DFF8BC6DCF
:106B40003000FEF7CFFB0020DFF8941C08804FF4E4
:106B50007A73DFF8A82D2900200000F06CFCDFF824
:106B6000801C0880DFF8780C0088B0F57A7F08DD9B
:106B7000DFF86C0C0188DFF86C0CFEF719FC0020C4
:106B800013E0DFF85C0C0088002805D1DFF8580C12
:106B9000FEF70EFC002008E00022DFF8440C01881C
:106BA000DFF8580D04F0E0FF012070BD32B5ADF5FF
:106BB0008A6D04000DF58A626946200001F0BBF978
:106BC000002812D115E0BDF85014684600F015F801
:106BD0000500691E89B2684601F000FAADB22C4486
:106BE000BDF85004401BADF85004BDF85004002817
:106BF000E9D10DF5806D15B030BD0021817811F01F
:106C00000101C9B2002908D08178C9B24908C9B2C6
:106C1000C07811EBC011091D04E08078C0B24108B2
:106C2000C9B2C91C080080B2704780B55FF4042067
:106C300002F0C3F801BD80B524225FF40421DFF81F
:106C4000C00C02F0BCF901BD80B5FFF7EEFF2422B5
:106C50005FF40421DFF8A80C02F001F901BDF0B5E2
:106C60008FB005000E00A878E97811EB002700240A
:106C7000DFF8EC0DFFF7A4FA28788DF800006878AB
:106C80008DF80100DFF87C0CFEF792FBDFF8D00DE9
:106C900000789DF80010884206D1DFF8C40D4078D6
:106CA0009DF8011088420ED0DFF85C0CFEF780FBE7
:106CB00001249DF80000DFF8A81D08709DF8010070
:106CC000DFF89C1D4870BFB2012F13D0C0F08F8039
:106CD000032F11D00FD3052F20D01ED3072F36D06E
:106CE0001DD3092F44D033D30B2F4ED04CD30C2FB0
:106CF0005FD07CE07BE07AE0B6B2072EC0F2848001
:106D00002879DFF85C1DC8726879DFF8541D0873B4
:106D1000A879DFF84C1D487369E068E067E0B6B217
:106D2000092E71DB2879DFF8381D48746879DFF89F
:106D3000301D8874A879DFF8281DC874E879DFF859
:106D4000201D0875287ADFF8181D48754FE04EE0C1
:106D5000B6B2072E58DB2879DFF8041D88736879EE
:106D6000DFF8FC1CC873A879DFF8F41C08743EE057
:106D7000B6B2062E48DB2879DFF8E41C4872687941
:106D8000DFF8DC1C887232E031E0B6B2082E3BDB63
:106D90002879DFF8CC1C88756879DFF8C41CC875C1
:106DA000A879DFF8BC1C0876E879DFF8B41C4876CF
:106DB0001DE0B6B22A2E27DB2879DFF8A41C08775D
:106DC0000222691DDFF89C6C3000FEF7E7FB102201
:106DD000E91DDFF8946C3000FEF7E0FB142215F19A
:106DE0001701DFF8885C2800FEF7D8FBFFE7E4B264
:106DF000002C09D0DFF8681C84B068464822FEF7F2
:106E0000DDFB0FBCFFF77EF90FB0F0BD80B589B296
:106E100002290EDB0178407810EB0120DFF8501CCE
:106E2000088001210A2001F0FDFD0100052001F08C
:106E3000B2FD01BD2DE9FC47040000275FF000080A
:106E400000255FF0000900205FF000085FF0000AF5
:106E5000002694F800A00422611C6D462800FEF76D
:106E60009DFB6079A179090411EB0060E17910EBD9
:106E70000120217A0E18607AA17A11EB0027E07ABE
:106E8000217B11EB0028607BA17B11EB00251FFA11
:106E900088F84146DFF8DC0BFEF78AFA002001F0A3
:106EA000BCF8DFF85C0AC07ADFF8541A097B11EBF2
:106EB000002080B2411C1FFA88F841450BD01FFA10
:106EC00088F8B8F1000F06D080B2411CDFF8A80B9B
:106ED000FEF76EFA0AE23800414680B289B2884273
:106EE00006D2BFB23900DFF8940BFEF761FAFDE17C
:106EF000DFF80C0A407BDFF8081A897B090411EBE4
:106F00000060DFF8FC19C97B10EB0120DFF8F019F5
:106F1000097C11EB0009BFB2002F00F0E7815FFA96
:106F20008AFABAF1010F05D11FFA88F8B8F1000FFB
:106F300000F05A811FFA88F8B8F1000F25D101201E
:106F4000DFF8BC190870380080B2000ADFF8B01909
:106F50004872DFF8AC098772DFF8A40940789DF821
:106F60000010884206D1DFF8980980789DF801105A
:106F7000884206D00320DFF888190870FFF755FE15
:106F8000B4E1012002F000FEB0E14046390080B2D9
:106F900089B2884240F09F800027DFF8640980F8BA
:106FA00000A0022DC0F0A281032D56D35FF000088F
:106FB0002A0014F10F01404680B203F025FD8046FF
:106FC00004EB0500C07B04EB0501097C11EB0027F5
:106FD00015EB09092A0092B219F50520411B14F19D
:106FE0000F0001F03CFF642001F096FD2A0092B2F0
:106FF00019F50520411B14F10F0001F0E0FF0020FE
:107000002A0014F10F0180B203F0FEFC40450CD0C1
:1070100042460100DFF8340DFEF7CAF90320DFF81D
:10702000E0180870FFF701FE60E1DFF8D40880F88F
:1070300010905FEA1920DFF8C818C8735FEA19409A
:10704000DFF8BC1888735FEA1960DFF8B41848737A
:107050004946DFF8FC0CFEF7ABF9FFF7F5FD5FF0F2
:1070600000085FF0000918E0012219F5052101A8C8
:1070700001F0A5FF012201A9404680B203F0D9FC2E
:1070800080464FF47A70B9FBF0F100FB11900028B4
:1070900001D102F00FF819F10109B145E4D34745D8
:1070A0000CD042463900DFF8AC0CFEF781F9032022
:1070B000DFF84C180870FFF7B8FD17E13900DFF86A
:1070C000980CFEF775F94FF47A7001F025FD002059
:1070D00001F080FB0AE1DFF8280880F800A0DFF863
:1070E00020088772BFB2380ADFF814184872DFF838
:1070F000100880F80C801FFA88F85FEA1820DFF883
:107100000018C8720422611CDFF8506C3000FEF7D2
:1071100045FA5FF000082A0014F10F01404680B2E2
:1071200003F072FC804615EB0909B9F57C3F08D9DC
:107130004946DFF82C0CFEF73BF9002002F024FD55
:10714000D4E0002D42D02A0092B219F50520411B4F
:1071500014F10F0001F083FE642001F0DDFC2A0031
:1071600092B219F50520411B14F10F0001F027FF21
:1071700000202A0014F10F0180B203F045FC4045C5
:107180000CD042460100DFF8C40BFEF711F90320D2
:10719000DFF86C170870FFF748FDA7E0DFF860071D
:1071A00080F810905FEA1920DFF85417C8735FEA7F
:1071B0001940DFF84C1788735FEA1960DFF8401751
:1071C00048734946DFF8880BFEF7F2F8FFF73CFDFD
:1071D000012002F0D9FC01210B2001F023FC010069
:1071E000052001F0D8FB81E01FFA88F8B8F1000F04
:1071F00005D0002002F0C8FC04F0D1FC76E00422A7
:10720000DFF8581B684603F039FB00280BD101203A
:1072100002F0BAFC01210B2001F004FC0100052062
:1072200001F0B9FB62E00120DFF8D41608703800E5
:1072300080B2000ADFF8C8164872DFF8C406877209
:10724000404680B2000ADFF8B816C872DFF8B00610
:1072500080F80C8004226946DFF8007B3800FEF7D6
:107260009DF9300EDFF898164871300CDFF8901653
:107270008871300ADFF88816C871DFF88406067254
:10728000DFF87C060574280ADFF87416C873280C2A
:10729000DFF86C168873280EDFF8641648735FF009
:1072A000000909E04FF4805000FB09F010F50520BB
:1072B00001F083FD19F10109B9F1400FF2D3002D5E
:1072C00007D02A0092B25FF4052114F10F0001F0FB
:1072D000C6FDFFF7B9FC012002F056FC01210B208E
:1072E00001F0A0FB0100052001F055FBBDE8F3878C
:1072F00070B504000D00FEF79BFE0600ADB2002D38
:1073000008D02078FEF784FE2078F6B2B04201D093
:10731000FDF79CFD70BD10B5040089B2002909D0AD
:107320002078C00701D5FDF791FD2078C00601D572
:10733000FEF74FFF10BD38B501784278D2B29209FE
:10734000D2B212EB81024178C1F34403817811F08B
:10735000010400250021E4B2002C05D10325817829
:10736000C9B24908C9B207E004258178C9B2490801
:10737000C9B2C47811EBC41192B2032A0CD0042A0A
:107380002BD0052A14D0062A39D0072A40D0082A43
:107390004AD0432A18D04DE0DBB2012B07D101219E
:1073A000062001F03FFB0100052001F0F4FA41E066
:1073B000DBB2012B07D10121072001F033FB0100D3
:1073C000052001F0E8FA35E0DBB2042B04D189B2E4
:1073D000ADB22844FFF72EFD2CE0DBB2042B05D123
:1073E00089B2ADB22844FFF73AFC07E0DBB2012BCB
:1073F00004D189B2ADB22844FFF708FD1AE0DBB230
:10740000042B04D189B2ADB22844FFF771FF11E01B
:10741000DBB2012B07D10121052001F003FB0100A4
:10742000052001F0B8FA05E089B2ADB22844FFF7B3
:1074300072FFFFE731BD2DE9F04FADF57B7D050013
:107440000E001700984600245FF0000B5FF0000963
:10745000002400215FF000095FF0000903E01BEB4E
:10746000040419F101095FFA89F9B9F1050F0EDA7F
:1074700028790521484328445FFA89F9484490F85F
:1074800005A001215FFA8AFABAF1000F23D1220088
:1074900092B23900300000F065FC8146A4B22200AF
:1074A00069465FFA89F907EB09052800FEF776F8C7
:1074B0005FFA89F919EB0404220092B23900A4B2F0
:1074C00007EB040000F063F8641C200080B20DF5A7
:1074D0007B7DBDE8F08F5FFA8AFABAF1000FC0D069
:1074E0002000424680B292B29042BAD22879052258
:1074F000504328445FFA89F948448079002805D030
:107500005FFA89F919F10100052800DB0021B8EBC9
:1075100004039BB26846A4B200EB0402C9B2300077
:10752000DFF8FCCA5FFA8AFA0CEB8A0C5CF804CC30
:10753000E04783461FFA8BFBBBF1000F05D1DFF854
:10754000E40AFDF735FF0020C1E75FFA8AFABAF1D5
:10755000010F08D083D3BAF1030F0ED008D3BAF1CC
:10756000040F0FD07BE7DFF8C00AFDF721FF76E7B5
:10757000DFF8B80AFDF71CFF71E7DFF8B40AFDF782
:1075800017FF6CE7DFF8AC0AFDF712FF67E770B48E
:1075900000230024002303E09BB2CD5C6C405B1C05
:1075A0001D001600ADB2B6B2B542F5D3047001208D
:1075B00070BC70472DE9F843894616001F00F41C83
:1075C000252501F001F9804601F0FCF80021317019
:1075D00019F0010151F0C40171704421B1703900FA
:1075E0002A00D2B289B292B291422AD3302161727A
:1075F0003021A17298F80110E17298F803102173FC
:10760000C179A173017AE173817B2174C07B6074BD
:10761000012020720A21002214F118063000FDF723
:1076200061FE14F1140114F11200FCF735FBFAF7B6
:107630006FFEA075FCF740FBE0752000FCF742FBF5
:1076400000E03D002800C0B2BDE8F2832DE9FF4113
:10765000884616001F00741DDFF8DC0903F067FA86
:107660001F250120307018F0010050F0C400707028
:107670003820B0700020F0700120307138002900EF
:10768000C9B280B289B288426AD3FEF78DFE070084
:10769000DFF8A40990F86E00DFF89C1991F86F10DC
:1076A00011EB0026DFF89009406F002808D16846EA
:1076B000FCF71AFB002803D06846FEF790FD070090
:1076C000380E2070380C6070380AA070E770042201
:1076D000DFF8681914F108073800FDF75FFF04228E
:1076E000DFF85C19271D3800FDF758FF0422DFF88A
:1076F000541914F10C073800FDF750FFDFF8380972
:1077000090F82A00DFF8301991F844100818207515
:10771000DFF82409406F002802D10020207401E026
:10772000012020740222DFF8201914F1110738001B
:10773000FDF734FFB6B2FF2E01DCE67401E0FF2056
:10774000E074DFF8F40890F87100607514F1180126
:1077500014F11600FCF7A0FA0120FFF7C4F900E0CD
:107760003D002800C0B204B0BDE8F0810020C0B2E6
:107770007047F8B5D51C102418002600F6B280B268
:10778000B6B2B04228D35E48C07A5D4B1B7B13EB88
:1077900000261020107011F0010050F0C40050704D
:1077A0001A209070761C5648007828700422DFF862
:1077B000AC156F1C3800FDF7F1FE300E6871300C0F
:1077C000A871300AE8712E720422DFF8801809359A
:1077D0002800FDF7E3FE00E01C002000C0B2F2BD6F
:1077E0008690002074DB000890DE0008F8B50F00DA
:1077F00015001E001F24DFF8580803F098F9012037
:10780000287017F0010050F0C4006870FEF763FFA5
:10781000062804DB0520DFF83C18087004E0FEF7BA
:107820005AFFDFF8301808703000E4B280B2A4B21A
:10783000A0425FD3DFF81C080178DFF81C08FFF7CF
:1078400076F8DFF810180870DFF8080800780028CC
:1078500001D1002051E0DFF8FC070078FEF7DBFFE4
:10786000DFF8F00700781A214843DFF8F0170870B6
:10787000DFF8E8070078802822DBDFF8E0070078EF
:10788000801C400050F00100A870DFF8D00700789D
:10789000801C80B2C009E87000202871DFF8B407AE
:1078A00000786871DFF8B4070078841DDFF8AC0752
:1078B0000278DFF8A417AD1D2800FDF76FFE1AE06F
:1078C000DFF898070078801C4000A8700020E8705E
:1078D000DFF8800700782871DFF880070078441D02
:1078E000DFF878070278DFF870176D1D2800FDF7C4
:1078F00055FE00E034002000C0B2F2BD0C7700203D
:10790000E88D0020D4DC0008F4DC00080020C0B2C0
:1079100070470020C0B270473EB5D41C0525012039
:10792000107011F0010050F044005070042090706D
:1079300018002900C9B280B289B2884205D36846CE
:1079400004F0BAF90220207000E01D002800C0B247
:107950003EBD0020C0B270470020C0B2704738B5AD
:10796000140004250120207011F0010050F0840063
:1079700060700220A070FEF75BFBE0702800C0B2D0
:1079800032BD10B50B241020107011F0010050F022
:107990000400507010209070D01CFCF79DF920005E
:1079A000C0B210BD2DE9F04184B0884616001F001A
:1079B0000B24F51CDFF8A80603F0B9F80B20307093
:1079C00018F0010050F0440070702820B0703800AA
:1079D0002100C9B280B289B288423AD3FEF7E4FCF2
:1079E0000600684604F068F9DFF87406406F002866
:1079F00002D102F06AFB0600300E2870300C68706D
:107A0000300AA870EE700422DFF8581615F1080647
:107A10003000FDF7C3FD0422DFF84C162E1D3000A8
:107A2000FDF7BCFD0422DFF8441615F10C0630000A
:107A3000FDF7B4FDDFF82806406F002802D10020D2
:107A4000287401E001202874002068740020A874C4
:107A500000E03C002000C0B204B0BDE8F0810000AE
:107A60004C8D0020698D00206B8D00207B8D0020C7
:107A70003203002014DD0008CCD8000860D90008CB
:107A800070B592B00E00140000256846FEF798FB12
:107A90000120207016F0010050F004006070DFF843
:107AA000D005008801281BD0C0F04B8103284BD0A3
:107AB00027D3052800F081805DD3072800F0AE8031
:107AC000C0F08F80092800F0D480C0F0BB800B2864
:107AD00000F0F580C0F0E1800C2800F00A8130E170
