:020000040800F2
:1020000088070020350A010885F8000887F80008CD
:1020100091F800089BF800089DF8000800000000F7
:10202000000000000000000000000000F78300082E
:10203000A7F8000800000000AD830008D1A900083F
:10204000F50B0108F90B0108FD0B010879FA0008EE
:10205000050C0108090C0108A9F80008C1F80008DE
:10206000D5F80008190C01081D0C0108210C010805
:10207000250C0108290C01082D0C0108310C010860
:10208000350C0108390C01083D0C01080000000066
:10209000000000000000000000000000EDF8000853
:1020A000450C0108490C01084D0C0108510C0108B0
:1020B000550C0108590C01085D0C0108610C010860
:1020C000650C0108690C01086D0C0108710C010810
:1020D000E1F9000829F9000857F9000885F9000816
:1020E000850C010811FA00088D0C010800000000A1
:1020F00000000000000000000000000000000000E0
:102100000000000000000000910C0108950C01087F
:10211000B3F900089D0C0108A10C0108A50C0108E9
:10212000A90C0108AD0C0108B10C0108B50C01089F
:10213000B90C0108BD0C0108C10C01080000000029
:10214000000000000000000000000000C50C0108B5
:1021500080B501F03FF80020DFF8341C81F846001C
:10216000012001F0F8FE0020DFF8241C4871002057
:10217000DFF81C1C81F8440001BD80B501224FF43A
:102180000061DFF8240B02F0E0FA642002F0D5FCD5
:1021900001228021DFF8740B02F0D7FA40F24C40A4
:1021A00002F0CBFC00228021DFF8600B02F0CDFAB8
:1021B0000120DFF8C81C087001BD80B50122802114
:1021C000DFF8480B02F0C1FA4FF4966002F0B5FC5C
:1021D00000228021DFF8340B02F0B7FA4FF4FA60E6
:1021E00002F0ABFC00224FF40061DFF8BC0A02F001
:1021F000ACFA0020DFF8841C087001BDDFF87C0C0D
:102200000078704780B50020DFF8881B81F86700F0
:102210000120DFF87C1B81F8460001228021DFF8D5
:10222000EC0A02F092FA4FF4487002F086FC0022A9
:102230008021DFF8D80A02F088FA40F6B83002F0C0
:102240007CFC00224FF40061DFF85C0A02F07DFAAA
:1022500001BD80B502F076FD00F0BCFF01BD0000BD
:1022600010B5DFF8B40B0078372801DB00F08AFFE7
:10227000DFF8A40B0078002819D101223621DFF8FD
:102280009C0B02F06FFF040001F0AAFC022806D1AB
:102290000C2C04D00C20DFF8801B087007E0601EB7
:1022A000352803D2DFF8700B047000E000BFDFF8C0
:1022B000680B007800281DD0DFF85C0B007836280A
:1022C00018DADFF8500C0078002803D002280AD072
:1022D00006D30BE0DFF8400B007800F02DFE09E09C
:1022E00000F0BCFE06E000F0DDFE03E00020DFF8B9
:1022F000241C087010BD80B503E09DF8000000F0BC
:102300002CF8684601F00AFC10F1010FF5D101BD6F
:10231000DFF87C0A0079704780B5C0B201F0EEFBAF
:1023200001BDDFF8FC1BDFF8FC2B12888854DFF8B6
:10233000F40B0088401CDFF8EC1B0880DFF8E40B8E
:10234000008840F2DB51884205DB0020DFF8D41B17
:102350000880012000E00020704738B50400DFF855
:10236000C80B0078002806D0022839D02CD30328C7
:1023700000F0E980F7E00020DFF8A81B08800020CB
:10238000DFF8A81B08700020DFF8A41B088040F2CB
:10239000DC510022DFF8885B280002F013FFE4B272
:1023A0000D2C04D10120DFF8801B08700BE0200009
:1023B000C0B2FFF7B6FF0220DFF86C1B08700120E7
:1023C000DFF8DC1C0860D6E0E4B20A2C07D102205A
:1023D000DFF8541B08700120DFF8C41C0860CAE055
:1023E000DFF8400B008808283AD100200422DFF8EB
:1023F000441BDFF82C0B02F018FF002830D100201E
:1024000000E0401CC0B2092808DADFF8141BC0B293
:10241000095C3A29F5D1DFF8141B087005200EE09D
:10242000DFF80C1B09880A22DFF8F43AC0B21B5C03
:1024300002FB01313039DFF8F82A1180401C01001D
:10244000DFF8E82A1278C9B2914206D2DFF8D01A32
:10245000C0B2095C30390A29E2D3032001F0B1FB94
:1024600001F0BEFB032831D12000C0B2FFF759FFB5
:10247000DFF8B00A0088DFF8B81A0988DFF8AC2A5C
:1024800012785118491C884208DA0220DFF8981A9D
:1024900008700120DFF8081C086053E00020DFF816
:1024A000881A08700020DFF8F81B0860DFF8800A3F
:1024B0000188DFF86C0ADFF8742A12781044401C97
:1024C00001F094FB002001F07CFB3BE0E4B20D2C1A
:1024D0000DD1DFF8CC0B0068002808D00320DFF80E
:1024E000481A08700020DFF8B81B08602AE001F0E5
:1024F00077FB012822D1DFF8280ADFF8281A09889B
:10250000084410F8010C3E2813D1E4B2202C10D15D
:102510000020DFF8141A0870022001F052FB01209D
:10252000DFF8541C0870002200210C20FFF7F4FE95
:1025300008E02000C0B2FFF7F4FE03E02000C0B2C4
:10254000FFF7EFFE17E0E4B20A2C0BD10020DFF812
:10255000D8190870DFF8CC090188C9B2DFF8C009C2
:1025600000F00AF807E00020DFF8BC19087000202E
:10257000DFF82C1B086031BD70B504000E0000258B
:102580002100DFF8F80B02F06BFEDFF8F40B0078A7
:10259000002809D03100C9B2200000F0FDFB002066
:1025A000DFF8DC1B0870D0E13100C9B2200000F078
:1025B000CDF9002840F0C981DFF85C0800781328C5
:1025C00040D1DFF8F40B006802F05CFE0200DFF897
:1025D000E80B0168200002F028FE00280DD0DFF88B
:1025E000DC0B006802F04EFE0200DFF8D00B016841
:1025F000200002F01AFE00280DD10120DFF8781B20
:102600000870012501F0C5FA0A2880F28D810A20A0
:1026100001F0A7FA88E1DFF8A80B006802F032FEAB
:102620000200DFF89C0B0168200002F0FEFD00288C
:1026300040F07A810120DFF8401B08700125FFF788
:1026400008FE71E1DFF87C0B006802F01BFE02005F
:10265000DFF8700B0168200002F0E7FD002805D1CB
:102660000320DFF8141B087001255DE1DFF8580B2B
:10267000006802F007FE0200DFF84C0B0168200042
:1026800002F0D3FD002815D10120DFF8EC1A087004
:102690000125062001F065FAFFF7DBFD002001F0BF
:1026A00090FA0020DFF8D81A0870DFF8200B02F04B
:1026B000D7FD39E1DFF8180B006802F0E3FD0200F6
:1026C000DFF80C0B0168200002F0AFFD002821D1DB
:1026D0000120DFF8A41A08700125DFF8B40690F88D
:1026E0004600012812D00020DFF8941A0870FFF786
:1026F000B0FD002001F035FAFFF75FFD4FF47A706E
:1027000002F01BFAFFF739FDFFF7A3FD002001F0EF
:1027100058FA09E1DFF8980B006802F0B3FD0200F7
:10272000DFF88C0B0168200002F07FFD002812D139
:102730000120DFF8441A08700125002001F011FA89
:102740000020DFF83C1A0870FFF783FDDFF8640B08
:1027500002F086FDE8E0DFF8A80B006802F092FDC9
:102760000200DFF89C0B0168200002F05EFD0028EB
:1027700031D10220DFF8001A08700125DFF8840B40
:1027800002F06EFDDFF890060078282804D0DFF80C
:1027900088060078242804D10020DFF8DC190870AE
:1027A000C2E0DFF8640B00781528C0F2BD80FFF7A7
:1027B00050FDFFF702FD4FF47A7002F0BEF90020E1
:1027C00001F0CFF9FFF7D9FCFFF743FD0020DFF858
:1027D000381B0870A8E0DFF8340B006802F052FDE7
:1027E0000200DFF8280B0168200002F01EFD00281F
:1027F00005D10120DFF880190870012594E0DFF889
:10280000100B006802F03EFD0200DFF8040B0168C7
:10281000200002F00AFD002808D10120DFF8581935
:1028200008700125072001F09CF97DE0DFF8900990
:10283000006802F027FD0200DFF88409016820002B
:1028400002F0F3FC002805D10120DFF82C190870F4
:10285000012569E0DFF8BC0A006802F013FD020000
:10286000DFF8B00A0168200002F0DFFC00280CD17C
:102870000120DFF804190870012501F08AF9022807
:1028800052D1032001F06DF94EE0DFF88C0500789D
:102890002E2805D10120DFF8E0180870012543E05B
:1028A000DFF8800B006802F0EDFC0200DFF8740B2B
:1028B0000168200002F0B9FC002803D1022001F0D9
:1028C00050F931E0DFF850050078DFF8B01D0870EE
:1028D000200002F0D7FCDFF8A41D91F86510D1F1BB
:1028E0006401814206D2DFF8940D90F86500D0F1C2
:1028F000640603E0200002F0C5FC0600B6B2320018
:102900002100DFF8780DDFF8743D93F86530184446
:10291000401C02F0D3FCDFF8640D90F8650030181D
:10292000DFF8581D81F86500012D0ED1DFF8E804AD
:102930000078DFF8481D0870200002F0A3FCDFF8E3
:102940003C1D81F8650000F046FA70BDF8B5040042
:102950000D00002601274AE0DFF8FC06FFB2142133
:1029600001FB07F10844401C02F08CFC0200DFF878
:10297000E806FFB2142101FB07F10844411CDFF80F
:10298000A00502F052FC002830D1FFB2002F2BD05E
:10299000FFB2112F28DADFF8C006FFB2142101FBC5
:1029A00007F10844C06800280BD02900C9B22000F4
:1029B000DFF8A426FFB2142303FB07F31A44D268FE
:1029C0009047DFF89406FFB2142101FB07F1084499
:1029D0000069002808D0DFF88006FFB2142101FB4F
:1029E00007F1084400698047112701267F1CFFB2C8
:1029F000112FB1DB3000F2BD7047C9B2092907DBE6
:102A0000007A312804D10120DFF88413086003E044
:102A10000020DFF87C13086070470021C17930394D
:102A20000A2907D281790A22C07902FB0100B0F19C
:102A3000100102E08079B0F13001C9B2202903DB36
:102A40001F20D349087108E0C9B2202902DAD04812
:102A5000017102E00020CE490871704700210D305D
:102A600005E00A22037802FB01313039401C02786C
:102A70000D2A0BD002782C2A08D00278302AF0DAFE
:102A800002783A2AEDDB002006E0401C02780A2A90
:102A9000FBD1401C080080B2704738B5040000200C
:102AA000E07A3038C0B2012802D002280CD043E0CE
:102AB000022001F072F8DFF8A00B02F0D1FB012038
:102AC000DFF8BC1B087037E040F2DC510022DFF871
:102AD0008455280002F076FB2000FFF7BFFF40F28C
:102AE000DD51884202DB40F2DC5002E02000FFF7BB
:102AF000B5FFDFF8E81308800020DFF8841B0870BA
:102B0000DFF8D8030088002815D0DFF8D00301884B
:102B1000DFF8940B02F0A4FBDFF8900B007800289C
:102B200003D10120DFF8841B0870DFF8B0030088B0
:102B300001F03AF8FFE7FFE731BD80B50021007AE8
:102B4000B0F13001C9B201290BD101F022F80628F9
:102B500002D1072001F005F801208E4981F86C00B0
:102B600006E0C9B2002903D100208A4981F86C002F
:102B700001BD70470120DFF808160870704780B566
:102B80000322C11DDFF8280B006802F04EFB00286D
:102B90000BD100F0FEFF032802D1042000F0E1FF7A
:102BA00001207C4981F86B0007E0DFF8080B02F098
:102BB00057FB0020774981F86B0001BD10B5002458
:102BC000417B30390A2907D2017B0A22407B02FB74
:102BD0000100B0F1100402E0007BB0F13004E4B277
:102BE000002C0ED0002200212C20FFF795FBDFF8EF
:102BF000C80A0470DFF8240E0078401CDFF81C1EA1
:102C0000087010BD70B500250400417A30390A29DA
:102C100004D300255F4880F8825044E0407AB0F148
:102C20003005EDB2012D02D0EDB2052D32D10020DC
:102C3000052000F096FF0221200002F0E9FB0600CB
:102C4000300002F0D5FBC0B200280BD0701C02F09F
:102C5000A5FB504981F87D00F01C02F09FFB4D4917
:102C600081F87E000321200002F0D2FB0600300034
:102C700002F0BEFBC0B2002812D0701C02F08EFB26
:102C8000444981F87F00F01C02F088FB414981F83B
:102C9000800005E0EDB22900DFF8F40B02F0E0FA65
:102CA0003C4880F8825070BD00080140704780B5F4
:102CB000417A2D2912D1817A3039C27A2E2A07D051
:102CC000C27A0A2A04D00A225143C07A3038411805
:102CD000C9B248422E4981F845000FE0417A3039A7
:102CE000827A2E2A07D0827A0A2A04D00A225143F5
:102CF000807A30384118264880F84510244890F9E9
:102D00004510DFF8100E02F0ABFA01BD00100140D3
:102D10007047704770477047C9B21A2937DB3221B4
:102D2000DFF8F42D11703021DFF8EC2D5170017AAD
:102D3000DFF8E42D9170417ADFF8DC2DD170C17A93
:102D4000DFF8D42D1171017BDFF8CC2D5171817B1F
:102D5000DFF8C42D9171C17BDFF8BC2DD171417CAE
:102D6000DFF8B42D1172817CDFF8AC2D5172017D3A
:102D7000DFF8A42D9172417DDFF89C2DD172C17DC9
:102D8000DFF8942D1173007EDFF88C1D48737047B7
:102D9000B4C30020CCBB0020F0B599B004000D00F6
:102DA00000260027002709E0FFB204EB470002F0ED
:102DB000F5FA6946FFB2C855761C7F1CFFB2780051
:102DC000EDB2A842F0DBF6B2310089B2684600F0FD
:102DD0000DFF19B0F0BD80B5002000E0401CC0B26E
:102DE000082818D2DFF894180978DFF8FC2DC0B253
:102DF00012F830209142F1D1DFF8EC1DC0B201EBA6
:102E0000C0014968002906D0DFF8DC1DC0B201EB23
:102E1000C0004068804701BDB3C7002094C60020B1
:102E200080B500F0B6FE062802D1072000F099FE1A
:102E300001BD80B5072000F094FE01BD80B500F013
:102E4000A8FE012802D1022000F08BFE01BD7047D0
:102E500010B5DFF8201CDFF8200C02F001FADFF8D3
:102E60001C08407830380A2806D20F22DFF8041CEC
:102E7000294C200002F006FB10BD0000B7C700205F
:102E80001FB500240F22DFF8EC1B244C200002F0B9
:102E9000F9FA0F2221496C46200002F0F3FA0020D3
:102EA0008DF80F001D49DFF8500C02F0D9F96620AB
:102EB0008DF80F0000240CE06846E4B200EB4400FB
:102EC00002F06CFADFF8501DE4B2214481F86D0085
:102ED000641CE4B2082CEFDB1FBD00009AC7002081
:102EE00080B500F056FE082808D1092000F039FE10
:102EF000DFF8801BDFF8280D02F0B2F901BD10B534
:102F00002022DFF8701BDFF81C4D200002F0BAFA17
:102F100010BD0000B1C70020DAC30020E9C30020C3
:102F2000B087002098C70020B2C70020B9C7002092
:102F300096C70020500B010838B50400DFF8C00C1C
:102F4000E4B26101405CDFF85C1C08700020DFF82F
:102F50002C1708700020DFF8241781F86500642121
:102F60000022DFF8105B280002F02CF9DFF8900C4B
:102F7000E4B2610108444069002817D0DFF8800CF2
:102F8000E4B261010844C06900280FD02000C0B23B
:102F900000F072F9DFF8680CE4B261010844007DCA
:102FA000000703D52000C0B200F058FBDFF8800C0A
:102FB000008840F2E731884204DB40F2E630DFF877
:102FC000701C08800D20DFF86C1CDFF8642C128860
:102FD0008854DFF85C0C0088401CDFF8541C088023
:102FE0000A20DFF8501CDFF8482C12888854DFF8DC
:102FF000400C0088401CDFF8381C0880DFF8341CC7
:10300000DFF8000C02F02CF9DFF8240C0188DFF85F
:10301000240C00F091FDDFF8E80BE4B261010844F4
:103020008069DFF8E41B086002F0E3FBDFF8D81BDF
:1030300009680818DFF8D41B0860DFF8D40B0078A3
:10304000401CDFF8CC1B08700220DFF8C81B08709A
:1030500031BD00008C8D00200C00002080B50020C8
:10306000DFF8C41B087002F0C4FBDFF89C1B096882
:103070000818DFF8981B08600220DFF8981B08701A
:10308000DFF88C0B0078401CDFF8841B0870DFF839
:10309000A00B0188DFF89C0B00F04EFD01BD000085
:1030A000D4C6002080B502F0A4FBDFF8601B0968DD
:1030B000814204D3DFF8700B0078022848D1DFF892
:1030C0005C0B00780C2802D100F05CF853E0DFF8CC
:1030D000400B0078DFF8CC1A0978884204D201202E
:1030E000DFF8301B087046E0DFF83C0B0078002862
:1030F00019D1DFF80C0BDFF8241B097849010844CB
:10310000007DC0060FD500F03DF8FFF7A2F8FFF7ED
:1031100054F84FF47A7001F010FD002000F021FD0A
:10312000FFF72BF827E0DFF8000B007800280CD120
:10313000DFF8CC0ADFF8E41A097849010844007D79
:10314000C00702D400F01EF815E000F01BF812E0F2
:10315000DFF8C80A00780C2806D100F041FD0228EB
:1031600009D100F00FF806E0DFF8BC0A007801286A
:1031700001D100F007F801BDB4C70020740A0108AE
:10318000BBC700200020DFF8A01A08700020DFF87D
:10319000841A08700020DFF8941A08700020DFF805
:1031A0007C1A08700020DFF8681A08700020DFF829
:1031B000AC1A086070470000640100206C01002018
:1031C00070010020600100208401002054090108E2
:1031D0008C01002010B50020DFF84C1A0870002088
:1031E000DFF8301A08700020DFF8301A087000206D
:1031F000DFF81C1A08700020DFF8601A0860002051
:10320000DFF8281A087007210022DFF8744A20002E
:1032100001F0D8FF4FF47A710022DFF8184A20003D
:1032200001F0D0FF0020DFF8F01981F86B000020DA
:10323000DFF8E41981F86C000522DFF8681ADFF87E
:10324000684A200002F01EF90020DFF8601A0870BA
:103250000020DFF8581A48704FF496710022DFF80A
:10326000504A200001F0AEFF0020DFF8481A086045
:10327000002000F0A6FC10BD38B50400DFF880097E
:10328000E4B261010844401C01F0FCFF0500EDB20E
:103290002A00DFF86C09E4B261010844411CDFF840
:1032A000940902F00BF8EDB2DFF88409058031BD16
:1032B00074010020C409010880B5DFF8F009027824
:1032C00071A1DFF87009DFF8F0391B88184402F0AB
:1032D00055FDDFF8E4190988C0B24018DFF8D819A5
:1032E00008800D20DFF84C19DFF8CC2912888854AB
:1032F000DFF8C4090088401CDFF8BC19088001BD54
:1033000090010020D4090108BDC700207C010020E5
:10331000780100206801002038B5DFF8A0090078A6
:1033200001282ED1DFF898094488DFF804090088C5
:10333000A4B22018B0F5797F70DCA4B2DFF884194C
:10334000DFF8F008DFF8E828128800EB0205220019
:10335000280002F097F8DFF8D80800882018DFF876
:10336000D01808801A20DFF8CC18DFF8C42812889B
:103370008854DFF8BC080088401CDFF8B4180880C7
:103380004CE0DFF83C090488DFF8A4080088A4B208
:103390002018B0F5797F23DCA4B2DFF82C19DFF810
:1033A0009408DFF88C28128800EB02052200280020
:1033B00002F068F8DFF8780800882018DFF8701845
:1033C00008801A20DFF86C18DFF864281288885407
:1033D000DFF85C080088401CDFF8541808801DE006
:1033E000DFF84C08008840F2E631884204DB40F206
:1033F000E530DFF83C1808801B20DFF83818DFF8CC
:10340000302812888854DFF828080088401CDFF82C
:1034100020180880DFF8B40801F022FF002000F037
:10342000D0FB31BD8801002080B52220DFF80418D0
:10343000DFF8842812888854DFF87C080088401C54
:10344000DFF8741808800522DFF85818DFF8E40761
:10345000DFF864381B88184401F030FFDFF85808A3
:103460000088401DDFF8501808802220DFF8C417BC
:10347000DFF8442812888854DFF83C080088401C94
:10348000DFF83418088001BD2564000010B504225F
:1034900084A1DFF83C0801F011FFDFF83818DFF8ED
:1034A000380802F0C4FD2220DFF88817DFF808286A
:1034B00012888854DFF800080088401CDFF8F817ED
:1034C0000880DFF80C0801F0DDFE0400E4B2220001
:1034D000DFF8FC17DFF85C07DFF8DC371B881844DF
:1034E00001F0ECFEDFF8D0070088E4B22018DFF826
:1034F000C81708802220DFF83C17DFF8BC271288A5
:103500008854DFF8B4070088401CDFF8AC17088047
:103510002C20DFF82017DFF8A02712888854DFF866
:1035200098070088401CDFF8901708802220DFF8F9
:103530000417DFF8842712888854DFF87C07008896
:10354000401CDFF874170880DFF88C0701F09AFE42
:103550000400E4B22200DFF88017DFF8D806DFF8B5
:1035600058371B88184401F0A9FEDFF84C07008883
:10357000E4B22018DFF8401708802220DFF8B416E4
:10358000DFF8342712888854DFF82C070088401CA5
:10359000DFF8241708802C20DFF89816DFF81827AA
:1035A00012888854DFF810070088401CDFF80817DD
:1035B00008802220DFF87C16DFF8FC261288885469
:1035C000DFF8F4060088401CDFF8EC160880DFF80E
:1035D000040701F057FE0400E4B22200DFF8F416FD
:1035E000DFF85006DFF8D0361B88184401F066FE7D
:1035F000DFF8C4060088E4B22018DFF8BC160880A3
:103600002220DFF83016DFF8B02612888854DFF861
:10361000A8060088401CDFF8A016088010BD80B501
:1036200000200222DFF89816DFF80806DFF80036DF
:103630001B88184401F078FEDFF8F415098840185B
:10364000DFF8EC1508800020DFF870160870012004
:1036500000F0B7FA01BD0000E407010880B5DFF80B
:103660007C16C0B251F82010002905D0DFF86C1686
:10367000C0B251F82000804701BD000004C1002005
:10368000B8C7002070473120DFF8A815DFF82826DA
:1036900012888854DFF820060088401CDFF81816CE
:1036A000088070475443500058060108BCC70020EA
:1036B00080010020FC070108B6C700207047704752
:1036C00010B5042271A1DFF8080601F0F7FDDFF85C
:1036D0000416DFF8040602F0AAFC2220DFF85415D5
:1036E000DFF8D42512888854DFF8CC050088401C08
:1036F000DFF8C4150880DFF8D80501F0C3FD040029
:10370000E4B22200DFF8C815DFF82805DFF8A83595
:103710001B88184401F0D2FDDFF89C050088E4B254
:103720002018DFF8941508802220DFF80815DFF84C
:10373000882512888854DFF880050088401CDFF84F
:10374000781508802C20DFF8EC14DFF86C2512883F
:103750008854DFF864050088401CDFF85C15088099
:103760002220DFF8D014DFF8502512888854DFF8C3
:1037700048050088401CDFF840150880DFF8580530
:1037800001F080FD0400E4B22200DFF84C15DFF800
:10379000A404DFF824351B88184401F08FFDDFF8FE
:1037A00018050088E4B22018DFF80C1508802220E4
:1037B000DFF88014DFF8002512888854DFF8F80459
:1037C0000088401CDFF8F01408802C20DFF8641417
:1037D000DFF8E42412888854DFF8DC040088401CF9
:1037E000DFF8D41408802220DFF84814DFF8C8245A
:1037F00012888854DFF8C0040088401CDFF8B81431
:103800000880DFF8D00401F03DFD0400E4B222009E
:10381000DFF8C014DFF81C04DFF89C341B88184460
:1038200001F04CFDDFF890040088E4B22018DFF8C6
:10383000881408802220DFF8FC13DFF87C2412882B
:103840008854DFF874040088401CDFF86C1408808A
:1038500010BD80B500200222DFF86414DFF8D40325
:10386000DFF8CC331B88184401F05EFDDFF8C0138D
:1038700009884018DFF8B81308800020DFF83C14EE
:103880000870012000F09DF901BD00005443500074
:1038900014080108704710B52220DFF89813DFF8EC
:1038A000182412888854DFF810040088401CDFF8C0
:1038B00008140880DFF8F00301F0E4FC0200DFF8F0
:1038C000E813DFF87003DFF8F0331B88184401F0C9
:1038D000F5FCDFF8E4030488DFF8CC0301F0D2FC48
:1038E0000019DFF8D41308802220DFF84813DFF82E
:1038F000C82312888854DFF8C0030088401CDFF812
:10390000B81308802C20DFF82C13DFF8AC231288C2
:103910008854DFF8A4030088401CDFF89C1308805B
:103920002220DFF81013DFF8902312888854DFF884
:1039300088030088401CDFF880130880DFF8A003AC
:1039400001F0A0FC421EDFF89813DFF8E802DFF870
:1039500068331B88184401F0B1FCDFF85C0304886D
:10396000DFF87C0301F08EFC401E0019DFF84813DD
:1039700008802220DFF8BC12DFF83C23128888542C
:10398000DFF834030088401CDFF82C1308802C205B
:10399000DFF8A012DFF8202312888854DFF818031C
:1039A0000088401CDFF8101308802220DFF8841202
:1039B000DFF8042312888854DFF8FC020088401CDA
:1039C000DFF8F4120880DFF81C0301F05BFC421EF4
:1039D000DFF81013DFF85C02DFF8DC321B881844D4
:1039E00001F06CFCDFF8D0020488DFF8F80201F087
:1039F00049FC401E0019DFF8C01208802220DFF8C1
:103A00003412DFF8B42212888854DFF8AC02008840
:103A1000401CDFF8A412088010BD0000BEC70020C3
:103A20003120DFF81012DFF8902212888854DFF876
:103A300088020088401CDFF8801208802C20DFF804
:103A4000F411DFF8742212888854DFF86C020088C1
:103A5000401CDFF86412088034207649DFF85822D1
:103A600012888854DFF850020088401CDFF84812A2
:103A70000880704705C10020800A0108DFF868024D
:103A800000780A2810DADFF86002007830306949DF
:103A9000DFF8242212888854DFF81C020088401CBA
:103AA000DFF81412088026E0DFF83C0200780A21D3
:103AB00090FBF1F030305F49DFF8FC211288885428
:103AC000DFF8F4010088401CDFF8EC110880DFF813
:103AD000180200780A2190FBF1F201FB120030304D
:103AE0005449DFF8D42112888854DFF8CC010088CB
:103AF000401C7149088070478C0A010880B501217B
:103B0000009101233622C0B201005D4801F0FCFAA9
:103B100001BD00007406010818C6002010B504009D
:103B20002100012000F01CFB002801D0207801E0DA
:103B30005FF0FF3000B210BDF8B504000D000026A4
:103B4000002705E0BFB2E15D012000F06DFB7F1CA6
:103B50003800290080B289B28842F3D33000C0B265
:103B6000F2BD544991F844100200D2B291420FD0F4
:103B7000C0B20C2802DA4F4981F84400C0B20A28CA
:103B800003DB01204B49086002E00020494908603E
:103B90007047484890F844007047544981F86A00DB
:103BA000704700006A03002080B240F2DD51884275
:103BB00004DB40F2DC504E49088001E04C490880AB
:103BC000704780B53B4948713A484079002806D093
:103BD00001F00FFE00F5985088304649086001BD9D
:103BE00034484079704700006001010880B589B20F
:103BF000002902D089B202F065FF002002BD00005A
:103C0000C4F10008980A010808000020D0C600206E
:103C1000B5C70020B1C70020CCBB0020B3C700202F
:103C2000580B0108BAC30020B4C70020B2C7002057
:103C300094C70020A49B002038B504000D00022288
:103C40002D49200001F01EFC02222C49280001F021
:103C500019FC31BD254890F882007047D4C6002079
:103C600010B5040008222649200001F00BFC10BD0D
:103C700010B5040008222349200001F003FC10BD08
:103C800094C6002010B504001F480078322806D1E1
:103C90000E221D49200001F0F5FB012000E000206C
:103CA00010BD0000600B0108CDBB0020ECB7002068
:103CB000EEB70020B4C3002094C70020BAC700208C
:103CC000B4970020A09B0020B8970020E4030108CF
:103CD00009BC00202BBC00200DBC002028FE0008E1
:103CE000E1BB0020F5BB0020B6C70020CCBB002004
:103CF00096C70020D8C6002049BC00204BBC00203D
:103D000039BC002041BC002018C6002000B585B099
:103D1000C0B2002807D0022800F08F8049D30328C2
:103D200000F0D18015E14FF48060ADF80000042070
:103D30008DF803006946DFF8F00800F095FC4FF4B9
:103D40000070ADF8000001208DF8020018208DF8F9
:103D500003006946DFF8D00800F086FC5FF4E1302C
:103D600001900020ADF808000020ADF80A00002006
:103D7000ADF80C000020ADF810000C20ADF80E00DE
:103D800001A9DFF8A80804F037FA012240F2255112
:103D9000DFF8980804F09EFA002240F22661DFF86E
:103DA0008C0804F097FA0121DFF8800804F084FA07
:103DB000CFE00820ADF8000004208DF8030069462C
:103DC000DFF8640800F050FC0420ADF8000001208A
:103DD0008DF8020018208DF803006946DFF84808C6
:103DE00000F042FC5FF4E13001900020ADF80800E3
:103DF0000020ADF80A000020ADF80C000020ADF85E
:103E000010000C20ADF80E0001A9DFF8240804F022
:103E1000F3F9012240F22551DFF8140804F05AFAB0
:103E2000002240F22661DFF8080804F053FA01216D
:103E3000DFF8FC0704F040FA8BE04FF40060ADF8C7
:103E4000000004208DF803006946DFF8E80700F061
:103E50000BFC4FF48060ADF8000001208DF80200EB
:103E600018208DF803006946DFF8C80700F0FCFB56
:103E70004FF4165001900020ADF808000020ADF876
:103E80000A000020ADF80C000020ADF810000C2056
:103E9000ADF80E0001A9DFF8A00704F0ADF901228A
:103EA00040F22551DFF8900704F014FA002240F2A6
:103EB0002661DFF8840704F00DFA0121DFF87807A6
:103EC00004F0FAF945E04FF48060ADF800000120FD
:103ED0008DF802001C208DF803006946DFF85C07AE
:103EE00000F0C2FB4FF40060ADF8000004208DF834
:103EF00003006946DFF8440700F0B6FB5FF4E130E9
:103F000001900020ADF808000020ADF80A00002064
:103F1000ADF80C000020ADF810000C20ADF80E003C
:103F200001A9DFF81C0704F067F9012240F22551CE
:103F3000DFF80C0704F0CEF9002240F22661DFF82A
:103F4000000704F0C7F90121DFF8F40604F0B4F922
:103F5000FFE705B000BD80B5C0B2042880F2FF8045
:103F60000021DFF8E026C0B21C2303FB00F31A4453
:103F700091800021DFF8CC26C0B21C2303FB00F3A4
:103F8000D1520021DFF8BC26C0B21C2303FB00F392
:103F90001A4451800021DFF8AC26C0B21C2303FB79
:103FA00000F31A4411820021DFF89826C0B21C23C6
:103FB00003FB00F31A4491810021DFF88826C0B288
:103FC0001C2303FB00F31A44D1810021DFF874267F
:103FD000C0B21C2303FB00F31A449161C0B2002855
:103FE00006D0022860D030D3032800F08B80B6E0E2
:103FF000DFF85416DFF84C26C0B21C2303FB00F395
:104000001A4491609621DFF83C26C0B21C2303FBC2
:1040100000F31A44D180DFF83416DFF82826C0B246
:104020001C2303FB00F31A4451619621DFF8142688
:10403000C0B21C2303FB00F31A445182C0B200F04B
:10404000A1FA0020FFF762FE89E0DFF80416DFF82E
:10405000F425C0B21C2303FB00F31A44916040F224
:104060004C41DFF8E025C0B21C2303FB00F31A44E7
:10407000D180DFF8E015DFF8CC25C0B21C2303FBAC
:1040800000F31A4451614FF47A71DFF8B825C0B2D9
:104090001C2303FB00F31A445182C0B200F072FAF1
:1040A0000120FFF733FE5AE0DFF8AC15DFF8942566
:1040B000C0B21C2303FB00F31A4491604FF4167145
:1040C000DFF88025C0B21C2303FB00F31A44D18023
:1040D000DFF88815DFF86C25C0B21C2303FB00F362
:1040E0001A4451616421DFF85C25C0B21C2303FB34
:1040F00000F31A445182C0B200F044FA0220FFF7E4
:1041000005FE2CE0DFF85815DFF83825C0B21C2377
:1041100003FB00F31A4491601421DFF82825C0B294
:104120001C2303FB00F31A44D180DFF83815DFF8B5
:104130001425C0B21C2303FB00F31A44516114215F
:10414000DFF80025C0B21C2303FB00F31A445182A0
:10415000C0B200F017FA0320FFF7D8FDFFE701BD5A
:1041600070B504000D000026E4B2042C01DB002031
:1041700059E0002D01D1002055E004F032F9DFF8BC
:10418000C404E4B21C2101FB04F1405ADFF8B4146A
:10419000E4B21C2202FB04F21144498888423ED05A
:1041A000DFF8A004E4B21C2101FB04F108444088BC
:1041B000401CDFF89014E4B21C2202FB04F211440C
:1041C0004880DFF88004E4B21C2101FB04F10844BC
:1041D0004088DFF87014E4B21C2202FB04F21144A0
:1041E000C988884208D30020DFF85814E4B21C22A2
:1041F00002FB04F211444880DFF84804E4B21C21B9
:1042000001FB04F108448068DFF83814E4B21C2292
:1042100002FB04F211444988405C2870012600200A
:1042200004F0E6F8300070BD70B504000D00002603
:10423000E4B2042C01DB0020A5E004F0D2F8DFF8A2
:104240000404E4B21C2101FB04F10844008ADFF8F5
:10425000F413E4B21C2202FB04F21144498A88429E
:104260004ED2DFF8E003E4B21C2101FB04F1084464
:10427000008A401CDFF8CC13E4B21C2202FB04F2DB
:1042800011440882DFF8BC03E4B21C2101FB04F1F5
:1042900008448089401CDFF8AC13E4B21C2202FB06
:1042A00004F211448881DFF89C03E4B21C2101FB75
:1042B00004F108448089DFF88C13E4B21C2202FB6D
:1042C00004F21144498A884208D30020DFF87413AD
:1042D000E4B21C2202FB04F211448881DFF864037B
:1042E000E4B21C2101FB04F108444069DFF85413D7
:1042F000E4B21C2202FB04F21144898945540126D0
:10430000DFF84003E4B21C2101FB04F1084480699A
:10431000002834D12000C0B200F036F80120DFF8C8
:104320002413E4B21C2202FB04F211448861E4B2BB
:10433000002C05D0022C13D00AD3032C18D01EE079
:10434000012240F22661DFF8E40203F0C3FF16E029
:10435000012240F22661DFF8D80203F0BBFF0EE035
:10436000012240F22661DFF8D00203F0B3FF06E03D
:10437000012240F22661DFF8C80203F0ABFF002003
:1043800004F036F8300070BD10B5C0B2002805D07A
:10439000022853D050D3032852D053E0DFF88C22A8
:1043A000DFF8A012C0B21C2303FB00F31944098AF2
:1043B000491EDFF89032C0B21C2404FB00F42344F1
:1043C0001982DFF88012C0B21C2303FB00F31944EA
:1043D000C989491C9B4BC0B21C2404FB00F4234434
:1043E000D9819849C0B21C2303FB00F31944C98941
:1043F000944BC0B21C2404FB00F423445B8A994212
:1044000007D300218F4BC0B21C2404FB00F42344CB
:10441000D9818C49C0B21C2303FB00F319444969BC
:10442000884BC0B21C2460431844C089095C89B21F
:10443000100003F078FF10BD7D4AB1E77E4AAFE778
:104440007F4AADE7F7E710B5C0B2002805D00228D3
:104450001AD017D3032819D01AE0744B7949C0B287
:104460001C2202FB00F211448989764AC0B21C2446
:1044700004FB00F42244D28991420AD0C0B2FFF773
:1044800083FF13E06A4BE9E76B4BE7E76C4BE5E72B
:104490000CE000216B4AC0B21C24604310448161CF
:1044A000002240F22661180003F014FF10BD000046
:1044B00081B0C0B2042863DAC0B2002805D0022857
:1044C00007D004D3032806D007E0584905E058492F
:1044D00003E0594901E05A49FFE70A888DF80020B6
:1044E00089888DF801109DF800100322114243D1F4
:1044F0005449C0B21C2202FB00F2895A491C514A9D
:10450000C0B21C2303FB00F3D1524E49C0B21C229F
:1045100002FB00F2895A4B4AC0B21C2303FB00F392
:104520001A44D288914206D30021464AC0B21C23C5
:1045300003FB00F3D1524349C0B21C2202FB00F23C
:10454000895A404AC0B21C2303FB00F31A44528824
:1045500091420FD03B49C0B21C2202FB00F2114431
:104560008968384AC0B21C235843105A9DF801206C
:104570000A5405E000BF03E0C0B2012800D100BF2B
:1045800001B07047C0B2002805D0022805D003D37F
:10459000032803D003E07047FDE7FCE7FBE7FAE7F9
:1045A000C0B204283DDA2749C0B21C2202FB00F247
:1045B0001144002935D00021224AC0B21C2303FB3C
:1045C00000F31A44918000211E4AC0B21C2303FB51
:1045D00000F3D15200211B4AC0B21C2303FB00F39D
:1045E0001A4451800021174AC0B21C2303FB00F378
:1045F0001A4411820021134AC0B21C2303FB00F3AA
:104600001A44918100210F4AC0B21C2303FB00F31E
:104610001A44D18100210B4AC0B21C2358431044D4
:10462000816170470000000000080140003801402F
:1046300000440040000C01400048004000100140D0
:10464000004C004094C000209CBA002034BB0020E5
:104650006893002074A3002044B10020D0C1002042
:10466000F0C5002004C6002070B4002200250023FD
:10467000002600240025CA7812F00F02CB78DB0652
:1046800001D58B781A430B781B0621D004680023D0
:1046900006E0CD78482D02D101259D4005615B1CC7
:1046A000082B14D2012515FA03F60D883540B542C2
:1046B000F5D19E000F25B540AC4312FA06F52C4308
:1046C000CD78282DE5D101259D404561E7E70460BF
:1046D0000B88FF2B26DD4468002320E0012513F121
:1046E000080615FA06F60D883540B54216D19E002B
:1046F0000F25B540AC4312FA06F52C43CD78282D92
:1047000004D1012513F10806B5404561CD78482D47
:1047100004D1012513F10806B54005615B1C082B87
:10472000DCD3446070BC70470022806889B20842C4
:1047300001D0012200E000221000C0B2704789B20F
:104740000161704789B241617047D2B2002A02D03C
:1047500089B2016101E089B24161704730B4002241
:10476000002400230024002802D5304A136801E009
:104770002F4A1368C0F3034482B210F44015B5F514
:10478000401F08D133F07063294C246834F0706402
:10479000274D2C6010E0C50206D5032515FA04F458
:1047A000A34353F0706307E0440DE4B2240112FA0E
:1047B00004F4A34353F07063C9B2002905D0410D3E
:1047C000C9B2090112FA01F10B43002802D51748BA
:1047D000036001E01648036030BC704710B400224B
:1047E0000F2211F00303DBB29B009A40114BC9B2B8
:1047F0008C1053F8243033EA02020E4BC9B28C10ED
:1048000043F824200B4AC9B28B1052F82320C0B2BF
:1048100011F00303DBB29B0098401043054AC9B274
:10482000891042F8210010BC704700001C000140B4
:1048300004000140080001405FF04430DFF89414A8
:104840000860DFF89404DFF8941408600020DFF8B3
:10485000901408605FF04430DFF8881408605FF05F
:104860004430DFF8841408600020DFF8801408600A
:10487000DFF87C04DFF87C1408605FF04430DFF878
:10488000781408600020DFF8741408605FF044308A
:10489000DFF86C1408605FF04430DFF868140860DB
:1048A0000020DFF8641408607047704780B5DFF8B7
:1048B0005C0403F014FE03F067FF01BD80B5012026
:1048C000DFF84C14086000F070F8DFF8480400F0DE
:1048D000C7FC03F086FF0FF2B5024FF4FA610C201B
:1048E00004F024F801BD10B50020DFF82C0400F01E
:1048F000B7FC00F097F86421012004F08FF900F074
:1049000063F8DFF81804007803280BDADFF80C04EA
:104910000478DFF80C04DFF80414097850F821005B
:10492000804700E00324DFF8F4030078E4B2844217
:10493000E7D1E0E738B50024002503F083FF050048
:1049400004F051FA002803D00120DFF8D8130860E2
:1049500000F04FFFDFF8D0134968884212D3DFF828
:10496000C4030068002802D1EDB2002D01D001245B
:1049700000E00024E4B2002C04D00020DFF8A413EF
:1049800008600025200032BD0000000080B5012233
:104990004FF40061DFF83C03FFF7D7FE642000F01E
:1049A000CCF8062004F069F801BD80B501224FF46F
:1049B0008071DFF82003FFF7C8FE192000F0BDF872
:1049C000072004F05AF801BD80B504F0B6FC0028B9
:1049D0000ED0DFF8580300F043FC0221032004F05E
:1049E000F5F80100062004F090F800F066F918E0F0
:1049F00004F0B0FC002814D0DFF8340300F030FCE1
:104A00000121032004F0E2F80100062004F07DF803
:104A100043F6982004F054F9012000F04BF900F01F
:104A2000C2F801BD80B5FFF749FF0120BB490870FE
:104A300001BD80B504F062FE00280AD103F011FF29
:104A4000002802D103F001FF01E003F002FF00F0B3
:104A500001F801BD00B593B0002001F05DFA684691
:104A600001F007FBB34800F0FBFB04F01AFF4FF422
:104A70007A7004F025F901F07DFF642004F020F93C
:104A800003F0E3FE03F0E5FE00224FF4807191484D
:104A9000FFF75BFE00224FF400618E48FFF755FEE2
:104AA000012240218F48FFF750FE012280218D48CE
:104AB000FFF74BFE002201218E48FFF746FE00F073
:104AC00050F8642004F0FCF805F05EF905F06DF98B
:104AD00004F005F9FFF7B0FE03F0DFFE002805D073
:104AE0004FF4967000F0E3F800F063F800208B4973
:104AF000087013B000BD10B500240AE000F04AF8B9
:104B0000FFF7D3FE05F064F9002003F071FCFFF716
:104B1000CDFE002C07D000F06CFE844201D30120B2
:104B200002E0002000E00120002803D003F08AFE0C
:104B30000028E3D000F02EF810BD10B5040000F0FE
:104B400058FE20187849086004E0002003F050FC6B
:104B500005F03EF900F04DFE734909688842F4D330
:104B600010BD38B5002400F015F80025EDB20D2D6C
:104B700003D10520322004F0A3F8EDB20D2D02D1AF
:104B8000641C0A2CEFDB002C03D10221002003F06F
:104B9000BCFF31BD80B5FFF7CDFE002802D001205B
:104BA00003F010FE01BD80B503F04FFE03F05CFE84
:104BB00001BD10B584B05FF4003005F09DF95FF4DD
:104BC0000030019000208DF8080008208DF80900C1
:104BD00001208DF80A0001A805F03AF929208DF886
:104BE000000000208DF8010000208DF80200012057
:104BF0008DF80300684605F092F901215FF0C0507E
:104C000005F08DFA012005F0F3FA012005F0E8F92E
:104C1000012005F0D0F9412005F0A5FA0028FAD0CE
:104C20004FF4807005F0E0F9012005F0E3F905F09C
:104C300099FB47F6FF7005F071FB05F08DFB012134
:104C4000022005F029FB05F087FB05F04CFB040072
:104C500000F02AF8001905F071FB05F07DFB1FBD7F
:104C6000E0B55FF4003005F047F95FF400300190E3
:104C700000208DF8080008208DF8090000208DF82C
:104C80000A0001A805F0E4F829208DF800000020B2
:104C90008DF8010000208DF8020000208DF803003F
:104CA000684605F03CF907BD234800687047224973
:104CB0000860704721490870704780B501F05AFEBE
:104CC000002003F07FFD01BD1D48007870471C499E
:104CD0000870704700080140411444440408014032
:104CE0000C080140000C0140040C01400C0C014078
:104CF0001144444400100140041001400C100140D4
:104D000000140140041401400C140140002401402F
:104D10002CC70020EC08010858050108CCC700206A
:104D2000A40A010828C7002038C600208402010810
:104D3000B402010804090108740300208403002060
:104D4000CBC7002080B50020DFF894130870062040
:104D500003F012FE01BD10B50400002001F07DFA41
:104D6000010E2170010C6170010AA170E07010BD8C
:104D700010B598B000918DF804005522DFF8641347
:104D80000DF10504200000F07DFB6946002000F0D5
:104D900007F8012801D1012000E0002018B010BD63
:104DA00038B50400DFF84003E4B20C2202FB04F241
:104DB00010448079DFF83023E4B20C2303FB04F3C2
:104DC0001A445279904262D2DFF81C03E4B20C22FA
:104DD00002FB04F28558DFF81003E4B20C2202FB58
:104DE00004F21044C079DFF80023E4B20C2303FB83
:104DF00004F31A44127950430544DFF8EC02E4B29C
:104E00000C2202FB04F210440279280000F03AFB65
:104E1000DFF8D402E4B20C2101FB04F108448079EC
:104E2000401CDFF8C412E4B20C2202FB04F211446D
:104E30008871DFF8B402E4B20C2101FB04F10844EC
:104E4000C079401CDFF8A012E4B20C2202FB04F28D
:104E50001144C871DFF89002E4B20C2101FB04F1A7
:104E60000844C079DFF88012E4B20C2202FB04F29D
:104E700011444979884208D10020DFF86C12E4B26D
:104E80000C2202FB04F21144C871012000E0002052
:104E900032BD10B4DFF85012C0B20C2202FB00F297
:104EA00011448979002919D0DFF83C12C0B20C22D4
:104EB00002FB00F28958DFF83022C0B20C2303FB5A
:104EC00000F31A44127ADFF82032C0B20C24604397
:104ED0001844007900FB02F0084400E0002010BCF8
:104EE0007047DFF80412C0B20C2202FB00F211443A
:104EF000897900293BD0DFF8F011C0B20C2202FB07
:104F000000F211448979491EDFF8DC21C0B20C237C
:104F100003FB00F31A449171DFF8CC11C0B20C22EC
:104F200002FB00F21144097A491CDFF8BC21C0B22F
:104F30000C2303FB00F31A441172DFF8AC11C0B26A
:104F40000C2202FB00F21144097ADFF89C21C0B266
:104F50000C2303FB00F31A445279914207D100213C
:104F6000DFF88421C0B20C2358431044017270470B
:104F70005E49097814290ADA5D495C4A1278885436
:104F80005A480078401C59490870012003E0142059
:104F900056490870002070475148007870475049C2
:104FA0000870704710B504000020FFF772FF010081
:104FB00000290AD00868002807D0E4B2002C01D1EB
:104FC000012000E00020096888470020FFF789FFE2
:104FD0000020FFF7E4FF10BD10B50124002809D020
:104FE0000079052805D100F078F8012803D10024C4
:104FF00001E000E00024200010BD012141750121E5
:1050000081750021C1750121017600218176002181
:10501000C1760121417600210177012141770121EB
:1050200081770021C177002180F82010704710B5EA
:105030000020FFF72EFF04002000FFF7CDFF01281E
:105040001DD12E48FFF787FE2C48FFF7D6FF2B49CE
:10505000200001F0F9FC01280AD10120FFF79FFF91
:1050600000F0C7FB00F51C501030254908600CE02B
:105070000020FFF736FF0020FFF791FF05E000203A
:10508000FFF72FFF0020FFF78AFF10BD002019490E
:10509000087000201849087000201A490870002084
:1050A00017490860704780B5FFF776FF002802D0E7
:1050B000012805D008E0FFF7E9FFFFF7B8FF03E09C
:1050C0000020FFF76FFFFFE701BD80B5FEF761FD30
:1050D0000A2801DBFFF7E7FF01BD0020704770479A
:1050E000D0C70020D0020020B8020020D1C7002085
:1050F000DCC50020CDC70020CEC7002074C400202E
:1051000084C70020CFC7002010B4019C002C02D01F
:10511000521C914216D2002B0AD0CA08825CDFF8DA
:105120009C3011F007041B5D1A43C908425409E082
:10513000CA08825CDFF8883011F007041B5D1A4052
:10514000C908425410BC7047CA08805CDFF86C2064
:1051500011F00701515C084201D0012000E000205D
:10516000C0B2704770B4002301E0401C5B1CDC003F
:105170008C421FD20478002CF7D0002400E0641C7D
:10518000082CF2D2DFF834502D5D06783542F6D087
:10519000002A05D00278DFF828502D5D2A400270E1
:1051A00014EBC300884202D214EBC30004E05FF0AA
:1051B000FF3001E05FF0FF3070BC7047680B010802
:1051C000700B010862F30F2262F31F42401810F0C7
:1051D000030308D0C91A1FD3DB0748BF00F8012D0D
:1051E00028BF20F8022D130030B41446154610399C
:1051F00028BF20E93C00FAD8490728BF20E90C0065
:1052000048BF40F8042D890028BF20F8022D48BF70
:1052100000F8012D30BC7047C91818BF00F8012DE7
:10522000CB0728BF00F8012D704710B401E0491CDE
:10523000521E6AB10B7804789C4205D010BC2CBF7A
:1052400001204FF0FF30704710F8013B002BEED1EA
:1052500010BC002070470268531C03601170704737
:105260000EB400B582B003A9009102466B4601213D
:10527000034878440A3005F0C7FA06BC5DF810FB15
:105280009DB6000000F10103810704D010F8011B56
:1052900089B18107FAD10268B2F10131914311F06D
:1052A000803F04BF50F8042FF6E710F8011B11B13E
:1052B00010F8011BFBE7C01A7047100001B58B07FF
:1052C00018D1121F21D351F8043BA3F1013C2CEA61
:1052D000030C1CF0803C04BF40F8043BF1E79CFA4F
:1052E0008CFCBCFA8CF1C1F118018B40CB4040F82A
:1052F000043B13E0042A09D311F8013B521E00F8C5
:10530000013B5BB18B07F7D1DBE7121D5AB111F8F6
:10531000013B521E00F8013B03B1F8D111001CBF44
:105320000022FFF753FF01BDFEB413000022002549
:10533000002407E00E781700FFB2FF00BE40751989
:10534000491C521C16001F00B6B2BFB2BE42F1D3B8
:1053500000210CE00A22B5FBF2F302FB13526B466C
:10536000C9B25A540A22B5FBF2F5641C491C002D3F
:10537000F0D1E4B22200002109E06B46E4B22344FC
:1053800013F8013C3033C9B24354641E491CE4B2E3
:10539000002CF2D1100080B2FEBC704700210178D1
:1053A0006139062904D201785739C9B209010BE0E5
:1053B00001783A2904DB01783739C9B2090103E0E1
:1053C00001783039C9B209014278613A062A03D21C
:1053D00040785738411808E042783A2A02DB407892
:1053E000373801E04078303841180800C0B27047C3
:1053F000002100E0491C02782C2A06D00278002AFD
:1054000003D0401CC9B2FF29F4D10800C0B27047D4
:1054100030B40022002300E05B1C0478002C0DD087
:1054200014000D00E4B2EDB2AC4207D004782C2C8D
:1054300000D1521C401CDBB2FF2BEDD130BC7047B9
:1054400080B2042190FBF1F201FB1201002916D178
:1054500080B2642190FBF1F201FB120100290CD112
:1054600080B24FF4C87190FBF1F201FB12000028EA
:1054700001D1012004E0002002E0012000E0002032
:10548000704755AA62B38B0708D0521E11F8013B32
:1054900000F8013B00F024808B07F6D1830740F031
:1054A000208000BF103A07D330B4B1E83810103A6A
:1054B000A0E83810F9D230BC530724BFB1E8081077
:1054C000A0E8081044BF51F8043B40F8043BD20761
:1054D00024BF31F8022B20F8022B44BF0B78037055
:1054E0007047083A07D3B1E80810083A40F8043B7F
:1054F00040F804CBF7D25307E4E700002DE9F0476A
:1055000082B006000F00904699460C99404680B242
:1055100000F080FB05000A9C002D6DD0286B1FFA5F
:1055200088F800EB8800B0F1040A5FEADA0A5FEA63
:10553000CA0A1FFA88F8CDF800800D9B22003900B6
:10554000280000F0DDFA4A463100504605F0F8F92F
:1055500028600B98002800D0056005F01BFADFF8E2
:10556000C0070068401CDFF8B8170860DFF8B40710
:10557000006800280AD1DFF8AC070560DFF8A00753
:105580000068012810D100F0D8FA0DE0DFF8980784
:105590000068002808D1DFF88C070068C06A8442E0
:1055A00002D3DFF880070560DFF880070068E96A4A
:1055B000884203D2E86ADFF874170860DFF87007E2
:1055C0000068401CDFF868170860DFF868070068AB
:1055D000E96A884203D2E86ADFF858170860291D93
:1055E000DFF85407EA6A14235A43104405F018FA06
:1055F000012505F0D8F901E05FF0FF35012D0CD150
:10560000DFF824070068002807D0DFF818070068D3
:10561000C06AA04201D205F0B8F92800BDE8F687BB
:1056200010B504000020002C10D000F072F8DFF854
:10563000140700682418DFF8EC060068001D05F068
:1056400018FA200000F0C7FA00F06BF8002801D12A
:1056500005F09BF910BD38B5040005F09BF9DFF8A3
:10566000C4060068844200D10024002C03D1DFF876
:10567000B406056800E02500281D05F0FAF9A86ABF
:10568000002803D015F1180005F0F3F9291DDFF803
:10569000B80605F0C5F905F086F9002C16D1DFF83B
:1056A00088060068002802D005F06FF90EE0DFF8E8
:1056B00098060068DFF868160968884204D100205F
:1056C000DFF86016086001E000F029F931BD00B58F
:1056D00085B000200390002002900020019000205F
:1056E000009000238022DFF86C160FF20540FFF7D0
:1056F00005FF01280BD102F074FE0120DFF8281607
:1057000008600020DFF83C16086005F026F905B0B7
:1057100000BDDFF83C060068401CDFF83416086066
:10572000704770B5002405F035F9DFF824060068ED
:10573000401EDFF81C160860DFF814060068002819
:1057400053D1DFF8DC05006800284ED0002525E0A5
:10575000DFF8F805C068C66816F1180005F089F989
:10576000301D05F086F9DFF8CC050068F16A884243
:1057700003D2F06ADFF8BC150860311DDFF8B80508
:10578000F26A14235A43104405F04AF9F06ADFF82C
:1057900094150968C96A884200D30125DFF8AC0571
:1057A00000680028D4D1DFF8B0050068002809D1CE
:1057B0000DE000F028F8DFF8A0050068401EDFF8D3
:1057C00098150860DFF8900500680028F1D1012DD8
:1057D00004D0DFF888050068012806D101240020E4
:1057E000DFF87815086005F0D0F805F0DCF8200047
:1057F00070BD10B502F0F5FDDFF848150C6802F039
:10580000F7FD200010BD10B5DFF844050068002842
:1058100074D1DFF830050068401CDFF828150860F7
:10582000DFF820050068002827D1DFF8340500687C
:10583000DFF830150968DFF828251160DFF8241536
:105840000860DFF824050068401CDFF81C150860BC
:10585000DFF80C0500680068002805D15FF0FF3014
:10586000DFF80815086008E0DFF8F4040068C06895
:10587000C4686068DFF8F4140860DFF8C8040068E2
:10588000DFF8E8140968884241D31CE0201D05F0C8
:10589000F0F8A06A002803D014F1180005F0E9F828
:1058A000DFF890040068E16A884203D2E06ADFF81A
:1058B00084140860211DDFF88004E26A14235A432F
:1058C000104405F0ADF8DFF898040068006800287F
:1058D00005D15FF0FF30DFF89414086017E0DFF8BF
:1058E00080040068C068C4686068DFF858140968FC
:1058F0008142CBD2DFF87414086008E0DFF8580466
:105900000068401CDFF85014086003F0F1F9DFF87C
:1059100048040068002801D103F0EAF910BD80B501
:10592000DFF82C040068002804D00120DFF82C14D4
:10593000086052E0DFF8EC030068006BDFF8E41366
:1059400009680968884209D3DFF8D803006810F1B4
:105950003401DFF8D003006803F0C5F91422DFF842
:105960001014DFF8C0030068006B05F095F80028FC
:1059700011D0DFF8B003006810F13401DFF8A403A0
:10598000006803F0B0F906E0DFF8A8030068401EE5
:10599000DFF8A0130860DFF89C030068DFF89813B5
:1059A0001422504308580028EED0DFF88C03DFF8AB
:1059B00084130968142251430844416849684160CE
:1059C000416810F10802914202D141684968416082
:1059D0004068C068DFF84C13086001BD10B50C00CA
:1059E000DFF840130968183105F028F8DFF83403B0
:1059F0000068001D05F03DF814F1010F07D1C948FA
:105A00000068011DDFF8400305F00AF805E0DFF843
:105A100034030068201800F0DEF810BD10B5C0682F
:105A2000C46814F1180005F024F8C948006800287B
:105A300013D1201D05F01DF8BE480068E16A8842B8
:105A400002D2E06ABB490860211DBB48E26A142308
:105A50005A43104404F0E4FF04E014F11801BB4879
:105A600004F0DEFFE06AAF490968C96A884201D3E1
:105A7000012000E0002010BDBB4909680160B14968
:105A800009684160704738B504000D0004F082FFDA
:105A9000286810F1010F01D100241FE0B24800680E
:105AA0002168884206D0A74800686168884201D30F
:105AB000012413E0A34800686168401A29688842FD
:105AC0000BD228689F490968401A61680818286045
:105AD0002000FFF7D1FF002400E0012404F063FF61
:105AE000200032BD01209D49086070470000000081
:105AF00080B500F045F804F048FF03F0F5F8F8E74A
:105B000038B504001500102214F13400FFF7D6FB5D
:105B1000002084F84300052D00D30425E562656468
:105B2000201D04F07AFF14F1180004F076FF2461C0
:105B3000D5F10500A061646231BD10B5002407E015
:105B40007D48142101FB04F1084404F057FF641C54
:105B5000052CF5D3874804F051FF874804F04EFF29
:105B60007A4804F04BFF754804F048FF764804F08B
:105B700045FF80487A4908607F487A49086010BD2F
:105B800010B51BE00024FFF7CCFD002C16D104F06B
:105B900001FF6A48C068C468201D04F06AFF6048BD
:105BA0000068401E5E49086065480068401E644900
:105BB000086004F0F8FE200000F04FF8604800682C
:105BC000002807D0FFF7A5FD5C4800680028D9D160
:105BD0000124D8E710BD10B50400524800684460A5
:105BE00058480068844207D24E480068011D5D484D
:105BF000006804F023FF0CE04A480068011D584883
:105C0000006804F01BFF59480068844201D25748DD
:105C1000046010BD70B504000D00482004F06EFF54
:105C20000600002E17D0002D05D1A4B2A00004F06C
:105C300065FF0500FFE73563306B002804D13000B5
:105C400004F0C5FF002606E0A4B2A100A522346B33
:105C50002000FFF7B7FA300070BD10B50400206BCC
:105C600004F0B5FF200004F0B2FF10BD2D4800681D
:105C7000704710B50400002C2FD0E06A294909684C
:105C8000C96A884229D227480068C06AD0F1050055
:105C9000A06160692849E26A14235A43114488428A
:105CA00017D1201D04F0E5FE1E480068C06AE062BE
:105CB00020480068E16A884202D2E06A1D49086013
:105CC000211D1D48E26A14235A43104404F0A8FE23
:105CD00003E014480068C06AE06210BD10B504001B
:105CE000002C1CD0E06A616C884218D0201D04F0A2
:105CF000C0FE606CE062E06AD0F10500A0610D4872
:105D00000068E16A884202D2E06A0A490860211DFF
:105D10000948E26A14235A43104404F081FE10BD7E
:105D20005CC700204CC700206CC7002064C700205F
:105D300080C7002068C700206CC10020B4C50020C7
:105D400058C7002060C70020C8C50020A0C500209B
:105D500070C70020C00B010874C7002078C700205E
:105D600050C7002054C700207CC70020B402002088
:105D70009009010878C500208CC500200CB41CB522
:105D8000044604A801900A46009401AB69460748FE
:105D90007844183004F038FD009A00211170002872
:105DA0005CBF0098001B16BC5DF80CFBABF4FFFF5A
:105DB000002801D1002005E001780902407841184F
:105DC000080080B27047002901D1002005E00200E0
:105DD00092B2120A0A7048700120704780B5002004
:105DE00004F089FF01BD7CB504000025002C01D121
:105DF000002050E016220021200005F07EF8142239
:105E00002100280080B205F0E7F8050020786178CD
:105E100011EB00204AF2A551884206D1ADB2207D97
:105E2000617D11EB0020854234D01422DFF8241B61
:105E3000DFF8246B3000FFF725FBDFF8200BFDF7C0
:105E40000FFF1422DFF8101B280080B205F0C4F801
:105E50000500280080B2000ADFF8FC1A0875DFF898
:105E6000F80A457500F07CFDDFF8EC1A84B068464E
:105E70001822FFF717FB0FBC00F00EF81622DFF810
:105E8000D81A2000FFF7FEFADFF8740B00F067F86D
:105E9000002000E0012076BD0FB400B587B00020DF
:105EA000142208A980B205F097F8010089B2090A06
:105EB0008DF834108DF83500002004F01CFF6420AC
:105EC00002F0FEFE1622002108A804F066FF6420FE
:105ED00002F0F6FE16220021684605F00EF81622A2
:105EE000694608A804F0D8FD002801D1012000E08F
:105EF000002007B05DF814FB00B583B0DFF80C1B81
:105F00008873DFF8081B84B068461822FFF7CAFAC6
:105F10000FBCFFF7C1FF07BDDFF8F00A807B7047B9
:105F200080B500204822DFF8D81A80B205F054F876
:105F3000010089B2090ADFF8C82A82F84810DFF8A0
:105F4000C01A81F849004FF4805004F0D4FE4A2270
:105F50004FF48051DFF8A80A04F01FFF01BD30B5EF
:105F60008FB0040000254822DFF8A41A2000FFF7B4
:105F700089FA48222100280080B205F02DF805009A
:105F8000280080B2000A84F8480084F849502100B3
:105F900084B068464A22FFF775FA0FBC00F00CF88F
:105FA0000FB030BD80B50021002801D1002002E0F3
:105FB000FFF7D5FF012002BD0FB410B594B000204B
:105FC000482216A980B205F007F8010089B2090A33
:105FD0008DF8A0108DF8A100482216A9DFF8204AFC
:105FE0002000FFF74FFA4FF4805004F084FE642045
:105FF00002F066FE4A224FF4805116A804F0CDFE4E
:10600000642002F05DFE4A224FF48051684604F09D
:1060100074FF4A22694616A804F03EFD002801D10B
:10602000012000E0002014B010BC5DF814FB70B536
:1060300082B006000C000025DFF8DC09FFF722F92A
:106040000500DFF8D419300004F0F0FFDFF8C409D0
:1060500090F820008DF80000DFF8B809C07F8DF8B7
:106060000100022269462000FFF75EF92800C0B255
:1060700076BD10B504004A22DFF898192000FFF71A
:1060800001FA10BD80B5DFF88C09FFF768FF01BD8C
:1060900070B5002801D10020DEE00178322973D1EB
:1060A00081780A22C37802FB01311039C9B2042277
:1060B00091FBF2F302FB1312002A0CD0DFF85C29EB
:1060C00003790A24457904FB035302EB4302A2F24D
:1060D000224212880BE0DFF8442903790A2445792B
:1060E00004FB035302EB4302A2F20A4212888379B3
:1060F0000A24C57904FB035340F211241B1B9A1890
:10610000C9B240F26D130C00E4B2641E042594FB86
:10611000F5F4641C03FB014192B25118DFF8002929
:106120005143027A0A23447A03FB0242B2F5047215
:106130004FF46163847A0A25C67A05FB0464B4F5DA
:1061400004743C256C4303FB0242037B0A24407B1E
:1061500004FB0300B0F5047084180C1940F2B2750A
:1061600003E0DFF8C00804196D1CADB2B5F5FA6F95
:1061700071DA280080B2FFF763F90028F1D004F14A
:10618000F17414F50544EFE781780A22C37802FB25
:1061900001315639C9B2042291FBF2F302FB13120A
:1061A000002A0CD0DFF8742803790A24457904FB0F
:1061B000035302EB4302A2F2224212880BE0DFF803
:1061C0005C2803790A24457904FB035302EB43025C
:1061D000A2F20A42128883790A24C57904FB035388
:1061E00040F211241B1B9A18C9B2002911D0C9B260
:1061F00040F26D130C00E4B2641E042594FBF5F428
:10620000641C03FB014192B25118DFF8142851437A
:1062100004E092B2DFF8081801FB02F1027A0A23C7
:10622000447A03FB0242B2F504724FF46163847A4C
:106230000A25C67A05FB0464B4F504743C256C4356
:1062400003FB0242037B0A24407B04FB0300B0F5FE
:10625000047084180C19200070BDF0B58DB002A830
:1062600004F056FF9DF80800012840F0B580DFF8E3
:10627000B8070078002850D19DF809004FF47A71D2
:106280009DF80A2064235A4301FB00209DF80B105F
:106290000A2202FB01009DF80C10081800F53C5082
:1062A000B0309DF80D100A229DF80E3002FB01312E
:1062B00010399DF80F200A239DF8104003FB02427D
:1062C000103A9DF811300A249DF8125004FB035334
:1062D000103B9DF813400A259DF8146005FB0464EB
:1062E000103C9DF815500A269DF8167006FB0575A2
:1062F000103DEDB20195E4B20094DBB2D2B2C9B266
:1063000080B204F0EBF803F0EEFFDFF8201708602E
:106310000120DFF81417087059E0DFF81007006853
:10632000002854D003F0DFFFDFF800170968401A97
:10633000B0F5167F4BD99DF809004FF47A719DF89E
:106340000A2064235A4301FB00209DF80B100A2207
:1063500002FB01009DF80C10081800F53C50B0300D
:106360009DF80D100A229DF80E3002FB0131103904
:106370009DF80F200A239DF8104003FB0242103ABB
:106380009DF811300A249DF8125004FB0353103B72
:106390009DF813400A259DF8146005FB0464103C29
:1063A0009DF815500A269DF8167006FB0575103DE0
:1063B000EDB20195E4B20094DBB2D2B2C9B280B2C0
:1063C00004F08CF803F08FFFDFF8601608600DF121
:1063D0000900FFF75DFE09E007A804F00DF90028A9
:1063E00003D107A8FFF754FE00E000200DB0F0BD78
:1063F00080B54FF4005004F07EFC01BD0FB430B501
:1064000085B0269C002C01D100203DE01A210022FD
:106410002000FEF7D7FE04220DF17E01251D280085
:10642000FFF730F804220DF1830114F1080528006C
:10643000FFF728F8FFF711FF2599002905D16846D5
:10644000FDF720FC6846FFF723FE010E2170010CCA
:106450006170010AA170E070042222A914F10C05F8
:106460002800FFF70FF8022223A914F111052800D4
:10647000FFF708F89DF88F00E0749DF891006075B3
:106480009DF830002075012005B030BC5DF814FB8C
:1064900010B584B00A224FF40051684604F02DFD77
:1064A0009DF80000FF280CD19DF80100FF2808D1BD
:1064B0000A210022DFF878452000FEF783FE002045
:1064C00060E001A8FFF774FCDFF8641588800DF127
:1064D0000200FFF76DFCDFF85815488002A8FFF7AF
:1064E00067FCDFF84C1508810DF10600FFF760FC32
:1064F000DFF83C15C8806846FFF75AFCDFF8301516
:106500000880DFF82C058088812809DB0020DFF86F
:10651000201588800020DFF818154880002031E021
:10652000DFF80C054088932805DB0020DFF8001514
:106530004880002026E0DFF8F8040089812809DB84
:106540000020DFF8EC1408810020DFF8E414C88094
:10655000002017E0DFF8D804C088922805DB00206F
:10656000DFF8CC14C88000200CE0DFF8C4040088F9
:10657000B0F5924F05DD0020DFF8B414088000204C
:1065800000E0012004B010BDDFF8A40400887047CB
:1065900010B50400002C01D100200AE04FF4005097
:1065A00004F0A9FB0A224FF40051200004F0F5FB8F
:1065B000012010BD10B50400DFF87404C088002865
:1065C0002BD1DFF86C0400894FF48051484310F55B
:1065D000405004F090FBDFF858040088B0F5924F6B
:1065E0001BD1DFF84C0400889238DFF8441408808F
:1065F000DFF83C0400897F2804DB0020DFF830143A
:10660000888006E0DFF828040089401CDFF82014A9
:1066100088800020DFF8181448801A22DFF8100460
:1066200000894FF48051484310F54050DFF80014C2
:10663000C9881A2303FB0101200004F0AEFBDFF838
:10664000F003C088401CDFF8E813C880DFF8E003DF
:10665000C08892280ADB0020DFF8D413C880DFF856
:10666000D0030089401CDFF8C8130881DFF8C0039D
:106670000089802807DB0020DFF8B41308810020A0
:10668000DFF8AC13C880DFF8A8030088B0F5924F9C
:1066900007DADFF89C030088401CDFF894130880B9
:1066A00010E04FF49240DFF888130880DFF8800391
:1066B0000089DFF87C138880DFF87403C088DFF876
:1066C00070134880012010BD10B5DFF864130988ED
:1066D000002907D00100C9B2DFF85423128889B21B
:1066E000914208D30A210022DFF844432000FEF73C
:1066F00069FD002073E0DFF838134988C0B2411803
:10670000DFF82C235180DFF82813498892290ADB0F
:106710000021DFF81C235180DFF814138988491CFD
:10672000DFF80C239180DFF808138988802909DBC2
:106730000020DFF8FC1288800020DFF8F412488087
:1067400001204CE0DFF8E8120988002920D0DFF8AA
:10675000E0120988C0B2081ADFF8D4120880DFF806
:10676000D0020088002813D10020DFF8C4128880EE
:106770000020DFF8BC1208810020DFF8B412488046
:106780000020DFF8AC12C880FFF732FE012026E0BF
:10679000DFF89C028088DFF89812098988421DD1B1
:1067A000DFF88C024088DFF88812C988884215D14A
:1067B0000020DFF87C1208800020DFF87412888047
:1067C0000020DFF86C1208810020DFF86412488096
:1067D0000020DFF85C12C880FFF70AFE012010BD20
:1067E0002DE9F04104000D005FF00008DFF84002E1
:1067F0004688DFF83C028788DFF8340200882900E9
:10680000C9B289B2884202D2DFF824020588EDB20B
:10681000DFF81C0240884019922801DBD6F192056E
:10682000EDB21A2000FB05F100222000FEF7CAFCA1
:106830005FF0000819E01A22BFB24FF4805000FB4D
:1068400007F010F54050B6B25FFA88F818EB060171
:106850001A2303FB01015FFA88F81A2000FB08F0F5
:10686000204404F04AFB18F101085FFA88F8B6B238
:1068700016EB0800922805DA40462900C0B2C9B2DA
:106880008842D8D32800C0B2BDE8F08180B55FF45B
:10689000042004F030FA01BD80B5002801D10020A9
:1068A00005E024225FF4042104F027FB012002BD4F
:1068B00010B582B0002402225F49684604F01DFB37
:1068C0009DF80000552804D19DF80100AA2800D1A8
:1068D00001242000C0B216BD80B558480088ADF82C
:1068E0000000554804F007FA02225349684604F0B4
:1068F00054FA01BD10B52022514C01002000FEF7D2
:10690000C1FD10BD10B504004D48007801280AD023
:106910004B480078022806D0202100222000FEF7F4
:1069200051FC002005E0202245492000FEF7AAFD89
:10693000012010BD80B520225FF48411404804F08E
:10694000DCFA01BD80B520225FF484113C4804F0DC
:1069500024FA01BDF80100204CC500204EC50020DE
:1069600080B5FFF73BFAFFF7DBFAFFF741FDFFF7D2
:106970008DFF01BDE0B569462D480088FFF723FA79
:1069800001A92B488088FFF71EFA0DF10201284863
:106990004088FFF718FA02A925480089FFF713FA83
:1069A0000DF106012248C088FFF70DFAFFF7CAFF74
:1069B0006846FFF7EDFD07BD10B501241348FFF74A
:1069C00012FA002800D100240D48FFF7EBFA002846
:1069D00000D10024FFF75CFD002800D100241548F9
:1069E000FFF75AFF002800D10024FFF7A3FFFFF7AD
:1069F0005FFF002801D1FFF76FFF200010BD0000EE
:106A0000D0C200200F490870704700004CC500201C
:106A10000C020020D0C20020F1C200205402010864
:106A2000805101008033E101C4C7002000C700206D
:106A300054C600202CC400200070100082540008AE
:106A400098C40020C3C7002070B504000D004FF4A7
:106A50007A710022DFF8006D3000FEF7B3FB0020F2
:106A6000DFF8F81C08804FF47A73DFF8EC2C29006B
:106A7000200000F088FCDFF8E41C0880DFF8DC0C64
:106A80000088B0F57A7F08DDDFF8D00C0188DFF8E8
:106A9000D00CFEF7E5FB002013E0DFF8C00C008807
:106AA000002805D1DFF8BC0CFEF7DAFB002008E077
:106AB0000022DFF8A80C0188DFF89C0C05F0C0FC70
:106AC000012070BD32B5ADF58A6D04000DF58A6206
:106AD0006946200001F0E2FA002812D115E0BDF865
:106AE0005014684600F015F80500691E89B2684622
:106AF00001F027FBADB22C44BDF85004401BADF8AB
:106B00005004BDF850040028E9D10DF5806D15B092
:106B100030BD0021817811F00101C9B2002908D0EF
:106B20008178C9B24908C9B2C07811EBC011091DFA
:106B300004E08078C0B24108C9B2C91C080080B224
:106B4000704780B55FF4042004F0D5F801BD80B52E
:106B500024225FF40421DFF8300D04F0CEF901BDEA
:106B600080B5FFF7EEFF24225FF40421DFF8180D53
:106B700004F013F901BDF0B58FB005000E00A87840
:106B8000E97811EB00270024DFF8000DFFF771FA18
:106B900028788DF8000068788DF80100DFF8F00C97
:106BA000FEF75EFBDFF8E40C00789DF800108842E9
:106BB00006D1DFF8D80C40789DF8011088420ED03D
:106BC000DFF8D00CFEF74CFB01249DF80000DFF845
:106BD000BC1C08709DF80100DFF8B01C4870BFB203
:106BE000012F15D0C0F0AB80032F13D011D3052F88
:106BF00022D020D3072F39D01FD3092F47D036D327
:106C00000B2F51D04FD30D2F00F0808060D396E032
:106C100095E094E0B6B2072EC0F29E802879DFF8A6
:106C20006C1C48736879DFF8641C8873A879DFF8F6
:106C30005C1CC87383E082E081E0B6B2092EC0F22A
:106C40008B802879DFF8441CC8746879DFF83C1C15
:106C50000875A879DFF8341C4875E879DFF82C1C32
:106C60008875287ADFF8241CC87568E067E0B6B23A
:106C7000072E71DB2879DFF8141C08746879DFF8B7
:106C80000C1C4874A879DFF8041C887457E0B6B26D
:106C9000062E61DB2879DFF8F41BC8726879DFF80B
:106CA000EC1B08734BE04AE0B6B2082E54DB28799F
:106CB000DFF8D81B08766879DFF8D01B4876A8790A
:106CC000DFF8C81B8876E879DFF8C01BC87636E0A5
:106CD000B6B22A2E40DB2879DFF8B01B8877022273
:106CE000691DDFF8146D3000FEF7CCFB1022E91DA2
:106CF000DFF8086D3000FEF7C5FB142215F117010F
:106D0000DFF8FC5C2800FEF7BDFB18E0B6B2032EEE
:106D100022DB6879182811D2A8793C280ED228796C
:106D2000DFF8681B81F845006879DFF8601B81F89F
:106D30004600A879DFF8541B81F84700FFE7E4B26A
:106D4000002C09D0DFF8441B84B068464C22FEF7C3
:106D5000A9FB0FBCFFF730F90FB0F0BD80B589B2C9
:106D600002290EDB0178407810EB0120DFF8A01D2E
:106D7000088001210A2001F029FF0100062001F00E
:106D8000C4FE01BD2DE9FC47040000275FF00008A8
:106D900000255FF0000900205FF000085FF0000AA6
:106DA000002694F800A00422611C6D462800FEF71E
:106DB00069FB6079A179090411EB0060E17910EBBE
:106DC0000120217A0E18607AA17A11EB0027E07A6F
:106DD000217B11EB0028607BA17B11EB00251FFAC2
:106DE00088F84146DFF82C0DFEF73AFA002001F052
:106DF000C7F9DFF8940AC07ADFF88C1A097B11EB27
:106E0000002080B2411C1FFA88F841450BD01FFAC0
:106E100088F8B8F1000F06D080B2411CDFF8F80CFA
:106E2000FEF71EFA0AE23800414680B289B2884273
:106E300006D2BFB23900DFF8E40CFEF711FAFDE12B
:106E4000DFF8440A407BDFF8401A897B090411EB24
:106E50000060DFF8341AC97B10EB0120DFF8281A34
:106E6000097C11EB0009BFB2002F00F0E7815FFA47
:106E70008AFABAF1010F05D11FFA88F8B8F1000FAC
:106E800000F05A811FFA88F8B8F1000F25D10120CF
:106E9000DFF8F4190870380080B2000ADFF8E8194A
:106EA0004872DFF8E4098772DFF8DC0940789DF862
:106EB0000010884206D1DFF8D00980789DF80110D3
:106EC000884206D00320DFF8C0190870FFF739FEAA
:106ED000B4E1012002F08CFCB0E14046390080B200
:106EE00089B2884240F09F800027DFF89C0980F833
:106EF00000A0022DC0F0A281032D56D35FF0000840
:106F00002A0014F10F01404680B204F065F8804673
:106F100004EB0500C07B04EB0501097C11EB0027A5
:106F200015EB09092A0092B219F50520411B14F14D
:106F30000F0003F032FF642001F0C2FE2A0092B27B
:106F400019F50520411B14F10F0003F0D6FF0020B6
:106F50002A0014F10F0180B204F03EF840450CD035
:106F600042460100DFF8B80BFEF77AF90320DFF89C
:106F700018190870FFF7E5FD60E1DFF80C0980F8EB
:106F800010905FEA1920DFF80019C8735FEA194012
:106F9000DFF8F41888735FEA1960DFF8EC184873BB
:106FA0004946DFF8800BFEF75BF9FFF7D9FD5FF08C
:106FB00000085FF0000918E0012219F5052101A879
:106FC00003F09BFF012201A9404680B204F019F8AA
:106FD00080464FF47A70B9FBF0F100FB1190002865
:106FE00001D102F0F5FE19F10109B145E4D347459D
:106FF0000CD042463900DFF8300BFEF731F90320A0
:10700000DFF884180870FFF79CFD17E13900DFF8FE
:107010001C0BFEF725F94FF47A7001F051FE0020A9
:1070200001F0D0FB0AE1DFF8600880F800A0DFF88B
:1070300058088772BFB2380ADFF84C184872DFF878
:10704000480880F80C801FFA88F85FEA1820DFF8FB
:107050003818C8720422611CDFF8D46A3000FEF7C9
:1070600011FA5FF000082A0014F10F01404680B2C7
:1070700003F0B2FF804615EB0909B9F57C3F08D94A
:107080004946DFF87C0DFEF7EBF8002002F0B0FB7C
:10709000D4E0002D42D02A0092B219F50520411B00
:1070A00014F10F0003F079FE642001F009FE2A00BC
:1070B00092B219F50520411B14F10F0003F01DFFDA
:1070C00000202A0014F10F0180B203F085FF404533
:1070D0000CD042460100DFF8480AFEF7C1F8032051
:1070E000DFF8A4170870FFF72CFDA7E0DFF898077A
:1070F00080F810905FEA1920DFF88C17C8735FEAF8
:107100001940DFF8841788735FEA1960DFF8781791
:1071100048734946DFF80C0AFEF7A2F8FFF720FD96
:10712000012002F065FB01210B2001F04FFD010061
:10713000062001F0EAFC81E01FFA88F8B8F1000FA0
:1071400005D0002002F054FB05F095F976E004220A
:10715000DFF8DC19684603F09FFC00280BD1012002
:1071600002F046FB01210B2001F030FD010006205A
:1071700001F0CBFC62E00120DFF80C17087038004A
:1071800080B2000ADFF800174872DFF8FC06877249
:10719000404680B2000ADFF8F016C872DFF8E80651
:1071A00080F80C8004226946DFF884793800FEF705
:1071B00069F9300EDFF8D0164871300CDFF8C816C8
:1071C0008871300ADFF8C016C871DFF8BC06067295
:1071D000DFF8B4060574280ADFF8AC16C873280C6B
:1071E000DFF8A4168873280EDFF89C1648735FF04A
:1071F000000909E04FF4805000FB09F010F505206C
:1072000003F079FD19F10109B9F1400FF2D3002D16
:1072100007D02A0092B25FF4052114F10F0003F0A9
:10722000BCFDFFF79DFC012002F0E2FA01210B20DA
:1072300001F0CCFC0100062001F067FCBDE8F387FB
:1072400070B504000D00FEF767FE0600ADB2002D1C
:1072500008D02078FEF750FE2078F6B2B04201D078
:10726000FDF72BFD70BD10B5040089B2002909D0CF
:107270002078C00701D5FDF720FD2078C00601D594
:10728000FEF700FF10BD38B501784278D2B29209FE
:10729000D2B212EB81024178C1F34403817811F03C
:1072A000010400250021E4B2002C05D103258178DA
:1072B000C9B24908C9B207E004258178C9B24908B2
:1072C000C9B2C47811EBC41192B2032A0CD0042ABB
:1072D0002BD0052A14D0062A39D0072A40D0082AF4
:1072E0004AD0432A18D04DE0DBB2012B07D101214F
:1072F000062001F06BFC0100062001F006FC41E0D5
:10730000DBB2012B07D10121072001F05FFC010056
:10731000062001F0FAFB35E0DBB2042B04D189B280
:10732000ADB22844FFF72EFD2CE0DBB2042B05D1D3
:1073300089B2ADB22844FFF71EFC07E0DBB2012B97
:1073400004D189B2ADB22844FFF708FD1AE0DBB2E0
:10735000042B04D189B2ADB22844FFF771FF11E0CC
:10736000DBB2012B07D10121052001F02FFC010028
:10737000062001F0CAFB05E089B2ADB22844FFF750
:1073800072FFFFE731BD2DE9F04FADF57B7D0500C4
:107390000E001700984600245FF0000B5FF0000914
:1073A000002400215FF000095FF0000903E01BEBFF
:1073B000040419F101095FFA89F9B9F1050F0EDA30
:1073C00028790521484328445FFA89F9484490F810
:1073D00005A001215FFA8AFABAF1000F23D1220039
:1073E00092B23900300000F070FD8146A4B2220054
:1073F00069465FFA89F907EB09052800FEF742F8AC
:107400005FFA89F919EB0404220092B23900A4B2A0
:1074100007EB040000F063F8641C200080B20DF557
:107420007B7DBDE8F08F5FFA8AFABAF1000FC0D019
:107430002000424680B292B29042BAD22879052208
:10744000504328445FFA89F948448079002805D0E0
:107450005FFA89F919F10100052800DB0021B8EB7A
:1074600004039BB26846A4B200EB0402C9B2300028
:10747000DFF814CD5FFA8AFA0CEB8A0C5CF804CCC6
:10748000E04783461FFA8BFBBBF1000F05D1DFF805
:10749000FC0CFDF7E5FE0020C1E75FFA8AFABAF1BD
:1074A000010F08D083D3BAF1030F0ED008D3BAF17D
:1074B000040F0FD07BE7DFF8D80CFDF7D1FE76E79D
:1074C000DFF8D00CFDF7CCFE71E7DFF8CC0CFDF750
:1074D000C7FE6CE7DFF8C40CFDF7C2FE67E770B4C7
:1074E00000230024002303E09BB2CD5C6C405B1CB6
:1074F0001D001600ADB2B6B2B542F5D3047001203E
:1075000070BC70472DE9F843894616001F00F41C33
:10751000252501F051F9804601F04CF90021317028
:1075200019F0010151F0C40171704421B1703900AA
:107530002A0089B292B291422AD33021617230215D
:10754000A17298F80110E17298F803102173C179C3
:10755000A173017AE173817B2174C07B6074012087
:1075600020720A21002214F118063000FDF72AFECD
:1075700014F1140114F11200FCF75EFBFAF7C8FED7
:10758000A075FCF767FBE0752000FCF769FB00E0E5
:107590003D00280080B2BDE8F2832DE9FF41884616
:1075A00016001F00741DDFF8F80B03F0A8FD1F255F
:1075B0000120307018F0010050F0C40070703820C5
:1075C000B0700020F070012030713800290080B2C6
:1075D00089B288426AD3FEF740FE0700DFF8C00B8D
:1075E00090F86E00DFF8B81B91F86F1011EB0026D1
:1075F000DFF8AC0B406F002808D16846FCF742FB6F
:10760000002803D06846FEF743FD0700380E2070BF
:10761000380C6070380AA070E7700422DFF8841B11
:1076200014F108073800FDF72DFF0422DFF8781B5E
:10763000271D3800FDF726FF0422DFF8701B14F128
:107640000C073800FDF71EFFDFF8540B90F82A00F6
:10765000DFF84C1B91F8441008182075DFF8400B38
:10766000406F002802D10020207401E00120207426
:107670000222DFF83C1B14F111073800FDF702FF6E
:10768000B6B2FF2E01DCE67401E0FF20E074DFF803
:10769000100B90F87100607514F1180114F11600C8
:1076A000FCF7CAFA0120FFF7ADF900E03D00280021
:1076B00080B204B0BDE8F08138B514000425002084
:1076C0001220207011F0010050F0040060704FF49F
:1076D0001671201D05F09EF945194100A17080B278
:1076E000C009E070280080B232BDF8B5D51C102466
:1076F0001800260080B2B6B2B04228D36248C07AE1
:10770000614B1B7B13EB00261020107011F0010061
:1077100050F0C40050701A209070761C5A480078BF
:1077200028700422DFF808146F1C3800FDF7AAFE49
:10773000300E6871300CA871300AE8712E72042284
:10774000DFF8701A09352800FDF79CFE00E01C00E8
:10775000200080B2F2BD00008C9F0020AEC7002048
:107760009403010870070108F8B50F0015001E000A
:107770001F24DFF8440A03F0C2FC0120287017F030
:10778000010050F0C4006870FEF7FEFE062804DB1E
:107790000520DFF8281A087004E0FEF7F5FEDFF890
:1077A0001C1A0870300080B2A4B2A04268D3DFF87F
:1077B0000C0A0178DFF8080AFFF712F8DFF8FC1965
:1077C0000870DFF8F8090078002801D100205AE09D
:1077D000DFF8E8090078062803DB0520DFF8DC196C
:1077E0000870DFF8D8090078FEF76EFFDFF8CC09E3
:1077F00000781A214843DFF8CC190870DFF8C40973
:107800000078802822DBDFF8BC090078801C40006B
:1078100050F00100A870DFF8AC090078801C80B23D
:10782000C009E87000202871DFF8900900786871BD
:10783000DFF890090078841DDFF888090278DFF806
:107840008019AD1D2800FDF71DFE1AE0DFF8740950
:107850000078801C4000A8700020E870DFF85C0908
:1078600000782871DFF85C090078441DDFF85409BE
:107870000278DFF84C196D1D2800FDF703FE00E0CB
:107880003400200080B2F2BD50C4002068C3002044
:1078900098050108B8050108002080B27047002053
:1078A00080B270473EB5D41C05250120107011F040
:1078B000010050F04400507004209070180029001E
:1078C00080B289B288420BD3684605F043FB0220A0
:1078D0002070BDF806000A2190FBF1F0607000E016
:1078E0001D00280080B23EBD10B51C24D01C0F2303
:1078F000137011F0010151F0440151703221917067
:1079000005F01BF8200080B210BD2DE9FF4188462C
:1079100016001F001B24F51CDFF8AC0803F0EFFB7A
:107920000B20307018F0010050F00400707030200F
:10793000B0702000BFB280B2874257D3FEF78DFCF3
:107940000700DFF8840890F86E00DFF87C1891F8E3
:107950006F1011EB0026DFF87008406F002808D187
:107960006846FCF78FF9002803D06846FEF790FBC5
:107970000700380E2870380C6870380AA870EF704D
:107980000422DFF8481815F108073800FDF77AFDE2
:107990000422DFF83C182F1D3800FDF773FD042288
:1079A000DFF8301815F10C073800FDF76BFDDFF834
:1079B0001808406F002802D10020287401E001203F
:1079C00028740222DFF8101815F111073800FDF7AE
:1079D00059FDB6B2FF2E01DCEE7401E0FF20E87421
:1079E00015F1160115F11400FCF726F9200080B2FC
:1079F00004B0BDE8F081000087C3002089C30020E7
:107A000099C3002038B5140004250120207011F01E
:107A1000010050F0840060700220A070FEF77CFA34
:107A2000E070280080B232BD10B50B241020107019
:107A300011F0010050F00400507010209070D01C24
:107A4000FCF716F9200080B210BD2DE9F04184B09A
:107A5000884616001F001724F51CDFF8800703F086
:107A60004EFB0B20307018F0010050F04400707095
:107A70002820B0703800210080B289B2884240D3FB
:107A8000FEF7EBFB0600684605F064FADFF84C07EA
:107A9000406F002802D102F026FC0600300E28704C
:107AA000300C6870300AA870EE700422DFF83017CE
:107AB00015F108063000FDF7E5FC0422DFF8241775
:107AC0002E1D3000FDF7DEFC0422DFF81C1715F137
:107AD0000C063000FDF7D6FCDFF80007406F0028E9
