:020000040800F2
:1000000038040020C90F0008B50E0008B70E00081C
:10001000B90E0008BB0E0008BD0E0008000000006D
:10002000000000000000000000000000C10E0008F9
:10003000BF0E000800000000C30E0008C50E000837
:10004000C70E0008C90E0008CB0E0008CD0E000830
:10005000CF0E0008D10E0008D30E0008D50E000800
:10006000D70E0008D90E0008DB0E0008DD0E0008D0
:10007000DF0E0008E10E0008E30E0008E50E0008A0
:10008000E70E0008E90E0008EB0E0008ED0E000870
:10009000EF0E0008F10E0008F30E0008F50E000840
:1000A000F70E0008F90E0008FB0E0008FD0E000810
:1000B000FF0E0008010F0008030F0008050F0008DD
:1000C000070F0008090F00080B0F00080D0F0008AC
:1000D0000F0F0008110F0008130F0008150F00087C
:0C00E000170F0008190F00081B0F000884
:0400EC00FFFFFFFF14
:1000F00080B50121142000F029FA01214FF480502D
:1001000000F024FA2020ADF8000003208DF8020052
:1001100018208DF803006946DFF8B00300F046FAB6
:100120008020ADF800006946DFF8A00300F03EFA39
:100130004020ADF8000004208DF803006946DFF888
:100140008C0300F033FA1020ADF8000010208DF879
:1001500003006946DFF8740300F028FA2020ADF8A8
:10016000000010208DF803006946DFF8640300F0FA
:100170001DFA1020ADF8000010208DF8030069462C
:10018000DFF84C0300F012FA2021DFF8440300F0FE
:100190006DFA1021DFF8380300F068FA01BD00B5F0
:1001A00085B0FFF7A5FF1021DFF8200300F05EFA0D
:1001B0000020ADF800004FF48270ADF8020000207E
:1001C000ADF804000220ADF806000120ADF80800EB
:1001D0004FF40070ADF80A002020ADF80C000020AC
:1001E000ADF80E000720ADF810006946B64800F0E3
:1001F00043FA0121B44800F05EFA05B000BD10B525
:10020000040000F03FF91021B04800F032FA20203D
:1002100000F01FF9200CC0B200F01BF9200AC0B298
:1002200000F017F92000C0B200F013F91021A74820
:1002300000F01CFA00F033F910BD70B504000D0099
:10024000160000F01FF91021A04800F012FA022059
:1002500000F0FFF8280CC0B200F0FBF8280AC0B28A
:1002600000F0F7F82800C0B200F0F3F803E02078BF
:1002700000F0EFF8641C3000461E80B20028F6D172
:100280001021924800F0F2F900F009F970BD2DE953
:10029000F04105000C0000275FF000080020002658
:1002A00000272000464292B24FF4807192FBF1F792
:1002B00092B24FF4807192FBF1F301FB1328C0B2AC
:1002C000002821D1FFB2002F10D192B221002800C6
:1002D000FFF7B3FF73E04FF4807221002800FFF7AF
:1002E000ACFF14F580744FF4807005443800471E4D
:1002F000C0B20028EFD15FFA88F8424692B22100DE
:100300002800FFF79AFF5AE0FFB2002F20D13000FB
:100310004146C0B2C9B2884214D2B8EB0607F6B261
:10032000320092B221002800FFF787FFF6B234199D
:10033000F6B23544FFB23A0092B221002800FFF72E
:100340007CFF3CE092B221002800FFF776FF36E008
:10035000F6B2921B92B24FF4807092FBF0F792B219
:100360004FF4807092FBF0F100FB1128F6B23200DE
:1003700092B221002800FFF760FFF6B23419F6B2FE
:1003800035440AE04FF4807221002800FFF755FF42
:1003900014F580744FF4807005443800471EC0B2D5
:1003A0000028EFD15FFA88F8B8F1000F07D05FFAA4
:1003B00088F8424692B221002800FFF73EFFBDE8D0
:1003C000F08170B504000D00160010213F4800F0C8
:1003D00050F9032000F03DF8280CC0B200F039F8C5
:1003E000280AC0B200F035F82800C0B200F031F899
:1003F00004E0A52000F02DF82070641C3000461E9B
:1004000080B20028F5D11021304800F02FF970BDDE
:1004100070B5002000240025002610212B4800F094
:1004200028F99F2000F015F8A52000F012F804002C
:10043000A52000F00EF80500A52000F00AF806003F
:100440001021224800F012F9280250EA04403043FB
:1004500070BD10B5040002211B4800F03EF90028D1
:10046000F9D0E4B2210089B2174800F032F9012135
:10047000154800F032F90028F9D0134800F02BF9A4
:10048000C0B210BD80B51021104800F0F2F806206F
:10049000FFF7DFFF10210D4800F0E8F801BD80B53F
:1004A00000201021094800F0E4F80520FFF7D1FFF3
:1004B000A520FFF7CEFFC0B2C007F9D41021034832
:1004C00000F0D4F801BD00000030014000080140F8
:1004D00000100140DFF8B400006850F00100DFF8C0
:1004E000AC100860DFF8A8000068DFF8A81008402A
:1004F000DFF89C100860DFF894000068DFF89810BF
:100500000840DFF888100860DFF88000006830F4E9
:100510008020DFF878100860DFF87400006830F49D
:10052000FE00DFF86C100860DFF86000006830F053
:10053000A050DFF8581008605FF47F00DFF85C100F
:1005400008600020DFF8581008607047C9B2002921
:1005500005D01449096808431249086005E01149AB
:10056000096831EA00000F4908607047C9B20029E4
:1005700005D00D49096808430B49086005E00A49A0
:10058000096831EA0000084908607047001002401D
:10059000041002400000FFF0FFFFF6FE08100240CA
:1005A0002C100240181002401C10024070B40022AF
:1005B00000250023002600240025CA7812F00F022F
:1005C000CB78DB0601D58B781A430B781B0621D03C
:1005D0000468002306E0CD78482D02D101259D4016
:1005E00005615B1C082B14D2012515FA03F60D8852
:1005F0003540B542F5D19E000F25B540AC4312FA07
:1006000006F52C43CD78282DE5D101259D40456187
:10061000E7E704600B88FF2B26DD4468002320E019
:10062000012513F1080615FA06F60D883540B54286
:1006300016D19E000F25B540AC4312FA06F52C43A7
:10064000CD78282D04D1012513F10806B540456168
:10065000CD78482D04D1012513F10806B540056178
:100660005B1C082BDCD3446070BC704789B201610D
:10067000704789B24161704710B40022028812F4B9
:1006800041520B884C8823438C882343CC882343D6
:100690000C8923434C8923438C892343CC892343EE
:1006A0001A430280828B4FF2FF731A408283098AB9
:1006B000018210BC7047C9B2002904D0018851F0F2
:1006C0004001018004E001884FF6BF7211400180B3
:1006D00070478181704780897047002200890842F5
:1006E00001D0012200E000221000C0B270470103D7
:1006F000DFF81403DFF814130860DFF81403DFF8E1
:100700000C130860704710B5040004205FF430201B
:1007100000F098F9C0B204281FD1DFF8F802006891
:1007200050F00200DFF8EC120860DFF8EC02046021
:10073000DFF8E002006850F04000DFF8D8120860EF
:100740005FF4302000F07EF9DFF8C812096841F646
:10075000FD721140DFF8BC221160C0B210BD10B5AF
:10076000A524042000F02EF9002800D000245FF416
:10077000302000F067F9C0B2042851D1DFF88802B8
:10078000DFF898120860DFF88802DFF8901208603E
:10079000DFF88002006850F02000DFF8781208606F
:1007A000DFF87002006850F04000DFF8681208605F
:1007B0005FF4302000F046F9C0B2042824D1DFF8FD
:1007C0005402006841F6DF710840DFF84812086003
:1007D000DFF84002006850F01000DFF838120860BF
:1007E000DFF83C0204804FF4005000F02BF9C0B257
:1007F000052815D0DFF81C12096841F6EF72114088
:10080000DFF8102211600BE0C0B2052808D0DFF835
:100810000412096841F6EF721140DFF8F821116007
:10082000C0B210BD38B505000C00042000200090B7
:100830004FF4005000F006F9C0B204282BD1DFF8C5
:10084000D401006850F00100DFF8C81108602C8066
:100850004FF4005000F0F6F8C0B2042812D1A81CE2
:100860000090200C009908804FF4005000F0EAF846
:10087000DFF8A011096841F6FE721140DFF89421FB
:10088000116008E0DFF88C11096841F6FE72114032
:10089000DFF880211160C0B232BDF8B501004FF61B
:1008A000FF744FF6FF754FF6FF764FF6FF77042083
:1008B000C94311F0FF04C1F30725080C00F0FF063F
:1008C0000F0E4FF4005000F0BDF8C0B2042842D122
:1008D0004D49524A11604E49504A11604D490968CC
:1008E00051F010014B4A1160A4B2FF2C05D04D48C5
:1008F00004804FF4005000F0A5F8C0B2042808D1DD
:10090000ADB2FF2D05D0484805804FF4005000F0EF
:1009100099F8C0B2042808D1B6B2FF2E05D04348DA
:1009200006804FF4005000F08DF8C0B2042808D1C2
:10093000BFB2FF2F05D03E4807804FF4005000F0B3
:1009400081F8C0B2052806D03249096841F6EF7235
:100950001140304A1160C0B2F2BD70B504000D0004
:100960001600042028482D49086029482B490860B2
:100970004FF4005000F066F8C0B2042819D12548A1
:10098000006850F010002349086056F0F800284332
:100990002043284908804FF4005000F053F8C0B2BB
:1009A000052806D01B49096841F6EF721140194A23
:1009B0001160C0B270BD20480068800870471F48B1
:1009C0000068704700201C480068800701D501209E
:1009D00000E00020C0B27047042019480068C0073A
:1009E00001D501200CE016480068400701D502201F
:1009F00006E013480068C00601D5032000E004208B
:100A0000C0B2704700000000230167450420024087
:100A1000AB89EFCD10200240142002400820024094
:100A200000F8FF1F08F8FF1F0AF8FF1F0CF8FF1F50
:100A30000EF8FF1F02F8FF1F1C200240202002407A
:100A40000C20024010B504000420FFF7C5FF02E0AF
:100A5000FFF7C2FF641EC0B2012801D1002CF7D1FC
:100A6000002C00D10520C0B210BD000080B57D482B
:100A700000687D490840B0F1005F0ED17B480068F6
:100A80007B4908607A4800687A49086075480068C0
:100A900000F02EF977480068804701BD80B57648A0
:100AA000006810F17840000B744908600120734918
:100AB00009688840401EC04371490860FFF77FFF06
:100AC0006F49096808406E490968884203D00120CF
:100AD0006C49086002E000206A49086001BD80B5E9
:100AE000FFF706FE7C20684908600020674908601F
:100AF00010E06148006866490988644A126802FB90
:100B00000100FFF700FE6349087060480068401C60
:100B10005E4908605D4800685B490968884203D205
:100B20005C4800780428E4D001BD80B55A480088AC
:100B3000ADF800005948FFF762FB022257496846AA
:100B4000FFF7A5FB01BD70B582B05FF405245648E0
:100B5000407955498979090411EB00605249C979F6
:100B600010EB01205049097A0D184D48854200D3F9
:100B70004B4D3C4840490860002610E0042221000B
:100B80006846FFF71EFC00993B480068FFF74AFEE5
:100B9000241D39480068001D37490860361D364855
:100BA000006805F1006111F50051884204D2324815
:100BB00000683C498842E1D35FF40420FFF71FFB43
:100BC000FFF7B3FF73BD2DE9F0415FF00008002788
:100BD0000124022504260127FFF7F1FE070028481B
:100BE0000068384026490968884238D0FFF7E3FE9C
:100BF000804623480068384321490860FFF7AFFD6D
:100C000007001F48006810F1010F05D01C4800685C
:100C1000C043FFF742FE070018F00700072813D073
:100C20005FEAC87000D400245FEA887000D4002511
:100C30005FEA487000D40026320092B2290089B2DF
:100C4000200080B2FFF789FEFFB2042F07D10121F7
:100C50004FF40060FFF78AFC4F2000F05FF8BDE81A
:100C6000F0810000002000080000FF2F0420000891
:100C70000800002004000020000000200C000020DC
:100C800010000020140000201C000020180000208C
:100C90003400002036000020EE060008007010002E
:100CA000E0FF0300FFFF03082000002030BF704773
:100CB00020BF704740BF7047BFF36F8F7047BFF3CF
:100CC0004F8F7047BFF35F8F704701DF7047EFF3BF
:100CD0001480704780F31488BFF36F8F7047EFF371
:100CE0000980704780F309887047EFF308807047E8
:100CF00080F30888704772B6704762B6704771B665
:100D0000704761B6704780F311887047EFF3128027
:100D1000704740BA704700BA70470000C0B250F048
:100D20008000014908607047002C004080B5FFF743
:100D300036FAFFF76DFB5849884202D1FFF796FE5D
:100D400001E0FFF793FE00F00FF8FFF7A7FE53480E
:100D50000068012801D1FFF736FFFFF7C0FEFFF75B
:100D6000F2FEFFF783FEF2E700B583B000200190AA
:100D700000200090FFF7AEFB4948006850F4803037
:100D8000474908604648006810F400300090019818
:100D9000401C01900098002803D10198B0F5A06F85
:100DA000F0D13F480068800302D50120009001E0A7
:100DB00000200090009801285FD13A48006850F068
:100DC00010003849086037480068800880003549BD
:100DD00008603448006850F0020032490860324828
:100DE000006831490860304800682F4908602E4883
:100DF000006850F480602C4908602C4800682C4939
:100E000008402A4908602948006840F4843050F0BE
:100E10003400264908602248006850F0806020496C
:100E200008601F4800680001FBD51F48006830F4C7
:100E30007C101D4908601C48006850F410201A49B5
:100E400008601748006850F0807015490860144821
:100E500000688001FBD514480068800880001249B2
:100E600008601148006850F002000F4908600E4801
:100E7000006810F00C000828F9D101213C20FFF790
:100E800065FB01215FF40030FFF770FB01214FF497
:100E90008040FFF76BFB07BD1640C8001400002020
:100EA0000010024000200240041002402C100240BA
:100EB00000F0FEFF7047FEE7FEE7FEE7FEE7704743
:100EC000704770477047704770477047704770476A
:100ED000704770477047704770477047704770475A
:100EE000704770477047704770477047704770474A
:100EF000704770477047704770477047704770473A
:100F00007047704770477047704770477047704729
:100F100070477047704770477047704730B5016839
:100F200042688468014401EB5203D20748BF4C4435
:100F3000994201D10C3030BD11F9012B11F8015B40
:100F4000002A04F8015B02D5521CF9D1F0E7521EC9
:100F5000F4D5EDE710B5074979441831064C7C44C7
:100F6000163404E00A68081D114488470146A1426E
:100F7000F8D110BD0800000014000000A1FFFFFF21
:100F800054000000140000000000002000F00BF8E6
:100F9000002801D0FFF7DEFF0020AFF30080FFF74D
:100FA000C5FE00F002F80120704700F001B8000013
:100FB0000746384600F002F8FBE70000202109034D
:100FC00026311820ABBEF9E7AFF30080AFF3008005
:0E0FD000FFF7DCFF0300200008CF000108043B
:100FDE00FFFFFFFFFFFFFFFFFFFFFFFFFFFFFFFF13
:100FEE00FFFFFFFFFFFFFFFFFFFFFFFFFFFFFFFF03
:100FFE00FFFFFFFFFFFFFFFFFFFFFFFFFFFFFFFFF3
:10100E00FFFFFFFFFFFFFFFFFFFFFFFFFFFFFFFFE2
:021FFE00FFFFE3
:0400000508000FC917
:00000001FF
